{
	"contracts/1.TradeAgreement.sol": {
		"TradeAgreement": {
			"abi": [
				{
					"inputs": [],
					"stateMutability": "nonpayable",
					"type": "constructor"
				},
				{
					"anonymous": false,
					"inputs": [
						{
							"indexed": true,
							"internalType": "address",
							"name": "buyer",
							"type": "address"
						}
					],
					"name": "BuyerAccepted",
					"type": "event"
				},
				{
					"anonymous": false,
					"inputs": [
						{
							"indexed": true,
							"internalType": "address",
							"name": "seller",
							"type": "address"
						}
					],
					"name": "SellerAccepted",
					"type": "event"
				},
				{
					"anonymous": false,
					"inputs": [
						{
							"indexed": true,
							"internalType": "address",
							"name": "seller",
							"type": "address"
						},
						{
							"indexed": true,
							"internalType": "address",
							"name": "buyer",
							"type": "address"
						}
					],
					"name": "TradeCompeleted",
					"type": "event"
				},
				{
					"anonymous": false,
					"inputs": [
						{
							"indexed": true,
							"internalType": "address",
							"name": "seller",
							"type": "address"
						},
						{
							"indexed": true,
							"internalType": "address",
							"name": "buyer",
							"type": "address"
						},
						{
							"indexed": false,
							"internalType": "uint256",
							"name": "amount",
							"type": "uint256"
						},
						{
							"indexed": false,
							"internalType": "string",
							"name": "item",
							"type": "string"
						}
					],
					"name": "TradeCreated",
					"type": "event"
				},
				{
					"inputs": [],
					"name": "acceptTradeAsSeller",
					"outputs": [],
					"stateMutability": "nonpayable",
					"type": "function"
				},
				{
					"inputs": [],
					"name": "amount",
					"outputs": [
						{
							"internalType": "uint256",
							"name": "",
							"type": "uint256"
						}
					],
					"stateMutability": "view",
					"type": "function"
				},
				{
					"inputs": [],
					"name": "buyer",
					"outputs": [
						{
							"internalType": "address",
							"name": "",
							"type": "address"
						}
					],
					"stateMutability": "view",
					"type": "function"
				},
				{
					"inputs": [],
					"name": "buyerAccepted",
					"outputs": [
						{
							"internalType": "bool",
							"name": "",
							"type": "bool"
						}
					],
					"stateMutability": "view",
					"type": "function"
				},
				{
					"inputs": [],
					"name": "deposit",
					"outputs": [],
					"stateMutability": "payable",
					"type": "function"
				},
				{
					"inputs": [
						{
							"internalType": "address",
							"name": "_userAddress",
							"type": "address"
						}
					],
					"name": "getAddressOwner",
					"outputs": [
						{
							"internalType": "bool",
							"name": "",
							"type": "bool"
						}
					],
					"stateMutability": "view",
					"type": "function"
				},
				{
					"inputs": [],
					"name": "getTradeStatus",
					"outputs": [
						{
							"internalType": "bool",
							"name": "",
							"type": "bool"
						}
					],
					"stateMutability": "view",
					"type": "function"
				},
				{
					"inputs": [
						{
							"internalType": "string",
							"name": "_item",
							"type": "string"
						},
						{
							"internalType": "uint256",
							"name": "_amount",
							"type": "uint256"
						}
					],
					"name": "iWantToBuy",
					"outputs": [],
					"stateMutability": "nonpayable",
					"type": "function"
				},
				{
					"inputs": [],
					"name": "item",
					"outputs": [
						{
							"internalType": "string",
							"name": "",
							"type": "string"
						}
					],
					"stateMutability": "view",
					"type": "function"
				},
				{
					"inputs": [],
					"name": "owner",
					"outputs": [
						{
							"internalType": "address",
							"name": "",
							"type": "address"
						}
					],
					"stateMutability": "view",
					"type": "function"
				},
				{
					"inputs": [],
					"name": "seller",
					"outputs": [
						{
							"internalType": "address",
							"name": "",
							"type": "address"
						}
					],
					"stateMutability": "view",
					"type": "function"
				},
				{
					"inputs": [],
					"name": "sellerAccepted",
					"outputs": [
						{
							"internalType": "bool",
							"name": "",
							"type": "bool"
						}
					],
					"stateMutability": "view",
					"type": "function"
				},
				{
					"inputs": [],
					"name": "tradeCompeleted",
					"outputs": [
						{
							"internalType": "bool",
							"name": "",
							"type": "bool"
						}
					],
					"stateMutability": "view",
					"type": "function"
				}
			],
			"devdoc": {
				"kind": "dev",
				"methods": {},
				"version": 1
			},
			"evm": {
				"assembly": "    /* \"contracts/1.TradeAgreement.sol\":61:2324  contract TradeAgreement{... */\n  mstore(0x40, 0x80)\n    /* \"contracts/1.TradeAgreement.sol\":602:838  constructor(){... */\n  callvalue\n  dup1\n  iszero\n  tag_1\n  jumpi\n  0x00\n  dup1\n  revert\ntag_1:\n  pop\n    /* \"contracts/1.TradeAgreement.sol\":634:644  msg.sender */\n  caller\n    /* \"contracts/1.TradeAgreement.sol\":626:631  owner */\n  0x04\n  0x03\n    /* \"contracts/1.TradeAgreement.sol\":626:644  owner = msg.sender */\n  0x0100\n  exp\n  dup2\n  sload\n  dup2\n  0xffffffffffffffffffffffffffffffffffffffff\n  mul\n  not\n  and\n  swap1\n  dup4\n  0xffffffffffffffffffffffffffffffffffffffff\n  and\n  mul\n  or\n  swap1\n  sstore\n  pop\n    /* \"contracts/1.TradeAgreement.sol\":664:674  msg.sender */\n  caller\n    /* \"contracts/1.TradeAgreement.sol\":655:661  seller */\n  0x00\n  dup1\n    /* \"contracts/1.TradeAgreement.sol\":655:674  seller = msg.sender */\n  0x0100\n  exp\n  dup2\n  sload\n  dup2\n  0xffffffffffffffffffffffffffffffffffffffff\n  mul\n  not\n  and\n  swap1\n  dup4\n  0xffffffffffffffffffffffffffffffffffffffff\n  and\n  mul\n  or\n  swap1\n  sstore\n  pop\n    /* \"contracts/1.TradeAgreement.sol\":701:706  false */\n  0x00\n    /* \"contracts/1.TradeAgreement.sol\":685:698  buyerAccepted */\n  0x04\n  0x00\n    /* \"contracts/1.TradeAgreement.sol\":685:706  buyerAccepted = false */\n  0x0100\n  exp\n  dup2\n  sload\n  dup2\n  0xff\n  mul\n  not\n  and\n  swap1\n  dup4\n  iszero\n  iszero\n  mul\n  or\n  swap1\n  sstore\n  pop\n    /* \"contracts/1.TradeAgreement.sol\":734:739  false */\n  0x00\n    /* \"contracts/1.TradeAgreement.sol\":717:731  sellerAccepted */\n  0x04\n  0x01\n    /* \"contracts/1.TradeAgreement.sol\":717:739  sellerAccepted = false */\n  0x0100\n  exp\n  dup2\n  sload\n  dup2\n  0xff\n  mul\n  not\n  and\n  swap1\n  dup4\n  iszero\n  iszero\n  mul\n  or\n  swap1\n  sstore\n  pop\n    /* \"contracts/1.TradeAgreement.sol\":768:773  false */\n  0x00\n    /* \"contracts/1.TradeAgreement.sol\":750:765  tradeCompeleted */\n  0x04\n  0x02\n    /* \"contracts/1.TradeAgreement.sol\":750:773  tradeCompeleted = false */\n  0x0100\n  exp\n  dup2\n  sload\n  dup2\n  0xff\n  mul\n  not\n  and\n  swap1\n  dup4\n  iszero\n  iszero\n  mul\n  or\n  swap1\n  sstore\n  pop\n    /* \"contracts/1.TradeAgreement.sol\":810:815  buyer */\n  0x01\n  0x00\n  swap1\n  sload\n  swap1\n  0x0100\n  exp\n  swap1\n  div\n  0xffffffffffffffffffffffffffffffffffffffff\n  and\n    /* \"contracts/1.TradeAgreement.sol\":789:830  TradeCreated(seller, buyer, amount, item) */\n  0xffffffffffffffffffffffffffffffffffffffff\n  and\n    /* \"contracts/1.TradeAgreement.sol\":802:808  seller */\n  0x00\n  dup1\n  sload\n  swap1\n  0x0100\n  exp\n  swap1\n  div\n  0xffffffffffffffffffffffffffffffffffffffff\n  and\n    /* \"contracts/1.TradeAgreement.sol\":789:830  TradeCreated(seller, buyer, amount, item) */\n  0xffffffffffffffffffffffffffffffffffffffff\n  and\n  0xe18cb9b802d94b2dc5101f171d56bdd0ae763a50968fea4dc809c284e51be997\n    /* \"contracts/1.TradeAgreement.sol\":817:823  amount */\n  sload(0x02)\n    /* \"contracts/1.TradeAgreement.sol\":825:829  item */\n  0x03\n    /* \"contracts/1.TradeAgreement.sol\":789:830  TradeCreated(seller, buyer, amount, item) */\n  mload(0x40)\n  tag_4\n  swap3\n  swap2\n  swap1\n  tag_5\n  jump\t// in\ntag_4:\n  mload(0x40)\n  dup1\n  swap2\n  sub\n  swap1\n  log3\n    /* \"contracts/1.TradeAgreement.sol\":61:2324  contract TradeAgreement{... */\n  jump(tag_6)\n    /* \"#utility.yul\":7:84   */\ntag_7:\n    /* \"#utility.yul\":44:51   */\n  0x00\n    /* \"#utility.yul\":73:78   */\n  dup2\n    /* \"#utility.yul\":62:78   */\n  swap1\n  pop\n    /* \"#utility.yul\":7:84   */\n  swap2\n  swap1\n  pop\n  jump\t// out\n    /* \"#utility.yul\":90:208   */\ntag_8:\n    /* \"#utility.yul\":177:201   */\n  tag_17\n    /* \"#utility.yul\":195:200   */\n  dup2\n    /* \"#utility.yul\":177:201   */\n  tag_7\n  jump\t// in\ntag_17:\n    /* \"#utility.yul\":172:175   */\n  dup3\n    /* \"#utility.yul\":165:202   */\n  mstore\n    /* \"#utility.yul\":90:208   */\n  pop\n  pop\n  jump\t// out\n    /* \"#utility.yul\":214:394   */\ntag_9:\n    /* \"#utility.yul\":262:339   */\n  0x4e487b7100000000000000000000000000000000000000000000000000000000\n    /* \"#utility.yul\":259:260   */\n  0x00\n    /* \"#utility.yul\":252:340   */\n  mstore\n    /* \"#utility.yul\":359:363   */\n  0x22\n    /* \"#utility.yul\":356:357   */\n  0x04\n    /* \"#utility.yul\":349:364   */\n  mstore\n    /* \"#utility.yul\":383:387   */\n  0x24\n    /* \"#utility.yul\":380:381   */\n  0x00\n    /* \"#utility.yul\":373:388   */\n  revert\n    /* \"#utility.yul\":400:720   */\ntag_10:\n    /* \"#utility.yul\":444:450   */\n  0x00\n    /* \"#utility.yul\":481:482   */\n  0x02\n    /* \"#utility.yul\":475:479   */\n  dup3\n    /* \"#utility.yul\":471:483   */\n  div\n    /* \"#utility.yul\":461:483   */\n  swap1\n  pop\n    /* \"#utility.yul\":528:529   */\n  0x01\n    /* \"#utility.yul\":522:526   */\n  dup3\n    /* \"#utility.yul\":518:530   */\n  and\n    /* \"#utility.yul\":549:567   */\n  dup1\n    /* \"#utility.yul\":539:620   */\n  tag_20\n  jumpi\n    /* \"#utility.yul\":605:609   */\n  0x7f\n    /* \"#utility.yul\":597:603   */\n  dup3\n    /* \"#utility.yul\":593:610   */\n  and\n    /* \"#utility.yul\":583:610   */\n  swap2\n  pop\n    /* \"#utility.yul\":539:620   */\ntag_20:\n    /* \"#utility.yul\":667:669   */\n  0x20\n    /* \"#utility.yul\":659:665   */\n  dup3\n    /* \"#utility.yul\":656:670   */\n  lt\n    /* \"#utility.yul\":636:654   */\n  dup2\n    /* \"#utility.yul\":633:671   */\n  sub\n    /* \"#utility.yul\":630:714   */\n  tag_21\n  jumpi\n    /* \"#utility.yul\":686:704   */\n  tag_22\n  tag_9\n  jump\t// in\ntag_22:\n    /* \"#utility.yul\":630:714   */\ntag_21:\n    /* \"#utility.yul\":451:720   */\n  pop\n    /* \"#utility.yul\":400:720   */\n  swap2\n  swap1\n  pop\n  jump\t// out\n    /* \"#utility.yul\":726:895   */\ntag_11:\n    /* \"#utility.yul\":810:821   */\n  0x00\n    /* \"#utility.yul\":844:850   */\n  dup3\n    /* \"#utility.yul\":839:842   */\n  dup3\n    /* \"#utility.yul\":832:851   */\n  mstore\n    /* \"#utility.yul\":884:888   */\n  0x20\n    /* \"#utility.yul\":879:882   */\n  dup3\n    /* \"#utility.yul\":875:889   */\n  add\n    /* \"#utility.yul\":860:889   */\n  swap1\n  pop\n    /* \"#utility.yul\":726:895   */\n  swap3\n  swap2\n  pop\n  pop\n  jump\t// out\n    /* \"#utility.yul\":901:1042   */\ntag_12:\n    /* \"#utility.yul\":950:954   */\n  0x00\n    /* \"#utility.yul\":973:976   */\n  dup2\n    /* \"#utility.yul\":965:976   */\n  swap1\n  pop\n    /* \"#utility.yul\":996:999   */\n  dup2\n    /* \"#utility.yul\":993:994   */\n  0x00\n    /* \"#utility.yul\":986:1000   */\n  mstore\n    /* \"#utility.yul\":1030:1034   */\n  0x20\n    /* \"#utility.yul\":1027:1028   */\n  0x00\n    /* \"#utility.yul\":1017:1035   */\n  keccak256\n    /* \"#utility.yul\":1009:1035   */\n  swap1\n  pop\n    /* \"#utility.yul\":901:1042   */\n  swap2\n  swap1\n  pop\n  jump\t// out\n    /* \"#utility.yul\":1072:1903   */\ntag_13:\n    /* \"#utility.yul\":1157:1160   */\n  0x00\n    /* \"#utility.yul\":1194:1199   */\n  dup2\n    /* \"#utility.yul\":1188:1200   */\n  sload\n    /* \"#utility.yul\":1223:1259   */\n  tag_26\n    /* \"#utility.yul\":1249:1258   */\n  dup2\n    /* \"#utility.yul\":1223:1259   */\n  tag_10\n  jump\t// in\ntag_26:\n    /* \"#utility.yul\":1275:1346   */\n  tag_27\n    /* \"#utility.yul\":1339:1345   */\n  dup2\n    /* \"#utility.yul\":1334:1337   */\n  dup7\n    /* \"#utility.yul\":1275:1346   */\n  tag_11\n  jump\t// in\ntag_27:\n    /* \"#utility.yul\":1268:1346   */\n  swap5\n  pop\n    /* \"#utility.yul\":1377:1378   */\n  0x01\n    /* \"#utility.yul\":1366:1375   */\n  dup3\n    /* \"#utility.yul\":1362:1379   */\n  and\n    /* \"#utility.yul\":1393:1394   */\n  0x00\n    /* \"#utility.yul\":1388:1552   */\n  dup2\n  eq\n  tag_29\n  jumpi\n    /* \"#utility.yul\":1566:1567   */\n  0x01\n    /* \"#utility.yul\":1561:1897   */\n  dup2\n  eq\n  tag_30\n  jumpi\n    /* \"#utility.yul\":1355:1897   */\n  jump(tag_28)\n    /* \"#utility.yul\":1388:1552   */\ntag_29:\n    /* \"#utility.yul\":1472:1476   */\n  0xff\n    /* \"#utility.yul\":1468:1477   */\n  not\n    /* \"#utility.yul\":1457:1466   */\n  dup4\n    /* \"#utility.yul\":1453:1478   */\n  and\n    /* \"#utility.yul\":1448:1451   */\n  dup7\n    /* \"#utility.yul\":1441:1479   */\n  mstore\n    /* \"#utility.yul\":1532:1538   */\n  dup2\n    /* \"#utility.yul\":1525:1539   */\n  iszero\n    /* \"#utility.yul\":1518:1540   */\n  iszero\n    /* \"#utility.yul\":1512:1516   */\n  0x20\n    /* \"#utility.yul\":1508:1541   */\n  mul\n    /* \"#utility.yul\":1503:1506   */\n  dup7\n    /* \"#utility.yul\":1499:1542   */\n  add\n    /* \"#utility.yul\":1492:1542   */\n  swap4\n  pop\n    /* \"#utility.yul\":1388:1552   */\n  jump(tag_28)\n    /* \"#utility.yul\":1561:1897   */\ntag_30:\n    /* \"#utility.yul\":1628:1666   */\n  tag_31\n    /* \"#utility.yul\":1660:1665   */\n  dup6\n    /* \"#utility.yul\":1628:1666   */\n  tag_12\n  jump\t// in\ntag_31:\n    /* \"#utility.yul\":1688:1689   */\n  0x00\n    /* \"#utility.yul\":1702:1856   */\ntag_32:\n    /* \"#utility.yul\":1716:1722   */\n  dup4\n    /* \"#utility.yul\":1713:1714   */\n  dup2\n    /* \"#utility.yul\":1710:1723   */\n  lt\n    /* \"#utility.yul\":1702:1856   */\n  iszero\n  tag_34\n  jumpi\n    /* \"#utility.yul\":1790:1797   */\n  dup2\n    /* \"#utility.yul\":1784:1798   */\n  sload\n    /* \"#utility.yul\":1780:1781   */\n  dup2\n    /* \"#utility.yul\":1775:1778   */\n  dup10\n    /* \"#utility.yul\":1771:1782   */\n  add\n    /* \"#utility.yul\":1764:1799   */\n  mstore\n    /* \"#utility.yul\":1840:1841   */\n  0x01\n    /* \"#utility.yul\":1831:1838   */\n  dup3\n    /* \"#utility.yul\":1827:1842   */\n  add\n    /* \"#utility.yul\":1816:1842   */\n  swap2\n  pop\n    /* \"#utility.yul\":1738:1742   */\n  0x20\n    /* \"#utility.yul\":1735:1736   */\n  dup2\n    /* \"#utility.yul\":1731:1743   */\n  add\n    /* \"#utility.yul\":1726:1743   */\n  swap1\n  pop\n    /* \"#utility.yul\":1702:1856   */\n  jump(tag_32)\ntag_34:\n    /* \"#utility.yul\":1885:1886   */\n  dup1\n    /* \"#utility.yul\":1880:1883   */\n  dup9\n    /* \"#utility.yul\":1876:1887   */\n  add\n    /* \"#utility.yul\":1869:1887   */\n  swap6\n  pop\n    /* \"#utility.yul\":1568:1897   */\n  pop\n  pop\n    /* \"#utility.yul\":1355:1897   */\ntag_28:\n  pop\n    /* \"#utility.yul\":1161:1903   */\n  pop\n  pop\n    /* \"#utility.yul\":1072:1903   */\n  swap3\n  swap2\n  pop\n  pop\n  jump\t// out\n    /* \"#utility.yul\":1909:2326   */\ntag_5:\n    /* \"#utility.yul\":2047:2051   */\n  0x00\n    /* \"#utility.yul\":2085:2087   */\n  0x40\n    /* \"#utility.yul\":2074:2083   */\n  dup3\n    /* \"#utility.yul\":2070:2088   */\n  add\n    /* \"#utility.yul\":2062:2088   */\n  swap1\n  pop\n    /* \"#utility.yul\":2098:2169   */\n  tag_36\n    /* \"#utility.yul\":2166:2167   */\n  0x00\n    /* \"#utility.yul\":2155:2164   */\n  dup4\n    /* \"#utility.yul\":2151:2168   */\n  add\n    /* \"#utility.yul\":2142:2148   */\n  dup6\n    /* \"#utility.yul\":2098:2169   */\n  tag_8\n  jump\t// in\ntag_36:\n    /* \"#utility.yul\":2216:2225   */\n  dup2\n    /* \"#utility.yul\":2210:2214   */\n  dup2\n    /* \"#utility.yul\":2206:2226   */\n  sub\n    /* \"#utility.yul\":2201:2203   */\n  0x20\n    /* \"#utility.yul\":2190:2199   */\n  dup4\n    /* \"#utility.yul\":2186:2204   */\n  add\n    /* \"#utility.yul\":2179:2227   */\n  mstore\n    /* \"#utility.yul\":2244:2319   */\n  tag_37\n    /* \"#utility.yul\":2314:2318   */\n  dup2\n    /* \"#utility.yul\":2305:2311   */\n  dup5\n    /* \"#utility.yul\":2244:2319   */\n  tag_13\n  jump\t// in\ntag_37:\n    /* \"#utility.yul\":2236:2319   */\n  swap1\n  pop\n    /* \"#utility.yul\":1909:2326   */\n  swap4\n  swap3\n  pop\n  pop\n  pop\n  jump\t// out\n    /* \"contracts/1.TradeAgreement.sol\":61:2324  contract TradeAgreement{... */\ntag_6:\n  dataSize(sub_0)\n  dup1\n  dataOffset(sub_0)\n  0x00\n  codecopy\n  0x00\n  return\nstop\n\nsub_0: assembly {\n        /* \"contracts/1.TradeAgreement.sol\":61:2324  contract TradeAgreement{... */\n      mstore(0x40, 0x80)\n      jumpi(tag_1, lt(calldatasize, 0x04))\n      shr(0xe0, calldataload(0x00))\n      dup1\n      0x7150d8ae\n      gt\n      tag_15\n      jumpi\n      dup1\n      0xa795c2ce\n      gt\n      tag_16\n      jumpi\n      dup1\n      0xa795c2ce\n      eq\n      tag_11\n      jumpi\n      dup1\n      0xaa8c217c\n      eq\n      tag_12\n      jumpi\n      dup1\n      0xd0e30db0\n      eq\n      tag_13\n      jumpi\n      dup1\n      0xf2a4a82e\n      eq\n      tag_14\n      jumpi\n      jump(tag_1)\n    tag_16:\n      dup1\n      0x7150d8ae\n      eq\n      tag_8\n      jumpi\n      dup1\n      0x783db809\n      eq\n      tag_9\n      jumpi\n      dup1\n      0x8da5cb5b\n      eq\n      tag_10\n      jumpi\n      jump(tag_1)\n    tag_15:\n      dup1\n      0x039e3e05\n      eq\n      tag_2\n      jumpi\n      dup1\n      0x08551a53\n      eq\n      tag_3\n      jumpi\n      dup1\n      0x1a3db582\n      eq\n      tag_4\n      jumpi\n      dup1\n      0x2312fff7\n      eq\n      tag_5\n      jumpi\n      dup1\n      0x61b60f6b\n      eq\n      tag_6\n      jumpi\n      dup1\n      0x696613a2\n      eq\n      tag_7\n      jumpi\n    tag_1:\n      0x00\n      dup1\n      revert\n        /* \"contracts/1.TradeAgreement.sol\":1381:1533  function acceptTradeAsSeller() public onlySeller{... */\n    tag_2:\n      callvalue\n      dup1\n      iszero\n      tag_17\n      jumpi\n      0x00\n      dup1\n      revert\n    tag_17:\n      pop\n      tag_18\n      tag_19\n      jump\t// in\n    tag_18:\n      stop\n        /* \"contracts/1.TradeAgreement.sol\":91:112  address public seller */\n    tag_3:\n      callvalue\n      dup1\n      iszero\n      tag_20\n      jumpi\n      0x00\n      dup1\n      revert\n    tag_20:\n      pop\n      tag_21\n      tag_22\n      jump\t// in\n    tag_21:\n      mload(0x40)\n      tag_23\n      swap2\n      swap1\n      tag_24\n      jump\t// in\n    tag_23:\n      mload(0x40)\n      dup1\n      swap2\n      sub\n      swap1\n      return\n        /* \"contracts/1.TradeAgreement.sol\":2023:2115  function getTradeStatus() public view returns(bool){... */\n    tag_4:\n      callvalue\n      dup1\n      iszero\n      tag_25\n      jumpi\n      0x00\n      dup1\n      revert\n    tag_25:\n      pop\n      tag_26\n      tag_27\n      jump\t// in\n    tag_26:\n      mload(0x40)\n      tag_28\n      swap2\n      swap1\n      tag_29\n      jump\t// in\n    tag_28:\n      mload(0x40)\n      dup1\n      swap2\n      sub\n      swap1\n      return\n        /* \"contracts/1.TradeAgreement.sol\":199:224  bool public buyerAccepted */\n    tag_5:\n      callvalue\n      dup1\n      iszero\n      tag_30\n      jumpi\n      0x00\n      dup1\n      revert\n    tag_30:\n      pop\n      tag_31\n      tag_32\n      jump\t// in\n    tag_31:\n      mload(0x40)\n      tag_33\n      swap2\n      swap1\n      tag_29\n      jump\t// in\n    tag_33:\n      mload(0x40)\n      dup1\n      swap2\n      sub\n      swap1\n      return\n        /* \"contracts/1.TradeAgreement.sol\":231:257  bool public sellerAccepted */\n    tag_6:\n      callvalue\n      dup1\n      iszero\n      tag_34\n      jumpi\n      0x00\n      dup1\n      revert\n    tag_34:\n      pop\n      tag_35\n      tag_36\n      jump\t// in\n    tag_35:\n      mload(0x40)\n      tag_37\n      swap2\n      swap1\n      tag_29\n      jump\t// in\n    tag_37:\n      mload(0x40)\n      dup1\n      swap2\n      sub\n      swap1\n      return\n        /* \"contracts/1.TradeAgreement.sol\":1097:1373  function iWantToBuy(string memory _item, uint256 _amount) public{... */\n    tag_7:\n      callvalue\n      dup1\n      iszero\n      tag_38\n      jumpi\n      0x00\n      dup1\n      revert\n    tag_38:\n      pop\n      tag_39\n      0x04\n      dup1\n      calldatasize\n      sub\n      dup2\n      add\n      swap1\n      tag_40\n      swap2\n      swap1\n      tag_41\n      jump\t// in\n    tag_40:\n      tag_42\n      jump\t// in\n    tag_39:\n      stop\n        /* \"contracts/1.TradeAgreement.sol\":119:139  address public buyer */\n    tag_8:\n      callvalue\n      dup1\n      iszero\n      tag_43\n      jumpi\n      0x00\n      dup1\n      revert\n    tag_43:\n      pop\n      tag_44\n      tag_45\n      jump\t// in\n    tag_44:\n      mload(0x40)\n      tag_46\n      swap2\n      swap1\n      tag_24\n      jump\t// in\n    tag_46:\n      mload(0x40)\n      dup1\n      swap2\n      sub\n      swap1\n      return\n        /* \"contracts/1.TradeAgreement.sol\":2123:2319  function getAddressOwner(address _userAddress) public view returns(bool){... */\n    tag_9:\n      callvalue\n      dup1\n      iszero\n      tag_47\n      jumpi\n      0x00\n      dup1\n      revert\n    tag_47:\n      pop\n      tag_48\n      0x04\n      dup1\n      calldatasize\n      sub\n      dup2\n      add\n      swap1\n      tag_49\n      swap2\n      swap1\n      tag_50\n      jump\t// in\n    tag_49:\n      tag_51\n      jump\t// in\n    tag_48:\n      mload(0x40)\n      tag_52\n      swap2\n      swap1\n      tag_29\n      jump\t// in\n    tag_52:\n      mload(0x40)\n      dup1\n      swap2\n      sub\n      swap1\n      return\n        /* \"contracts/1.TradeAgreement.sol\":298:318  address public owner */\n    tag_10:\n      callvalue\n      dup1\n      iszero\n      tag_53\n      jumpi\n      0x00\n      dup1\n      revert\n    tag_53:\n      pop\n      tag_54\n      tag_55\n      jump\t// in\n    tag_54:\n      mload(0x40)\n      tag_56\n      swap2\n      swap1\n      tag_24\n      jump\t// in\n    tag_56:\n      mload(0x40)\n      dup1\n      swap2\n      sub\n      swap1\n      return\n        /* \"contracts/1.TradeAgreement.sol\":264:291  bool public tradeCompeleted */\n    tag_11:\n      callvalue\n      dup1\n      iszero\n      tag_57\n      jumpi\n      0x00\n      dup1\n      revert\n    tag_57:\n      pop\n      tag_58\n      tag_59\n      jump\t// in\n    tag_58:\n      mload(0x40)\n      tag_60\n      swap2\n      swap1\n      tag_29\n      jump\t// in\n    tag_60:\n      mload(0x40)\n      dup1\n      swap2\n      sub\n      swap1\n      return\n        /* \"contracts/1.TradeAgreement.sol\":146:167  uint256 public amount */\n    tag_12:\n      callvalue\n      dup1\n      iszero\n      tag_61\n      jumpi\n      0x00\n      dup1\n      revert\n    tag_61:\n      pop\n      tag_62\n      tag_63\n      jump\t// in\n    tag_62:\n      mload(0x40)\n      tag_64\n      swap2\n      swap1\n      tag_65\n      jump\t// in\n    tag_64:\n      mload(0x40)\n      dup1\n      swap2\n      sub\n      swap1\n      return\n        /* \"contracts/1.TradeAgreement.sol\":1874:2015  function deposit() public payable onlyBuyer{... */\n    tag_13:\n      tag_66\n      tag_67\n      jump\t// in\n    tag_66:\n      stop\n        /* \"contracts/1.TradeAgreement.sol\":174:192  string public item */\n    tag_14:\n      callvalue\n      dup1\n      iszero\n      tag_68\n      jumpi\n      0x00\n      dup1\n      revert\n    tag_68:\n      pop\n      tag_69\n      tag_70\n      jump\t// in\n    tag_69:\n      mload(0x40)\n      tag_71\n      swap2\n      swap1\n      tag_72\n      jump\t// in\n    tag_71:\n      mload(0x40)\n      dup1\n      swap2\n      sub\n      swap1\n      return\n        /* \"contracts/1.TradeAgreement.sol\":1381:1533  function acceptTradeAsSeller() public onlySeller{... */\n    tag_19:\n        /* \"contracts/1.TradeAgreement.sol\":1024:1030  seller */\n      0x00\n      dup1\n      sload\n      swap1\n      0x0100\n      exp\n      swap1\n      div\n      0xffffffffffffffffffffffffffffffffffffffff\n      and\n        /* \"contracts/1.TradeAgreement.sol\":1010:1030  msg.sender == seller */\n      0xffffffffffffffffffffffffffffffffffffffff\n      and\n        /* \"contracts/1.TradeAgreement.sol\":1010:1020  msg.sender */\n      caller\n        /* \"contracts/1.TradeAgreement.sol\":1010:1030  msg.sender == seller */\n      0xffffffffffffffffffffffffffffffffffffffff\n      and\n      eq\n        /* \"contracts/1.TradeAgreement.sol\":1002:1069  require(msg.sender == seller, \"Only seller can call this function\") */\n      tag_74\n      jumpi\n      mload(0x40)\n      0x08c379a000000000000000000000000000000000000000000000000000000000\n      dup2\n      mstore\n      0x04\n      add\n      tag_75\n      swap1\n      tag_76\n      jump\t// in\n    tag_75:\n      mload(0x40)\n      dup1\n      swap2\n      sub\n      swap1\n      revert\n    tag_74:\n        /* \"contracts/1.TradeAgreement.sol\":1457:1461  true */\n      0x01\n        /* \"contracts/1.TradeAgreement.sol\":1440:1454  sellerAccepted */\n      0x04\n      0x01\n        /* \"contracts/1.TradeAgreement.sol\":1440:1461  sellerAccepted = true */\n      0x0100\n      exp\n      dup2\n      sload\n      dup2\n      0xff\n      mul\n      not\n      and\n      swap1\n      dup4\n      iszero\n      iszero\n      mul\n      or\n      swap1\n      sstore\n      pop\n        /* \"contracts/1.TradeAgreement.sol\":1492:1498  seller */\n      0x00\n      dup1\n      sload\n      swap1\n      0x0100\n      exp\n      swap1\n      div\n      0xffffffffffffffffffffffffffffffffffffffff\n      and\n        /* \"contracts/1.TradeAgreement.sol\":1477:1499  SellerAccepted(seller) */\n      0xffffffffffffffffffffffffffffffffffffffff\n      and\n      0xe8b2bddd4b7daeaba32be7d8f242b974e1dcd03366dea076f1c8c08fb8a1c9c7\n      mload(0x40)\n      mload(0x40)\n      dup1\n      swap2\n      sub\n      swap1\n      log2\n        /* \"contracts/1.TradeAgreement.sol\":1510:1525  completeTrade() */\n      tag_78\n        /* \"contracts/1.TradeAgreement.sol\":1510:1523  completeTrade */\n      tag_79\n        /* \"contracts/1.TradeAgreement.sol\":1510:1525  completeTrade() */\n      jump\t// in\n    tag_78:\n        /* \"contracts/1.TradeAgreement.sol\":1381:1533  function acceptTradeAsSeller() public onlySeller{... */\n      jump\t// out\n        /* \"contracts/1.TradeAgreement.sol\":91:112  address public seller */\n    tag_22:\n      0x00\n      dup1\n      sload\n      swap1\n      0x0100\n      exp\n      swap1\n      div\n      0xffffffffffffffffffffffffffffffffffffffff\n      and\n      dup2\n      jump\t// out\n        /* \"contracts/1.TradeAgreement.sol\":2023:2115  function getTradeStatus() public view returns(bool){... */\n    tag_27:\n        /* \"contracts/1.TradeAgreement.sol\":2069:2073  bool */\n      0x00\n        /* \"contracts/1.TradeAgreement.sol\":2092:2107  tradeCompeleted */\n      0x04\n      0x02\n      swap1\n      sload\n      swap1\n      0x0100\n      exp\n      swap1\n      div\n      0xff\n      and\n        /* \"contracts/1.TradeAgreement.sol\":2085:2107  return tradeCompeleted */\n      swap1\n      pop\n        /* \"contracts/1.TradeAgreement.sol\":2023:2115  function getTradeStatus() public view returns(bool){... */\n      swap1\n      jump\t// out\n        /* \"contracts/1.TradeAgreement.sol\":199:224  bool public buyerAccepted */\n    tag_32:\n      0x04\n      0x00\n      swap1\n      sload\n      swap1\n      0x0100\n      exp\n      swap1\n      div\n      0xff\n      and\n      dup2\n      jump\t// out\n        /* \"contracts/1.TradeAgreement.sol\":231:257  bool public sellerAccepted */\n    tag_36:\n      0x04\n      0x01\n      swap1\n      sload\n      swap1\n      0x0100\n      exp\n      swap1\n      div\n      0xff\n      and\n      dup2\n      jump\t// out\n        /* \"contracts/1.TradeAgreement.sol\":1097:1373  function iWantToBuy(string memory _item, uint256 _amount) public{... */\n    tag_42:\n        /* \"contracts/1.TradeAgreement.sol\":1194:1199  owner */\n      0x04\n      0x03\n      swap1\n      sload\n      swap1\n      0x0100\n      exp\n      swap1\n      div\n      0xffffffffffffffffffffffffffffffffffffffff\n      and\n        /* \"contracts/1.TradeAgreement.sol\":1180:1199  msg.sender != owner */\n      0xffffffffffffffffffffffffffffffffffffffff\n      and\n        /* \"contracts/1.TradeAgreement.sol\":1180:1190  msg.sender */\n      caller\n        /* \"contracts/1.TradeAgreement.sol\":1180:1199  msg.sender != owner */\n      0xffffffffffffffffffffffffffffffffffffffff\n      and\n      sub\n        /* \"contracts/1.TradeAgreement.sol\":1172:1219  require(msg.sender != owner, \"Owner can't buy\") */\n      tag_82\n      jumpi\n      mload(0x40)\n      0x08c379a000000000000000000000000000000000000000000000000000000000\n      dup2\n      mstore\n      0x04\n      add\n      tag_83\n      swap1\n      tag_84\n      jump\t// in\n    tag_83:\n      mload(0x40)\n      dup1\n      swap2\n      sub\n      swap1\n      revert\n    tag_82:\n        /* \"contracts/1.TradeAgreement.sol\":1255:1256  0 */\n      0x00\n        /* \"contracts/1.TradeAgreement.sol\":1238:1257  buyer == address(0) */\n      0xffffffffffffffffffffffffffffffffffffffff\n      and\n        /* \"contracts/1.TradeAgreement.sol\":1238:1243  buyer */\n      0x01\n      0x00\n      swap1\n      sload\n      swap1\n      0x0100\n      exp\n      swap1\n      div\n      0xffffffffffffffffffffffffffffffffffffffff\n      and\n        /* \"contracts/1.TradeAgreement.sol\":1238:1257  buyer == address(0) */\n      0xffffffffffffffffffffffffffffffffffffffff\n      and\n      eq\n        /* \"contracts/1.TradeAgreement.sol\":1230:1286  require(buyer == address(0), \"Trade Already Compeleted\") */\n      tag_85\n      jumpi\n      mload(0x40)\n      0x08c379a000000000000000000000000000000000000000000000000000000000\n      dup2\n      mstore\n      0x04\n      add\n      tag_86\n      swap1\n      tag_87\n      jump\t// in\n    tag_86:\n      mload(0x40)\n      dup1\n      swap2\n      sub\n      swap1\n      revert\n    tag_85:\n        /* \"contracts/1.TradeAgreement.sol\":1305:1315  msg.sender */\n      caller\n        /* \"contracts/1.TradeAgreement.sol\":1297:1302  buyer */\n      0x01\n      0x00\n        /* \"contracts/1.TradeAgreement.sol\":1297:1315  buyer = msg.sender */\n      0x0100\n      exp\n      dup2\n      sload\n      dup2\n      0xffffffffffffffffffffffffffffffffffffffff\n      mul\n      not\n      and\n      swap1\n      dup4\n      0xffffffffffffffffffffffffffffffffffffffff\n      and\n      mul\n      or\n      swap1\n      sstore\n      pop\n        /* \"contracts/1.TradeAgreement.sol\":1333:1338  _item */\n      dup2\n        /* \"contracts/1.TradeAgreement.sol\":1326:1330  item */\n      0x03\n        /* \"contracts/1.TradeAgreement.sol\":1326:1338  item = _item */\n      swap1\n      dup2\n      tag_88\n      swap2\n      swap1\n      tag_89\n      jump\t// in\n    tag_88:\n      pop\n        /* \"contracts/1.TradeAgreement.sol\":1358:1365  _amount */\n      dup1\n        /* \"contracts/1.TradeAgreement.sol\":1349:1355  amount */\n      0x02\n        /* \"contracts/1.TradeAgreement.sol\":1349:1365  amount = _amount */\n      dup2\n      swap1\n      sstore\n      pop\n        /* \"contracts/1.TradeAgreement.sol\":1097:1373  function iWantToBuy(string memory _item, uint256 _amount) public{... */\n      pop\n      pop\n      jump\t// out\n        /* \"contracts/1.TradeAgreement.sol\":119:139  address public buyer */\n    tag_45:\n      0x01\n      0x00\n      swap1\n      sload\n      swap1\n      0x0100\n      exp\n      swap1\n      div\n      0xffffffffffffffffffffffffffffffffffffffff\n      and\n      dup2\n      jump\t// out\n        /* \"contracts/1.TradeAgreement.sol\":2123:2319  function getAddressOwner(address _userAddress) public view returns(bool){... */\n    tag_51:\n        /* \"contracts/1.TradeAgreement.sol\":2190:2194  bool */\n      0x00\n        /* \"contracts/1.TradeAgreement.sol\":2218:2230  _userAddress */\n      dup2\n        /* \"contracts/1.TradeAgreement.sol\":2209:2230  owner == _userAddress */\n      0xffffffffffffffffffffffffffffffffffffffff\n      and\n        /* \"contracts/1.TradeAgreement.sol\":2209:2214  owner */\n      0x04\n      0x03\n      swap1\n      sload\n      swap1\n      0x0100\n      exp\n      swap1\n      div\n      0xffffffffffffffffffffffffffffffffffffffff\n      and\n        /* \"contracts/1.TradeAgreement.sol\":2209:2230  owner == _userAddress */\n      0xffffffffffffffffffffffffffffffffffffffff\n      and\n      sub\n        /* \"contracts/1.TradeAgreement.sol\":2206:2312  if(owner == _userAddress){... */\n      tag_91\n      jumpi\n        /* \"contracts/1.TradeAgreement.sol\":2253:2257  true */\n      0x01\n        /* \"contracts/1.TradeAgreement.sol\":2246:2257  return true */\n      swap1\n      pop\n      jump(tag_90)\n        /* \"contracts/1.TradeAgreement.sol\":2206:2312  if(owner == _userAddress){... */\n    tag_91:\n        /* \"contracts/1.TradeAgreement.sol\":2295:2300  false */\n      0x00\n        /* \"contracts/1.TradeAgreement.sol\":2288:2300  return false */\n      swap1\n      pop\n        /* \"contracts/1.TradeAgreement.sol\":2123:2319  function getAddressOwner(address _userAddress) public view returns(bool){... */\n    tag_90:\n      swap2\n      swap1\n      pop\n      jump\t// out\n        /* \"contracts/1.TradeAgreement.sol\":298:318  address public owner */\n    tag_55:\n      0x04\n      0x03\n      swap1\n      sload\n      swap1\n      0x0100\n      exp\n      swap1\n      div\n      0xffffffffffffffffffffffffffffffffffffffff\n      and\n      dup2\n      jump\t// out\n        /* \"contracts/1.TradeAgreement.sol\":264:291  bool public tradeCompeleted */\n    tag_59:\n      0x04\n      0x02\n      swap1\n      sload\n      swap1\n      0x0100\n      exp\n      swap1\n      div\n      0xff\n      and\n      dup2\n      jump\t// out\n        /* \"contracts/1.TradeAgreement.sol\":146:167  uint256 public amount */\n    tag_63:\n      sload(0x02)\n      dup2\n      jump\t// out\n        /* \"contracts/1.TradeAgreement.sol\":1874:2015  function deposit() public payable onlyBuyer{... */\n    tag_67:\n        /* \"contracts/1.TradeAgreement.sol\":899:904  buyer */\n      0x01\n      0x00\n      swap1\n      sload\n      swap1\n      0x0100\n      exp\n      swap1\n      div\n      0xffffffffffffffffffffffffffffffffffffffff\n      and\n        /* \"contracts/1.TradeAgreement.sol\":885:904  msg.sender == buyer */\n      0xffffffffffffffffffffffffffffffffffffffff\n      and\n        /* \"contracts/1.TradeAgreement.sol\":885:895  msg.sender */\n      caller\n        /* \"contracts/1.TradeAgreement.sol\":885:904  msg.sender == buyer */\n      0xffffffffffffffffffffffffffffffffffffffff\n      and\n      eq\n        /* \"contracts/1.TradeAgreement.sol\":877:942  require(msg.sender == buyer, \"Only buyer can call this function\") */\n      tag_94\n      jumpi\n      mload(0x40)\n      0x08c379a000000000000000000000000000000000000000000000000000000000\n      dup2\n      mstore\n      0x04\n      add\n      tag_95\n      swap1\n      tag_96\n      jump\t// in\n    tag_95:\n      mload(0x40)\n      dup1\n      swap2\n      sub\n      swap1\n      revert\n    tag_94:\n        /* \"contracts/1.TradeAgreement.sol\":1949:1955  amount */\n      sload(0x02)\n        /* \"contracts/1.TradeAgreement.sol\":1936:1945  msg.value */\n      callvalue\n        /* \"contracts/1.TradeAgreement.sol\":1936:1955  msg.value == amount */\n      eq\n        /* \"contracts/1.TradeAgreement.sol\":1928:1976  require(msg.value == amount, \"Incorrect Amount\") */\n      tag_98\n      jumpi\n      mload(0x40)\n      0x08c379a000000000000000000000000000000000000000000000000000000000\n      dup2\n      mstore\n      0x04\n      add\n      tag_99\n      swap1\n      tag_100\n      jump\t// in\n    tag_99:\n      mload(0x40)\n      dup1\n      swap2\n      sub\n      swap1\n      revert\n    tag_98:\n        /* \"contracts/1.TradeAgreement.sol\":2003:2007  true */\n      0x01\n        /* \"contracts/1.TradeAgreement.sol\":1987:2000  buyerAccepted */\n      0x04\n      0x00\n        /* \"contracts/1.TradeAgreement.sol\":1987:2007  buyerAccepted = true */\n      0x0100\n      exp\n      dup2\n      sload\n      dup2\n      0xff\n      mul\n      not\n      and\n      swap1\n      dup4\n      iszero\n      iszero\n      mul\n      or\n      swap1\n      sstore\n      pop\n        /* \"contracts/1.TradeAgreement.sol\":1874:2015  function deposit() public payable onlyBuyer{... */\n      jump\t// out\n        /* \"contracts/1.TradeAgreement.sol\":174:192  string public item */\n    tag_70:\n      0x03\n      dup1\n      sload\n      tag_101\n      swap1\n      tag_102\n      jump\t// in\n    tag_101:\n      dup1\n      0x1f\n      add\n      0x20\n      dup1\n      swap2\n      div\n      mul\n      0x20\n      add\n      mload(0x40)\n      swap1\n      dup2\n      add\n      0x40\n      mstore\n      dup1\n      swap3\n      swap2\n      swap1\n      dup2\n      dup2\n      mstore\n      0x20\n      add\n      dup3\n      dup1\n      sload\n      tag_103\n      swap1\n      tag_102\n      jump\t// in\n    tag_103:\n      dup1\n      iszero\n      tag_104\n      jumpi\n      dup1\n      0x1f\n      lt\n      tag_105\n      jumpi\n      0x0100\n      dup1\n      dup4\n      sload\n      div\n      mul\n      dup4\n      mstore\n      swap2\n      0x20\n      add\n      swap2\n      jump(tag_104)\n    tag_105:\n      dup3\n      add\n      swap2\n      swap1\n      0x00\n      mstore\n      keccak256(0x00, 0x20)\n      swap1\n    tag_106:\n      dup2\n      sload\n      dup2\n      mstore\n      swap1\n      0x01\n      add\n      swap1\n      0x20\n      add\n      dup1\n      dup4\n      gt\n      tag_106\n      jumpi\n      dup3\n      swap1\n      sub\n      0x1f\n      and\n      dup3\n      add\n      swap2\n    tag_104:\n      pop\n      pop\n      pop\n      pop\n      pop\n      dup2\n      jump\t// out\n        /* \"contracts/1.TradeAgreement.sol\":1541:1866  function completeTrade() internal {... */\n    tag_79:\n        /* \"contracts/1.TradeAgreement.sol\":1589:1602  buyerAccepted */\n      0x04\n      0x00\n      swap1\n      sload\n      swap1\n      0x0100\n      exp\n      swap1\n      div\n      0xff\n      and\n        /* \"contracts/1.TradeAgreement.sol\":1589:1620  buyerAccepted && sellerAccepted */\n      dup1\n      iszero\n      tag_108\n      jumpi\n      pop\n        /* \"contracts/1.TradeAgreement.sol\":1606:1620  sellerAccepted */\n      0x04\n      0x01\n      swap1\n      sload\n      swap1\n      0x0100\n      exp\n      swap1\n      div\n      0xff\n      and\n        /* \"contracts/1.TradeAgreement.sol\":1589:1620  buyerAccepted && sellerAccepted */\n    tag_108:\n        /* \"contracts/1.TradeAgreement.sol\":1586:1859  if(buyerAccepted && sellerAccepted){... */\n      iszero\n      tag_109\n      jumpi\n        /* \"contracts/1.TradeAgreement.sol\":1654:1658  true */\n      0x01\n        /* \"contracts/1.TradeAgreement.sol\":1636:1651  tradeCompeleted */\n      0x04\n      0x02\n        /* \"contracts/1.TradeAgreement.sol\":1636:1658  tradeCompeleted = true */\n      0x0100\n      exp\n      dup2\n      sload\n      dup2\n      0xff\n      mul\n      not\n      and\n      swap1\n      dup4\n      iszero\n      iszero\n      mul\n      or\n      swap1\n      sstore\n      pop\n        /* \"contracts/1.TradeAgreement.sol\":1702:1707  buyer */\n      0x01\n      0x00\n      swap1\n      sload\n      swap1\n      0x0100\n      exp\n      swap1\n      div\n      0xffffffffffffffffffffffffffffffffffffffff\n      and\n        /* \"contracts/1.TradeAgreement.sol\":1678:1708  TradeCompeleted(seller, buyer) */\n      0xffffffffffffffffffffffffffffffffffffffff\n      and\n        /* \"contracts/1.TradeAgreement.sol\":1694:1700  seller */\n      0x00\n      dup1\n      sload\n      swap1\n      0x0100\n      exp\n      swap1\n      div\n      0xffffffffffffffffffffffffffffffffffffffff\n      and\n        /* \"contracts/1.TradeAgreement.sol\":1678:1708  TradeCompeleted(seller, buyer) */\n      0xffffffffffffffffffffffffffffffffffffffff\n      and\n      0xac39c8d59d90e8ade4a53cfc4a559c2c4f47ea26fb6c9370a90a707f056a43c1\n      mload(0x40)\n      mload(0x40)\n      dup1\n      swap2\n      sub\n      swap1\n      log3\n        /* \"contracts/1.TradeAgreement.sol\":1731:1737  seller */\n      0x00\n      dup1\n      sload\n      swap1\n      0x0100\n      exp\n      swap1\n      div\n      0xffffffffffffffffffffffffffffffffffffffff\n      and\n        /* \"contracts/1.TradeAgreement.sol\":1723:1747  payable(seller).transfer */\n      0xffffffffffffffffffffffffffffffffffffffff\n      and\n        /* \"contracts/1.TradeAgreement.sol\":1723:1755  payable(seller).transfer(amount) */\n      0x08fc\n        /* \"contracts/1.TradeAgreement.sol\":1748:1754  amount */\n      sload(0x02)\n        /* \"contracts/1.TradeAgreement.sol\":1723:1755  payable(seller).transfer(amount) */\n      swap1\n      dup2\n      iszero\n      mul\n      swap1\n      mload(0x40)\n      0x00\n      mload(0x40)\n      dup1\n      dup4\n      sub\n      dup2\n      dup6\n      dup9\n      dup9\n      call\n      swap4\n      pop\n      pop\n      pop\n      pop\n      iszero\n      dup1\n      iszero\n      tag_111\n      jumpi\n      returndatasize\n      0x00\n      dup1\n      returndatacopy\n      revert(0x00, returndatasize)\n    tag_111:\n      pop\n        /* \"contracts/1.TradeAgreement.sol\":1586:1859  if(buyerAccepted && sellerAccepted){... */\n      jump(tag_112)\n    tag_109:\n        /* \"contracts/1.TradeAgreement.sol\":1813:1818  false */\n      0x00\n        /* \"contracts/1.TradeAgreement.sol\":1794:1818  tradeCompeleted == false */\n      iszero\n      iszero\n        /* \"contracts/1.TradeAgreement.sol\":1794:1809  tradeCompeleted */\n      0x04\n      0x02\n      swap1\n      sload\n      swap1\n      0x0100\n      exp\n      swap1\n      div\n      0xff\n      and\n        /* \"contracts/1.TradeAgreement.sol\":1794:1818  tradeCompeleted == false */\n      iszero\n      iszero\n      eq\n        /* \"contracts/1.TradeAgreement.sol\":1786:1847  require(tradeCompeleted == false, \"Trade Already Compeleted\") */\n      tag_113\n      jumpi\n      mload(0x40)\n      0x08c379a000000000000000000000000000000000000000000000000000000000\n      dup2\n      mstore\n      0x04\n      add\n      tag_114\n      swap1\n      tag_87\n      jump\t// in\n    tag_114:\n      mload(0x40)\n      dup1\n      swap2\n      sub\n      swap1\n      revert\n    tag_113:\n        /* \"contracts/1.TradeAgreement.sol\":1586:1859  if(buyerAccepted && sellerAccepted){... */\n    tag_112:\n        /* \"contracts/1.TradeAgreement.sol\":1541:1866  function completeTrade() internal {... */\n      jump\t// out\n        /* \"#utility.yul\":7:133   */\n    tag_115:\n        /* \"#utility.yul\":44:51   */\n      0x00\n        /* \"#utility.yul\":84:126   */\n      0xffffffffffffffffffffffffffffffffffffffff\n        /* \"#utility.yul\":77:82   */\n      dup3\n        /* \"#utility.yul\":73:127   */\n      and\n        /* \"#utility.yul\":62:127   */\n      swap1\n      pop\n        /* \"#utility.yul\":7:133   */\n      swap2\n      swap1\n      pop\n      jump\t// out\n        /* \"#utility.yul\":139:235   */\n    tag_116:\n        /* \"#utility.yul\":176:183   */\n      0x00\n        /* \"#utility.yul\":205:229   */\n      tag_172\n        /* \"#utility.yul\":223:228   */\n      dup3\n        /* \"#utility.yul\":205:229   */\n      tag_115\n      jump\t// in\n    tag_172:\n        /* \"#utility.yul\":194:229   */\n      swap1\n      pop\n        /* \"#utility.yul\":139:235   */\n      swap2\n      swap1\n      pop\n      jump\t// out\n        /* \"#utility.yul\":241:359   */\n    tag_117:\n        /* \"#utility.yul\":328:352   */\n      tag_174\n        /* \"#utility.yul\":346:351   */\n      dup2\n        /* \"#utility.yul\":328:352   */\n      tag_116\n      jump\t// in\n    tag_174:\n        /* \"#utility.yul\":323:326   */\n      dup3\n        /* \"#utility.yul\":316:353   */\n      mstore\n        /* \"#utility.yul\":241:359   */\n      pop\n      pop\n      jump\t// out\n        /* \"#utility.yul\":365:587   */\n    tag_24:\n        /* \"#utility.yul\":458:462   */\n      0x00\n        /* \"#utility.yul\":496:498   */\n      0x20\n        /* \"#utility.yul\":485:494   */\n      dup3\n        /* \"#utility.yul\":481:499   */\n      add\n        /* \"#utility.yul\":473:499   */\n      swap1\n      pop\n        /* \"#utility.yul\":509:580   */\n      tag_176\n        /* \"#utility.yul\":577:578   */\n      0x00\n        /* \"#utility.yul\":566:575   */\n      dup4\n        /* \"#utility.yul\":562:579   */\n      add\n        /* \"#utility.yul\":553:559   */\n      dup5\n        /* \"#utility.yul\":509:580   */\n      tag_117\n      jump\t// in\n    tag_176:\n        /* \"#utility.yul\":365:587   */\n      swap3\n      swap2\n      pop\n      pop\n      jump\t// out\n        /* \"#utility.yul\":593:683   */\n    tag_118:\n        /* \"#utility.yul\":627:634   */\n      0x00\n        /* \"#utility.yul\":670:675   */\n      dup2\n        /* \"#utility.yul\":663:676   */\n      iszero\n        /* \"#utility.yul\":656:677   */\n      iszero\n        /* \"#utility.yul\":645:677   */\n      swap1\n      pop\n        /* \"#utility.yul\":593:683   */\n      swap2\n      swap1\n      pop\n      jump\t// out\n        /* \"#utility.yul\":689:798   */\n    tag_119:\n        /* \"#utility.yul\":770:791   */\n      tag_179\n        /* \"#utility.yul\":785:790   */\n      dup2\n        /* \"#utility.yul\":770:791   */\n      tag_118\n      jump\t// in\n    tag_179:\n        /* \"#utility.yul\":765:768   */\n      dup3\n        /* \"#utility.yul\":758:792   */\n      mstore\n        /* \"#utility.yul\":689:798   */\n      pop\n      pop\n      jump\t// out\n        /* \"#utility.yul\":804:1014   */\n    tag_29:\n        /* \"#utility.yul\":891:895   */\n      0x00\n        /* \"#utility.yul\":929:931   */\n      0x20\n        /* \"#utility.yul\":918:927   */\n      dup3\n        /* \"#utility.yul\":914:932   */\n      add\n        /* \"#utility.yul\":906:932   */\n      swap1\n      pop\n        /* \"#utility.yul\":942:1007   */\n      tag_181\n        /* \"#utility.yul\":1004:1005   */\n      0x00\n        /* \"#utility.yul\":993:1002   */\n      dup4\n        /* \"#utility.yul\":989:1006   */\n      add\n        /* \"#utility.yul\":980:986   */\n      dup5\n        /* \"#utility.yul\":942:1007   */\n      tag_119\n      jump\t// in\n    tag_181:\n        /* \"#utility.yul\":804:1014   */\n      swap3\n      swap2\n      pop\n      pop\n      jump\t// out\n        /* \"#utility.yul\":1020:1095   */\n    tag_120:\n        /* \"#utility.yul\":1053:1059   */\n      0x00\n        /* \"#utility.yul\":1086:1088   */\n      0x40\n        /* \"#utility.yul\":1080:1089   */\n      mload\n        /* \"#utility.yul\":1070:1089   */\n      swap1\n      pop\n        /* \"#utility.yul\":1020:1095   */\n      swap1\n      jump\t// out\n        /* \"#utility.yul\":1101:1218   */\n    tag_121:\n        /* \"#utility.yul\":1210:1211   */\n      0x00\n        /* \"#utility.yul\":1207:1208   */\n      dup1\n        /* \"#utility.yul\":1200:1212   */\n      revert\n        /* \"#utility.yul\":1224:1341   */\n    tag_122:\n        /* \"#utility.yul\":1333:1334   */\n      0x00\n        /* \"#utility.yul\":1330:1331   */\n      dup1\n        /* \"#utility.yul\":1323:1335   */\n      revert\n        /* \"#utility.yul\":1347:1464   */\n    tag_123:\n        /* \"#utility.yul\":1456:1457   */\n      0x00\n        /* \"#utility.yul\":1453:1454   */\n      dup1\n        /* \"#utility.yul\":1446:1458   */\n      revert\n        /* \"#utility.yul\":1470:1587   */\n    tag_124:\n        /* \"#utility.yul\":1579:1580   */\n      0x00\n        /* \"#utility.yul\":1576:1577   */\n      dup1\n        /* \"#utility.yul\":1569:1581   */\n      revert\n        /* \"#utility.yul\":1593:1695   */\n    tag_125:\n        /* \"#utility.yul\":1634:1640   */\n      0x00\n        /* \"#utility.yul\":1685:1687   */\n      0x1f\n        /* \"#utility.yul\":1681:1688   */\n      not\n        /* \"#utility.yul\":1676:1678   */\n      0x1f\n        /* \"#utility.yul\":1669:1674   */\n      dup4\n        /* \"#utility.yul\":1665:1679   */\n      add\n        /* \"#utility.yul\":1661:1689   */\n      and\n        /* \"#utility.yul\":1651:1689   */\n      swap1\n      pop\n        /* \"#utility.yul\":1593:1695   */\n      swap2\n      swap1\n      pop\n      jump\t// out\n        /* \"#utility.yul\":1701:1881   */\n    tag_126:\n        /* \"#utility.yul\":1749:1826   */\n      0x4e487b7100000000000000000000000000000000000000000000000000000000\n        /* \"#utility.yul\":1746:1747   */\n      0x00\n        /* \"#utility.yul\":1739:1827   */\n      mstore\n        /* \"#utility.yul\":1846:1850   */\n      0x41\n        /* \"#utility.yul\":1843:1844   */\n      0x04\n        /* \"#utility.yul\":1836:1851   */\n      mstore\n        /* \"#utility.yul\":1870:1874   */\n      0x24\n        /* \"#utility.yul\":1867:1868   */\n      0x00\n        /* \"#utility.yul\":1860:1875   */\n      revert\n        /* \"#utility.yul\":1887:2168   */\n    tag_127:\n        /* \"#utility.yul\":1970:1997   */\n      tag_190\n        /* \"#utility.yul\":1992:1996   */\n      dup3\n        /* \"#utility.yul\":1970:1997   */\n      tag_125\n      jump\t// in\n    tag_190:\n        /* \"#utility.yul\":1962:1968   */\n      dup2\n        /* \"#utility.yul\":1958:1998   */\n      add\n        /* \"#utility.yul\":2100:2106   */\n      dup2\n        /* \"#utility.yul\":2088:2098   */\n      dup2\n        /* \"#utility.yul\":2085:2107   */\n      lt\n        /* \"#utility.yul\":2064:2082   */\n      0xffffffffffffffff\n        /* \"#utility.yul\":2052:2062   */\n      dup3\n        /* \"#utility.yul\":2049:2083   */\n      gt\n        /* \"#utility.yul\":2046:2108   */\n      or\n        /* \"#utility.yul\":2043:2131   */\n      iszero\n      tag_191\n      jumpi\n        /* \"#utility.yul\":2111:2129   */\n      tag_192\n      tag_126\n      jump\t// in\n    tag_192:\n        /* \"#utility.yul\":2043:2131   */\n    tag_191:\n        /* \"#utility.yul\":2151:2161   */\n      dup1\n        /* \"#utility.yul\":2147:2149   */\n      0x40\n        /* \"#utility.yul\":2140:2162   */\n      mstore\n        /* \"#utility.yul\":1930:2168   */\n      pop\n        /* \"#utility.yul\":1887:2168   */\n      pop\n      pop\n      jump\t// out\n        /* \"#utility.yul\":2174:2303   */\n    tag_128:\n        /* \"#utility.yul\":2208:2214   */\n      0x00\n        /* \"#utility.yul\":2235:2255   */\n      tag_194\n      tag_120\n      jump\t// in\n    tag_194:\n        /* \"#utility.yul\":2225:2255   */\n      swap1\n      pop\n        /* \"#utility.yul\":2264:2297   */\n      tag_195\n        /* \"#utility.yul\":2292:2296   */\n      dup3\n        /* \"#utility.yul\":2284:2290   */\n      dup3\n        /* \"#utility.yul\":2264:2297   */\n      tag_127\n      jump\t// in\n    tag_195:\n        /* \"#utility.yul\":2174:2303   */\n      swap2\n      swap1\n      pop\n      jump\t// out\n        /* \"#utility.yul\":2309:2617   */\n    tag_129:\n        /* \"#utility.yul\":2371:2375   */\n      0x00\n        /* \"#utility.yul\":2461:2479   */\n      0xffffffffffffffff\n        /* \"#utility.yul\":2453:2459   */\n      dup3\n        /* \"#utility.yul\":2450:2480   */\n      gt\n        /* \"#utility.yul\":2447:2503   */\n      iszero\n      tag_197\n      jumpi\n        /* \"#utility.yul\":2483:2501   */\n      tag_198\n      tag_126\n      jump\t// in\n    tag_198:\n        /* \"#utility.yul\":2447:2503   */\n    tag_197:\n        /* \"#utility.yul\":2521:2550   */\n      tag_199\n        /* \"#utility.yul\":2543:2549   */\n      dup3\n        /* \"#utility.yul\":2521:2550   */\n      tag_125\n      jump\t// in\n    tag_199:\n        /* \"#utility.yul\":2513:2550   */\n      swap1\n      pop\n        /* \"#utility.yul\":2605:2609   */\n      0x20\n        /* \"#utility.yul\":2599:2603   */\n      dup2\n        /* \"#utility.yul\":2595:2610   */\n      add\n        /* \"#utility.yul\":2587:2610   */\n      swap1\n      pop\n        /* \"#utility.yul\":2309:2617   */\n      swap2\n      swap1\n      pop\n      jump\t// out\n        /* \"#utility.yul\":2623:2771   */\n    tag_130:\n        /* \"#utility.yul\":2721:2727   */\n      dup3\n        /* \"#utility.yul\":2716:2719   */\n      dup2\n        /* \"#utility.yul\":2711:2714   */\n      dup4\n        /* \"#utility.yul\":2698:2728   */\n      calldatacopy\n        /* \"#utility.yul\":2762:2763   */\n      0x00\n        /* \"#utility.yul\":2753:2759   */\n      dup4\n        /* \"#utility.yul\":2748:2751   */\n      dup4\n        /* \"#utility.yul\":2744:2760   */\n      add\n        /* \"#utility.yul\":2737:2764   */\n      mstore\n        /* \"#utility.yul\":2623:2771   */\n      pop\n      pop\n      pop\n      jump\t// out\n        /* \"#utility.yul\":2777:3202   */\n    tag_131:\n        /* \"#utility.yul\":2855:2860   */\n      0x00\n        /* \"#utility.yul\":2880:2946   */\n      tag_202\n        /* \"#utility.yul\":2896:2945   */\n      tag_203\n        /* \"#utility.yul\":2938:2944   */\n      dup5\n        /* \"#utility.yul\":2896:2945   */\n      tag_129\n      jump\t// in\n    tag_203:\n        /* \"#utility.yul\":2880:2946   */\n      tag_128\n      jump\t// in\n    tag_202:\n        /* \"#utility.yul\":2871:2946   */\n      swap1\n      pop\n        /* \"#utility.yul\":2969:2975   */\n      dup3\n        /* \"#utility.yul\":2962:2967   */\n      dup2\n        /* \"#utility.yul\":2955:2976   */\n      mstore\n        /* \"#utility.yul\":3007:3011   */\n      0x20\n        /* \"#utility.yul\":3000:3005   */\n      dup2\n        /* \"#utility.yul\":2996:3012   */\n      add\n        /* \"#utility.yul\":3045:3048   */\n      dup5\n        /* \"#utility.yul\":3036:3042   */\n      dup5\n        /* \"#utility.yul\":3031:3034   */\n      dup5\n        /* \"#utility.yul\":3027:3043   */\n      add\n        /* \"#utility.yul\":3024:3049   */\n      gt\n        /* \"#utility.yul\":3021:3133   */\n      iszero\n      tag_204\n      jumpi\n        /* \"#utility.yul\":3052:3131   */\n      tag_205\n      tag_124\n      jump\t// in\n    tag_205:\n        /* \"#utility.yul\":3021:3133   */\n    tag_204:\n        /* \"#utility.yul\":3142:3196   */\n      tag_206\n        /* \"#utility.yul\":3189:3195   */\n      dup5\n        /* \"#utility.yul\":3184:3187   */\n      dup3\n        /* \"#utility.yul\":3179:3182   */\n      dup6\n        /* \"#utility.yul\":3142:3196   */\n      tag_130\n      jump\t// in\n    tag_206:\n        /* \"#utility.yul\":2861:3202   */\n      pop\n        /* \"#utility.yul\":2777:3202   */\n      swap4\n      swap3\n      pop\n      pop\n      pop\n      jump\t// out\n        /* \"#utility.yul\":3222:3562   */\n    tag_132:\n        /* \"#utility.yul\":3278:3283   */\n      0x00\n        /* \"#utility.yul\":3327:3330   */\n      dup3\n        /* \"#utility.yul\":3320:3324   */\n      0x1f\n        /* \"#utility.yul\":3312:3318   */\n      dup4\n        /* \"#utility.yul\":3308:3325   */\n      add\n        /* \"#utility.yul\":3304:3331   */\n      slt\n        /* \"#utility.yul\":3294:3416   */\n      tag_208\n      jumpi\n        /* \"#utility.yul\":3335:3414   */\n      tag_209\n      tag_123\n      jump\t// in\n    tag_209:\n        /* \"#utility.yul\":3294:3416   */\n    tag_208:\n        /* \"#utility.yul\":3452:3458   */\n      dup2\n        /* \"#utility.yul\":3439:3459   */\n      calldataload\n        /* \"#utility.yul\":3477:3556   */\n      tag_210\n        /* \"#utility.yul\":3552:3555   */\n      dup5\n        /* \"#utility.yul\":3544:3550   */\n      dup3\n        /* \"#utility.yul\":3537:3541   */\n      0x20\n        /* \"#utility.yul\":3529:3535   */\n      dup7\n        /* \"#utility.yul\":3525:3542   */\n      add\n        /* \"#utility.yul\":3477:3556   */\n      tag_131\n      jump\t// in\n    tag_210:\n        /* \"#utility.yul\":3468:3556   */\n      swap2\n      pop\n        /* \"#utility.yul\":3284:3562   */\n      pop\n        /* \"#utility.yul\":3222:3562   */\n      swap3\n      swap2\n      pop\n      pop\n      jump\t// out\n        /* \"#utility.yul\":3568:3645   */\n    tag_133:\n        /* \"#utility.yul\":3605:3612   */\n      0x00\n        /* \"#utility.yul\":3634:3639   */\n      dup2\n        /* \"#utility.yul\":3623:3639   */\n      swap1\n      pop\n        /* \"#utility.yul\":3568:3645   */\n      swap2\n      swap1\n      pop\n      jump\t// out\n        /* \"#utility.yul\":3651:3773   */\n    tag_134:\n        /* \"#utility.yul\":3724:3748   */\n      tag_213\n        /* \"#utility.yul\":3742:3747   */\n      dup2\n        /* \"#utility.yul\":3724:3748   */\n      tag_133\n      jump\t// in\n    tag_213:\n        /* \"#utility.yul\":3717:3722   */\n      dup2\n        /* \"#utility.yul\":3714:3749   */\n      eq\n        /* \"#utility.yul\":3704:3767   */\n      tag_214\n      jumpi\n        /* \"#utility.yul\":3763:3764   */\n      0x00\n        /* \"#utility.yul\":3760:3761   */\n      dup1\n        /* \"#utility.yul\":3753:3765   */\n      revert\n        /* \"#utility.yul\":3704:3767   */\n    tag_214:\n        /* \"#utility.yul\":3651:3773   */\n      pop\n      jump\t// out\n        /* \"#utility.yul\":3779:3918   */\n    tag_135:\n        /* \"#utility.yul\":3825:3830   */\n      0x00\n        /* \"#utility.yul\":3863:3869   */\n      dup2\n        /* \"#utility.yul\":3850:3870   */\n      calldataload\n        /* \"#utility.yul\":3841:3870   */\n      swap1\n      pop\n        /* \"#utility.yul\":3879:3912   */\n      tag_216\n        /* \"#utility.yul\":3906:3911   */\n      dup2\n        /* \"#utility.yul\":3879:3912   */\n      tag_134\n      jump\t// in\n    tag_216:\n        /* \"#utility.yul\":3779:3918   */\n      swap3\n      swap2\n      pop\n      pop\n      jump\t// out\n        /* \"#utility.yul\":3924:4578   */\n    tag_41:\n        /* \"#utility.yul\":4002:4008   */\n      0x00\n        /* \"#utility.yul\":4010:4016   */\n      dup1\n        /* \"#utility.yul\":4059:4061   */\n      0x40\n        /* \"#utility.yul\":4047:4056   */\n      dup4\n        /* \"#utility.yul\":4038:4045   */\n      dup6\n        /* \"#utility.yul\":4034:4057   */\n      sub\n        /* \"#utility.yul\":4030:4062   */\n      slt\n        /* \"#utility.yul\":4027:4146   */\n      iszero\n      tag_218\n      jumpi\n        /* \"#utility.yul\":4065:4144   */\n      tag_219\n      tag_121\n      jump\t// in\n    tag_219:\n        /* \"#utility.yul\":4027:4146   */\n    tag_218:\n        /* \"#utility.yul\":4213:4214   */\n      0x00\n        /* \"#utility.yul\":4202:4211   */\n      dup4\n        /* \"#utility.yul\":4198:4215   */\n      add\n        /* \"#utility.yul\":4185:4216   */\n      calldataload\n        /* \"#utility.yul\":4243:4261   */\n      0xffffffffffffffff\n        /* \"#utility.yul\":4235:4241   */\n      dup2\n        /* \"#utility.yul\":4232:4262   */\n      gt\n        /* \"#utility.yul\":4229:4346   */\n      iszero\n      tag_220\n      jumpi\n        /* \"#utility.yul\":4265:4344   */\n      tag_221\n      tag_122\n      jump\t// in\n    tag_221:\n        /* \"#utility.yul\":4229:4346   */\n    tag_220:\n        /* \"#utility.yul\":4370:4433   */\n      tag_222\n        /* \"#utility.yul\":4425:4432   */\n      dup6\n        /* \"#utility.yul\":4416:4422   */\n      dup3\n        /* \"#utility.yul\":4405:4414   */\n      dup7\n        /* \"#utility.yul\":4401:4423   */\n      add\n        /* \"#utility.yul\":4370:4433   */\n      tag_132\n      jump\t// in\n    tag_222:\n        /* \"#utility.yul\":4360:4433   */\n      swap3\n      pop\n        /* \"#utility.yul\":4156:4443   */\n      pop\n        /* \"#utility.yul\":4482:4484   */\n      0x20\n        /* \"#utility.yul\":4508:4561   */\n      tag_223\n        /* \"#utility.yul\":4553:4560   */\n      dup6\n        /* \"#utility.yul\":4544:4550   */\n      dup3\n        /* \"#utility.yul\":4533:4542   */\n      dup7\n        /* \"#utility.yul\":4529:4551   */\n      add\n        /* \"#utility.yul\":4508:4561   */\n      tag_135\n      jump\t// in\n    tag_223:\n        /* \"#utility.yul\":4498:4561   */\n      swap2\n      pop\n        /* \"#utility.yul\":4453:4571   */\n      pop\n        /* \"#utility.yul\":3924:4578   */\n      swap3\n      pop\n      swap3\n      swap1\n      pop\n      jump\t// out\n        /* \"#utility.yul\":4584:4706   */\n    tag_136:\n        /* \"#utility.yul\":4657:4681   */\n      tag_225\n        /* \"#utility.yul\":4675:4680   */\n      dup2\n        /* \"#utility.yul\":4657:4681   */\n      tag_116\n      jump\t// in\n    tag_225:\n        /* \"#utility.yul\":4650:4655   */\n      dup2\n        /* \"#utility.yul\":4647:4682   */\n      eq\n        /* \"#utility.yul\":4637:4700   */\n      tag_226\n      jumpi\n        /* \"#utility.yul\":4696:4697   */\n      0x00\n        /* \"#utility.yul\":4693:4694   */\n      dup1\n        /* \"#utility.yul\":4686:4698   */\n      revert\n        /* \"#utility.yul\":4637:4700   */\n    tag_226:\n        /* \"#utility.yul\":4584:4706   */\n      pop\n      jump\t// out\n        /* \"#utility.yul\":4712:4851   */\n    tag_137:\n        /* \"#utility.yul\":4758:4763   */\n      0x00\n        /* \"#utility.yul\":4796:4802   */\n      dup2\n        /* \"#utility.yul\":4783:4803   */\n      calldataload\n        /* \"#utility.yul\":4774:4803   */\n      swap1\n      pop\n        /* \"#utility.yul\":4812:4845   */\n      tag_228\n        /* \"#utility.yul\":4839:4844   */\n      dup2\n        /* \"#utility.yul\":4812:4845   */\n      tag_136\n      jump\t// in\n    tag_228:\n        /* \"#utility.yul\":4712:4851   */\n      swap3\n      swap2\n      pop\n      pop\n      jump\t// out\n        /* \"#utility.yul\":4857:5186   */\n    tag_50:\n        /* \"#utility.yul\":4916:4922   */\n      0x00\n        /* \"#utility.yul\":4965:4967   */\n      0x20\n        /* \"#utility.yul\":4953:4962   */\n      dup3\n        /* \"#utility.yul\":4944:4951   */\n      dup5\n        /* \"#utility.yul\":4940:4963   */\n      sub\n        /* \"#utility.yul\":4936:4968   */\n      slt\n        /* \"#utility.yul\":4933:5052   */\n      iszero\n      tag_230\n      jumpi\n        /* \"#utility.yul\":4971:5050   */\n      tag_231\n      tag_121\n      jump\t// in\n    tag_231:\n        /* \"#utility.yul\":4933:5052   */\n    tag_230:\n        /* \"#utility.yul\":5091:5092   */\n      0x00\n        /* \"#utility.yul\":5116:5169   */\n      tag_232\n        /* \"#utility.yul\":5161:5168   */\n      dup5\n        /* \"#utility.yul\":5152:5158   */\n      dup3\n        /* \"#utility.yul\":5141:5150   */\n      dup6\n        /* \"#utility.yul\":5137:5159   */\n      add\n        /* \"#utility.yul\":5116:5169   */\n      tag_137\n      jump\t// in\n    tag_232:\n        /* \"#utility.yul\":5106:5169   */\n      swap2\n      pop\n        /* \"#utility.yul\":5062:5179   */\n      pop\n        /* \"#utility.yul\":4857:5186   */\n      swap3\n      swap2\n      pop\n      pop\n      jump\t// out\n        /* \"#utility.yul\":5192:5310   */\n    tag_138:\n        /* \"#utility.yul\":5279:5303   */\n      tag_234\n        /* \"#utility.yul\":5297:5302   */\n      dup2\n        /* \"#utility.yul\":5279:5303   */\n      tag_133\n      jump\t// in\n    tag_234:\n        /* \"#utility.yul\":5274:5277   */\n      dup3\n        /* \"#utility.yul\":5267:5304   */\n      mstore\n        /* \"#utility.yul\":5192:5310   */\n      pop\n      pop\n      jump\t// out\n        /* \"#utility.yul\":5316:5538   */\n    tag_65:\n        /* \"#utility.yul\":5409:5413   */\n      0x00\n        /* \"#utility.yul\":5447:5449   */\n      0x20\n        /* \"#utility.yul\":5436:5445   */\n      dup3\n        /* \"#utility.yul\":5432:5450   */\n      add\n        /* \"#utility.yul\":5424:5450   */\n      swap1\n      pop\n        /* \"#utility.yul\":5460:5531   */\n      tag_236\n        /* \"#utility.yul\":5528:5529   */\n      0x00\n        /* \"#utility.yul\":5517:5526   */\n      dup4\n        /* \"#utility.yul\":5513:5530   */\n      add\n        /* \"#utility.yul\":5504:5510   */\n      dup5\n        /* \"#utility.yul\":5460:5531   */\n      tag_138\n      jump\t// in\n    tag_236:\n        /* \"#utility.yul\":5316:5538   */\n      swap3\n      swap2\n      pop\n      pop\n      jump\t// out\n        /* \"#utility.yul\":5544:5643   */\n    tag_139:\n        /* \"#utility.yul\":5596:5602   */\n      0x00\n        /* \"#utility.yul\":5630:5635   */\n      dup2\n        /* \"#utility.yul\":5624:5636   */\n      mload\n        /* \"#utility.yul\":5614:5636   */\n      swap1\n      pop\n        /* \"#utility.yul\":5544:5643   */\n      swap2\n      swap1\n      pop\n      jump\t// out\n        /* \"#utility.yul\":5649:5818   */\n    tag_140:\n        /* \"#utility.yul\":5733:5744   */\n      0x00\n        /* \"#utility.yul\":5767:5773   */\n      dup3\n        /* \"#utility.yul\":5762:5765   */\n      dup3\n        /* \"#utility.yul\":5755:5774   */\n      mstore\n        /* \"#utility.yul\":5807:5811   */\n      0x20\n        /* \"#utility.yul\":5802:5805   */\n      dup3\n        /* \"#utility.yul\":5798:5812   */\n      add\n        /* \"#utility.yul\":5783:5812   */\n      swap1\n      pop\n        /* \"#utility.yul\":5649:5818   */\n      swap3\n      swap2\n      pop\n      pop\n      jump\t// out\n        /* \"#utility.yul\":5824:5963   */\n    tag_141:\n        /* \"#utility.yul\":5913:5919   */\n      dup3\n        /* \"#utility.yul\":5908:5911   */\n      dup2\n        /* \"#utility.yul\":5903:5906   */\n      dup4\n        /* \"#utility.yul\":5897:5920   */\n      mcopy\n        /* \"#utility.yul\":5954:5955   */\n      0x00\n        /* \"#utility.yul\":5945:5951   */\n      dup4\n        /* \"#utility.yul\":5940:5943   */\n      dup4\n        /* \"#utility.yul\":5936:5952   */\n      add\n        /* \"#utility.yul\":5929:5956   */\n      mstore\n        /* \"#utility.yul\":5824:5963   */\n      pop\n      pop\n      pop\n      jump\t// out\n        /* \"#utility.yul\":5969:6346   */\n    tag_142:\n        /* \"#utility.yul\":6057:6060   */\n      0x00\n        /* \"#utility.yul\":6085:6124   */\n      tag_241\n        /* \"#utility.yul\":6118:6123   */\n      dup3\n        /* \"#utility.yul\":6085:6124   */\n      tag_139\n      jump\t// in\n    tag_241:\n        /* \"#utility.yul\":6140:6211   */\n      tag_242\n        /* \"#utility.yul\":6204:6210   */\n      dup2\n        /* \"#utility.yul\":6199:6202   */\n      dup6\n        /* \"#utility.yul\":6140:6211   */\n      tag_140\n      jump\t// in\n    tag_242:\n        /* \"#utility.yul\":6133:6211   */\n      swap4\n      pop\n        /* \"#utility.yul\":6220:6285   */\n      tag_243\n        /* \"#utility.yul\":6278:6284   */\n      dup2\n        /* \"#utility.yul\":6273:6276   */\n      dup6\n        /* \"#utility.yul\":6266:6270   */\n      0x20\n        /* \"#utility.yul\":6259:6264   */\n      dup7\n        /* \"#utility.yul\":6255:6271   */\n      add\n        /* \"#utility.yul\":6220:6285   */\n      tag_141\n      jump\t// in\n    tag_243:\n        /* \"#utility.yul\":6310:6339   */\n      tag_244\n        /* \"#utility.yul\":6332:6338   */\n      dup2\n        /* \"#utility.yul\":6310:6339   */\n      tag_125\n      jump\t// in\n    tag_244:\n        /* \"#utility.yul\":6305:6308   */\n      dup5\n        /* \"#utility.yul\":6301:6340   */\n      add\n        /* \"#utility.yul\":6294:6340   */\n      swap2\n      pop\n        /* \"#utility.yul\":6061:6346   */\n      pop\n        /* \"#utility.yul\":5969:6346   */\n      swap3\n      swap2\n      pop\n      pop\n      jump\t// out\n        /* \"#utility.yul\":6352:6665   */\n    tag_72:\n        /* \"#utility.yul\":6465:6469   */\n      0x00\n        /* \"#utility.yul\":6503:6505   */\n      0x20\n        /* \"#utility.yul\":6492:6501   */\n      dup3\n        /* \"#utility.yul\":6488:6506   */\n      add\n        /* \"#utility.yul\":6480:6506   */\n      swap1\n      pop\n        /* \"#utility.yul\":6552:6561   */\n      dup2\n        /* \"#utility.yul\":6546:6550   */\n      dup2\n        /* \"#utility.yul\":6542:6562   */\n      sub\n        /* \"#utility.yul\":6538:6539   */\n      0x00\n        /* \"#utility.yul\":6527:6536   */\n      dup4\n        /* \"#utility.yul\":6523:6540   */\n      add\n        /* \"#utility.yul\":6516:6563   */\n      mstore\n        /* \"#utility.yul\":6580:6658   */\n      tag_246\n        /* \"#utility.yul\":6653:6657   */\n      dup2\n        /* \"#utility.yul\":6644:6650   */\n      dup5\n        /* \"#utility.yul\":6580:6658   */\n      tag_142\n      jump\t// in\n    tag_246:\n        /* \"#utility.yul\":6572:6658   */\n      swap1\n      pop\n        /* \"#utility.yul\":6352:6665   */\n      swap3\n      swap2\n      pop\n      pop\n      jump\t// out\n        /* \"#utility.yul\":6671:6892   */\n    tag_143:\n        /* \"#utility.yul\":6811:6845   */\n      0x4f6e6c792073656c6c65722063616e2063616c6c20746869732066756e637469\n        /* \"#utility.yul\":6807:6808   */\n      0x00\n        /* \"#utility.yul\":6799:6805   */\n      dup3\n        /* \"#utility.yul\":6795:6809   */\n      add\n        /* \"#utility.yul\":6788:6846   */\n      mstore\n        /* \"#utility.yul\":6880:6884   */\n      0x6f6e000000000000000000000000000000000000000000000000000000000000\n        /* \"#utility.yul\":6875:6877   */\n      0x20\n        /* \"#utility.yul\":6867:6873   */\n      dup3\n        /* \"#utility.yul\":6863:6878   */\n      add\n        /* \"#utility.yul\":6856:6885   */\n      mstore\n        /* \"#utility.yul\":6671:6892   */\n      pop\n      jump\t// out\n        /* \"#utility.yul\":6898:7264   */\n    tag_144:\n        /* \"#utility.yul\":7040:7043   */\n      0x00\n        /* \"#utility.yul\":7061:7128   */\n      tag_249\n        /* \"#utility.yul\":7125:7127   */\n      0x22\n        /* \"#utility.yul\":7120:7123   */\n      dup4\n        /* \"#utility.yul\":7061:7128   */\n      tag_140\n      jump\t// in\n    tag_249:\n        /* \"#utility.yul\":7054:7128   */\n      swap2\n      pop\n        /* \"#utility.yul\":7137:7230   */\n      tag_250\n        /* \"#utility.yul\":7226:7229   */\n      dup3\n        /* \"#utility.yul\":7137:7230   */\n      tag_143\n      jump\t// in\n    tag_250:\n        /* \"#utility.yul\":7255:7257   */\n      0x40\n        /* \"#utility.yul\":7250:7253   */\n      dup3\n        /* \"#utility.yul\":7246:7258   */\n      add\n        /* \"#utility.yul\":7239:7258   */\n      swap1\n      pop\n        /* \"#utility.yul\":6898:7264   */\n      swap2\n      swap1\n      pop\n      jump\t// out\n        /* \"#utility.yul\":7270:7689   */\n    tag_76:\n        /* \"#utility.yul\":7436:7440   */\n      0x00\n        /* \"#utility.yul\":7474:7476   */\n      0x20\n        /* \"#utility.yul\":7463:7472   */\n      dup3\n        /* \"#utility.yul\":7459:7477   */\n      add\n        /* \"#utility.yul\":7451:7477   */\n      swap1\n      pop\n        /* \"#utility.yul\":7523:7532   */\n      dup2\n        /* \"#utility.yul\":7517:7521   */\n      dup2\n        /* \"#utility.yul\":7513:7533   */\n      sub\n        /* \"#utility.yul\":7509:7510   */\n      0x00\n        /* \"#utility.yul\":7498:7507   */\n      dup4\n        /* \"#utility.yul\":7494:7511   */\n      add\n        /* \"#utility.yul\":7487:7534   */\n      mstore\n        /* \"#utility.yul\":7551:7682   */\n      tag_252\n        /* \"#utility.yul\":7677:7681   */\n      dup2\n        /* \"#utility.yul\":7551:7682   */\n      tag_144\n      jump\t// in\n    tag_252:\n        /* \"#utility.yul\":7543:7682   */\n      swap1\n      pop\n        /* \"#utility.yul\":7270:7689   */\n      swap2\n      swap1\n      pop\n      jump\t// out\n        /* \"#utility.yul\":7695:7860   */\n    tag_145:\n        /* \"#utility.yul\":7835:7852   */\n      0x4f776e65722063616e2774206275790000000000000000000000000000000000\n        /* \"#utility.yul\":7831:7832   */\n      0x00\n        /* \"#utility.yul\":7823:7829   */\n      dup3\n        /* \"#utility.yul\":7819:7833   */\n      add\n        /* \"#utility.yul\":7812:7853   */\n      mstore\n        /* \"#utility.yul\":7695:7860   */\n      pop\n      jump\t// out\n        /* \"#utility.yul\":7866:8232   */\n    tag_146:\n        /* \"#utility.yul\":8008:8011   */\n      0x00\n        /* \"#utility.yul\":8029:8096   */\n      tag_255\n        /* \"#utility.yul\":8093:8095   */\n      0x0f\n        /* \"#utility.yul\":8088:8091   */\n      dup4\n        /* \"#utility.yul\":8029:8096   */\n      tag_140\n      jump\t// in\n    tag_255:\n        /* \"#utility.yul\":8022:8096   */\n      swap2\n      pop\n        /* \"#utility.yul\":8105:8198   */\n      tag_256\n        /* \"#utility.yul\":8194:8197   */\n      dup3\n        /* \"#utility.yul\":8105:8198   */\n      tag_145\n      jump\t// in\n    tag_256:\n        /* \"#utility.yul\":8223:8225   */\n      0x20\n        /* \"#utility.yul\":8218:8221   */\n      dup3\n        /* \"#utility.yul\":8214:8226   */\n      add\n        /* \"#utility.yul\":8207:8226   */\n      swap1\n      pop\n        /* \"#utility.yul\":7866:8232   */\n      swap2\n      swap1\n      pop\n      jump\t// out\n        /* \"#utility.yul\":8238:8657   */\n    tag_84:\n        /* \"#utility.yul\":8404:8408   */\n      0x00\n        /* \"#utility.yul\":8442:8444   */\n      0x20\n        /* \"#utility.yul\":8431:8440   */\n      dup3\n        /* \"#utility.yul\":8427:8445   */\n      add\n        /* \"#utility.yul\":8419:8445   */\n      swap1\n      pop\n        /* \"#utility.yul\":8491:8500   */\n      dup2\n        /* \"#utility.yul\":8485:8489   */\n      dup2\n        /* \"#utility.yul\":8481:8501   */\n      sub\n        /* \"#utility.yul\":8477:8478   */\n      0x00\n        /* \"#utility.yul\":8466:8475   */\n      dup4\n        /* \"#utility.yul\":8462:8479   */\n      add\n        /* \"#utility.yul\":8455:8502   */\n      mstore\n        /* \"#utility.yul\":8519:8650   */\n      tag_258\n        /* \"#utility.yul\":8645:8649   */\n      dup2\n        /* \"#utility.yul\":8519:8650   */\n      tag_146\n      jump\t// in\n    tag_258:\n        /* \"#utility.yul\":8511:8650   */\n      swap1\n      pop\n        /* \"#utility.yul\":8238:8657   */\n      swap2\n      swap1\n      pop\n      jump\t// out\n        /* \"#utility.yul\":8663:8837   */\n    tag_147:\n        /* \"#utility.yul\":8803:8829   */\n      0x547261646520416c726561647920436f6d70656c657465640000000000000000\n        /* \"#utility.yul\":8799:8800   */\n      0x00\n        /* \"#utility.yul\":8791:8797   */\n      dup3\n        /* \"#utility.yul\":8787:8801   */\n      add\n        /* \"#utility.yul\":8780:8830   */\n      mstore\n        /* \"#utility.yul\":8663:8837   */\n      pop\n      jump\t// out\n        /* \"#utility.yul\":8843:9209   */\n    tag_148:\n        /* \"#utility.yul\":8985:8988   */\n      0x00\n        /* \"#utility.yul\":9006:9073   */\n      tag_261\n        /* \"#utility.yul\":9070:9072   */\n      0x18\n        /* \"#utility.yul\":9065:9068   */\n      dup4\n        /* \"#utility.yul\":9006:9073   */\n      tag_140\n      jump\t// in\n    tag_261:\n        /* \"#utility.yul\":8999:9073   */\n      swap2\n      pop\n        /* \"#utility.yul\":9082:9175   */\n      tag_262\n        /* \"#utility.yul\":9171:9174   */\n      dup3\n        /* \"#utility.yul\":9082:9175   */\n      tag_147\n      jump\t// in\n    tag_262:\n        /* \"#utility.yul\":9200:9202   */\n      0x20\n        /* \"#utility.yul\":9195:9198   */\n      dup3\n        /* \"#utility.yul\":9191:9203   */\n      add\n        /* \"#utility.yul\":9184:9203   */\n      swap1\n      pop\n        /* \"#utility.yul\":8843:9209   */\n      swap2\n      swap1\n      pop\n      jump\t// out\n        /* \"#utility.yul\":9215:9634   */\n    tag_87:\n        /* \"#utility.yul\":9381:9385   */\n      0x00\n        /* \"#utility.yul\":9419:9421   */\n      0x20\n        /* \"#utility.yul\":9408:9417   */\n      dup3\n        /* \"#utility.yul\":9404:9422   */\n      add\n        /* \"#utility.yul\":9396:9422   */\n      swap1\n      pop\n        /* \"#utility.yul\":9468:9477   */\n      dup2\n        /* \"#utility.yul\":9462:9466   */\n      dup2\n        /* \"#utility.yul\":9458:9478   */\n      sub\n        /* \"#utility.yul\":9454:9455   */\n      0x00\n        /* \"#utility.yul\":9443:9452   */\n      dup4\n        /* \"#utility.yul\":9439:9456   */\n      add\n        /* \"#utility.yul\":9432:9479   */\n      mstore\n        /* \"#utility.yul\":9496:9627   */\n      tag_264\n        /* \"#utility.yul\":9622:9626   */\n      dup2\n        /* \"#utility.yul\":9496:9627   */\n      tag_148\n      jump\t// in\n    tag_264:\n        /* \"#utility.yul\":9488:9627   */\n      swap1\n      pop\n        /* \"#utility.yul\":9215:9634   */\n      swap2\n      swap1\n      pop\n      jump\t// out\n        /* \"#utility.yul\":9640:9820   */\n    tag_149:\n        /* \"#utility.yul\":9688:9765   */\n      0x4e487b7100000000000000000000000000000000000000000000000000000000\n        /* \"#utility.yul\":9685:9686   */\n      0x00\n        /* \"#utility.yul\":9678:9766   */\n      mstore\n        /* \"#utility.yul\":9785:9789   */\n      0x22\n        /* \"#utility.yul\":9782:9783   */\n      0x04\n        /* \"#utility.yul\":9775:9790   */\n      mstore\n        /* \"#utility.yul\":9809:9813   */\n      0x24\n        /* \"#utility.yul\":9806:9807   */\n      0x00\n        /* \"#utility.yul\":9799:9814   */\n      revert\n        /* \"#utility.yul\":9826:10146   */\n    tag_102:\n        /* \"#utility.yul\":9870:9876   */\n      0x00\n        /* \"#utility.yul\":9907:9908   */\n      0x02\n        /* \"#utility.yul\":9901:9905   */\n      dup3\n        /* \"#utility.yul\":9897:9909   */\n      div\n        /* \"#utility.yul\":9887:9909   */\n      swap1\n      pop\n        /* \"#utility.yul\":9954:9955   */\n      0x01\n        /* \"#utility.yul\":9948:9952   */\n      dup3\n        /* \"#utility.yul\":9944:9956   */\n      and\n        /* \"#utility.yul\":9975:9993   */\n      dup1\n        /* \"#utility.yul\":9965:10046   */\n      tag_267\n      jumpi\n        /* \"#utility.yul\":10031:10035   */\n      0x7f\n        /* \"#utility.yul\":10023:10029   */\n      dup3\n        /* \"#utility.yul\":10019:10036   */\n      and\n        /* \"#utility.yul\":10009:10036   */\n      swap2\n      pop\n        /* \"#utility.yul\":9965:10046   */\n    tag_267:\n        /* \"#utility.yul\":10093:10095   */\n      0x20\n        /* \"#utility.yul\":10085:10091   */\n      dup3\n        /* \"#utility.yul\":10082:10096   */\n      lt\n        /* \"#utility.yul\":10062:10080   */\n      dup2\n        /* \"#utility.yul\":10059:10097   */\n      sub\n        /* \"#utility.yul\":10056:10140   */\n      tag_268\n      jumpi\n        /* \"#utility.yul\":10112:10130   */\n      tag_269\n      tag_149\n      jump\t// in\n    tag_269:\n        /* \"#utility.yul\":10056:10140   */\n    tag_268:\n        /* \"#utility.yul\":9877:10146   */\n      pop\n        /* \"#utility.yul\":9826:10146   */\n      swap2\n      swap1\n      pop\n      jump\t// out\n        /* \"#utility.yul\":10152:10293   */\n    tag_150:\n        /* \"#utility.yul\":10201:10205   */\n      0x00\n        /* \"#utility.yul\":10224:10227   */\n      dup2\n        /* \"#utility.yul\":10216:10227   */\n      swap1\n      pop\n        /* \"#utility.yul\":10247:10250   */\n      dup2\n        /* \"#utility.yul\":10244:10245   */\n      0x00\n        /* \"#utility.yul\":10237:10251   */\n      mstore\n        /* \"#utility.yul\":10281:10285   */\n      0x20\n        /* \"#utility.yul\":10278:10279   */\n      0x00\n        /* \"#utility.yul\":10268:10286   */\n      keccak256\n        /* \"#utility.yul\":10260:10286   */\n      swap1\n      pop\n        /* \"#utility.yul\":10152:10293   */\n      swap2\n      swap1\n      pop\n      jump\t// out\n        /* \"#utility.yul\":10299:10392   */\n    tag_151:\n        /* \"#utility.yul\":10336:10342   */\n      0x00\n        /* \"#utility.yul\":10383:10385   */\n      0x20\n        /* \"#utility.yul\":10378:10380   */\n      0x1f\n        /* \"#utility.yul\":10371:10376   */\n      dup4\n        /* \"#utility.yul\":10367:10381   */\n      add\n        /* \"#utility.yul\":10363:10386   */\n      div\n        /* \"#utility.yul\":10353:10386   */\n      swap1\n      pop\n        /* \"#utility.yul\":10299:10392   */\n      swap2\n      swap1\n      pop\n      jump\t// out\n        /* \"#utility.yul\":10398:10505   */\n    tag_152:\n        /* \"#utility.yul\":10442:10450   */\n      0x00\n        /* \"#utility.yul\":10492:10497   */\n      dup3\n        /* \"#utility.yul\":10486:10490   */\n      dup3\n        /* \"#utility.yul\":10482:10498   */\n      shl\n        /* \"#utility.yul\":10461:10498   */\n      swap1\n      pop\n        /* \"#utility.yul\":10398:10505   */\n      swap3\n      swap2\n      pop\n      pop\n      jump\t// out\n        /* \"#utility.yul\":10511:10904   */\n    tag_153:\n        /* \"#utility.yul\":10580:10586   */\n      0x00\n        /* \"#utility.yul\":10630:10631   */\n      0x08\n        /* \"#utility.yul\":10618:10628   */\n      dup4\n        /* \"#utility.yul\":10614:10632   */\n      mul\n        /* \"#utility.yul\":10653:10750   */\n      tag_274\n        /* \"#utility.yul\":10683:10749   */\n      0xffffffffffffffffffffffffffffffffffffffffffffffffffffffffffffffff\n        /* \"#utility.yul\":10672:10681   */\n      dup3\n        /* \"#utility.yul\":10653:10750   */\n      tag_152\n      jump\t// in\n    tag_274:\n        /* \"#utility.yul\":10771:10810   */\n      tag_275\n        /* \"#utility.yul\":10801:10809   */\n      dup7\n        /* \"#utility.yul\":10790:10799   */\n      dup4\n        /* \"#utility.yul\":10771:10810   */\n      tag_152\n      jump\t// in\n    tag_275:\n        /* \"#utility.yul\":10759:10810   */\n      swap6\n      pop\n        /* \"#utility.yul\":10843:10847   */\n      dup1\n        /* \"#utility.yul\":10839:10848   */\n      not\n        /* \"#utility.yul\":10832:10837   */\n      dup5\n        /* \"#utility.yul\":10828:10849   */\n      and\n        /* \"#utility.yul\":10819:10849   */\n      swap4\n      pop\n        /* \"#utility.yul\":10892:10896   */\n      dup1\n        /* \"#utility.yul\":10882:10890   */\n      dup7\n        /* \"#utility.yul\":10878:10897   */\n      and\n        /* \"#utility.yul\":10871:10876   */\n      dup5\n        /* \"#utility.yul\":10868:10898   */\n      or\n        /* \"#utility.yul\":10858:10898   */\n      swap3\n      pop\n        /* \"#utility.yul\":10587:10904   */\n      pop\n      pop\n        /* \"#utility.yul\":10511:10904   */\n      swap4\n      swap3\n      pop\n      pop\n      pop\n      jump\t// out\n        /* \"#utility.yul\":10910:10970   */\n    tag_154:\n        /* \"#utility.yul\":10938:10941   */\n      0x00\n        /* \"#utility.yul\":10959:10964   */\n      dup2\n        /* \"#utility.yul\":10952:10964   */\n      swap1\n      pop\n        /* \"#utility.yul\":10910:10970   */\n      swap2\n      swap1\n      pop\n      jump\t// out\n        /* \"#utility.yul\":10976:11118   */\n    tag_155:\n        /* \"#utility.yul\":11026:11035   */\n      0x00\n        /* \"#utility.yul\":11059:11112   */\n      tag_278\n        /* \"#utility.yul\":11077:11111   */\n      tag_279\n        /* \"#utility.yul\":11086:11110   */\n      tag_280\n        /* \"#utility.yul\":11104:11109   */\n      dup5\n        /* \"#utility.yul\":11086:11110   */\n      tag_133\n      jump\t// in\n    tag_280:\n        /* \"#utility.yul\":11077:11111   */\n      tag_154\n      jump\t// in\n    tag_279:\n        /* \"#utility.yul\":11059:11112   */\n      tag_133\n      jump\t// in\n    tag_278:\n        /* \"#utility.yul\":11046:11112   */\n      swap1\n      pop\n        /* \"#utility.yul\":10976:11118   */\n      swap2\n      swap1\n      pop\n      jump\t// out\n        /* \"#utility.yul\":11124:11199   */\n    tag_156:\n        /* \"#utility.yul\":11167:11170   */\n      0x00\n        /* \"#utility.yul\":11188:11193   */\n      dup2\n        /* \"#utility.yul\":11181:11193   */\n      swap1\n      pop\n        /* \"#utility.yul\":11124:11199   */\n      swap2\n      swap1\n      pop\n      jump\t// out\n        /* \"#utility.yul\":11205:11474   */\n    tag_157:\n        /* \"#utility.yul\":11315:11354   */\n      tag_283\n        /* \"#utility.yul\":11346:11353   */\n      dup4\n        /* \"#utility.yul\":11315:11354   */\n      tag_155\n      jump\t// in\n    tag_283:\n        /* \"#utility.yul\":11376:11467   */\n      tag_284\n        /* \"#utility.yul\":11425:11466   */\n      tag_285\n        /* \"#utility.yul\":11449:11465   */\n      dup3\n        /* \"#utility.yul\":11425:11466   */\n      tag_156\n      jump\t// in\n    tag_285:\n        /* \"#utility.yul\":11417:11423   */\n      dup5\n        /* \"#utility.yul\":11410:11414   */\n      dup5\n        /* \"#utility.yul\":11404:11415   */\n      sload\n        /* \"#utility.yul\":11376:11467   */\n      tag_153\n      jump\t// in\n    tag_284:\n        /* \"#utility.yul\":11370:11374   */\n      dup3\n        /* \"#utility.yul\":11363:11468   */\n      sstore\n        /* \"#utility.yul\":11281:11474   */\n      pop\n        /* \"#utility.yul\":11205:11474   */\n      pop\n      pop\n      pop\n      jump\t// out\n        /* \"#utility.yul\":11480:11553   */\n    tag_158:\n        /* \"#utility.yul\":11525:11528   */\n      0x00\n        /* \"#utility.yul\":11480:11553   */\n      swap1\n      jump\t// out\n        /* \"#utility.yul\":11559:11748   */\n    tag_159:\n        /* \"#utility.yul\":11636:11668   */\n      tag_288\n      tag_158\n      jump\t// in\n    tag_288:\n        /* \"#utility.yul\":11677:11742   */\n      tag_289\n        /* \"#utility.yul\":11735:11741   */\n      dup2\n        /* \"#utility.yul\":11727:11733   */\n      dup5\n        /* \"#utility.yul\":11721:11725   */\n      dup5\n        /* \"#utility.yul\":11677:11742   */\n      tag_157\n      jump\t// in\n    tag_289:\n        /* \"#utility.yul\":11612:11748   */\n      pop\n        /* \"#utility.yul\":11559:11748   */\n      pop\n      pop\n      jump\t// out\n        /* \"#utility.yul\":11754:11940   */\n    tag_160:\n        /* \"#utility.yul\":11814:11934   */\n    tag_291:\n        /* \"#utility.yul\":11831:11834   */\n      dup2\n        /* \"#utility.yul\":11824:11829   */\n      dup2\n        /* \"#utility.yul\":11821:11835   */\n      lt\n        /* \"#utility.yul\":11814:11934   */\n      iszero\n      tag_293\n      jumpi\n        /* \"#utility.yul\":11885:11924   */\n      tag_294\n        /* \"#utility.yul\":11922:11923   */\n      0x00\n        /* \"#utility.yul\":11915:11920   */\n      dup3\n        /* \"#utility.yul\":11885:11924   */\n      tag_159\n      jump\t// in\n    tag_294:\n        /* \"#utility.yul\":11858:11859   */\n      0x01\n        /* \"#utility.yul\":11851:11856   */\n      dup2\n        /* \"#utility.yul\":11847:11860   */\n      add\n        /* \"#utility.yul\":11838:11860   */\n      swap1\n      pop\n        /* \"#utility.yul\":11814:11934   */\n      jump(tag_291)\n    tag_293:\n        /* \"#utility.yul\":11754:11940   */\n      pop\n      pop\n      jump\t// out\n        /* \"#utility.yul\":11946:12489   */\n    tag_161:\n        /* \"#utility.yul\":12047:12049   */\n      0x1f\n        /* \"#utility.yul\":12042:12045   */\n      dup3\n        /* \"#utility.yul\":12039:12050   */\n      gt\n        /* \"#utility.yul\":12036:12482   */\n      iszero\n      tag_296\n      jumpi\n        /* \"#utility.yul\":12081:12119   */\n      tag_297\n        /* \"#utility.yul\":12113:12118   */\n      dup2\n        /* \"#utility.yul\":12081:12119   */\n      tag_150\n      jump\t// in\n    tag_297:\n        /* \"#utility.yul\":12165:12194   */\n      tag_298\n        /* \"#utility.yul\":12183:12193   */\n      dup5\n        /* \"#utility.yul\":12165:12194   */\n      tag_151\n      jump\t// in\n    tag_298:\n        /* \"#utility.yul\":12155:12163   */\n      dup2\n        /* \"#utility.yul\":12151:12195   */\n      add\n        /* \"#utility.yul\":12348:12350   */\n      0x20\n        /* \"#utility.yul\":12336:12346   */\n      dup6\n        /* \"#utility.yul\":12333:12351   */\n      lt\n        /* \"#utility.yul\":12330:12379   */\n      iszero\n      tag_299\n      jumpi\n        /* \"#utility.yul\":12369:12377   */\n      dup2\n        /* \"#utility.yul\":12354:12377   */\n      swap1\n      pop\n        /* \"#utility.yul\":12330:12379   */\n    tag_299:\n        /* \"#utility.yul\":12392:12472   */\n      tag_300\n        /* \"#utility.yul\":12448:12470   */\n      tag_301\n        /* \"#utility.yul\":12466:12469   */\n      dup6\n        /* \"#utility.yul\":12448:12470   */\n      tag_151\n      jump\t// in\n    tag_301:\n        /* \"#utility.yul\":12438:12446   */\n      dup4\n        /* \"#utility.yul\":12434:12471   */\n      add\n        /* \"#utility.yul\":12421:12432   */\n      dup3\n        /* \"#utility.yul\":12392:12472   */\n      tag_160\n      jump\t// in\n    tag_300:\n        /* \"#utility.yul\":12051:12482   */\n      pop\n      pop\n        /* \"#utility.yul\":12036:12482   */\n    tag_296:\n        /* \"#utility.yul\":11946:12489   */\n      pop\n      pop\n      pop\n      jump\t// out\n        /* \"#utility.yul\":12495:12612   */\n    tag_162:\n        /* \"#utility.yul\":12549:12557   */\n      0x00\n        /* \"#utility.yul\":12599:12604   */\n      dup3\n        /* \"#utility.yul\":12593:12597   */\n      dup3\n        /* \"#utility.yul\":12589:12605   */\n      shr\n        /* \"#utility.yul\":12568:12605   */\n      swap1\n      pop\n        /* \"#utility.yul\":12495:12612   */\n      swap3\n      swap2\n      pop\n      pop\n      jump\t// out\n        /* \"#utility.yul\":12618:12787   */\n    tag_163:\n        /* \"#utility.yul\":12662:12668   */\n      0x00\n        /* \"#utility.yul\":12695:12746   */\n      tag_304\n        /* \"#utility.yul\":12743:12744   */\n      0x00\n        /* \"#utility.yul\":12739:12745   */\n      not\n        /* \"#utility.yul\":12731:12736   */\n      dup5\n        /* \"#utility.yul\":12728:12729   */\n      0x08\n        /* \"#utility.yul\":12724:12737   */\n      mul\n        /* \"#utility.yul\":12695:12746   */\n      tag_162\n      jump\t// in\n    tag_304:\n        /* \"#utility.yul\":12691:12747   */\n      not\n        /* \"#utility.yul\":12776:12780   */\n      dup1\n        /* \"#utility.yul\":12770:12774   */\n      dup4\n        /* \"#utility.yul\":12766:12781   */\n      and\n        /* \"#utility.yul\":12756:12781   */\n      swap2\n      pop\n        /* \"#utility.yul\":12669:12787   */\n      pop\n        /* \"#utility.yul\":12618:12787   */\n      swap3\n      swap2\n      pop\n      pop\n      jump\t// out\n        /* \"#utility.yul\":12792:13087   */\n    tag_164:\n        /* \"#utility.yul\":12868:12872   */\n      0x00\n        /* \"#utility.yul\":13014:13043   */\n      tag_306\n        /* \"#utility.yul\":13039:13042   */\n      dup4\n        /* \"#utility.yul\":13033:13037   */\n      dup4\n        /* \"#utility.yul\":13014:13043   */\n      tag_163\n      jump\t// in\n    tag_306:\n        /* \"#utility.yul\":13006:13043   */\n      swap2\n      pop\n        /* \"#utility.yul\":13076:13079   */\n      dup3\n        /* \"#utility.yul\":13073:13074   */\n      0x02\n        /* \"#utility.yul\":13069:13080   */\n      mul\n        /* \"#utility.yul\":13063:13067   */\n      dup3\n        /* \"#utility.yul\":13060:13081   */\n      or\n        /* \"#utility.yul\":13052:13081   */\n      swap1\n      pop\n        /* \"#utility.yul\":12792:13087   */\n      swap3\n      swap2\n      pop\n      pop\n      jump\t// out\n        /* \"#utility.yul\":13092:14487   */\n    tag_89:\n        /* \"#utility.yul\":13209:13246   */\n      tag_308\n        /* \"#utility.yul\":13242:13245   */\n      dup3\n        /* \"#utility.yul\":13209:13246   */\n      tag_139\n      jump\t// in\n    tag_308:\n        /* \"#utility.yul\":13311:13329   */\n      0xffffffffffffffff\n        /* \"#utility.yul\":13303:13309   */\n      dup2\n        /* \"#utility.yul\":13300:13330   */\n      gt\n        /* \"#utility.yul\":13297:13353   */\n      iszero\n      tag_309\n      jumpi\n        /* \"#utility.yul\":13333:13351   */\n      tag_310\n      tag_126\n      jump\t// in\n    tag_310:\n        /* \"#utility.yul\":13297:13353   */\n    tag_309:\n        /* \"#utility.yul\":13377:13415   */\n      tag_311\n        /* \"#utility.yul\":13409:13413   */\n      dup3\n        /* \"#utility.yul\":13403:13414   */\n      sload\n        /* \"#utility.yul\":13377:13415   */\n      tag_102\n      jump\t// in\n    tag_311:\n        /* \"#utility.yul\":13462:13529   */\n      tag_312\n        /* \"#utility.yul\":13522:13528   */\n      dup3\n        /* \"#utility.yul\":13514:13520   */\n      dup3\n        /* \"#utility.yul\":13508:13512   */\n      dup6\n        /* \"#utility.yul\":13462:13529   */\n      tag_161\n      jump\t// in\n    tag_312:\n        /* \"#utility.yul\":13556:13557   */\n      0x00\n        /* \"#utility.yul\":13580:13584   */\n      0x20\n        /* \"#utility.yul\":13567:13584   */\n      swap1\n      pop\n        /* \"#utility.yul\":13612:13614   */\n      0x1f\n        /* \"#utility.yul\":13604:13610   */\n      dup4\n        /* \"#utility.yul\":13601:13615   */\n      gt\n        /* \"#utility.yul\":13629:13630   */\n      0x01\n        /* \"#utility.yul\":13624:14242   */\n      dup2\n      eq\n      tag_314\n      jumpi\n        /* \"#utility.yul\":14286:14287   */\n      0x00\n        /* \"#utility.yul\":14303:14309   */\n      dup5\n        /* \"#utility.yul\":14300:14377   */\n      iszero\n      tag_315\n      jumpi\n        /* \"#utility.yul\":14352:14361   */\n      dup3\n        /* \"#utility.yul\":14347:14350   */\n      dup8\n        /* \"#utility.yul\":14343:14362   */\n      add\n        /* \"#utility.yul\":14337:14363   */\n      mload\n        /* \"#utility.yul\":14328:14363   */\n      swap1\n      pop\n        /* \"#utility.yul\":14300:14377   */\n    tag_315:\n        /* \"#utility.yul\":14403:14470   */\n      tag_316\n        /* \"#utility.yul\":14463:14469   */\n      dup6\n        /* \"#utility.yul\":14456:14461   */\n      dup3\n        /* \"#utility.yul\":14403:14470   */\n      tag_164\n      jump\t// in\n    tag_316:\n        /* \"#utility.yul\":14397:14401   */\n      dup7\n        /* \"#utility.yul\":14390:14471   */\n      sstore\n        /* \"#utility.yul\":14259:14481   */\n      pop\n        /* \"#utility.yul\":13594:14481   */\n      jump(tag_313)\n        /* \"#utility.yul\":13624:14242   */\n    tag_314:\n        /* \"#utility.yul\":13676:13680   */\n      0x1f\n        /* \"#utility.yul\":13672:13681   */\n      not\n        /* \"#utility.yul\":13664:13670   */\n      dup5\n        /* \"#utility.yul\":13660:13682   */\n      and\n        /* \"#utility.yul\":13710:13747   */\n      tag_317\n        /* \"#utility.yul\":13742:13746   */\n      dup7\n        /* \"#utility.yul\":13710:13747   */\n      tag_150\n      jump\t// in\n    tag_317:\n        /* \"#utility.yul\":13769:13770   */\n      0x00\n        /* \"#utility.yul\":13783:13991   */\n    tag_318:\n        /* \"#utility.yul\":13797:13804   */\n      dup3\n        /* \"#utility.yul\":13794:13795   */\n      dup2\n        /* \"#utility.yul\":13791:13805   */\n      lt\n        /* \"#utility.yul\":13783:13991   */\n      iszero\n      tag_320\n      jumpi\n        /* \"#utility.yul\":13876:13885   */\n      dup5\n        /* \"#utility.yul\":13871:13874   */\n      dup10\n        /* \"#utility.yul\":13867:13886   */\n      add\n        /* \"#utility.yul\":13861:13887   */\n      mload\n        /* \"#utility.yul\":13853:13859   */\n      dup3\n        /* \"#utility.yul\":13846:13888   */\n      sstore\n        /* \"#utility.yul\":13927:13928   */\n      0x01\n        /* \"#utility.yul\":13919:13925   */\n      dup3\n        /* \"#utility.yul\":13915:13929   */\n      add\n        /* \"#utility.yul\":13905:13929   */\n      swap2\n      pop\n        /* \"#utility.yul\":13974:13976   */\n      0x20\n        /* \"#utility.yul\":13963:13972   */\n      dup6\n        /* \"#utility.yul\":13959:13977   */\n      add\n        /* \"#utility.yul\":13946:13977   */\n      swap5\n      pop\n        /* \"#utility.yul\":13820:13824   */\n      0x20\n        /* \"#utility.yul\":13817:13818   */\n      dup2\n        /* \"#utility.yul\":13813:13825   */\n      add\n        /* \"#utility.yul\":13808:13825   */\n      swap1\n      pop\n        /* \"#utility.yul\":13783:13991   */\n      jump(tag_318)\n    tag_320:\n        /* \"#utility.yul\":14019:14025   */\n      dup7\n        /* \"#utility.yul\":14010:14017   */\n      dup4\n        /* \"#utility.yul\":14007:14026   */\n      lt\n        /* \"#utility.yul\":14004:14183   */\n      iszero\n      tag_321\n      jumpi\n        /* \"#utility.yul\":14077:14086   */\n      dup5\n        /* \"#utility.yul\":14072:14075   */\n      dup10\n        /* \"#utility.yul\":14068:14087   */\n      add\n        /* \"#utility.yul\":14062:14088   */\n      mload\n        /* \"#utility.yul\":14120:14168   */\n      tag_322\n        /* \"#utility.yul\":14162:14166   */\n      0x1f\n        /* \"#utility.yul\":14154:14160   */\n      dup10\n        /* \"#utility.yul\":14150:14167   */\n      and\n        /* \"#utility.yul\":14139:14148   */\n      dup3\n        /* \"#utility.yul\":14120:14168   */\n      tag_163\n      jump\t// in\n    tag_322:\n        /* \"#utility.yul\":14112:14118   */\n      dup4\n        /* \"#utility.yul\":14105:14169   */\n      sstore\n        /* \"#utility.yul\":14027:14183   */\n      pop\n        /* \"#utility.yul\":14004:14183   */\n    tag_321:\n        /* \"#utility.yul\":14229:14230   */\n      0x01\n        /* \"#utility.yul\":14225:14226   */\n      0x02\n        /* \"#utility.yul\":14217:14223   */\n      dup9\n        /* \"#utility.yul\":14213:14227   */\n      mul\n        /* \"#utility.yul\":14209:14231   */\n      add\n        /* \"#utility.yul\":14203:14207   */\n      dup9\n        /* \"#utility.yul\":14196:14232   */\n      sstore\n        /* \"#utility.yul\":13631:14242   */\n      pop\n      pop\n      pop\n        /* \"#utility.yul\":13594:14481   */\n    tag_313:\n      pop\n        /* \"#utility.yul\":13184:14487   */\n      pop\n      pop\n      pop\n        /* \"#utility.yul\":13092:14487   */\n      pop\n      pop\n      jump\t// out\n        /* \"#utility.yul\":14493:14713   */\n    tag_165:\n        /* \"#utility.yul\":14633:14667   */\n      0x4f6e6c792062757965722063616e2063616c6c20746869732066756e6374696f\n        /* \"#utility.yul\":14629:14630   */\n      0x00\n        /* \"#utility.yul\":14621:14627   */\n      dup3\n        /* \"#utility.yul\":14617:14631   */\n      add\n        /* \"#utility.yul\":14610:14668   */\n      mstore\n        /* \"#utility.yul\":14702:14705   */\n      0x6e00000000000000000000000000000000000000000000000000000000000000\n        /* \"#utility.yul\":14697:14699   */\n      0x20\n        /* \"#utility.yul\":14689:14695   */\n      dup3\n        /* \"#utility.yul\":14685:14700   */\n      add\n        /* \"#utility.yul\":14678:14706   */\n      mstore\n        /* \"#utility.yul\":14493:14713   */\n      pop\n      jump\t// out\n        /* \"#utility.yul\":14719:15085   */\n    tag_166:\n        /* \"#utility.yul\":14861:14864   */\n      0x00\n        /* \"#utility.yul\":14882:14949   */\n      tag_325\n        /* \"#utility.yul\":14946:14948   */\n      0x21\n        /* \"#utility.yul\":14941:14944   */\n      dup4\n        /* \"#utility.yul\":14882:14949   */\n      tag_140\n      jump\t// in\n    tag_325:\n        /* \"#utility.yul\":14875:14949   */\n      swap2\n      pop\n        /* \"#utility.yul\":14958:15051   */\n      tag_326\n        /* \"#utility.yul\":15047:15050   */\n      dup3\n        /* \"#utility.yul\":14958:15051   */\n      tag_165\n      jump\t// in\n    tag_326:\n        /* \"#utility.yul\":15076:15078   */\n      0x40\n        /* \"#utility.yul\":15071:15074   */\n      dup3\n        /* \"#utility.yul\":15067:15079   */\n      add\n        /* \"#utility.yul\":15060:15079   */\n      swap1\n      pop\n        /* \"#utility.yul\":14719:15085   */\n      swap2\n      swap1\n      pop\n      jump\t// out\n        /* \"#utility.yul\":15091:15510   */\n    tag_96:\n        /* \"#utility.yul\":15257:15261   */\n      0x00\n        /* \"#utility.yul\":15295:15297   */\n      0x20\n        /* \"#utility.yul\":15284:15293   */\n      dup3\n        /* \"#utility.yul\":15280:15298   */\n      add\n        /* \"#utility.yul\":15272:15298   */\n      swap1\n      pop\n        /* \"#utility.yul\":15344:15353   */\n      dup2\n        /* \"#utility.yul\":15338:15342   */\n      dup2\n        /* \"#utility.yul\":15334:15354   */\n      sub\n        /* \"#utility.yul\":15330:15331   */\n      0x00\n        /* \"#utility.yul\":15319:15328   */\n      dup4\n        /* \"#utility.yul\":15315:15332   */\n      add\n        /* \"#utility.yul\":15308:15355   */\n      mstore\n        /* \"#utility.yul\":15372:15503   */\n      tag_328\n        /* \"#utility.yul\":15498:15502   */\n      dup2\n        /* \"#utility.yul\":15372:15503   */\n      tag_166\n      jump\t// in\n    tag_328:\n        /* \"#utility.yul\":15364:15503   */\n      swap1\n      pop\n        /* \"#utility.yul\":15091:15510   */\n      swap2\n      swap1\n      pop\n      jump\t// out\n        /* \"#utility.yul\":15516:15682   */\n    tag_167:\n        /* \"#utility.yul\":15656:15674   */\n      0x496e636f727265637420416d6f756e7400000000000000000000000000000000\n        /* \"#utility.yul\":15652:15653   */\n      0x00\n        /* \"#utility.yul\":15644:15650   */\n      dup3\n        /* \"#utility.yul\":15640:15654   */\n      add\n        /* \"#utility.yul\":15633:15675   */\n      mstore\n        /* \"#utility.yul\":15516:15682   */\n      pop\n      jump\t// out\n        /* \"#utility.yul\":15688:16054   */\n    tag_168:\n        /* \"#utility.yul\":15830:15833   */\n      0x00\n        /* \"#utility.yul\":15851:15918   */\n      tag_331\n        /* \"#utility.yul\":15915:15917   */\n      0x10\n        /* \"#utility.yul\":15910:15913   */\n      dup4\n        /* \"#utility.yul\":15851:15918   */\n      tag_140\n      jump\t// in\n    tag_331:\n        /* \"#utility.yul\":15844:15918   */\n      swap2\n      pop\n        /* \"#utility.yul\":15927:16020   */\n      tag_332\n        /* \"#utility.yul\":16016:16019   */\n      dup3\n        /* \"#utility.yul\":15927:16020   */\n      tag_167\n      jump\t// in\n    tag_332:\n        /* \"#utility.yul\":16045:16047   */\n      0x20\n        /* \"#utility.yul\":16040:16043   */\n      dup3\n        /* \"#utility.yul\":16036:16048   */\n      add\n        /* \"#utility.yul\":16029:16048   */\n      swap1\n      pop\n        /* \"#utility.yul\":15688:16054   */\n      swap2\n      swap1\n      pop\n      jump\t// out\n        /* \"#utility.yul\":16060:16479   */\n    tag_100:\n        /* \"#utility.yul\":16226:16230   */\n      0x00\n        /* \"#utility.yul\":16264:16266   */\n      0x20\n        /* \"#utility.yul\":16253:16262   */\n      dup3\n        /* \"#utility.yul\":16249:16267   */\n      add\n        /* \"#utility.yul\":16241:16267   */\n      swap1\n      pop\n        /* \"#utility.yul\":16313:16322   */\n      dup2\n        /* \"#utility.yul\":16307:16311   */\n      dup2\n        /* \"#utility.yul\":16303:16323   */\n      sub\n        /* \"#utility.yul\":16299:16300   */\n      0x00\n        /* \"#utility.yul\":16288:16297   */\n      dup4\n        /* \"#utility.yul\":16284:16301   */\n      add\n        /* \"#utility.yul\":16277:16324   */\n      mstore\n        /* \"#utility.yul\":16341:16472   */\n      tag_334\n        /* \"#utility.yul\":16467:16471   */\n      dup2\n        /* \"#utility.yul\":16341:16472   */\n      tag_168\n      jump\t// in\n    tag_334:\n        /* \"#utility.yul\":16333:16472   */\n      swap1\n      pop\n        /* \"#utility.yul\":16060:16479   */\n      swap2\n      swap1\n      pop\n      jump\t// out\n\n    auxdata: 0xa2646970667358221220c4b18b57c4cc3518f5c3d294b01831a77fb0264c78349c4e94f80d45b8c38fb964736f6c634300081a0033\n}\n",
				"bytecode": {
					"linkReferences": {},
					"object": "608060405234801561000f575f80fd5b5033600460036101000a81548173ffffffffffffffffffffffffffffffffffffffff021916908373ffffffffffffffffffffffffffffffffffffffff160217905550335f806101000a81548173ffffffffffffffffffffffffffffffffffffffff021916908373ffffffffffffffffffffffffffffffffffffffff1602179055505f60045f6101000a81548160ff0219169083151502179055505f600460016101000a81548160ff0219169083151502179055505f600460026101000a81548160ff02191690831515021790555060015f9054906101000a900473ffffffffffffffffffffffffffffffffffffffff1673ffffffffffffffffffffffffffffffffffffffff165f8054906101000a900473ffffffffffffffffffffffffffffffffffffffff1673ffffffffffffffffffffffffffffffffffffffff167fe18cb9b802d94b2dc5101f171d56bdd0ae763a50968fea4dc809c284e51be997600254600360405161017f9291906102a4565b60405180910390a36102d2565b5f819050919050565b61019e8161018c565b82525050565b7f4e487b71000000000000000000000000000000000000000000000000000000005f52602260045260245ffd5b5f60028204905060018216806101e857607f821691505b6020821081036101fb576101fa6101a4565b5b50919050565b5f82825260208201905092915050565b5f819050815f5260205f209050919050565b5f815461022f816101d1565b6102398186610201565b9450600182165f811461025357600181146102695761029b565b60ff19831686528115156020028601935061029b565b61027285610211565b5f5b8381101561029357815481890152600182019150602081019050610274565b808801955050505b50505092915050565b5f6040820190506102b75f830185610195565b81810360208301526102c98184610223565b90509392505050565b61124e806102df5f395ff3fe6080604052600436106100c1575f3560e01c80637150d8ae1161007e578063a795c2ce11610058578063a795c2ce1461023b578063aa8c217c14610265578063d0e30db01461028f578063f2a4a82e14610299576100c1565b80637150d8ae146101ab578063783db809146101d55780638da5cb5b14610211576100c1565b8063039e3e05146100c557806308551a53146100db5780631a3db582146101055780632312fff71461012f57806361b60f6b14610159578063696613a214610183575b5f80fd5b3480156100d0575f80fd5b506100d96102c3565b005b3480156100e6575f80fd5b506100ef6103d7565b6040516100fc91906109d8565b60405180910390f35b348015610110575f80fd5b506101196103fa565b6040516101269190610a0b565b60405180910390f35b34801561013a575f80fd5b50610143610410565b6040516101509190610a0b565b60405180910390f35b348015610164575f80fd5b5061016d610422565b60405161017a9190610a0b565b60405180910390f35b34801561018e575f80fd5b506101a960048036038101906101a49190610ba4565b610435565b005b3480156101b6575f80fd5b506101bf6105af565b6040516101cc91906109d8565b60405180910390f35b3480156101e0575f80fd5b506101fb60048036038101906101f69190610c28565b6105d4565b6040516102089190610a0b565b60405180910390f35b34801561021c575f80fd5b5061022561063c565b60405161023291906109d8565b60405180910390f35b348015610246575f80fd5b5061024f610662565b60405161025c9190610a0b565b60405180910390f35b348015610270575f80fd5b50610279610675565b6040516102869190610c62565b60405180910390f35b61029761067b565b005b3480156102a4575f80fd5b506102ad61076a565b6040516102ba9190610cdb565b60405180910390f35b5f8054906101000a900473ffffffffffffffffffffffffffffffffffffffff1673ffffffffffffffffffffffffffffffffffffffff163373ffffffffffffffffffffffffffffffffffffffff1614610350576040517f08c379a000000000000000000000000000000000000000000000000000000000815260040161034790610d6b565b60405180910390fd5b6001600460016101000a81548160ff0219169083151502179055505f8054906101000a900473ffffffffffffffffffffffffffffffffffffffff1673ffffffffffffffffffffffffffffffffffffffff167fe8b2bddd4b7daeaba32be7d8f242b974e1dcd03366dea076f1c8c08fb8a1c9c760405160405180910390a26103d56107f6565b565b5f8054906101000a900473ffffffffffffffffffffffffffffffffffffffff1681565b5f600460029054906101000a900460ff16905090565b60045f9054906101000a900460ff1681565b600460019054906101000a900460ff1681565b600460039054906101000a900473ffffffffffffffffffffffffffffffffffffffff1673ffffffffffffffffffffffffffffffffffffffff163373ffffffffffffffffffffffffffffffffffffffff16036104c5576040517f08c379a00000000000000000000000000000000000000000000000000000000081526004016104bc90610dd3565b60405180910390fd5b5f73ffffffffffffffffffffffffffffffffffffffff1660015f9054906101000a900473ffffffffffffffffffffffffffffffffffffffff1673ffffffffffffffffffffffffffffffffffffffff1614610554576040517f08c379a000000000000000000000000000000000000000000000000000000000815260040161054b90610e3b565b60405180910390fd5b3360015f6101000a81548173ffffffffffffffffffffffffffffffffffffffff021916908373ffffffffffffffffffffffffffffffffffffffff16021790555081600390816105a39190611053565b50806002819055505050565b60015f9054906101000a900473ffffffffffffffffffffffffffffffffffffffff1681565b5f8173ffffffffffffffffffffffffffffffffffffffff16600460039054906101000a900473ffffffffffffffffffffffffffffffffffffffff1673ffffffffffffffffffffffffffffffffffffffff16036106335760019050610637565b5f90505b919050565b600460039054906101000a900473ffffffffffffffffffffffffffffffffffffffff1681565b600460029054906101000a900460ff1681565b60025481565b60015f9054906101000a900473ffffffffffffffffffffffffffffffffffffffff1673ffffffffffffffffffffffffffffffffffffffff163373ffffffffffffffffffffffffffffffffffffffff161461070a576040517f08c379a000000000000000000000000000000000000000000000000000000000815260040161070190611192565b60405180910390fd5b600254341461074e576040517f08c379a0000000000000000000000000000000000000000000000000000000008152600401610745906111fa565b60405180910390fd5b600160045f6101000a81548160ff021916908315150217905550565b6003805461077790610e86565b80601f01602080910402602001604051908101604052809291908181526020018280546107a390610e86565b80156107ee5780601f106107c5576101008083540402835291602001916107ee565b820191905f5260205f20905b8154815290600101906020018083116107d157829003601f168201915b505050505081565b60045f9054906101000a900460ff16801561081d5750600460019054906101000a900460ff165b15610941576001600460026101000a81548160ff02191690831515021790555060015f9054906101000a900473ffffffffffffffffffffffffffffffffffffffff1673ffffffffffffffffffffffffffffffffffffffff165f8054906101000a900473ffffffffffffffffffffffffffffffffffffffff1673ffffffffffffffffffffffffffffffffffffffff167fac39c8d59d90e8ade4a53cfc4a559c2c4f47ea26fb6c9370a90a707f056a43c160405160405180910390a35f8054906101000a900473ffffffffffffffffffffffffffffffffffffffff1673ffffffffffffffffffffffffffffffffffffffff166108fc60025490811502906040515f60405180830381858888f1935050505015801561093b573d5f803e3d5ffd5b50610997565b5f1515600460029054906101000a900460ff16151514610996576040517f08c379a000000000000000000000000000000000000000000000000000000000815260040161098d90610e3b565b60405180910390fd5b5b565b5f73ffffffffffffffffffffffffffffffffffffffff82169050919050565b5f6109c282610999565b9050919050565b6109d2816109b8565b82525050565b5f6020820190506109eb5f8301846109c9565b92915050565b5f8115159050919050565b610a05816109f1565b82525050565b5f602082019050610a1e5f8301846109fc565b92915050565b5f604051905090565b5f80fd5b5f80fd5b5f80fd5b5f80fd5b5f601f19601f8301169050919050565b7f4e487b71000000000000000000000000000000000000000000000000000000005f52604160045260245ffd5b610a8382610a3d565b810181811067ffffffffffffffff82111715610aa257610aa1610a4d565b5b80604052505050565b5f610ab4610a24565b9050610ac08282610a7a565b919050565b5f67ffffffffffffffff821115610adf57610ade610a4d565b5b610ae882610a3d565b9050602081019050919050565b828183375f83830152505050565b5f610b15610b1084610ac5565b610aab565b905082815260208101848484011115610b3157610b30610a39565b5b610b3c848285610af5565b509392505050565b5f82601f830112610b5857610b57610a35565b5b8135610b68848260208601610b03565b91505092915050565b5f819050919050565b610b8381610b71565b8114610b8d575f80fd5b50565b5f81359050610b9e81610b7a565b92915050565b5f8060408385031215610bba57610bb9610a2d565b5b5f83013567ffffffffffffffff811115610bd757610bd6610a31565b5b610be385828601610b44565b9250506020610bf485828601610b90565b9150509250929050565b610c07816109b8565b8114610c11575f80fd5b50565b5f81359050610c2281610bfe565b92915050565b5f60208284031215610c3d57610c3c610a2d565b5b5f610c4a84828501610c14565b91505092915050565b610c5c81610b71565b82525050565b5f602082019050610c755f830184610c53565b92915050565b5f81519050919050565b5f82825260208201905092915050565b8281835e5f83830152505050565b5f610cad82610c7b565b610cb78185610c85565b9350610cc7818560208601610c95565b610cd081610a3d565b840191505092915050565b5f6020820190508181035f830152610cf38184610ca3565b905092915050565b7f4f6e6c792073656c6c65722063616e2063616c6c20746869732066756e6374695f8201527f6f6e000000000000000000000000000000000000000000000000000000000000602082015250565b5f610d55602283610c85565b9150610d6082610cfb565b604082019050919050565b5f6020820190508181035f830152610d8281610d49565b9050919050565b7f4f776e65722063616e27742062757900000000000000000000000000000000005f82015250565b5f610dbd600f83610c85565b9150610dc882610d89565b602082019050919050565b5f6020820190508181035f830152610dea81610db1565b9050919050565b7f547261646520416c726561647920436f6d70656c6574656400000000000000005f82015250565b5f610e25601883610c85565b9150610e3082610df1565b602082019050919050565b5f6020820190508181035f830152610e5281610e19565b9050919050565b7f4e487b71000000000000000000000000000000000000000000000000000000005f52602260045260245ffd5b5f6002820490506001821680610e9d57607f821691505b602082108103610eb057610eaf610e59565b5b50919050565b5f819050815f5260205f209050919050565b5f6020601f8301049050919050565b5f82821b905092915050565b5f60088302610f127fffffffffffffffffffffffffffffffffffffffffffffffffffffffffffffffff82610ed7565b610f1c8683610ed7565b95508019841693508086168417925050509392505050565b5f819050919050565b5f610f57610f52610f4d84610b71565b610f34565b610b71565b9050919050565b5f819050919050565b610f7083610f3d565b610f84610f7c82610f5e565b848454610ee3565b825550505050565b5f90565b610f98610f8c565b610fa3818484610f67565b505050565b5b81811015610fc657610fbb5f82610f90565b600181019050610fa9565b5050565b601f82111561100b57610fdc81610eb6565b610fe584610ec8565b81016020851015610ff4578190505b61100861100085610ec8565b830182610fa8565b50505b505050565b5f82821c905092915050565b5f61102b5f1984600802611010565b1980831691505092915050565b5f611043838361101c565b9150826002028217905092915050565b61105c82610c7b565b67ffffffffffffffff81111561107557611074610a4d565b5b61107f8254610e86565b61108a828285610fca565b5f60209050601f8311600181146110bb575f84156110a9578287015190505b6110b38582611038565b86555061111a565b601f1984166110c986610eb6565b5f5b828110156110f0578489015182556001820191506020850194506020810190506110cb565b8683101561110d5784890151611109601f89168261101c565b8355505b6001600288020188555050505b505050505050565b7f4f6e6c792062757965722063616e2063616c6c20746869732066756e6374696f5f8201527f6e00000000000000000000000000000000000000000000000000000000000000602082015250565b5f61117c602183610c85565b915061118782611122565b604082019050919050565b5f6020820190508181035f8301526111a981611170565b9050919050565b7f496e636f727265637420416d6f756e74000000000000000000000000000000005f82015250565b5f6111e4601083610c85565b91506111ef826111b0565b602082019050919050565b5f6020820190508181035f830152611211816111d8565b905091905056fea2646970667358221220c4b18b57c4cc3518f5c3d294b01831a77fb0264c78349c4e94f80d45b8c38fb964736f6c634300081a0033",
					"opcodes": "PUSH1 0x80 PUSH1 0x40 MSTORE CALLVALUE DUP1 ISZERO PUSH2 0xF JUMPI PUSH0 DUP1 REVERT JUMPDEST POP CALLER PUSH1 0x4 PUSH1 0x3 PUSH2 0x100 EXP DUP2 SLOAD DUP2 PUSH20 0xFFFFFFFFFFFFFFFFFFFFFFFFFFFFFFFFFFFFFFFF MUL NOT AND SWAP1 DUP4 PUSH20 0xFFFFFFFFFFFFFFFFFFFFFFFFFFFFFFFFFFFFFFFF AND MUL OR SWAP1 SSTORE POP CALLER PUSH0 DUP1 PUSH2 0x100 EXP DUP2 SLOAD DUP2 PUSH20 0xFFFFFFFFFFFFFFFFFFFFFFFFFFFFFFFFFFFFFFFF MUL NOT AND SWAP1 DUP4 PUSH20 0xFFFFFFFFFFFFFFFFFFFFFFFFFFFFFFFFFFFFFFFF AND MUL OR SWAP1 SSTORE POP PUSH0 PUSH1 0x4 PUSH0 PUSH2 0x100 EXP DUP2 SLOAD DUP2 PUSH1 0xFF MUL NOT AND SWAP1 DUP4 ISZERO ISZERO MUL OR SWAP1 SSTORE POP PUSH0 PUSH1 0x4 PUSH1 0x1 PUSH2 0x100 EXP DUP2 SLOAD DUP2 PUSH1 0xFF MUL NOT AND SWAP1 DUP4 ISZERO ISZERO MUL OR SWAP1 SSTORE POP PUSH0 PUSH1 0x4 PUSH1 0x2 PUSH2 0x100 EXP DUP2 SLOAD DUP2 PUSH1 0xFF MUL NOT AND SWAP1 DUP4 ISZERO ISZERO MUL OR SWAP1 SSTORE POP PUSH1 0x1 PUSH0 SWAP1 SLOAD SWAP1 PUSH2 0x100 EXP SWAP1 DIV PUSH20 0xFFFFFFFFFFFFFFFFFFFFFFFFFFFFFFFFFFFFFFFF AND PUSH20 0xFFFFFFFFFFFFFFFFFFFFFFFFFFFFFFFFFFFFFFFF AND PUSH0 DUP1 SLOAD SWAP1 PUSH2 0x100 EXP SWAP1 DIV PUSH20 0xFFFFFFFFFFFFFFFFFFFFFFFFFFFFFFFFFFFFFFFF AND PUSH20 0xFFFFFFFFFFFFFFFFFFFFFFFFFFFFFFFFFFFFFFFF AND PUSH32 0xE18CB9B802D94B2DC5101F171D56BDD0AE763A50968FEA4DC809C284E51BE997 PUSH1 0x2 SLOAD PUSH1 0x3 PUSH1 0x40 MLOAD PUSH2 0x17F SWAP3 SWAP2 SWAP1 PUSH2 0x2A4 JUMP JUMPDEST PUSH1 0x40 MLOAD DUP1 SWAP2 SUB SWAP1 LOG3 PUSH2 0x2D2 JUMP JUMPDEST PUSH0 DUP2 SWAP1 POP SWAP2 SWAP1 POP JUMP JUMPDEST PUSH2 0x19E DUP2 PUSH2 0x18C JUMP JUMPDEST DUP3 MSTORE POP POP JUMP JUMPDEST PUSH32 0x4E487B7100000000000000000000000000000000000000000000000000000000 PUSH0 MSTORE PUSH1 0x22 PUSH1 0x4 MSTORE PUSH1 0x24 PUSH0 REVERT JUMPDEST PUSH0 PUSH1 0x2 DUP3 DIV SWAP1 POP PUSH1 0x1 DUP3 AND DUP1 PUSH2 0x1E8 JUMPI PUSH1 0x7F DUP3 AND SWAP2 POP JUMPDEST PUSH1 0x20 DUP3 LT DUP2 SUB PUSH2 0x1FB JUMPI PUSH2 0x1FA PUSH2 0x1A4 JUMP JUMPDEST JUMPDEST POP SWAP2 SWAP1 POP JUMP JUMPDEST PUSH0 DUP3 DUP3 MSTORE PUSH1 0x20 DUP3 ADD SWAP1 POP SWAP3 SWAP2 POP POP JUMP JUMPDEST PUSH0 DUP2 SWAP1 POP DUP2 PUSH0 MSTORE PUSH1 0x20 PUSH0 KECCAK256 SWAP1 POP SWAP2 SWAP1 POP JUMP JUMPDEST PUSH0 DUP2 SLOAD PUSH2 0x22F DUP2 PUSH2 0x1D1 JUMP JUMPDEST PUSH2 0x239 DUP2 DUP7 PUSH2 0x201 JUMP JUMPDEST SWAP5 POP PUSH1 0x1 DUP3 AND PUSH0 DUP2 EQ PUSH2 0x253 JUMPI PUSH1 0x1 DUP2 EQ PUSH2 0x269 JUMPI PUSH2 0x29B JUMP JUMPDEST PUSH1 0xFF NOT DUP4 AND DUP7 MSTORE DUP2 ISZERO ISZERO PUSH1 0x20 MUL DUP7 ADD SWAP4 POP PUSH2 0x29B JUMP JUMPDEST PUSH2 0x272 DUP6 PUSH2 0x211 JUMP JUMPDEST PUSH0 JUMPDEST DUP4 DUP2 LT ISZERO PUSH2 0x293 JUMPI DUP2 SLOAD DUP2 DUP10 ADD MSTORE PUSH1 0x1 DUP3 ADD SWAP2 POP PUSH1 0x20 DUP2 ADD SWAP1 POP PUSH2 0x274 JUMP JUMPDEST DUP1 DUP9 ADD SWAP6 POP POP POP JUMPDEST POP POP POP SWAP3 SWAP2 POP POP JUMP JUMPDEST PUSH0 PUSH1 0x40 DUP3 ADD SWAP1 POP PUSH2 0x2B7 PUSH0 DUP4 ADD DUP6 PUSH2 0x195 JUMP JUMPDEST DUP2 DUP2 SUB PUSH1 0x20 DUP4 ADD MSTORE PUSH2 0x2C9 DUP2 DUP5 PUSH2 0x223 JUMP JUMPDEST SWAP1 POP SWAP4 SWAP3 POP POP POP JUMP JUMPDEST PUSH2 0x124E DUP1 PUSH2 0x2DF PUSH0 CODECOPY PUSH0 RETURN INVALID PUSH1 0x80 PUSH1 0x40 MSTORE PUSH1 0x4 CALLDATASIZE LT PUSH2 0xC1 JUMPI PUSH0 CALLDATALOAD PUSH1 0xE0 SHR DUP1 PUSH4 0x7150D8AE GT PUSH2 0x7E JUMPI DUP1 PUSH4 0xA795C2CE GT PUSH2 0x58 JUMPI DUP1 PUSH4 0xA795C2CE EQ PUSH2 0x23B JUMPI DUP1 PUSH4 0xAA8C217C EQ PUSH2 0x265 JUMPI DUP1 PUSH4 0xD0E30DB0 EQ PUSH2 0x28F JUMPI DUP1 PUSH4 0xF2A4A82E EQ PUSH2 0x299 JUMPI PUSH2 0xC1 JUMP JUMPDEST DUP1 PUSH4 0x7150D8AE EQ PUSH2 0x1AB JUMPI DUP1 PUSH4 0x783DB809 EQ PUSH2 0x1D5 JUMPI DUP1 PUSH4 0x8DA5CB5B EQ PUSH2 0x211 JUMPI PUSH2 0xC1 JUMP JUMPDEST DUP1 PUSH4 0x39E3E05 EQ PUSH2 0xC5 JUMPI DUP1 PUSH4 0x8551A53 EQ PUSH2 0xDB JUMPI DUP1 PUSH4 0x1A3DB582 EQ PUSH2 0x105 JUMPI DUP1 PUSH4 0x2312FFF7 EQ PUSH2 0x12F JUMPI DUP1 PUSH4 0x61B60F6B EQ PUSH2 0x159 JUMPI DUP1 PUSH4 0x696613A2 EQ PUSH2 0x183 JUMPI JUMPDEST PUSH0 DUP1 REVERT JUMPDEST CALLVALUE DUP1 ISZERO PUSH2 0xD0 JUMPI PUSH0 DUP1 REVERT JUMPDEST POP PUSH2 0xD9 PUSH2 0x2C3 JUMP JUMPDEST STOP JUMPDEST CALLVALUE DUP1 ISZERO PUSH2 0xE6 JUMPI PUSH0 DUP1 REVERT JUMPDEST POP PUSH2 0xEF PUSH2 0x3D7 JUMP JUMPDEST PUSH1 0x40 MLOAD PUSH2 0xFC SWAP2 SWAP1 PUSH2 0x9D8 JUMP JUMPDEST PUSH1 0x40 MLOAD DUP1 SWAP2 SUB SWAP1 RETURN JUMPDEST CALLVALUE DUP1 ISZERO PUSH2 0x110 JUMPI PUSH0 DUP1 REVERT JUMPDEST POP PUSH2 0x119 PUSH2 0x3FA JUMP JUMPDEST PUSH1 0x40 MLOAD PUSH2 0x126 SWAP2 SWAP1 PUSH2 0xA0B JUMP JUMPDEST PUSH1 0x40 MLOAD DUP1 SWAP2 SUB SWAP1 RETURN JUMPDEST CALLVALUE DUP1 ISZERO PUSH2 0x13A JUMPI PUSH0 DUP1 REVERT JUMPDEST POP PUSH2 0x143 PUSH2 0x410 JUMP JUMPDEST PUSH1 0x40 MLOAD PUSH2 0x150 SWAP2 SWAP1 PUSH2 0xA0B JUMP JUMPDEST PUSH1 0x40 MLOAD DUP1 SWAP2 SUB SWAP1 RETURN JUMPDEST CALLVALUE DUP1 ISZERO PUSH2 0x164 JUMPI PUSH0 DUP1 REVERT JUMPDEST POP PUSH2 0x16D PUSH2 0x422 JUMP JUMPDEST PUSH1 0x40 MLOAD PUSH2 0x17A SWAP2 SWAP1 PUSH2 0xA0B JUMP JUMPDEST PUSH1 0x40 MLOAD DUP1 SWAP2 SUB SWAP1 RETURN JUMPDEST CALLVALUE DUP1 ISZERO PUSH2 0x18E JUMPI PUSH0 DUP1 REVERT JUMPDEST POP PUSH2 0x1A9 PUSH1 0x4 DUP1 CALLDATASIZE SUB DUP2 ADD SWAP1 PUSH2 0x1A4 SWAP2 SWAP1 PUSH2 0xBA4 JUMP JUMPDEST PUSH2 0x435 JUMP JUMPDEST STOP JUMPDEST CALLVALUE DUP1 ISZERO PUSH2 0x1B6 JUMPI PUSH0 DUP1 REVERT JUMPDEST POP PUSH2 0x1BF PUSH2 0x5AF JUMP JUMPDEST PUSH1 0x40 MLOAD PUSH2 0x1CC SWAP2 SWAP1 PUSH2 0x9D8 JUMP JUMPDEST PUSH1 0x40 MLOAD DUP1 SWAP2 SUB SWAP1 RETURN JUMPDEST CALLVALUE DUP1 ISZERO PUSH2 0x1E0 JUMPI PUSH0 DUP1 REVERT JUMPDEST POP PUSH2 0x1FB PUSH1 0x4 DUP1 CALLDATASIZE SUB DUP2 ADD SWAP1 PUSH2 0x1F6 SWAP2 SWAP1 PUSH2 0xC28 JUMP JUMPDEST PUSH2 0x5D4 JUMP JUMPDEST PUSH1 0x40 MLOAD PUSH2 0x208 SWAP2 SWAP1 PUSH2 0xA0B JUMP JUMPDEST PUSH1 0x40 MLOAD DUP1 SWAP2 SUB SWAP1 RETURN JUMPDEST CALLVALUE DUP1 ISZERO PUSH2 0x21C JUMPI PUSH0 DUP1 REVERT JUMPDEST POP PUSH2 0x225 PUSH2 0x63C JUMP JUMPDEST PUSH1 0x40 MLOAD PUSH2 0x232 SWAP2 SWAP1 PUSH2 0x9D8 JUMP JUMPDEST PUSH1 0x40 MLOAD DUP1 SWAP2 SUB SWAP1 RETURN JUMPDEST CALLVALUE DUP1 ISZERO PUSH2 0x246 JUMPI PUSH0 DUP1 REVERT JUMPDEST POP PUSH2 0x24F PUSH2 0x662 JUMP JUMPDEST PUSH1 0x40 MLOAD PUSH2 0x25C SWAP2 SWAP1 PUSH2 0xA0B JUMP JUMPDEST PUSH1 0x40 MLOAD DUP1 SWAP2 SUB SWAP1 RETURN JUMPDEST CALLVALUE DUP1 ISZERO PUSH2 0x270 JUMPI PUSH0 DUP1 REVERT JUMPDEST POP PUSH2 0x279 PUSH2 0x675 JUMP JUMPDEST PUSH1 0x40 MLOAD PUSH2 0x286 SWAP2 SWAP1 PUSH2 0xC62 JUMP JUMPDEST PUSH1 0x40 MLOAD DUP1 SWAP2 SUB SWAP1 RETURN JUMPDEST PUSH2 0x297 PUSH2 0x67B JUMP JUMPDEST STOP JUMPDEST CALLVALUE DUP1 ISZERO PUSH2 0x2A4 JUMPI PUSH0 DUP1 REVERT JUMPDEST POP PUSH2 0x2AD PUSH2 0x76A JUMP JUMPDEST PUSH1 0x40 MLOAD PUSH2 0x2BA SWAP2 SWAP1 PUSH2 0xCDB JUMP JUMPDEST PUSH1 0x40 MLOAD DUP1 SWAP2 SUB SWAP1 RETURN JUMPDEST PUSH0 DUP1 SLOAD SWAP1 PUSH2 0x100 EXP SWAP1 DIV PUSH20 0xFFFFFFFFFFFFFFFFFFFFFFFFFFFFFFFFFFFFFFFF AND PUSH20 0xFFFFFFFFFFFFFFFFFFFFFFFFFFFFFFFFFFFFFFFF AND CALLER PUSH20 0xFFFFFFFFFFFFFFFFFFFFFFFFFFFFFFFFFFFFFFFF AND EQ PUSH2 0x350 JUMPI PUSH1 0x40 MLOAD PUSH32 0x8C379A000000000000000000000000000000000000000000000000000000000 DUP2 MSTORE PUSH1 0x4 ADD PUSH2 0x347 SWAP1 PUSH2 0xD6B JUMP JUMPDEST PUSH1 0x40 MLOAD DUP1 SWAP2 SUB SWAP1 REVERT JUMPDEST PUSH1 0x1 PUSH1 0x4 PUSH1 0x1 PUSH2 0x100 EXP DUP2 SLOAD DUP2 PUSH1 0xFF MUL NOT AND SWAP1 DUP4 ISZERO ISZERO MUL OR SWAP1 SSTORE POP PUSH0 DUP1 SLOAD SWAP1 PUSH2 0x100 EXP SWAP1 DIV PUSH20 0xFFFFFFFFFFFFFFFFFFFFFFFFFFFFFFFFFFFFFFFF AND PUSH20 0xFFFFFFFFFFFFFFFFFFFFFFFFFFFFFFFFFFFFFFFF AND PUSH32 0xE8B2BDDD4B7DAEABA32BE7D8F242B974E1DCD03366DEA076F1C8C08FB8A1C9C7 PUSH1 0x40 MLOAD PUSH1 0x40 MLOAD DUP1 SWAP2 SUB SWAP1 LOG2 PUSH2 0x3D5 PUSH2 0x7F6 JUMP JUMPDEST JUMP JUMPDEST PUSH0 DUP1 SLOAD SWAP1 PUSH2 0x100 EXP SWAP1 DIV PUSH20 0xFFFFFFFFFFFFFFFFFFFFFFFFFFFFFFFFFFFFFFFF AND DUP2 JUMP JUMPDEST PUSH0 PUSH1 0x4 PUSH1 0x2 SWAP1 SLOAD SWAP1 PUSH2 0x100 EXP SWAP1 DIV PUSH1 0xFF AND SWAP1 POP SWAP1 JUMP JUMPDEST PUSH1 0x4 PUSH0 SWAP1 SLOAD SWAP1 PUSH2 0x100 EXP SWAP1 DIV PUSH1 0xFF AND DUP2 JUMP JUMPDEST PUSH1 0x4 PUSH1 0x1 SWAP1 SLOAD SWAP1 PUSH2 0x100 EXP SWAP1 DIV PUSH1 0xFF AND DUP2 JUMP JUMPDEST PUSH1 0x4 PUSH1 0x3 SWAP1 SLOAD SWAP1 PUSH2 0x100 EXP SWAP1 DIV PUSH20 0xFFFFFFFFFFFFFFFFFFFFFFFFFFFFFFFFFFFFFFFF AND PUSH20 0xFFFFFFFFFFFFFFFFFFFFFFFFFFFFFFFFFFFFFFFF AND CALLER PUSH20 0xFFFFFFFFFFFFFFFFFFFFFFFFFFFFFFFFFFFFFFFF AND SUB PUSH2 0x4C5 JUMPI PUSH1 0x40 MLOAD PUSH32 0x8C379A000000000000000000000000000000000000000000000000000000000 DUP2 MSTORE PUSH1 0x4 ADD PUSH2 0x4BC SWAP1 PUSH2 0xDD3 JUMP JUMPDEST PUSH1 0x40 MLOAD DUP1 SWAP2 SUB SWAP1 REVERT JUMPDEST PUSH0 PUSH20 0xFFFFFFFFFFFFFFFFFFFFFFFFFFFFFFFFFFFFFFFF AND PUSH1 0x1 PUSH0 SWAP1 SLOAD SWAP1 PUSH2 0x100 EXP SWAP1 DIV PUSH20 0xFFFFFFFFFFFFFFFFFFFFFFFFFFFFFFFFFFFFFFFF AND PUSH20 0xFFFFFFFFFFFFFFFFFFFFFFFFFFFFFFFFFFFFFFFF AND EQ PUSH2 0x554 JUMPI PUSH1 0x40 MLOAD PUSH32 0x8C379A000000000000000000000000000000000000000000000000000000000 DUP2 MSTORE PUSH1 0x4 ADD PUSH2 0x54B SWAP1 PUSH2 0xE3B JUMP JUMPDEST PUSH1 0x40 MLOAD DUP1 SWAP2 SUB SWAP1 REVERT JUMPDEST CALLER PUSH1 0x1 PUSH0 PUSH2 0x100 EXP DUP2 SLOAD DUP2 PUSH20 0xFFFFFFFFFFFFFFFFFFFFFFFFFFFFFFFFFFFFFFFF MUL NOT AND SWAP1 DUP4 PUSH20 0xFFFFFFFFFFFFFFFFFFFFFFFFFFFFFFFFFFFFFFFF AND MUL OR SWAP1 SSTORE POP DUP2 PUSH1 0x3 SWAP1 DUP2 PUSH2 0x5A3 SWAP2 SWAP1 PUSH2 0x1053 JUMP JUMPDEST POP DUP1 PUSH1 0x2 DUP2 SWAP1 SSTORE POP POP POP JUMP JUMPDEST PUSH1 0x1 PUSH0 SWAP1 SLOAD SWAP1 PUSH2 0x100 EXP SWAP1 DIV PUSH20 0xFFFFFFFFFFFFFFFFFFFFFFFFFFFFFFFFFFFFFFFF AND DUP2 JUMP JUMPDEST PUSH0 DUP2 PUSH20 0xFFFFFFFFFFFFFFFFFFFFFFFFFFFFFFFFFFFFFFFF AND PUSH1 0x4 PUSH1 0x3 SWAP1 SLOAD SWAP1 PUSH2 0x100 EXP SWAP1 DIV PUSH20 0xFFFFFFFFFFFFFFFFFFFFFFFFFFFFFFFFFFFFFFFF AND PUSH20 0xFFFFFFFFFFFFFFFFFFFFFFFFFFFFFFFFFFFFFFFF AND SUB PUSH2 0x633 JUMPI PUSH1 0x1 SWAP1 POP PUSH2 0x637 JUMP JUMPDEST PUSH0 SWAP1 POP JUMPDEST SWAP2 SWAP1 POP JUMP JUMPDEST PUSH1 0x4 PUSH1 0x3 SWAP1 SLOAD SWAP1 PUSH2 0x100 EXP SWAP1 DIV PUSH20 0xFFFFFFFFFFFFFFFFFFFFFFFFFFFFFFFFFFFFFFFF AND DUP2 JUMP JUMPDEST PUSH1 0x4 PUSH1 0x2 SWAP1 SLOAD SWAP1 PUSH2 0x100 EXP SWAP1 DIV PUSH1 0xFF AND DUP2 JUMP JUMPDEST PUSH1 0x2 SLOAD DUP2 JUMP JUMPDEST PUSH1 0x1 PUSH0 SWAP1 SLOAD SWAP1 PUSH2 0x100 EXP SWAP1 DIV PUSH20 0xFFFFFFFFFFFFFFFFFFFFFFFFFFFFFFFFFFFFFFFF AND PUSH20 0xFFFFFFFFFFFFFFFFFFFFFFFFFFFFFFFFFFFFFFFF AND CALLER PUSH20 0xFFFFFFFFFFFFFFFFFFFFFFFFFFFFFFFFFFFFFFFF AND EQ PUSH2 0x70A JUMPI PUSH1 0x40 MLOAD PUSH32 0x8C379A000000000000000000000000000000000000000000000000000000000 DUP2 MSTORE PUSH1 0x4 ADD PUSH2 0x701 SWAP1 PUSH2 0x1192 JUMP JUMPDEST PUSH1 0x40 MLOAD DUP1 SWAP2 SUB SWAP1 REVERT JUMPDEST PUSH1 0x2 SLOAD CALLVALUE EQ PUSH2 0x74E JUMPI PUSH1 0x40 MLOAD PUSH32 0x8C379A000000000000000000000000000000000000000000000000000000000 DUP2 MSTORE PUSH1 0x4 ADD PUSH2 0x745 SWAP1 PUSH2 0x11FA JUMP JUMPDEST PUSH1 0x40 MLOAD DUP1 SWAP2 SUB SWAP1 REVERT JUMPDEST PUSH1 0x1 PUSH1 0x4 PUSH0 PUSH2 0x100 EXP DUP2 SLOAD DUP2 PUSH1 0xFF MUL NOT AND SWAP1 DUP4 ISZERO ISZERO MUL OR SWAP1 SSTORE POP JUMP JUMPDEST PUSH1 0x3 DUP1 SLOAD PUSH2 0x777 SWAP1 PUSH2 0xE86 JUMP JUMPDEST DUP1 PUSH1 0x1F ADD PUSH1 0x20 DUP1 SWAP2 DIV MUL PUSH1 0x20 ADD PUSH1 0x40 MLOAD SWAP1 DUP2 ADD PUSH1 0x40 MSTORE DUP1 SWAP3 SWAP2 SWAP1 DUP2 DUP2 MSTORE PUSH1 0x20 ADD DUP3 DUP1 SLOAD PUSH2 0x7A3 SWAP1 PUSH2 0xE86 JUMP JUMPDEST DUP1 ISZERO PUSH2 0x7EE JUMPI DUP1 PUSH1 0x1F LT PUSH2 0x7C5 JUMPI PUSH2 0x100 DUP1 DUP4 SLOAD DIV MUL DUP4 MSTORE SWAP2 PUSH1 0x20 ADD SWAP2 PUSH2 0x7EE JUMP JUMPDEST DUP3 ADD SWAP2 SWAP1 PUSH0 MSTORE PUSH1 0x20 PUSH0 KECCAK256 SWAP1 JUMPDEST DUP2 SLOAD DUP2 MSTORE SWAP1 PUSH1 0x1 ADD SWAP1 PUSH1 0x20 ADD DUP1 DUP4 GT PUSH2 0x7D1 JUMPI DUP3 SWAP1 SUB PUSH1 0x1F AND DUP3 ADD SWAP2 JUMPDEST POP POP POP POP POP DUP2 JUMP JUMPDEST PUSH1 0x4 PUSH0 SWAP1 SLOAD SWAP1 PUSH2 0x100 EXP SWAP1 DIV PUSH1 0xFF AND DUP1 ISZERO PUSH2 0x81D JUMPI POP PUSH1 0x4 PUSH1 0x1 SWAP1 SLOAD SWAP1 PUSH2 0x100 EXP SWAP1 DIV PUSH1 0xFF AND JUMPDEST ISZERO PUSH2 0x941 JUMPI PUSH1 0x1 PUSH1 0x4 PUSH1 0x2 PUSH2 0x100 EXP DUP2 SLOAD DUP2 PUSH1 0xFF MUL NOT AND SWAP1 DUP4 ISZERO ISZERO MUL OR SWAP1 SSTORE POP PUSH1 0x1 PUSH0 SWAP1 SLOAD SWAP1 PUSH2 0x100 EXP SWAP1 DIV PUSH20 0xFFFFFFFFFFFFFFFFFFFFFFFFFFFFFFFFFFFFFFFF AND PUSH20 0xFFFFFFFFFFFFFFFFFFFFFFFFFFFFFFFFFFFFFFFF AND PUSH0 DUP1 SLOAD SWAP1 PUSH2 0x100 EXP SWAP1 DIV PUSH20 0xFFFFFFFFFFFFFFFFFFFFFFFFFFFFFFFFFFFFFFFF AND PUSH20 0xFFFFFFFFFFFFFFFFFFFFFFFFFFFFFFFFFFFFFFFF AND PUSH32 0xAC39C8D59D90E8ADE4A53CFC4A559C2C4F47EA26FB6C9370A90A707F056A43C1 PUSH1 0x40 MLOAD PUSH1 0x40 MLOAD DUP1 SWAP2 SUB SWAP1 LOG3 PUSH0 DUP1 SLOAD SWAP1 PUSH2 0x100 EXP SWAP1 DIV PUSH20 0xFFFFFFFFFFFFFFFFFFFFFFFFFFFFFFFFFFFFFFFF AND PUSH20 0xFFFFFFFFFFFFFFFFFFFFFFFFFFFFFFFFFFFFFFFF AND PUSH2 0x8FC PUSH1 0x2 SLOAD SWAP1 DUP2 ISZERO MUL SWAP1 PUSH1 0x40 MLOAD PUSH0 PUSH1 0x40 MLOAD DUP1 DUP4 SUB DUP2 DUP6 DUP9 DUP9 CALL SWAP4 POP POP POP POP ISZERO DUP1 ISZERO PUSH2 0x93B JUMPI RETURNDATASIZE PUSH0 DUP1 RETURNDATACOPY RETURNDATASIZE PUSH0 REVERT JUMPDEST POP PUSH2 0x997 JUMP JUMPDEST PUSH0 ISZERO ISZERO PUSH1 0x4 PUSH1 0x2 SWAP1 SLOAD SWAP1 PUSH2 0x100 EXP SWAP1 DIV PUSH1 0xFF AND ISZERO ISZERO EQ PUSH2 0x996 JUMPI PUSH1 0x40 MLOAD PUSH32 0x8C379A000000000000000000000000000000000000000000000000000000000 DUP2 MSTORE PUSH1 0x4 ADD PUSH2 0x98D SWAP1 PUSH2 0xE3B JUMP JUMPDEST PUSH1 0x40 MLOAD DUP1 SWAP2 SUB SWAP1 REVERT JUMPDEST JUMPDEST JUMP JUMPDEST PUSH0 PUSH20 0xFFFFFFFFFFFFFFFFFFFFFFFFFFFFFFFFFFFFFFFF DUP3 AND SWAP1 POP SWAP2 SWAP1 POP JUMP JUMPDEST PUSH0 PUSH2 0x9C2 DUP3 PUSH2 0x999 JUMP JUMPDEST SWAP1 POP SWAP2 SWAP1 POP JUMP JUMPDEST PUSH2 0x9D2 DUP2 PUSH2 0x9B8 JUMP JUMPDEST DUP3 MSTORE POP POP JUMP JUMPDEST PUSH0 PUSH1 0x20 DUP3 ADD SWAP1 POP PUSH2 0x9EB PUSH0 DUP4 ADD DUP5 PUSH2 0x9C9 JUMP JUMPDEST SWAP3 SWAP2 POP POP JUMP JUMPDEST PUSH0 DUP2 ISZERO ISZERO SWAP1 POP SWAP2 SWAP1 POP JUMP JUMPDEST PUSH2 0xA05 DUP2 PUSH2 0x9F1 JUMP JUMPDEST DUP3 MSTORE POP POP JUMP JUMPDEST PUSH0 PUSH1 0x20 DUP3 ADD SWAP1 POP PUSH2 0xA1E PUSH0 DUP4 ADD DUP5 PUSH2 0x9FC JUMP JUMPDEST SWAP3 SWAP2 POP POP JUMP JUMPDEST PUSH0 PUSH1 0x40 MLOAD SWAP1 POP SWAP1 JUMP JUMPDEST PUSH0 DUP1 REVERT JUMPDEST PUSH0 DUP1 REVERT JUMPDEST PUSH0 DUP1 REVERT JUMPDEST PUSH0 DUP1 REVERT JUMPDEST PUSH0 PUSH1 0x1F NOT PUSH1 0x1F DUP4 ADD AND SWAP1 POP SWAP2 SWAP1 POP JUMP JUMPDEST PUSH32 0x4E487B7100000000000000000000000000000000000000000000000000000000 PUSH0 MSTORE PUSH1 0x41 PUSH1 0x4 MSTORE PUSH1 0x24 PUSH0 REVERT JUMPDEST PUSH2 0xA83 DUP3 PUSH2 0xA3D JUMP JUMPDEST DUP2 ADD DUP2 DUP2 LT PUSH8 0xFFFFFFFFFFFFFFFF DUP3 GT OR ISZERO PUSH2 0xAA2 JUMPI PUSH2 0xAA1 PUSH2 0xA4D JUMP JUMPDEST JUMPDEST DUP1 PUSH1 0x40 MSTORE POP POP POP JUMP JUMPDEST PUSH0 PUSH2 0xAB4 PUSH2 0xA24 JUMP JUMPDEST SWAP1 POP PUSH2 0xAC0 DUP3 DUP3 PUSH2 0xA7A JUMP JUMPDEST SWAP2 SWAP1 POP JUMP JUMPDEST PUSH0 PUSH8 0xFFFFFFFFFFFFFFFF DUP3 GT ISZERO PUSH2 0xADF JUMPI PUSH2 0xADE PUSH2 0xA4D JUMP JUMPDEST JUMPDEST PUSH2 0xAE8 DUP3 PUSH2 0xA3D JUMP JUMPDEST SWAP1 POP PUSH1 0x20 DUP2 ADD SWAP1 POP SWAP2 SWAP1 POP JUMP JUMPDEST DUP3 DUP2 DUP4 CALLDATACOPY PUSH0 DUP4 DUP4 ADD MSTORE POP POP POP JUMP JUMPDEST PUSH0 PUSH2 0xB15 PUSH2 0xB10 DUP5 PUSH2 0xAC5 JUMP JUMPDEST PUSH2 0xAAB JUMP JUMPDEST SWAP1 POP DUP3 DUP2 MSTORE PUSH1 0x20 DUP2 ADD DUP5 DUP5 DUP5 ADD GT ISZERO PUSH2 0xB31 JUMPI PUSH2 0xB30 PUSH2 0xA39 JUMP JUMPDEST JUMPDEST PUSH2 0xB3C DUP5 DUP3 DUP6 PUSH2 0xAF5 JUMP JUMPDEST POP SWAP4 SWAP3 POP POP POP JUMP JUMPDEST PUSH0 DUP3 PUSH1 0x1F DUP4 ADD SLT PUSH2 0xB58 JUMPI PUSH2 0xB57 PUSH2 0xA35 JUMP JUMPDEST JUMPDEST DUP2 CALLDATALOAD PUSH2 0xB68 DUP5 DUP3 PUSH1 0x20 DUP7 ADD PUSH2 0xB03 JUMP JUMPDEST SWAP2 POP POP SWAP3 SWAP2 POP POP JUMP JUMPDEST PUSH0 DUP2 SWAP1 POP SWAP2 SWAP1 POP JUMP JUMPDEST PUSH2 0xB83 DUP2 PUSH2 0xB71 JUMP JUMPDEST DUP2 EQ PUSH2 0xB8D JUMPI PUSH0 DUP1 REVERT JUMPDEST POP JUMP JUMPDEST PUSH0 DUP2 CALLDATALOAD SWAP1 POP PUSH2 0xB9E DUP2 PUSH2 0xB7A JUMP JUMPDEST SWAP3 SWAP2 POP POP JUMP JUMPDEST PUSH0 DUP1 PUSH1 0x40 DUP4 DUP6 SUB SLT ISZERO PUSH2 0xBBA JUMPI PUSH2 0xBB9 PUSH2 0xA2D JUMP JUMPDEST JUMPDEST PUSH0 DUP4 ADD CALLDATALOAD PUSH8 0xFFFFFFFFFFFFFFFF DUP2 GT ISZERO PUSH2 0xBD7 JUMPI PUSH2 0xBD6 PUSH2 0xA31 JUMP JUMPDEST JUMPDEST PUSH2 0xBE3 DUP6 DUP3 DUP7 ADD PUSH2 0xB44 JUMP JUMPDEST SWAP3 POP POP PUSH1 0x20 PUSH2 0xBF4 DUP6 DUP3 DUP7 ADD PUSH2 0xB90 JUMP JUMPDEST SWAP2 POP POP SWAP3 POP SWAP3 SWAP1 POP JUMP JUMPDEST PUSH2 0xC07 DUP2 PUSH2 0x9B8 JUMP JUMPDEST DUP2 EQ PUSH2 0xC11 JUMPI PUSH0 DUP1 REVERT JUMPDEST POP JUMP JUMPDEST PUSH0 DUP2 CALLDATALOAD SWAP1 POP PUSH2 0xC22 DUP2 PUSH2 0xBFE JUMP JUMPDEST SWAP3 SWAP2 POP POP JUMP JUMPDEST PUSH0 PUSH1 0x20 DUP3 DUP5 SUB SLT ISZERO PUSH2 0xC3D JUMPI PUSH2 0xC3C PUSH2 0xA2D JUMP JUMPDEST JUMPDEST PUSH0 PUSH2 0xC4A DUP5 DUP3 DUP6 ADD PUSH2 0xC14 JUMP JUMPDEST SWAP2 POP POP SWAP3 SWAP2 POP POP JUMP JUMPDEST PUSH2 0xC5C DUP2 PUSH2 0xB71 JUMP JUMPDEST DUP3 MSTORE POP POP JUMP JUMPDEST PUSH0 PUSH1 0x20 DUP3 ADD SWAP1 POP PUSH2 0xC75 PUSH0 DUP4 ADD DUP5 PUSH2 0xC53 JUMP JUMPDEST SWAP3 SWAP2 POP POP JUMP JUMPDEST PUSH0 DUP2 MLOAD SWAP1 POP SWAP2 SWAP1 POP JUMP JUMPDEST PUSH0 DUP3 DUP3 MSTORE PUSH1 0x20 DUP3 ADD SWAP1 POP SWAP3 SWAP2 POP POP JUMP JUMPDEST DUP3 DUP2 DUP4 MCOPY PUSH0 DUP4 DUP4 ADD MSTORE POP POP POP JUMP JUMPDEST PUSH0 PUSH2 0xCAD DUP3 PUSH2 0xC7B JUMP JUMPDEST PUSH2 0xCB7 DUP2 DUP6 PUSH2 0xC85 JUMP JUMPDEST SWAP4 POP PUSH2 0xCC7 DUP2 DUP6 PUSH1 0x20 DUP7 ADD PUSH2 0xC95 JUMP JUMPDEST PUSH2 0xCD0 DUP2 PUSH2 0xA3D JUMP JUMPDEST DUP5 ADD SWAP2 POP POP SWAP3 SWAP2 POP POP JUMP JUMPDEST PUSH0 PUSH1 0x20 DUP3 ADD SWAP1 POP DUP2 DUP2 SUB PUSH0 DUP4 ADD MSTORE PUSH2 0xCF3 DUP2 DUP5 PUSH2 0xCA3 JUMP JUMPDEST SWAP1 POP SWAP3 SWAP2 POP POP JUMP JUMPDEST PUSH32 0x4F6E6C792073656C6C65722063616E2063616C6C20746869732066756E637469 PUSH0 DUP3 ADD MSTORE PUSH32 0x6F6E000000000000000000000000000000000000000000000000000000000000 PUSH1 0x20 DUP3 ADD MSTORE POP JUMP JUMPDEST PUSH0 PUSH2 0xD55 PUSH1 0x22 DUP4 PUSH2 0xC85 JUMP JUMPDEST SWAP2 POP PUSH2 0xD60 DUP3 PUSH2 0xCFB JUMP JUMPDEST PUSH1 0x40 DUP3 ADD SWAP1 POP SWAP2 SWAP1 POP JUMP JUMPDEST PUSH0 PUSH1 0x20 DUP3 ADD SWAP1 POP DUP2 DUP2 SUB PUSH0 DUP4 ADD MSTORE PUSH2 0xD82 DUP2 PUSH2 0xD49 JUMP JUMPDEST SWAP1 POP SWAP2 SWAP1 POP JUMP JUMPDEST PUSH32 0x4F776E65722063616E2774206275790000000000000000000000000000000000 PUSH0 DUP3 ADD MSTORE POP JUMP JUMPDEST PUSH0 PUSH2 0xDBD PUSH1 0xF DUP4 PUSH2 0xC85 JUMP JUMPDEST SWAP2 POP PUSH2 0xDC8 DUP3 PUSH2 0xD89 JUMP JUMPDEST PUSH1 0x20 DUP3 ADD SWAP1 POP SWAP2 SWAP1 POP JUMP JUMPDEST PUSH0 PUSH1 0x20 DUP3 ADD SWAP1 POP DUP2 DUP2 SUB PUSH0 DUP4 ADD MSTORE PUSH2 0xDEA DUP2 PUSH2 0xDB1 JUMP JUMPDEST SWAP1 POP SWAP2 SWAP1 POP JUMP JUMPDEST PUSH32 0x547261646520416C726561647920436F6D70656C657465640000000000000000 PUSH0 DUP3 ADD MSTORE POP JUMP JUMPDEST PUSH0 PUSH2 0xE25 PUSH1 0x18 DUP4 PUSH2 0xC85 JUMP JUMPDEST SWAP2 POP PUSH2 0xE30 DUP3 PUSH2 0xDF1 JUMP JUMPDEST PUSH1 0x20 DUP3 ADD SWAP1 POP SWAP2 SWAP1 POP JUMP JUMPDEST PUSH0 PUSH1 0x20 DUP3 ADD SWAP1 POP DUP2 DUP2 SUB PUSH0 DUP4 ADD MSTORE PUSH2 0xE52 DUP2 PUSH2 0xE19 JUMP JUMPDEST SWAP1 POP SWAP2 SWAP1 POP JUMP JUMPDEST PUSH32 0x4E487B7100000000000000000000000000000000000000000000000000000000 PUSH0 MSTORE PUSH1 0x22 PUSH1 0x4 MSTORE PUSH1 0x24 PUSH0 REVERT JUMPDEST PUSH0 PUSH1 0x2 DUP3 DIV SWAP1 POP PUSH1 0x1 DUP3 AND DUP1 PUSH2 0xE9D JUMPI PUSH1 0x7F DUP3 AND SWAP2 POP JUMPDEST PUSH1 0x20 DUP3 LT DUP2 SUB PUSH2 0xEB0 JUMPI PUSH2 0xEAF PUSH2 0xE59 JUMP JUMPDEST JUMPDEST POP SWAP2 SWAP1 POP JUMP JUMPDEST PUSH0 DUP2 SWAP1 POP DUP2 PUSH0 MSTORE PUSH1 0x20 PUSH0 KECCAK256 SWAP1 POP SWAP2 SWAP1 POP JUMP JUMPDEST PUSH0 PUSH1 0x20 PUSH1 0x1F DUP4 ADD DIV SWAP1 POP SWAP2 SWAP1 POP JUMP JUMPDEST PUSH0 DUP3 DUP3 SHL SWAP1 POP SWAP3 SWAP2 POP POP JUMP JUMPDEST PUSH0 PUSH1 0x8 DUP4 MUL PUSH2 0xF12 PUSH32 0xFFFFFFFFFFFFFFFFFFFFFFFFFFFFFFFFFFFFFFFFFFFFFFFFFFFFFFFFFFFFFFFF DUP3 PUSH2 0xED7 JUMP JUMPDEST PUSH2 0xF1C DUP7 DUP4 PUSH2 0xED7 JUMP JUMPDEST SWAP6 POP DUP1 NOT DUP5 AND SWAP4 POP DUP1 DUP7 AND DUP5 OR SWAP3 POP POP POP SWAP4 SWAP3 POP POP POP JUMP JUMPDEST PUSH0 DUP2 SWAP1 POP SWAP2 SWAP1 POP JUMP JUMPDEST PUSH0 PUSH2 0xF57 PUSH2 0xF52 PUSH2 0xF4D DUP5 PUSH2 0xB71 JUMP JUMPDEST PUSH2 0xF34 JUMP JUMPDEST PUSH2 0xB71 JUMP JUMPDEST SWAP1 POP SWAP2 SWAP1 POP JUMP JUMPDEST PUSH0 DUP2 SWAP1 POP SWAP2 SWAP1 POP JUMP JUMPDEST PUSH2 0xF70 DUP4 PUSH2 0xF3D JUMP JUMPDEST PUSH2 0xF84 PUSH2 0xF7C DUP3 PUSH2 0xF5E JUMP JUMPDEST DUP5 DUP5 SLOAD PUSH2 0xEE3 JUMP JUMPDEST DUP3 SSTORE POP POP POP POP JUMP JUMPDEST PUSH0 SWAP1 JUMP JUMPDEST PUSH2 0xF98 PUSH2 0xF8C JUMP JUMPDEST PUSH2 0xFA3 DUP2 DUP5 DUP5 PUSH2 0xF67 JUMP JUMPDEST POP POP POP JUMP JUMPDEST JUMPDEST DUP2 DUP2 LT ISZERO PUSH2 0xFC6 JUMPI PUSH2 0xFBB PUSH0 DUP3 PUSH2 0xF90 JUMP JUMPDEST PUSH1 0x1 DUP2 ADD SWAP1 POP PUSH2 0xFA9 JUMP JUMPDEST POP POP JUMP JUMPDEST PUSH1 0x1F DUP3 GT ISZERO PUSH2 0x100B JUMPI PUSH2 0xFDC DUP2 PUSH2 0xEB6 JUMP JUMPDEST PUSH2 0xFE5 DUP5 PUSH2 0xEC8 JUMP JUMPDEST DUP2 ADD PUSH1 0x20 DUP6 LT ISZERO PUSH2 0xFF4 JUMPI DUP2 SWAP1 POP JUMPDEST PUSH2 0x1008 PUSH2 0x1000 DUP6 PUSH2 0xEC8 JUMP JUMPDEST DUP4 ADD DUP3 PUSH2 0xFA8 JUMP JUMPDEST POP POP JUMPDEST POP POP POP JUMP JUMPDEST PUSH0 DUP3 DUP3 SHR SWAP1 POP SWAP3 SWAP2 POP POP JUMP JUMPDEST PUSH0 PUSH2 0x102B PUSH0 NOT DUP5 PUSH1 0x8 MUL PUSH2 0x1010 JUMP JUMPDEST NOT DUP1 DUP4 AND SWAP2 POP POP SWAP3 SWAP2 POP POP JUMP JUMPDEST PUSH0 PUSH2 0x1043 DUP4 DUP4 PUSH2 0x101C JUMP JUMPDEST SWAP2 POP DUP3 PUSH1 0x2 MUL DUP3 OR SWAP1 POP SWAP3 SWAP2 POP POP JUMP JUMPDEST PUSH2 0x105C DUP3 PUSH2 0xC7B JUMP JUMPDEST PUSH8 0xFFFFFFFFFFFFFFFF DUP2 GT ISZERO PUSH2 0x1075 JUMPI PUSH2 0x1074 PUSH2 0xA4D JUMP JUMPDEST JUMPDEST PUSH2 0x107F DUP3 SLOAD PUSH2 0xE86 JUMP JUMPDEST PUSH2 0x108A DUP3 DUP3 DUP6 PUSH2 0xFCA JUMP JUMPDEST PUSH0 PUSH1 0x20 SWAP1 POP PUSH1 0x1F DUP4 GT PUSH1 0x1 DUP2 EQ PUSH2 0x10BB JUMPI PUSH0 DUP5 ISZERO PUSH2 0x10A9 JUMPI DUP3 DUP8 ADD MLOAD SWAP1 POP JUMPDEST PUSH2 0x10B3 DUP6 DUP3 PUSH2 0x1038 JUMP JUMPDEST DUP7 SSTORE POP PUSH2 0x111A JUMP JUMPDEST PUSH1 0x1F NOT DUP5 AND PUSH2 0x10C9 DUP7 PUSH2 0xEB6 JUMP JUMPDEST PUSH0 JUMPDEST DUP3 DUP2 LT ISZERO PUSH2 0x10F0 JUMPI DUP5 DUP10 ADD MLOAD DUP3 SSTORE PUSH1 0x1 DUP3 ADD SWAP2 POP PUSH1 0x20 DUP6 ADD SWAP5 POP PUSH1 0x20 DUP2 ADD SWAP1 POP PUSH2 0x10CB JUMP JUMPDEST DUP7 DUP4 LT ISZERO PUSH2 0x110D JUMPI DUP5 DUP10 ADD MLOAD PUSH2 0x1109 PUSH1 0x1F DUP10 AND DUP3 PUSH2 0x101C JUMP JUMPDEST DUP4 SSTORE POP JUMPDEST PUSH1 0x1 PUSH1 0x2 DUP9 MUL ADD DUP9 SSTORE POP POP POP JUMPDEST POP POP POP POP POP POP JUMP JUMPDEST PUSH32 0x4F6E6C792062757965722063616E2063616C6C20746869732066756E6374696F PUSH0 DUP3 ADD MSTORE PUSH32 0x6E00000000000000000000000000000000000000000000000000000000000000 PUSH1 0x20 DUP3 ADD MSTORE POP JUMP JUMPDEST PUSH0 PUSH2 0x117C PUSH1 0x21 DUP4 PUSH2 0xC85 JUMP JUMPDEST SWAP2 POP PUSH2 0x1187 DUP3 PUSH2 0x1122 JUMP JUMPDEST PUSH1 0x40 DUP3 ADD SWAP1 POP SWAP2 SWAP1 POP JUMP JUMPDEST PUSH0 PUSH1 0x20 DUP3 ADD SWAP1 POP DUP2 DUP2 SUB PUSH0 DUP4 ADD MSTORE PUSH2 0x11A9 DUP2 PUSH2 0x1170 JUMP JUMPDEST SWAP1 POP SWAP2 SWAP1 POP JUMP JUMPDEST PUSH32 0x496E636F727265637420416D6F756E7400000000000000000000000000000000 PUSH0 DUP3 ADD MSTORE POP JUMP JUMPDEST PUSH0 PUSH2 0x11E4 PUSH1 0x10 DUP4 PUSH2 0xC85 JUMP JUMPDEST SWAP2 POP PUSH2 0x11EF DUP3 PUSH2 0x11B0 JUMP JUMPDEST PUSH1 0x20 DUP3 ADD SWAP1 POP SWAP2 SWAP1 POP JUMP JUMPDEST PUSH0 PUSH1 0x20 DUP3 ADD SWAP1 POP DUP2 DUP2 SUB PUSH0 DUP4 ADD MSTORE PUSH2 0x1211 DUP2 PUSH2 0x11D8 JUMP JUMPDEST SWAP1 POP SWAP2 SWAP1 POP JUMP INVALID LOG2 PUSH5 0x6970667358 0x22 SLT KECCAK256 0xC4 0xB1 DUP12 JUMPI 0xC4 0xCC CALLDATALOAD XOR CREATE2 0xC3 0xD2 SWAP5 0xB0 XOR BALANCE 0xA7 PUSH32 0xB0264C78349C4E94F80D45B8C38FB964736F6C634300081A0033000000000000 "
				},
				"gasEstimates": {
					"creation": {
						"codeDepositCost": "937200",
						"executionCost": "infinite",
						"totalCost": "infinite"
					},
					"external": {
						"acceptTradeAsSeller()": "infinite",
						"amount()": "2469",
						"buyer()": "2531",
						"buyerAccepted()": "2533",
						"deposit()": "28742",
						"getAddressOwner(address)": "2924",
						"getTradeStatus()": "2569",
						"iWantToBuy(string,uint256)": "infinite",
						"item()": "infinite",
						"owner()": "2626",
						"seller()": "2528",
						"sellerAccepted()": "2606",
						"tradeCompeleted()": "2539"
					},
					"internal": {
						"completeTrade()": "infinite"
					}
				},
				"methodIdentifiers": {
					"acceptTradeAsSeller()": "039e3e05",
					"amount()": "aa8c217c",
					"buyer()": "7150d8ae",
					"buyerAccepted()": "2312fff7",
					"deposit()": "d0e30db0",
					"getAddressOwner(address)": "783db809",
					"getTradeStatus()": "1a3db582",
					"iWantToBuy(string,uint256)": "696613a2",
					"item()": "f2a4a82e",
					"owner()": "8da5cb5b",
					"seller()": "08551a53",
					"sellerAccepted()": "61b60f6b",
					"tradeCompeleted()": "a795c2ce"
				}
			},
			"storageLayout": {
				"storage": [
					{
						"astId": 3,
						"contract": "contracts/1.TradeAgreement.sol:TradeAgreement",
						"label": "seller",
						"offset": 0,
						"slot": "0",
						"type": "t_address"
					},
					{
						"astId": 5,
						"contract": "contracts/1.TradeAgreement.sol:TradeAgreement",
						"label": "buyer",
						"offset": 0,
						"slot": "1",
						"type": "t_address"
					},
					{
						"astId": 7,
						"contract": "contracts/1.TradeAgreement.sol:TradeAgreement",
						"label": "amount",
						"offset": 0,
						"slot": "2",
						"type": "t_uint256"
					},
					{
						"astId": 9,
						"contract": "contracts/1.TradeAgreement.sol:TradeAgreement",
						"label": "item",
						"offset": 0,
						"slot": "3",
						"type": "t_string_storage"
					},
					{
						"astId": 11,
						"contract": "contracts/1.TradeAgreement.sol:TradeAgreement",
						"label": "buyerAccepted",
						"offset": 0,
						"slot": "4",
						"type": "t_bool"
					},
					{
						"astId": 13,
						"contract": "contracts/1.TradeAgreement.sol:TradeAgreement",
						"label": "sellerAccepted",
						"offset": 1,
						"slot": "4",
						"type": "t_bool"
					},
					{
						"astId": 15,
						"contract": "contracts/1.TradeAgreement.sol:TradeAgreement",
						"label": "tradeCompeleted",
						"offset": 2,
						"slot": "4",
						"type": "t_bool"
					},
					{
						"astId": 17,
						"contract": "contracts/1.TradeAgreement.sol:TradeAgreement",
						"label": "owner",
						"offset": 3,
						"slot": "4",
						"type": "t_address"
					}
				],
				"types": {
					"t_address": {
						"encoding": "inplace",
						"label": "address",
						"numberOfBytes": "20"
					},
					"t_bool": {
						"encoding": "inplace",
						"label": "bool",
						"numberOfBytes": "1"
					},
					"t_string_storage": {
						"encoding": "bytes",
						"label": "string",
						"numberOfBytes": "32"
					},
					"t_uint256": {
						"encoding": "inplace",
						"label": "uint256",
						"numberOfBytes": "32"
					}
				}
			},
			"userdoc": {
				"kind": "user",
				"methods": {},
				"version": 1
			}
		}
	}
}