{
	"contracts/1.TradeAgreement.sol": {
		"TradeAgreement": {
			"abi": [
				{
					"inputs": [
						{
							"internalType": "address",
							"name": "_buyer",
							"type": "address"
						},
						{
							"internalType": "uint256",
							"name": "_amount",
							"type": "uint256"
						},
						{
							"internalType": "string",
							"name": "_item",
							"type": "string"
						}
					],
					"stateMutability": "nonpayable",
					"type": "constructor"
				},
				{
					"anonymous": false,
					"inputs": [
						{
							"indexed": true,
							"internalType": "address",
							"name": "buyer",
							"type": "address"
						}
					],
					"name": "BuyerAccepted",
					"type": "event"
				},
				{
					"anonymous": false,
					"inputs": [
						{
							"indexed": true,
							"internalType": "address",
							"name": "seller",
							"type": "address"
						}
					],
					"name": "SellerAccepted",
					"type": "event"
				},
				{
					"anonymous": false,
					"inputs": [
						{
							"indexed": true,
							"internalType": "address",
							"name": "seller",
							"type": "address"
						},
						{
							"indexed": true,
							"internalType": "address",
							"name": "buyer",
							"type": "address"
						}
					],
					"name": "TradeCompeleted",
					"type": "event"
				},
				{
					"anonymous": false,
					"inputs": [
						{
							"indexed": true,
							"internalType": "address",
							"name": "seller",
							"type": "address"
						},
						{
							"indexed": true,
							"internalType": "address",
							"name": "buyer",
							"type": "address"
						},
						{
							"indexed": false,
							"internalType": "uint256",
							"name": "amount",
							"type": "uint256"
						},
						{
							"indexed": false,
							"internalType": "string",
							"name": "item",
							"type": "string"
						}
					],
					"name": "TradeCreated",
					"type": "event"
				},
				{
					"inputs": [],
					"name": "acceptTradeAsBuyer",
					"outputs": [],
					"stateMutability": "nonpayable",
					"type": "function"
				},
				{
					"inputs": [],
					"name": "acceptTradeAsSeller",
					"outputs": [],
					"stateMutability": "nonpayable",
					"type": "function"
				},
				{
					"inputs": [],
					"name": "amount",
					"outputs": [
						{
							"internalType": "uint256",
							"name": "",
							"type": "uint256"
						}
					],
					"stateMutability": "view",
					"type": "function"
				},
				{
					"inputs": [],
					"name": "buyer",
					"outputs": [
						{
							"internalType": "address",
							"name": "",
							"type": "address"
						}
					],
					"stateMutability": "view",
					"type": "function"
				},
				{
					"inputs": [],
					"name": "buyerAccepted",
					"outputs": [
						{
							"internalType": "bool",
							"name": "",
							"type": "bool"
						}
					],
					"stateMutability": "view",
					"type": "function"
				},
				{
					"inputs": [],
					"name": "deposit",
					"outputs": [],
					"stateMutability": "payable",
					"type": "function"
				},
				{
					"inputs": [],
					"name": "getTradeStatus",
					"outputs": [
						{
							"internalType": "bool",
							"name": "",
							"type": "bool"
						}
					],
					"stateMutability": "view",
					"type": "function"
				},
				{
					"inputs": [],
					"name": "item",
					"outputs": [
						{
							"internalType": "string",
							"name": "",
							"type": "string"
						}
					],
					"stateMutability": "view",
					"type": "function"
				},
				{
					"inputs": [],
					"name": "seller",
					"outputs": [
						{
							"internalType": "address",
							"name": "",
							"type": "address"
						}
					],
					"stateMutability": "view",
					"type": "function"
				},
				{
					"inputs": [],
					"name": "sellerAccepted",
					"outputs": [
						{
							"internalType": "bool",
							"name": "",
							"type": "bool"
						}
					],
					"stateMutability": "view",
					"type": "function"
				},
				{
					"inputs": [],
					"name": "tradeCompeleted",
					"outputs": [
						{
							"internalType": "bool",
							"name": "",
							"type": "bool"
						}
					],
					"stateMutability": "view",
					"type": "function"
				}
			],
			"devdoc": {
				"kind": "dev",
				"methods": {},
				"version": 1
			},
			"evm": {
				"assembly": "    /* \"contracts/1.TradeAgreement.sol\":61:2042  contract TradeAgreement{... */\n  mstore(0x40, 0x80)\n    /* \"contracts/1.TradeAgreement.sol\":575:920  constructor(address _buyer, uint256 _amount, string memory _item){... */\n  callvalue\n  dup1\n  iszero\n  tag_1\n  jumpi\n  0x00\n  dup1\n  revert\ntag_1:\n  pop\n  mload(0x40)\n  sub(codesize, bytecodeSize)\n  dup1\n  bytecodeSize\n  dup4\n  codecopy\n  dup2\n  add\n  0x40\n  dup2\n  swap1\n  mstore\n  tag_2\n  swap2\n  tag_3\n  jump\t// in\ntag_2:\n    /* \"contracts/1.TradeAgreement.sol\":651:657  seller */\n  0x00\n    /* \"contracts/1.TradeAgreement.sol\":651:670  seller = msg.sender */\n  dup1\n  sload\n    /* \"contracts/1.TradeAgreement.sol\":660:670  msg.sender */\n  caller\n  not(sub(shl(0xa0, 0x01), 0x01))\n    /* \"contracts/1.TradeAgreement.sol\":651:670  seller = msg.sender */\n  swap2\n  dup3\n  and\n  or\n  swap1\n  swap2\n  sstore\n  0x01\n    /* \"contracts/1.TradeAgreement.sol\":681:695  buyer = _buyer */\n  dup1\n  sload\n  swap1\n  swap2\n  and\n  sub(shl(0xa0, 0x01), 0x01)\n  dup6\n  and\n  or\n  swap1\n  sstore\n    /* \"contracts/1.TradeAgreement.sol\":715:731  _amount * 10**18 */\n  tag_6\n    /* \"contracts/1.TradeAgreement.sol\":715:722  _amount */\n  dup3\n    /* \"contracts/1.TradeAgreement.sol\":725:731  10**18 */\n  0x0de0b6b3a7640000\n    /* \"contracts/1.TradeAgreement.sol\":715:731  _amount * 10**18 */\n  tag_7\n  jump\t// in\ntag_6:\n    /* \"contracts/1.TradeAgreement.sol\":706:712  amount */\n  0x02\n    /* \"contracts/1.TradeAgreement.sol\":706:731  amount = _amount * 10**18 */\n  sstore\n    /* \"contracts/1.TradeAgreement.sol\":742:746  item */\n  0x03\n    /* \"contracts/1.TradeAgreement.sol\":742:754  item = _item */\n  tag_8\n    /* \"contracts/1.TradeAgreement.sol\":749:754  _item */\n  dup3\n    /* \"contracts/1.TradeAgreement.sol\":742:746  item */\n  dup3\n    /* \"contracts/1.TradeAgreement.sol\":742:754  item = _item */\n  tag_9\n  jump\t// in\ntag_8:\n  pop\n    /* \"contracts/1.TradeAgreement.sol\":765:778  buyerAccepted */\n  0x04\n    /* \"contracts/1.TradeAgreement.sol\":765:786  buyerAccepted = false */\n  dup1\n  sload\n  not(0xffffff)\n    /* \"contracts/1.TradeAgreement.sol\":830:853  tradeCompeleted = false */\n  and\n  swap1\n  sstore\n  0x01\n    /* \"contracts/1.TradeAgreement.sol\":892:897  buyer */\n  sload\n  0x00\n    /* \"contracts/1.TradeAgreement.sol\":884:890  seller */\n  sload\n    /* \"contracts/1.TradeAgreement.sol\":830:845  tradeCompeleted */\n  0x02\n    /* \"contracts/1.TradeAgreement.sol\":899:905  amount */\n  sload\n    /* \"contracts/1.TradeAgreement.sol\":871:912  TradeCreated(seller, buyer, amount, item) */\n  mload(0x40)\n  sub(shl(0xa0, 0x01), 0x01)\n    /* \"contracts/1.TradeAgreement.sol\":892:897  buyer */\n  swap4\n  dup5\n  and\n  swap4\n    /* \"contracts/1.TradeAgreement.sol\":884:890  seller */\n  swap1\n  swap3\n  and\n  swap2\n    /* \"contracts/1.TradeAgreement.sol\":871:912  TradeCreated(seller, buyer, amount, item) */\n  0xe18cb9b802d94b2dc5101f171d56bdd0ae763a50968fea4dc809c284e51be997\n  swap2\n  tag_10\n  swap2\n    /* \"contracts/1.TradeAgreement.sol\":907:911  item */\n  0x03\n  swap1\n    /* \"contracts/1.TradeAgreement.sol\":871:912  TradeCreated(seller, buyer, amount, item) */\n  tag_11\n  jump\t// in\ntag_10:\n  mload(0x40)\n  dup1\n  swap2\n  sub\n  swap1\n  log3\n    /* \"contracts/1.TradeAgreement.sol\":575:920  constructor(address _buyer, uint256 _amount, string memory _item){... */\n  pop\n  pop\n  pop\n    /* \"contracts/1.TradeAgreement.sol\":61:2042  contract TradeAgreement{... */\n  jump(tag_18)\n    /* \"#utility.yul\":14:141   */\ntag_13:\n    /* \"#utility.yul\":75:85   */\n  0x4e487b71\n    /* \"#utility.yul\":70:73   */\n  0xe0\n    /* \"#utility.yul\":66:86   */\n  shl\n    /* \"#utility.yul\":63:64   */\n  0x00\n    /* \"#utility.yul\":56:87   */\n  mstore\n    /* \"#utility.yul\":106:110   */\n  0x41\n    /* \"#utility.yul\":103:104   */\n  0x04\n    /* \"#utility.yul\":96:111   */\n  mstore\n    /* \"#utility.yul\":130:134   */\n  0x24\n    /* \"#utility.yul\":127:128   */\n  0x00\n    /* \"#utility.yul\":120:135   */\n  revert\n    /* \"#utility.yul\":146:1309   */\ntag_3:\n    /* \"#utility.yul\":244:250   */\n  0x00\n    /* \"#utility.yul\":252:258   */\n  dup1\n    /* \"#utility.yul\":260:266   */\n  0x00\n    /* \"#utility.yul\":313:315   */\n  0x60\n    /* \"#utility.yul\":301:310   */\n  dup5\n    /* \"#utility.yul\":292:299   */\n  dup7\n    /* \"#utility.yul\":288:311   */\n  sub\n    /* \"#utility.yul\":284:316   */\n  slt\n    /* \"#utility.yul\":281:333   */\n  iszero\n  tag_21\n  jumpi\n    /* \"#utility.yul\":329:330   */\n  0x00\n    /* \"#utility.yul\":326:327   */\n  dup1\n    /* \"#utility.yul\":319:331   */\n  revert\n    /* \"#utility.yul\":281:333   */\ntag_21:\n    /* \"#utility.yul\":355:371   */\n  dup4\n  mload\n  sub(shl(0xa0, 0x01), 0x01)\n    /* \"#utility.yul\":400:431   */\n  dup2\n  and\n    /* \"#utility.yul\":390:432   */\n  dup2\n  eq\n    /* \"#utility.yul\":380:450   */\n  tag_22\n  jumpi\n    /* \"#utility.yul\":446:447   */\n  0x00\n    /* \"#utility.yul\":443:444   */\n  dup1\n    /* \"#utility.yul\":436:448   */\n  revert\n    /* \"#utility.yul\":380:450   */\ntag_22:\n    /* \"#utility.yul\":514:516   */\n  0x20\n    /* \"#utility.yul\":499:517   */\n  dup6\n  add\n    /* \"#utility.yul\":493:518   */\n  mload\n    /* \"#utility.yul\":562:564   */\n  0x40\n    /* \"#utility.yul\":547:565   */\n  dup7\n  add\n    /* \"#utility.yul\":541:566   */\n  mload\n    /* \"#utility.yul\":469:474   */\n  swap2\n  swap5\n  pop\n    /* \"#utility.yul\":493:518   */\n  swap3\n  pop\n  sub(shl(0x40, 0x01), 0x01)\n    /* \"#utility.yul\":578:608   */\n  dup2\n  gt\n    /* \"#utility.yul\":575:625   */\n  iszero\n  tag_23\n  jumpi\n    /* \"#utility.yul\":621:622   */\n  0x00\n    /* \"#utility.yul\":618:619   */\n  dup1\n    /* \"#utility.yul\":611:623   */\n  revert\n    /* \"#utility.yul\":575:625   */\ntag_23:\n    /* \"#utility.yul\":644:666   */\n  dup5\n  add\n    /* \"#utility.yul\":697:701   */\n  0x1f\n    /* \"#utility.yul\":689:702   */\n  dup2\n  add\n    /* \"#utility.yul\":685:712   */\n  dup7\n  sgt\n    /* \"#utility.yul\":675:730   */\n  tag_24\n  jumpi\n    /* \"#utility.yul\":726:727   */\n  0x00\n    /* \"#utility.yul\":723:724   */\n  dup1\n    /* \"#utility.yul\":716:728   */\n  revert\n    /* \"#utility.yul\":675:730   */\ntag_24:\n    /* \"#utility.yul\":753:762   */\n  dup1\n  mload\n  sub(shl(0x40, 0x01), 0x01)\n    /* \"#utility.yul\":774:804   */\n  dup2\n  gt\n    /* \"#utility.yul\":771:827   */\n  iszero\n  tag_26\n  jumpi\n    /* \"#utility.yul\":807:825   */\n  tag_26\n  tag_13\n  jump\t// in\ntag_26:\n    /* \"#utility.yul\":856:858   */\n  0x40\n    /* \"#utility.yul\":850:859   */\n  mload\n    /* \"#utility.yul\":948:950   */\n  0x1f\n    /* \"#utility.yul\":910:927   */\n  dup3\n  add\n  not(0x1f)\n    /* \"#utility.yul\":906:937   */\n  swap1\n  dup2\n  and\n    /* \"#utility.yul\":939:941   */\n  0x3f\n    /* \"#utility.yul\":902:942   */\n  add\n    /* \"#utility.yul\":898:952   */\n  and\n    /* \"#utility.yul\":886:953   */\n  dup2\n  add\n  sub(shl(0x40, 0x01), 0x01)\n    /* \"#utility.yul\":968:1002   */\n  dup2\n  gt\n    /* \"#utility.yul\":1004:1026   */\n  dup3\n  dup3\n  lt\n    /* \"#utility.yul\":965:1027   */\n  or\n    /* \"#utility.yul\":962:1050   */\n  iszero\n  tag_28\n  jumpi\n    /* \"#utility.yul\":1030:1048   */\n  tag_28\n  tag_13\n  jump\t// in\ntag_28:\n    /* \"#utility.yul\":1066:1068   */\n  0x40\n    /* \"#utility.yul\":1059:1081   */\n  mstore\n    /* \"#utility.yul\":1090:1112   */\n  dup2\n  dup2\n  mstore\n    /* \"#utility.yul\":1131:1146   */\n  dup3\n  dup3\n  add\n    /* \"#utility.yul\":1148:1150   */\n  0x20\n    /* \"#utility.yul\":1127:1151   */\n  add\n    /* \"#utility.yul\":1124:1161   */\n  dup9\n  lt\n    /* \"#utility.yul\":1121:1178   */\n  iszero\n  tag_29\n  jumpi\n    /* \"#utility.yul\":1174:1175   */\n  0x00\n    /* \"#utility.yul\":1171:1172   */\n  dup1\n    /* \"#utility.yul\":1164:1176   */\n  revert\n    /* \"#utility.yul\":1121:1178   */\ntag_29:\n    /* \"#utility.yul\":1223:1229   */\n  dup2\n    /* \"#utility.yul\":1218:1220   */\n  0x20\n    /* \"#utility.yul\":1214:1216   */\n  dup5\n    /* \"#utility.yul\":1210:1221   */\n  add\n    /* \"#utility.yul\":1205:1207   */\n  0x20\n    /* \"#utility.yul\":1197:1203   */\n  dup4\n    /* \"#utility.yul\":1193:1208   */\n  add\n    /* \"#utility.yul\":1187:1230   */\n  mcopy\n    /* \"#utility.yul\":1276:1277   */\n  0x00\n    /* \"#utility.yul\":1271:1273   */\n  0x20\n    /* \"#utility.yul\":1262:1268   */\n  dup4\n    /* \"#utility.yul\":1254:1260   */\n  dup4\n    /* \"#utility.yul\":1250:1269   */\n  add\n    /* \"#utility.yul\":1246:1274   */\n  add\n    /* \"#utility.yul\":1239:1278   */\n  mstore\n    /* \"#utility.yul\":1297:1303   */\n  dup1\n    /* \"#utility.yul\":1287:1303   */\n  swap4\n  pop\n  pop\n  pop\n  pop\n    /* \"#utility.yul\":146:1309   */\n  swap3\n  pop\n  swap3\n  pop\n  swap3\n  jump\t// out\n    /* \"#utility.yul\":1314:1579   */\ntag_7:\n    /* \"#utility.yul\":1387:1396   */\n  dup1\n  dup3\n  mul\n    /* \"#utility.yul\":1418:1427   */\n  dup2\n  iszero\n    /* \"#utility.yul\":1435:1450   */\n  dup3\n  dup3\n  div\n    /* \"#utility.yul\":1429:1451   */\n  dup5\n  eq\n    /* \"#utility.yul\":1415:1452   */\n  or\n    /* \"#utility.yul\":1405:1573   */\n  tag_31\n  jumpi\n    /* \"#utility.yul\":1495:1505   */\n  0x4e487b71\n    /* \"#utility.yul\":1490:1493   */\n  0xe0\n    /* \"#utility.yul\":1486:1506   */\n  shl\n    /* \"#utility.yul\":1483:1484   */\n  0x00\n    /* \"#utility.yul\":1476:1507   */\n  mstore\n    /* \"#utility.yul\":1530:1534   */\n  0x11\n    /* \"#utility.yul\":1527:1528   */\n  0x04\n    /* \"#utility.yul\":1520:1535   */\n  mstore\n    /* \"#utility.yul\":1558:1562   */\n  0x24\n    /* \"#utility.yul\":1555:1556   */\n  0x00\n    /* \"#utility.yul\":1548:1563   */\n  revert\n    /* \"#utility.yul\":1405:1573   */\ntag_31:\n    /* \"#utility.yul\":1314:1579   */\n  swap3\n  swap2\n  pop\n  pop\n  jump\t// out\n    /* \"#utility.yul\":1584:1964   */\ntag_14:\n    /* \"#utility.yul\":1663:1664   */\n  0x01\n    /* \"#utility.yul\":1659:1671   */\n  dup2\n  dup2\n  shr\n  swap1\n    /* \"#utility.yul\":1706:1718   */\n  dup3\n  and\n  dup1\n    /* \"#utility.yul\":1727:1788   */\n  tag_33\n  jumpi\n    /* \"#utility.yul\":1781:1785   */\n  0x7f\n    /* \"#utility.yul\":1773:1779   */\n  dup3\n    /* \"#utility.yul\":1769:1786   */\n  and\n    /* \"#utility.yul\":1759:1786   */\n  swap2\n  pop\n    /* \"#utility.yul\":1727:1788   */\ntag_33:\n    /* \"#utility.yul\":1834:1836   */\n  0x20\n    /* \"#utility.yul\":1826:1832   */\n  dup3\n    /* \"#utility.yul\":1823:1837   */\n  lt\n    /* \"#utility.yul\":1803:1821   */\n  dup2\n    /* \"#utility.yul\":1800:1838   */\n  sub\n    /* \"#utility.yul\":1797:1958   */\n  tag_34\n  jumpi\n    /* \"#utility.yul\":1880:1890   */\n  0x4e487b71\n    /* \"#utility.yul\":1875:1878   */\n  0xe0\n    /* \"#utility.yul\":1871:1891   */\n  shl\n    /* \"#utility.yul\":1868:1869   */\n  0x00\n    /* \"#utility.yul\":1861:1892   */\n  mstore\n    /* \"#utility.yul\":1915:1919   */\n  0x22\n    /* \"#utility.yul\":1912:1913   */\n  0x04\n    /* \"#utility.yul\":1905:1920   */\n  mstore\n    /* \"#utility.yul\":1943:1947   */\n  0x24\n    /* \"#utility.yul\":1940:1941   */\n  0x00\n    /* \"#utility.yul\":1933:1948   */\n  revert\n    /* \"#utility.yul\":1797:1958   */\ntag_34:\n  pop\n    /* \"#utility.yul\":1584:1964   */\n  swap2\n  swap1\n  pop\n  jump\t// out\n    /* \"#utility.yul\":2095:2613   */\ntag_16:\n    /* \"#utility.yul\":2197:2199   */\n  0x1f\n    /* \"#utility.yul\":2192:2195   */\n  dup3\n    /* \"#utility.yul\":2189:2200   */\n  gt\n    /* \"#utility.yul\":2186:2607   */\n  iszero\n  tag_37\n  jumpi\n    /* \"#utility.yul\":2233:2238   */\n  dup1\n    /* \"#utility.yul\":2230:2231   */\n  0x00\n    /* \"#utility.yul\":2223:2239   */\n  mstore\n    /* \"#utility.yul\":2277:2281   */\n  0x20\n    /* \"#utility.yul\":2274:2275   */\n  0x00\n    /* \"#utility.yul\":2264:2282   */\n  keccak256\n    /* \"#utility.yul\":2347:2349   */\n  0x1f\n    /* \"#utility.yul\":2335:2345   */\n  dup5\n    /* \"#utility.yul\":2331:2350   */\n  add\n    /* \"#utility.yul\":2328:2329   */\n  0x05\n    /* \"#utility.yul\":2324:2351   */\n  shr\n    /* \"#utility.yul\":2318:2322   */\n  dup2\n    /* \"#utility.yul\":2314:2352   */\n  add\n    /* \"#utility.yul\":2383:2387   */\n  0x20\n    /* \"#utility.yul\":2371:2381   */\n  dup6\n    /* \"#utility.yul\":2368:2388   */\n  lt\n    /* \"#utility.yul\":2365:2412   */\n  iszero\n  tag_38\n  jumpi\n  pop\n    /* \"#utility.yul\":2406:2410   */\n  dup1\n    /* \"#utility.yul\":2365:2412   */\ntag_38:\n    /* \"#utility.yul\":2461:2463   */\n  0x1f\n    /* \"#utility.yul\":2456:2459   */\n  dup5\n    /* \"#utility.yul\":2452:2464   */\n  add\n    /* \"#utility.yul\":2449:2450   */\n  0x05\n    /* \"#utility.yul\":2445:2465   */\n  shr\n    /* \"#utility.yul\":2439:2443   */\n  dup3\n    /* \"#utility.yul\":2435:2466   */\n  add\n    /* \"#utility.yul\":2425:2466   */\n  swap2\n  pop\n    /* \"#utility.yul\":2516:2597   */\ntag_39:\n    /* \"#utility.yul\":2534:2536   */\n  dup2\n    /* \"#utility.yul\":2527:2532   */\n  dup2\n    /* \"#utility.yul\":2524:2537   */\n  lt\n    /* \"#utility.yul\":2516:2597   */\n  iszero\n  tag_41\n  jumpi\n    /* \"#utility.yul\":2593:2594   */\n  0x00\n    /* \"#utility.yul\":2579:2595   */\n  dup2\n  sstore\n    /* \"#utility.yul\":2560:2561   */\n  0x01\n    /* \"#utility.yul\":2549:2562   */\n  add\n    /* \"#utility.yul\":2516:2597   */\n  jump(tag_39)\ntag_41:\n    /* \"#utility.yul\":2520:2523   */\n  pop\n  pop\n    /* \"#utility.yul\":2186:2607   */\ntag_37:\n    /* \"#utility.yul\":2095:2613   */\n  pop\n  pop\n  pop\n  jump\t// out\n    /* \"#utility.yul\":2789:4088   */\ntag_9:\n    /* \"#utility.yul\":2909:2919   */\n  dup2\n  mload\n  sub(shl(0x40, 0x01), 0x01)\n    /* \"#utility.yul\":2931:2961   */\n  dup2\n  gt\n    /* \"#utility.yul\":2928:2984   */\n  iszero\n  tag_45\n  jumpi\n    /* \"#utility.yul\":2964:2982   */\n  tag_45\n  tag_13\n  jump\t// in\ntag_45:\n    /* \"#utility.yul\":2993:3090   */\n  tag_46\n    /* \"#utility.yul\":3083:3089   */\n  dup2\n    /* \"#utility.yul\":3043:3081   */\n  tag_47\n    /* \"#utility.yul\":3075:3079   */\n  dup5\n    /* \"#utility.yul\":3069:3080   */\n  sload\n    /* \"#utility.yul\":3043:3081   */\n  tag_14\n  jump\t// in\ntag_47:\n    /* \"#utility.yul\":3037:3041   */\n  dup5\n    /* \"#utility.yul\":2993:3090   */\n  tag_16\n  jump\t// in\ntag_46:\n    /* \"#utility.yul\":3139:3143   */\n  0x20\n    /* \"#utility.yul\":3170:3172   */\n  0x1f\n    /* \"#utility.yul\":3159:3173   */\n  dup3\n  gt\n    /* \"#utility.yul\":3187:3188   */\n  0x01\n    /* \"#utility.yul\":3182:3831   */\n  dup2\n  eq\n  tag_49\n  jumpi\n    /* \"#utility.yul\":3875:3876   */\n  0x00\n    /* \"#utility.yul\":3892:3898   */\n  dup4\n    /* \"#utility.yul\":3889:3978   */\n  iszero\n  tag_50\n  jumpi\n  pop\n    /* \"#utility.yul\":3944:3963   */\n  dup5\n  dup3\n  add\n    /* \"#utility.yul\":3938:3964   */\n  mload\n    /* \"#utility.yul\":3889:3978   */\ntag_50:\n  not(0x00)\n    /* \"#utility.yul\":2746:2747   */\n  0x03\n    /* \"#utility.yul\":2742:2753   */\n  dup6\n  swap1\n  shl\n    /* \"#utility.yul\":2738:2762   */\n  shr\n    /* \"#utility.yul\":2734:2763   */\n  not\n    /* \"#utility.yul\":2724:2764   */\n  and\n    /* \"#utility.yul\":2770:2771   */\n  0x01\n    /* \"#utility.yul\":2766:2777   */\n  dup5\n  swap1\n  shl\n    /* \"#utility.yul\":2721:2778   */\n  or\n    /* \"#utility.yul\":3991:4072   */\n  dup5\n  sstore\n    /* \"#utility.yul\":3152:4082   */\n  jump(tag_41)\n    /* \"#utility.yul\":3182:3831   */\ntag_49:\n    /* \"#utility.yul\":2042:2043   */\n  0x00\n    /* \"#utility.yul\":2035:2049   */\n  dup5\n  dup2\n  mstore\n    /* \"#utility.yul\":2079:2083   */\n  0x20\n    /* \"#utility.yul\":2066:2084   */\n  dup2\n  keccak256\n  not(0x1f)\n    /* \"#utility.yul\":3218:3238   */\n  dup6\n  and\n  swap2\n    /* \"#utility.yul\":3336:3558   */\ntag_53:\n    /* \"#utility.yul\":3350:3357   */\n  dup3\n    /* \"#utility.yul\":3347:3348   */\n  dup2\n    /* \"#utility.yul\":3344:3358   */\n  lt\n    /* \"#utility.yul\":3336:3558   */\n  iszero\n  tag_55\n  jumpi\n    /* \"#utility.yul\":3432:3451   */\n  dup8\n  dup6\n  add\n    /* \"#utility.yul\":3426:3452   */\n  mload\n    /* \"#utility.yul\":3411:3453   */\n  dup3\n  sstore\n    /* \"#utility.yul\":3539:3543   */\n  0x20\n    /* \"#utility.yul\":3524:3544   */\n  swap5\n  dup6\n  add\n  swap5\n    /* \"#utility.yul\":3492:3493   */\n  0x01\n    /* \"#utility.yul\":3480:3494   */\n  swap1\n  swap3\n  add\n  swap2\n    /* \"#utility.yul\":3366:3378   */\n  add\n    /* \"#utility.yul\":3336:3558   */\n  jump(tag_53)\ntag_55:\n    /* \"#utility.yul\":3340:3343   */\n  pop\n    /* \"#utility.yul\":3586:3592   */\n  dup5\n    /* \"#utility.yul\":3577:3584   */\n  dup3\n    /* \"#utility.yul\":3574:3593   */\n  lt\n    /* \"#utility.yul\":3571:3772   */\n  iszero\n  tag_56\n  jumpi\n    /* \"#utility.yul\":3647:3666   */\n  dup7\n  dup5\n  add\n    /* \"#utility.yul\":3641:3667   */\n  mload\n  not(0x00)\n    /* \"#utility.yul\":3730:3731   */\n  0x03\n    /* \"#utility.yul\":3726:3740   */\n  dup8\n  swap1\n  shl\n    /* \"#utility.yul\":3742:3745   */\n  0xf8\n    /* \"#utility.yul\":3722:3746   */\n  and\n    /* \"#utility.yul\":3718:3755   */\n  shr\n    /* \"#utility.yul\":3714:3756   */\n  not\n    /* \"#utility.yul\":3699:3757   */\n  and\n    /* \"#utility.yul\":3684:3758   */\n  dup2\n  sstore\n    /* \"#utility.yul\":3571:3772   */\ntag_56:\n  pop\n  pop\n  pop\n  pop\n    /* \"#utility.yul\":3818:3819   */\n  0x01\n    /* \"#utility.yul\":3802:3816   */\n  swap1\n  dup2\n  shl\n    /* \"#utility.yul\":3798:3820   */\n  add\n    /* \"#utility.yul\":3785:3821   */\n  swap1\n  sstore\n  pop\n    /* \"#utility.yul\":2789:4088   */\n  jump\t// out\n    /* \"#utility.yul\":4093:5063   */\ntag_11:\n    /* \"#utility.yul\":4267:4273   */\n  dup3\n    /* \"#utility.yul\":4256:4265   */\n  dup2\n    /* \"#utility.yul\":4249:4274   */\n  mstore\n    /* \"#utility.yul\":4310:4312   */\n  0x40\n    /* \"#utility.yul\":4305:4307   */\n  0x20\n    /* \"#utility.yul\":4294:4303   */\n  dup3\n    /* \"#utility.yul\":4290:4308   */\n  add\n    /* \"#utility.yul\":4283:4313   */\n  mstore\n    /* \"#utility.yul\":4230:4234   */\n  0x00\n    /* \"#utility.yul\":4333:4334   */\n  dup1\n    /* \"#utility.yul\":4366:4372   */\n  dup4\n    /* \"#utility.yul\":4360:4373   */\n  sload\n    /* \"#utility.yul\":4396:4432   */\n  tag_58\n    /* \"#utility.yul\":4422:4431   */\n  dup2\n    /* \"#utility.yul\":4396:4432   */\n  tag_14\n  jump\t// in\ntag_58:\n    /* \"#utility.yul\":4468:4474   */\n  dup1\n    /* \"#utility.yul\":4463:4465   */\n  0x40\n    /* \"#utility.yul\":4452:4461   */\n  dup7\n    /* \"#utility.yul\":4448:4466   */\n  add\n    /* \"#utility.yul\":4441:4475   */\n  mstore\n    /* \"#utility.yul\":4506:4507   */\n  0x01\n    /* \"#utility.yul\":4495:4504   */\n  dup3\n    /* \"#utility.yul\":4491:4508   */\n  and\n    /* \"#utility.yul\":4522:4523   */\n  0x00\n    /* \"#utility.yul\":4517:4675   */\n  dup2\n  eq\n  tag_60\n  jumpi\n    /* \"#utility.yul\":4689:4690   */\n  0x01\n    /* \"#utility.yul\":4684:5037   */\n  dup2\n  eq\n  tag_61\n  jumpi\n    /* \"#utility.yul\":4484:5037   */\n  jump(tag_59)\n    /* \"#utility.yul\":4517:4675   */\ntag_60:\n    /* \"#utility.yul\":4584:4587   */\n  0xff\n    /* \"#utility.yul\":4580:4588   */\n  not\n    /* \"#utility.yul\":4569:4578   */\n  dup4\n    /* \"#utility.yul\":4565:4589   */\n  and\n    /* \"#utility.yul\":4560:4562   */\n  0x60\n    /* \"#utility.yul\":4549:4558   */\n  dup8\n    /* \"#utility.yul\":4545:4563   */\n  add\n    /* \"#utility.yul\":4538:4590   */\n  mstore\n    /* \"#utility.yul\":4662:4664   */\n  0x60\n    /* \"#utility.yul\":4650:4656   */\n  dup3\n    /* \"#utility.yul\":4643:4657   */\n  iszero\n    /* \"#utility.yul\":4636:4658   */\n  iszero\n    /* \"#utility.yul\":4633:4634   */\n  0x05\n    /* \"#utility.yul\":4629:4659   */\n  shl\n    /* \"#utility.yul\":4618:4627   */\n  dup8\n    /* \"#utility.yul\":4614:4660   */\n  add\n    /* \"#utility.yul\":4610:4665   */\n  add\n    /* \"#utility.yul\":4603:4665   */\n  swap4\n  pop\n    /* \"#utility.yul\":4517:4675   */\n  jump(tag_59)\n    /* \"#utility.yul\":4684:5037   */\ntag_61:\n    /* \"#utility.yul\":4715:4721   */\n  dup7\n    /* \"#utility.yul\":4712:4713   */\n  0x00\n    /* \"#utility.yul\":4705:4722   */\n  mstore\n    /* \"#utility.yul\":4763:4765   */\n  0x20\n    /* \"#utility.yul\":4760:4761   */\n  0x00\n    /* \"#utility.yul\":4750:4766   */\n  keccak256\n    /* \"#utility.yul\":4788:4789   */\n  0x00\n    /* \"#utility.yul\":4802:4981   */\ntag_62:\n    /* \"#utility.yul\":4816:4822   */\n  dup4\n    /* \"#utility.yul\":4813:4814   */\n  dup2\n    /* \"#utility.yul\":4810:4823   */\n  lt\n    /* \"#utility.yul\":4802:4981   */\n  iszero\n  tag_64\n  jumpi\n    /* \"#utility.yul\":4909:4923   */\n  dup2\n  sload\n    /* \"#utility.yul\":4885:4902   */\n  dup9\n  dup3\n  add\n    /* \"#utility.yul\":4904:4906   */\n  0x60\n    /* \"#utility.yul\":4881:4907   */\n  add\n    /* \"#utility.yul\":4874:4924   */\n  mstore\n    /* \"#utility.yul\":4965:4966   */\n  0x01\n    /* \"#utility.yul\":4952:4967   */\n  swap1\n  swap2\n  add\n  swap1\n    /* \"#utility.yul\":4838:4840   */\n  0x20\n    /* \"#utility.yul\":4831:4841   */\n  add\n    /* \"#utility.yul\":4802:4981   */\n  jump(tag_62)\ntag_64:\n    /* \"#utility.yul\":5005:5022   */\n  dup8\n  add\n    /* \"#utility.yul\":5024:5026   */\n  0x60\n    /* \"#utility.yul\":5001:5027   */\n  add\n  swap5\n  pop\n  pop\n    /* \"#utility.yul\":4484:5037   */\ntag_59:\n  pop\n    /* \"#utility.yul\":5054:5057   */\n  swap2\n  swap7\n    /* \"#utility.yul\":4093:5063   */\n  swap6\n  pop\n  pop\n  pop\n  pop\n  pop\n  pop\n  jump\t// out\ntag_18:\n    /* \"contracts/1.TradeAgreement.sol\":61:2042  contract TradeAgreement{... */\n  dataSize(sub_0)\n  dup1\n  dataOffset(sub_0)\n  0x00\n  codecopy\n  0x00\n  return\nstop\n\nsub_0: assembly {\n        /* \"contracts/1.TradeAgreement.sol\":61:2042  contract TradeAgreement{... */\n      mstore(0x40, 0x80)\n      jumpi(tag_1, lt(calldatasize, 0x04))\n      shr(0xe0, calldataload(0x00))\n      dup1\n      0x61b60f6b\n      gt\n      tag_13\n      jumpi\n      dup1\n      0x61b60f6b\n      eq\n      tag_7\n      jumpi\n      dup1\n      0x7150d8ae\n      eq\n      tag_8\n      jumpi\n      dup1\n      0xa795c2ce\n      eq\n      tag_9\n      jumpi\n      dup1\n      0xaa8c217c\n      eq\n      tag_10\n      jumpi\n      dup1\n      0xd0e30db0\n      eq\n      tag_11\n      jumpi\n      dup1\n      0xf2a4a82e\n      eq\n      tag_12\n      jumpi\n      0x00\n      dup1\n      revert\n    tag_13:\n      dup1\n      0x039e3e05\n      eq\n      tag_2\n      jumpi\n      dup1\n      0x08551a53\n      eq\n      tag_3\n      jumpi\n      dup1\n      0x1a3db582\n      eq\n      tag_4\n      jumpi\n      dup1\n      0x2312fff7\n      eq\n      tag_5\n      jumpi\n      dup1\n      0x532ca457\n      eq\n      tag_6\n      jumpi\n    tag_1:\n      0x00\n      dup1\n      revert\n        /* \"contracts/1.TradeAgreement.sol\":1334:1486  function acceptTradeAsSeller() public onlySeller{... */\n    tag_2:\n      callvalue\n      dup1\n      iszero\n      tag_14\n      jumpi\n      0x00\n      dup1\n      revert\n    tag_14:\n      pop\n      tag_15\n      tag_16\n      jump\t// in\n    tag_15:\n      stop\n        /* \"contracts/1.TradeAgreement.sol\":91:112  address public seller */\n    tag_3:\n      callvalue\n      dup1\n      iszero\n      tag_17\n      jumpi\n      0x00\n      dup1\n      revert\n    tag_17:\n      pop\n      sload(0x00)\n      tag_18\n      swap1\n      sub(shl(0xa0, 0x01), 0x01)\n      and\n      dup2\n      jump\n    tag_18:\n      mload(0x40)\n      sub(shl(0xa0, 0x01), 0x01)\n        /* \"#utility.yul\":178:210   */\n      swap1\n      swap2\n      and\n        /* \"#utility.yul\":160:211   */\n      dup2\n      mstore\n        /* \"#utility.yul\":148:150   */\n      0x20\n        /* \"#utility.yul\":133:151   */\n      add\n        /* \"contracts/1.TradeAgreement.sol\":91:112  address public seller */\n    tag_20:\n      mload(0x40)\n      dup1\n      swap2\n      sub\n      swap1\n      return\n        /* \"contracts/1.TradeAgreement.sol\":1945:2037  function getTradeStatus() public view returns(bool){... */\n    tag_4:\n      callvalue\n      dup1\n      iszero\n      tag_22\n      jumpi\n      0x00\n      dup1\n      revert\n    tag_22:\n      pop\n        /* \"contracts/1.TradeAgreement.sol\":2014:2029  tradeCompeleted */\n      sload(0x04)\n      0x010000\n      swap1\n      div\n      0xff\n      and\n        /* \"contracts/1.TradeAgreement.sol\":1945:2037  function getTradeStatus() public view returns(bool){... */\n    tag_23:\n      mload(0x40)\n        /* \"#utility.yul\":387:401   */\n      swap1\n      iszero\n        /* \"#utility.yul\":380:402   */\n      iszero\n        /* \"#utility.yul\":362:403   */\n      dup2\n      mstore\n        /* \"#utility.yul\":350:352   */\n      0x20\n        /* \"#utility.yul\":335:353   */\n      add\n        /* \"contracts/1.TradeAgreement.sol\":1945:2037  function getTradeStatus() public view returns(bool){... */\n      tag_20\n        /* \"#utility.yul\":222:409   */\n      jump\n        /* \"contracts/1.TradeAgreement.sol\":199:224  bool public buyerAccepted */\n    tag_5:\n      callvalue\n      dup1\n      iszero\n      tag_27\n      jumpi\n      0x00\n      dup1\n      revert\n    tag_27:\n      pop\n      sload(0x04)\n      tag_23\n      swap1\n      0xff\n      and\n      dup2\n      jump\n        /* \"contracts/1.TradeAgreement.sol\":1179:1326  function acceptTradeAsBuyer() public onlyBuyer{... */\n    tag_6:\n      callvalue\n      dup1\n      iszero\n      tag_31\n      jumpi\n      0x00\n      dup1\n      revert\n    tag_31:\n      pop\n      tag_15\n      tag_33\n      jump\t// in\n        /* \"contracts/1.TradeAgreement.sol\":231:257  bool public sellerAccepted */\n    tag_7:\n      callvalue\n      dup1\n      iszero\n      tag_34\n      jumpi\n      0x00\n      dup1\n      revert\n    tag_34:\n      pop\n      sload(0x04)\n      tag_23\n      swap1\n      0x0100\n      swap1\n      div\n      0xff\n      and\n      dup2\n      jump\n        /* \"contracts/1.TradeAgreement.sol\":119:139  address public buyer */\n    tag_8:\n      callvalue\n      dup1\n      iszero\n      tag_38\n      jumpi\n      0x00\n      dup1\n      revert\n    tag_38:\n      pop\n      sload(0x01)\n      tag_18\n      swap1\n      sub(shl(0xa0, 0x01), 0x01)\n      and\n      dup2\n      jump\n        /* \"contracts/1.TradeAgreement.sol\":264:291  bool public tradeCompeleted */\n    tag_9:\n      callvalue\n      dup1\n      iszero\n      tag_42\n      jumpi\n      0x00\n      dup1\n      revert\n    tag_42:\n      pop\n      sload(0x04)\n      tag_23\n      swap1\n      0x010000\n      swap1\n      div\n      0xff\n      and\n      dup2\n      jump\n        /* \"contracts/1.TradeAgreement.sol\":146:167  uint256 public amount */\n    tag_10:\n      callvalue\n      dup1\n      iszero\n      tag_46\n      jumpi\n      0x00\n      dup1\n      revert\n    tag_46:\n      pop\n      tag_47\n      sload(0x02)\n      dup2\n      jump\n    tag_47:\n      mload(0x40)\n        /* \"#utility.yul\":560:585   */\n      swap1\n      dup2\n      mstore\n        /* \"#utility.yul\":548:550   */\n      0x20\n        /* \"#utility.yul\":533:551   */\n      add\n        /* \"contracts/1.TradeAgreement.sol\":146:167  uint256 public amount */\n      tag_20\n        /* \"#utility.yul\":414:591   */\n      jump\n        /* \"contracts/1.TradeAgreement.sol\":1827:1937  function deposit() public payable onlyBuyer{... */\n    tag_11:\n      tag_15\n      tag_52\n      jump\t// in\n        /* \"contracts/1.TradeAgreement.sol\":174:192  string public item */\n    tag_12:\n      callvalue\n      dup1\n      iszero\n      tag_53\n      jumpi\n      0x00\n      dup1\n      revert\n    tag_53:\n      pop\n      tag_54\n      tag_55\n      jump\t// in\n    tag_54:\n      mload(0x40)\n      tag_20\n      swap2\n      swap1\n      tag_57\n      jump\t// in\n        /* \"contracts/1.TradeAgreement.sol\":1334:1486  function acceptTradeAsSeller() public onlySeller{... */\n    tag_16:\n        /* \"contracts/1.TradeAgreement.sol\":1106:1112  seller */\n      and(sub(shl(0xa0, 0x01), 0x01), sload(0x00))\n        /* \"contracts/1.TradeAgreement.sol\":1092:1102  msg.sender */\n      caller\n        /* \"contracts/1.TradeAgreement.sol\":1092:1112  msg.sender == seller */\n      eq\n        /* \"contracts/1.TradeAgreement.sol\":1084:1151  require(msg.sender == seller, \"Only seller can call this function\") */\n      tag_59\n      jumpi\n      mload(0x40)\n      shl(0xe5, 0x461bcd)\n      dup2\n      mstore\n        /* \"#utility.yul\":1221:1223   */\n      0x20\n        /* \"contracts/1.TradeAgreement.sol\":1084:1151  require(msg.sender == seller, \"Only seller can call this function\") */\n      0x04\n      dup3\n      add\n        /* \"#utility.yul\":1203:1224   */\n      mstore\n        /* \"#utility.yul\":1260:1262   */\n      0x22\n        /* \"#utility.yul\":1240:1258   */\n      0x24\n      dup3\n      add\n        /* \"#utility.yul\":1233:1263   */\n      mstore\n        /* \"#utility.yul\":1299:1333   */\n      0x4f6e6c792073656c6c65722063616e2063616c6c20746869732066756e637469\n        /* \"#utility.yul\":1279:1297   */\n      0x44\n      dup3\n      add\n        /* \"#utility.yul\":1272:1334   */\n      mstore\n      shl(0xf1, 0x37b7)\n        /* \"#utility.yul\":1350:1368   */\n      0x64\n      dup3\n      add\n        /* \"#utility.yul\":1343:1375   */\n      mstore\n        /* \"#utility.yul\":1392:1411   */\n      0x84\n      add\n        /* \"contracts/1.TradeAgreement.sol\":1084:1151  require(msg.sender == seller, \"Only seller can call this function\") */\n    tag_60:\n      mload(0x40)\n      dup1\n      swap2\n      sub\n      swap1\n      revert\n    tag_59:\n        /* \"contracts/1.TradeAgreement.sol\":1393:1407  sellerAccepted */\n      0x04\n        /* \"contracts/1.TradeAgreement.sol\":1393:1414  sellerAccepted = true */\n      dup1\n      sload\n      not(0xff00)\n      and\n      0x0100\n      or\n      swap1\n      sstore\n      0x00\n        /* \"contracts/1.TradeAgreement.sol\":1445:1451  seller */\n      dup1\n      sload\n        /* \"contracts/1.TradeAgreement.sol\":1430:1452  SellerAccepted(seller) */\n      mload(0x40)\n      sub(shl(0xa0, 0x01), 0x01)\n        /* \"contracts/1.TradeAgreement.sol\":1445:1451  seller */\n      swap1\n      swap2\n      and\n      swap2\n        /* \"contracts/1.TradeAgreement.sol\":1430:1452  SellerAccepted(seller) */\n      0xe8b2bddd4b7daeaba32be7d8f242b974e1dcd03366dea076f1c8c08fb8a1c9c7\n      swap2\n      log2\n        /* \"contracts/1.TradeAgreement.sol\":1463:1478  completeTrade() */\n      tag_63\n        /* \"contracts/1.TradeAgreement.sol\":1463:1476  completeTrade */\n      tag_64\n        /* \"contracts/1.TradeAgreement.sol\":1463:1478  completeTrade() */\n      jump\t// in\n    tag_63:\n        /* \"contracts/1.TradeAgreement.sol\":1334:1486  function acceptTradeAsSeller() public onlySeller{... */\n      jump\t// out\n        /* \"contracts/1.TradeAgreement.sol\":1179:1326  function acceptTradeAsBuyer() public onlyBuyer{... */\n    tag_33:\n        /* \"contracts/1.TradeAgreement.sol\":981:986  buyer */\n      and(sub(shl(0xa0, 0x01), 0x01), sload(0x01))\n        /* \"contracts/1.TradeAgreement.sol\":967:977  msg.sender */\n      caller\n        /* \"contracts/1.TradeAgreement.sol\":967:986  msg.sender == buyer */\n      eq\n        /* \"contracts/1.TradeAgreement.sol\":959:1024  require(msg.sender == buyer, \"Only buyer can call this function\") */\n      tag_67\n      jumpi\n      mload(0x40)\n      shl(0xe5, 0x461bcd)\n      dup2\n      mstore\n      0x04\n      add\n      tag_60\n      swap1\n      tag_69\n      jump\t// in\n    tag_67:\n        /* \"contracts/1.TradeAgreement.sol\":1236:1249  buyerAccepted */\n      0x04\n        /* \"contracts/1.TradeAgreement.sol\":1236:1256  buyerAccepted = true */\n      dup1\n      sload\n      not(0xff)\n      and\n        /* \"contracts/1.TradeAgreement.sol\":1252:1256  true */\n      0x01\n        /* \"contracts/1.TradeAgreement.sol\":1236:1256  buyerAccepted = true */\n      swap1\n      dup2\n      or\n      swap1\n      swap2\n      sstore\n        /* \"contracts/1.TradeAgreement.sol\":1286:1291  buyer */\n      sload\n        /* \"contracts/1.TradeAgreement.sol\":1272:1292  BuyerAccepted(buyer) */\n      mload(0x40)\n      sub(shl(0xa0, 0x01), 0x01)\n        /* \"contracts/1.TradeAgreement.sol\":1286:1291  buyer */\n      swap1\n      swap2\n      and\n      swap1\n        /* \"contracts/1.TradeAgreement.sol\":1272:1292  BuyerAccepted(buyer) */\n      0x5f3a7bf7d0d0920ead7a7881b6e97df7c48a86c5cc14706a00cefc033bc8a059\n      swap1\n        /* \"contracts/1.TradeAgreement.sol\":1236:1249  buyerAccepted */\n      0x00\n      swap1\n        /* \"contracts/1.TradeAgreement.sol\":1272:1292  BuyerAccepted(buyer) */\n      log2\n        /* \"contracts/1.TradeAgreement.sol\":1303:1318  completeTrade() */\n      tag_63\n        /* \"contracts/1.TradeAgreement.sol\":1303:1316  completeTrade */\n      tag_64\n        /* \"contracts/1.TradeAgreement.sol\":1303:1318  completeTrade() */\n      jump\t// in\n        /* \"contracts/1.TradeAgreement.sol\":1827:1937  function deposit() public payable onlyBuyer{... */\n    tag_52:\n        /* \"contracts/1.TradeAgreement.sol\":981:986  buyer */\n      and(sub(shl(0xa0, 0x01), 0x01), sload(0x01))\n        /* \"contracts/1.TradeAgreement.sol\":967:977  msg.sender */\n      caller\n        /* \"contracts/1.TradeAgreement.sol\":967:986  msg.sender == buyer */\n      eq\n        /* \"contracts/1.TradeAgreement.sol\":959:1024  require(msg.sender == buyer, \"Only buyer can call this function\") */\n      tag_73\n      jumpi\n      mload(0x40)\n      shl(0xe5, 0x461bcd)\n      dup2\n      mstore\n      0x04\n      add\n      tag_60\n      swap1\n      tag_69\n      jump\t// in\n    tag_73:\n        /* \"contracts/1.TradeAgreement.sol\":1902:1908  amount */\n      sload(0x02)\n        /* \"contracts/1.TradeAgreement.sol\":1889:1898  msg.value */\n      callvalue\n        /* \"contracts/1.TradeAgreement.sol\":1889:1908  msg.value == amount */\n      eq\n        /* \"contracts/1.TradeAgreement.sol\":1881:1929  require(msg.value == amount, \"Incorrect Amount\") */\n      tag_63\n      jumpi\n      mload(0x40)\n      shl(0xe5, 0x461bcd)\n      dup2\n      mstore\n        /* \"#utility.yul\":2026:2028   */\n      0x20\n        /* \"contracts/1.TradeAgreement.sol\":1881:1929  require(msg.value == amount, \"Incorrect Amount\") */\n      0x04\n      dup3\n      add\n        /* \"#utility.yul\":2008:2029   */\n      mstore\n        /* \"#utility.yul\":2065:2067   */\n      0x10\n        /* \"#utility.yul\":2045:2063   */\n      0x24\n      dup3\n      add\n        /* \"#utility.yul\":2038:2068   */\n      mstore\n      shl(0x82, 0x125b98dbdc9c9958dd08105b5bdd5b9d)\n        /* \"#utility.yul\":2084:2102   */\n      0x44\n      dup3\n      add\n        /* \"#utility.yul\":2077:2123   */\n      mstore\n        /* \"#utility.yul\":2140:2158   */\n      0x64\n      add\n        /* \"contracts/1.TradeAgreement.sol\":1881:1929  require(msg.value == amount, \"Incorrect Amount\") */\n      tag_60\n        /* \"#utility.yul\":1824:2164   */\n      jump\n        /* \"contracts/1.TradeAgreement.sol\":174:192  string public item */\n    tag_55:\n      0x03\n      dup1\n      sload\n      tag_79\n      swap1\n      tag_80\n      jump\t// in\n    tag_79:\n      dup1\n      0x1f\n      add\n      0x20\n      dup1\n      swap2\n      div\n      mul\n      0x20\n      add\n      mload(0x40)\n      swap1\n      dup2\n      add\n      0x40\n      mstore\n      dup1\n      swap3\n      swap2\n      swap1\n      dup2\n      dup2\n      mstore\n      0x20\n      add\n      dup3\n      dup1\n      sload\n      tag_81\n      swap1\n      tag_80\n      jump\t// in\n    tag_81:\n      dup1\n      iszero\n      tag_82\n      jumpi\n      dup1\n      0x1f\n      lt\n      tag_83\n      jumpi\n      0x0100\n      dup1\n      dup4\n      sload\n      div\n      mul\n      dup4\n      mstore\n      swap2\n      0x20\n      add\n      swap2\n      jump(tag_82)\n    tag_83:\n      dup3\n      add\n      swap2\n      swap1\n      0x00\n      mstore\n      keccak256(0x00, 0x20)\n      swap1\n    tag_84:\n      dup2\n      sload\n      dup2\n      mstore\n      swap1\n      0x01\n      add\n      swap1\n      0x20\n      add\n      dup1\n      dup4\n      gt\n      tag_84\n      jumpi\n      dup3\n      swap1\n      sub\n      0x1f\n      and\n      dup3\n      add\n      swap2\n    tag_82:\n      pop\n      pop\n      pop\n      pop\n      pop\n      dup2\n      jump\t// out\n        /* \"contracts/1.TradeAgreement.sol\":1494:1819  function completeTrade() internal {... */\n    tag_64:\n        /* \"contracts/1.TradeAgreement.sol\":1542:1555  buyerAccepted */\n      and(0xff, sload(0x04))\n        /* \"contracts/1.TradeAgreement.sol\":1542:1573  buyerAccepted && sellerAccepted */\n      dup1\n      iszero\n      tag_86\n      jumpi\n      pop\n        /* \"contracts/1.TradeAgreement.sol\":1559:1573  sellerAccepted */\n      sload(0x04)\n      0x0100\n      swap1\n      div\n      0xff\n      and\n        /* \"contracts/1.TradeAgreement.sol\":1542:1573  buyerAccepted && sellerAccepted */\n    tag_86:\n        /* \"contracts/1.TradeAgreement.sol\":1539:1812  if(buyerAccepted && sellerAccepted){... */\n      iszero\n      tag_87\n      jumpi\n        /* \"contracts/1.TradeAgreement.sol\":1589:1604  tradeCompeleted */\n      0x04\n        /* \"contracts/1.TradeAgreement.sol\":1589:1611  tradeCompeleted = true */\n      dup1\n      sload\n      not(0xff0000)\n      and\n      0x010000\n      or\n      swap1\n      sstore\n        /* \"contracts/1.TradeAgreement.sol\":1607:1611  true */\n      0x01\n        /* \"contracts/1.TradeAgreement.sol\":1655:1660  buyer */\n      sload\n        /* \"contracts/1.TradeAgreement.sol\":1589:1611  tradeCompeleted = true */\n      0x00\n        /* \"contracts/1.TradeAgreement.sol\":1647:1653  seller */\n      dup1\n      sload\n        /* \"contracts/1.TradeAgreement.sol\":1631:1661  TradeCompeleted(seller, buyer) */\n      mload(0x40)\n      sub(shl(0xa0, 0x01), 0x01)\n        /* \"contracts/1.TradeAgreement.sol\":1655:1660  buyer */\n      swap4\n      dup5\n      and\n      swap4\n        /* \"contracts/1.TradeAgreement.sol\":1647:1653  seller */\n      swap2\n      swap1\n      swap2\n      and\n      swap2\n        /* \"contracts/1.TradeAgreement.sol\":1631:1661  TradeCompeleted(seller, buyer) */\n      0xac39c8d59d90e8ade4a53cfc4a559c2c4f47ea26fb6c9370a90a707f056a43c1\n      swap2\n      log3\n        /* \"contracts/1.TradeAgreement.sol\":1684:1690  seller */\n      0x00\n      dup1\n      sload\n        /* \"contracts/1.TradeAgreement.sol\":1701:1707  amount */\n      sload(0x02)\n        /* \"contracts/1.TradeAgreement.sol\":1676:1708  payable(seller).transfer(amount) */\n      mload(0x40)\n      sub(shl(0xa0, 0x01), 0x01)\n        /* \"contracts/1.TradeAgreement.sol\":1684:1690  seller */\n      swap1\n      swap3\n      and\n      swap3\n        /* \"contracts/1.TradeAgreement.sol\":1676:1708  payable(seller).transfer(amount) */\n      dup2\n      iszero\n      0x08fc\n      mul\n      swap3\n      swap1\n      dup2\n        /* \"contracts/1.TradeAgreement.sol\":1684:1690  seller */\n      dup2\n        /* \"contracts/1.TradeAgreement.sol\":1676:1708  payable(seller).transfer(amount) */\n      dup2\n        /* \"contracts/1.TradeAgreement.sol\":1701:1707  amount */\n      dup6\n        /* \"contracts/1.TradeAgreement.sol\":1684:1690  seller */\n      dup9\n        /* \"contracts/1.TradeAgreement.sol\":1676:1708  payable(seller).transfer(amount) */\n      dup9\n      call\n      swap4\n      pop\n      pop\n      pop\n      pop\n      iszero\n      dup1\n      iszero\n      tag_89\n      jumpi\n      returndatasize\n      0x00\n      dup1\n      returndatacopy\n      revert(0x00, returndatasize)\n    tag_89:\n      pop\n        /* \"contracts/1.TradeAgreement.sol\":1334:1486  function acceptTradeAsSeller() public onlySeller{... */\n      jump\t// out\n        /* \"contracts/1.TradeAgreement.sol\":1539:1812  if(buyerAccepted && sellerAccepted){... */\n    tag_87:\n        /* \"contracts/1.TradeAgreement.sol\":1747:1762  tradeCompeleted */\n      sload(0x04)\n      0x010000\n      swap1\n      div\n      0xff\n      and\n        /* \"contracts/1.TradeAgreement.sol\":1747:1771  tradeCompeleted == false */\n      iszero\n        /* \"contracts/1.TradeAgreement.sol\":1739:1800  require(tradeCompeleted == false, \"Trade Already Compeleted\") */\n      tag_63\n      jumpi\n      mload(0x40)\n      shl(0xe5, 0x461bcd)\n      dup2\n      mstore\n        /* \"#utility.yul\":2756:2758   */\n      0x20\n        /* \"contracts/1.TradeAgreement.sol\":1739:1800  require(tradeCompeleted == false, \"Trade Already Compeleted\") */\n      0x04\n      dup3\n      add\n        /* \"#utility.yul\":2738:2759   */\n      mstore\n        /* \"#utility.yul\":2795:2797   */\n      0x18\n        /* \"#utility.yul\":2775:2793   */\n      0x24\n      dup3\n      add\n        /* \"#utility.yul\":2768:2798   */\n      mstore\n        /* \"#utility.yul\":2834:2860   */\n      0x547261646520416c726561647920436f6d70656c657465640000000000000000\n        /* \"#utility.yul\":2814:2832   */\n      0x44\n      dup3\n      add\n        /* \"#utility.yul\":2807:2861   */\n      mstore\n        /* \"#utility.yul\":2878:2896   */\n      0x64\n      add\n        /* \"contracts/1.TradeAgreement.sol\":1739:1800  require(tradeCompeleted == false, \"Trade Already Compeleted\") */\n      tag_60\n        /* \"#utility.yul\":2554:2902   */\n      jump\n        /* \"#utility.yul\":596:1014   */\n    tag_57:\n        /* \"#utility.yul\":745:747   */\n      0x20\n        /* \"#utility.yul\":734:743   */\n      dup2\n        /* \"#utility.yul\":727:748   */\n      mstore\n        /* \"#utility.yul\":708:712   */\n      0x00\n        /* \"#utility.yul\":777:783   */\n      dup3\n        /* \"#utility.yul\":771:784   */\n      mload\n        /* \"#utility.yul\":820:826   */\n      dup1\n        /* \"#utility.yul\":815:817   */\n      0x20\n        /* \"#utility.yul\":804:813   */\n      dup5\n        /* \"#utility.yul\":800:818   */\n      add\n        /* \"#utility.yul\":793:827   */\n      mstore\n        /* \"#utility.yul\":879:885   */\n      dup1\n        /* \"#utility.yul\":874:876   */\n      0x20\n        /* \"#utility.yul\":866:872   */\n      dup6\n        /* \"#utility.yul\":862:877   */\n      add\n        /* \"#utility.yul\":857:859   */\n      0x40\n        /* \"#utility.yul\":846:855   */\n      dup6\n        /* \"#utility.yul\":842:860   */\n      add\n        /* \"#utility.yul\":836:886   */\n      mcopy\n        /* \"#utility.yul\":935:936   */\n      0x00\n        /* \"#utility.yul\":930:932   */\n      0x40\n        /* \"#utility.yul\":921:927   */\n      dup3\n        /* \"#utility.yul\":910:919   */\n      dup6\n        /* \"#utility.yul\":906:928   */\n      add\n        /* \"#utility.yul\":902:933   */\n      add\n        /* \"#utility.yul\":895:937   */\n      mstore\n        /* \"#utility.yul\":1005:1007   */\n      0x40\n        /* \"#utility.yul\":998:1000   */\n      0x1f\n        /* \"#utility.yul\":994:1001   */\n      not\n        /* \"#utility.yul\":989:991   */\n      0x1f\n        /* \"#utility.yul\":981:987   */\n      dup4\n        /* \"#utility.yul\":977:992   */\n      add\n        /* \"#utility.yul\":973:1002   */\n      and\n        /* \"#utility.yul\":962:971   */\n      dup5\n        /* \"#utility.yul\":958:1003   */\n      add\n        /* \"#utility.yul\":954:1008   */\n      add\n        /* \"#utility.yul\":946:1008   */\n      swap2\n      pop\n      pop\n        /* \"#utility.yul\":596:1014   */\n      swap3\n      swap2\n      pop\n      pop\n      jump\t// out\n        /* \"#utility.yul\":1422:1819   */\n    tag_69:\n        /* \"#utility.yul\":1624:1626   */\n      0x20\n        /* \"#utility.yul\":1606:1627   */\n      dup1\n      dup3\n      mstore\n        /* \"#utility.yul\":1663:1665   */\n      0x21\n        /* \"#utility.yul\":1643:1661   */\n      swap1\n      dup3\n      add\n        /* \"#utility.yul\":1636:1666   */\n      mstore\n        /* \"#utility.yul\":1702:1736   */\n      0x4f6e6c792062757965722063616e2063616c6c20746869732066756e6374696f\n        /* \"#utility.yul\":1697:1699   */\n      0x40\n        /* \"#utility.yul\":1682:1700   */\n      dup3\n      add\n        /* \"#utility.yul\":1675:1737   */\n      mstore\n      shl(0xf9, 0x37)\n        /* \"#utility.yul\":1768:1770   */\n      0x60\n        /* \"#utility.yul\":1753:1771   */\n      dup3\n      add\n        /* \"#utility.yul\":1746:1777   */\n      mstore\n        /* \"#utility.yul\":1809:1812   */\n      0x80\n        /* \"#utility.yul\":1794:1813   */\n      add\n      swap1\n        /* \"#utility.yul\":1422:1819   */\n      jump\t// out\n        /* \"#utility.yul\":2169:2549   */\n    tag_80:\n        /* \"#utility.yul\":2248:2249   */\n      0x01\n        /* \"#utility.yul\":2244:2256   */\n      dup2\n      dup2\n      shr\n      swap1\n        /* \"#utility.yul\":2291:2303   */\n      dup3\n      and\n      dup1\n        /* \"#utility.yul\":2312:2373   */\n      tag_103\n      jumpi\n        /* \"#utility.yul\":2366:2370   */\n      0x7f\n        /* \"#utility.yul\":2358:2364   */\n      dup3\n        /* \"#utility.yul\":2354:2371   */\n      and\n        /* \"#utility.yul\":2344:2371   */\n      swap2\n      pop\n        /* \"#utility.yul\":2312:2373   */\n    tag_103:\n        /* \"#utility.yul\":2419:2421   */\n      0x20\n        /* \"#utility.yul\":2411:2417   */\n      dup3\n        /* \"#utility.yul\":2408:2422   */\n      lt\n        /* \"#utility.yul\":2388:2406   */\n      dup2\n        /* \"#utility.yul\":2385:2423   */\n      sub\n        /* \"#utility.yul\":2382:2543   */\n      tag_104\n      jumpi\n        /* \"#utility.yul\":2465:2475   */\n      0x4e487b71\n        /* \"#utility.yul\":2460:2463   */\n      0xe0\n        /* \"#utility.yul\":2456:2476   */\n      shl\n        /* \"#utility.yul\":2453:2454   */\n      0x00\n        /* \"#utility.yul\":2446:2477   */\n      mstore\n        /* \"#utility.yul\":2500:2504   */\n      0x22\n        /* \"#utility.yul\":2497:2498   */\n      0x04\n        /* \"#utility.yul\":2490:2505   */\n      mstore\n        /* \"#utility.yul\":2528:2532   */\n      0x24\n        /* \"#utility.yul\":2525:2526   */\n      0x00\n        /* \"#utility.yul\":2518:2533   */\n      revert\n        /* \"#utility.yul\":2382:2543   */\n    tag_104:\n      pop\n        /* \"#utility.yul\":2169:2549   */\n      swap2\n      swap1\n      pop\n      jump\t// out\n\n    auxdata: 0xa2646970667358221220ddc20ba7ddaabb5b514f9292baf4f514ce1a6aeee2f25ebce3d39689a66029ff64736f6c634300081a0033\n}\n",
				"bytecode": {
					"linkReferences": {},
					"object": "608060405234801561000f575f80fd5b506040516109c33803806109c383398101604081905261002e916100f1565b5f8054336001600160a01b031991821617909155600180549091166001600160a01b03851617905561006882670de0b6b3a76400006101c8565b60025560036100778282610275565b506004805462ffffff191690556001545f546002546040516001600160a01b0393841693909216917fe18cb9b802d94b2dc5101f171d56bdd0ae763a50968fea4dc809c284e51be997916100cd9160039061032f565b60405180910390a35050506103bd565b634e487b7160e01b5f52604160045260245ffd5b5f805f60608486031215610103575f80fd5b83516001600160a01b0381168114610119575f80fd5b6020850151604086015191945092506001600160401b0381111561013b575f80fd5b8401601f8101861361014b575f80fd5b80516001600160401b03811115610164576101646100dd565b604051601f8201601f19908116603f011681016001600160401b0381118282101715610192576101926100dd565b6040528181528282016020018810156101a9575f80fd5b8160208401602083015e5f602083830101528093505050509250925092565b80820281158282048414176101eb57634e487b7160e01b5f52601160045260245ffd5b92915050565b600181811c9082168061020557607f821691505b60208210810361022357634e487b7160e01b5f52602260045260245ffd5b50919050565b601f82111561027057805f5260205f20601f840160051c8101602085101561024e5750805b601f840160051c820191505b8181101561026d575f815560010161025a565b50505b505050565b81516001600160401b0381111561028e5761028e6100dd565b6102a28161029c84546101f1565b84610229565b6020601f8211600181146102d4575f83156102bd5750848201515b5f19600385901b1c1916600184901b17845561026d565b5f84815260208120601f198516915b8281101561030357878501518255602094850194600190920191016102e3565b508482101561032057868401515f19600387901b60f8161c191681555b50505050600190811b01905550565b828152604060208201525f808354610346816101f1565b806040860152600182165f81146103645760018114610380576103b1565b60ff1983166060870152606082151560051b87010193506103b1565b865f5260205f205f5b838110156103a857815488820160600152600190910190602001610389565b87016060019450505b50919695505050505050565b6105f9806103ca5f395ff3fe60806040526004361061009a575f3560e01c806361b60f6b1161006257806361b60f6b146101455780637150d8ae14610163578063a795c2ce14610182578063aa8c217c146101a1578063d0e30db0146101c4578063f2a4a82e146101cc575f80fd5b8063039e3e051461009e57806308551a53146100b45780631a3db582146100ef5780632312fff714610118578063532ca45714610131575b5f80fd5b3480156100a9575f80fd5b506100b26101ed565b005b3480156100bf575f80fd5b505f546100d2906001600160a01b031681565b6040516001600160a01b0390911681526020015b60405180910390f35b3480156100fa575f80fd5b5060045462010000900460ff165b60405190151581526020016100e6565b348015610123575f80fd5b506004546101089060ff1681565b34801561013c575f80fd5b506100b26102a4565b348015610150575f80fd5b5060045461010890610100900460ff1681565b34801561016e575f80fd5b506001546100d2906001600160a01b031681565b34801561018d575f80fd5b506004546101089062010000900460ff1681565b3480156101ac575f80fd5b506101b660025481565b6040519081526020016100e6565b6100b261031b565b3480156101d7575f80fd5b506101e0610389565b6040516100e69190610515565b5f546001600160a01b031633146102565760405162461bcd60e51b815260206004820152602260248201527f4f6e6c792073656c6c65722063616e2063616c6c20746869732066756e63746960448201526137b760f11b60648201526084015b60405180910390fd5b6004805461ff0019166101001790555f80546040516001600160a01b03909116917fe8b2bddd4b7daeaba32be7d8f242b974e1dcd03366dea076f1c8c08fb8a1c9c791a26102a2610415565b565b6001546001600160a01b031633146102ce5760405162461bcd60e51b815260040161024d9061054a565b6004805460ff19166001908117909155546040516001600160a01b03909116907f5f3a7bf7d0d0920ead7a7881b6e97df7c48a86c5cc14706a00cefc033bc8a059905f90a26102a2610415565b6001546001600160a01b031633146103455760405162461bcd60e51b815260040161024d9061054a565b60025434146102a25760405162461bcd60e51b815260206004820152601060248201526f125b98dbdc9c9958dd08105b5bdd5b9d60821b604482015260640161024d565b600380546103969061058b565b80601f01602080910402602001604051908101604052809291908181526020018280546103c29061058b565b801561040d5780601f106103e45761010080835404028352916020019161040d565b820191905f5260205f20905b8154815290600101906020018083116103f057829003601f168201915b505050505081565b60045460ff16801561042e5750600454610100900460ff165b156104bc576004805462ff00001916620100001790556001545f80546040516001600160a01b039384169391909116917fac39c8d59d90e8ade4a53cfc4a559c2c4f47ea26fb6c9370a90a707f056a43c191a35f80546002546040516001600160a01b039092169281156108fc029290818181858888f193505050501580156104b9573d5f803e3d5ffd5b50565b60045462010000900460ff16156102a25760405162461bcd60e51b815260206004820152601860248201527f547261646520416c726561647920436f6d70656c657465640000000000000000604482015260640161024d565b602081525f82518060208401528060208501604085015e5f604082850101526040601f19601f83011684010191505092915050565b60208082526021908201527f4f6e6c792062757965722063616e2063616c6c20746869732066756e6374696f6040820152603760f91b606082015260800190565b600181811c9082168061059f57607f821691505b6020821081036105bd57634e487b7160e01b5f52602260045260245ffd5b5091905056fea2646970667358221220ddc20ba7ddaabb5b514f9292baf4f514ce1a6aeee2f25ebce3d39689a66029ff64736f6c634300081a0033",
					"opcodes": "PUSH1 0x80 PUSH1 0x40 MSTORE CALLVALUE DUP1 ISZERO PUSH2 0xF JUMPI PUSH0 DUP1 REVERT JUMPDEST POP PUSH1 0x40 MLOAD PUSH2 0x9C3 CODESIZE SUB DUP1 PUSH2 0x9C3 DUP4 CODECOPY DUP2 ADD PUSH1 0x40 DUP2 SWAP1 MSTORE PUSH2 0x2E SWAP2 PUSH2 0xF1 JUMP JUMPDEST PUSH0 DUP1 SLOAD CALLER PUSH1 0x1 PUSH1 0x1 PUSH1 0xA0 SHL SUB NOT SWAP2 DUP3 AND OR SWAP1 SWAP2 SSTORE PUSH1 0x1 DUP1 SLOAD SWAP1 SWAP2 AND PUSH1 0x1 PUSH1 0x1 PUSH1 0xA0 SHL SUB DUP6 AND OR SWAP1 SSTORE PUSH2 0x68 DUP3 PUSH8 0xDE0B6B3A7640000 PUSH2 0x1C8 JUMP JUMPDEST PUSH1 0x2 SSTORE PUSH1 0x3 PUSH2 0x77 DUP3 DUP3 PUSH2 0x275 JUMP JUMPDEST POP PUSH1 0x4 DUP1 SLOAD PUSH3 0xFFFFFF NOT AND SWAP1 SSTORE PUSH1 0x1 SLOAD PUSH0 SLOAD PUSH1 0x2 SLOAD PUSH1 0x40 MLOAD PUSH1 0x1 PUSH1 0x1 PUSH1 0xA0 SHL SUB SWAP4 DUP5 AND SWAP4 SWAP1 SWAP3 AND SWAP2 PUSH32 0xE18CB9B802D94B2DC5101F171D56BDD0AE763A50968FEA4DC809C284E51BE997 SWAP2 PUSH2 0xCD SWAP2 PUSH1 0x3 SWAP1 PUSH2 0x32F JUMP JUMPDEST PUSH1 0x40 MLOAD DUP1 SWAP2 SUB SWAP1 LOG3 POP POP POP PUSH2 0x3BD JUMP JUMPDEST PUSH4 0x4E487B71 PUSH1 0xE0 SHL PUSH0 MSTORE PUSH1 0x41 PUSH1 0x4 MSTORE PUSH1 0x24 PUSH0 REVERT JUMPDEST PUSH0 DUP1 PUSH0 PUSH1 0x60 DUP5 DUP7 SUB SLT ISZERO PUSH2 0x103 JUMPI PUSH0 DUP1 REVERT JUMPDEST DUP4 MLOAD PUSH1 0x1 PUSH1 0x1 PUSH1 0xA0 SHL SUB DUP2 AND DUP2 EQ PUSH2 0x119 JUMPI PUSH0 DUP1 REVERT JUMPDEST PUSH1 0x20 DUP6 ADD MLOAD PUSH1 0x40 DUP7 ADD MLOAD SWAP2 SWAP5 POP SWAP3 POP PUSH1 0x1 PUSH1 0x1 PUSH1 0x40 SHL SUB DUP2 GT ISZERO PUSH2 0x13B JUMPI PUSH0 DUP1 REVERT JUMPDEST DUP5 ADD PUSH1 0x1F DUP2 ADD DUP7 SGT PUSH2 0x14B JUMPI PUSH0 DUP1 REVERT JUMPDEST DUP1 MLOAD PUSH1 0x1 PUSH1 0x1 PUSH1 0x40 SHL SUB DUP2 GT ISZERO PUSH2 0x164 JUMPI PUSH2 0x164 PUSH2 0xDD JUMP JUMPDEST PUSH1 0x40 MLOAD PUSH1 0x1F DUP3 ADD PUSH1 0x1F NOT SWAP1 DUP2 AND PUSH1 0x3F ADD AND DUP2 ADD PUSH1 0x1 PUSH1 0x1 PUSH1 0x40 SHL SUB DUP2 GT DUP3 DUP3 LT OR ISZERO PUSH2 0x192 JUMPI PUSH2 0x192 PUSH2 0xDD JUMP JUMPDEST PUSH1 0x40 MSTORE DUP2 DUP2 MSTORE DUP3 DUP3 ADD PUSH1 0x20 ADD DUP9 LT ISZERO PUSH2 0x1A9 JUMPI PUSH0 DUP1 REVERT JUMPDEST DUP2 PUSH1 0x20 DUP5 ADD PUSH1 0x20 DUP4 ADD MCOPY PUSH0 PUSH1 0x20 DUP4 DUP4 ADD ADD MSTORE DUP1 SWAP4 POP POP POP POP SWAP3 POP SWAP3 POP SWAP3 JUMP JUMPDEST DUP1 DUP3 MUL DUP2 ISZERO DUP3 DUP3 DIV DUP5 EQ OR PUSH2 0x1EB JUMPI PUSH4 0x4E487B71 PUSH1 0xE0 SHL PUSH0 MSTORE PUSH1 0x11 PUSH1 0x4 MSTORE PUSH1 0x24 PUSH0 REVERT JUMPDEST SWAP3 SWAP2 POP POP JUMP JUMPDEST PUSH1 0x1 DUP2 DUP2 SHR SWAP1 DUP3 AND DUP1 PUSH2 0x205 JUMPI PUSH1 0x7F DUP3 AND SWAP2 POP JUMPDEST PUSH1 0x20 DUP3 LT DUP2 SUB PUSH2 0x223 JUMPI PUSH4 0x4E487B71 PUSH1 0xE0 SHL PUSH0 MSTORE PUSH1 0x22 PUSH1 0x4 MSTORE PUSH1 0x24 PUSH0 REVERT JUMPDEST POP SWAP2 SWAP1 POP JUMP JUMPDEST PUSH1 0x1F DUP3 GT ISZERO PUSH2 0x270 JUMPI DUP1 PUSH0 MSTORE PUSH1 0x20 PUSH0 KECCAK256 PUSH1 0x1F DUP5 ADD PUSH1 0x5 SHR DUP2 ADD PUSH1 0x20 DUP6 LT ISZERO PUSH2 0x24E JUMPI POP DUP1 JUMPDEST PUSH1 0x1F DUP5 ADD PUSH1 0x5 SHR DUP3 ADD SWAP2 POP JUMPDEST DUP2 DUP2 LT ISZERO PUSH2 0x26D JUMPI PUSH0 DUP2 SSTORE PUSH1 0x1 ADD PUSH2 0x25A JUMP JUMPDEST POP POP JUMPDEST POP POP POP JUMP JUMPDEST DUP2 MLOAD PUSH1 0x1 PUSH1 0x1 PUSH1 0x40 SHL SUB DUP2 GT ISZERO PUSH2 0x28E JUMPI PUSH2 0x28E PUSH2 0xDD JUMP JUMPDEST PUSH2 0x2A2 DUP2 PUSH2 0x29C DUP5 SLOAD PUSH2 0x1F1 JUMP JUMPDEST DUP5 PUSH2 0x229 JUMP JUMPDEST PUSH1 0x20 PUSH1 0x1F DUP3 GT PUSH1 0x1 DUP2 EQ PUSH2 0x2D4 JUMPI PUSH0 DUP4 ISZERO PUSH2 0x2BD JUMPI POP DUP5 DUP3 ADD MLOAD JUMPDEST PUSH0 NOT PUSH1 0x3 DUP6 SWAP1 SHL SHR NOT AND PUSH1 0x1 DUP5 SWAP1 SHL OR DUP5 SSTORE PUSH2 0x26D JUMP JUMPDEST PUSH0 DUP5 DUP2 MSTORE PUSH1 0x20 DUP2 KECCAK256 PUSH1 0x1F NOT DUP6 AND SWAP2 JUMPDEST DUP3 DUP2 LT ISZERO PUSH2 0x303 JUMPI DUP8 DUP6 ADD MLOAD DUP3 SSTORE PUSH1 0x20 SWAP5 DUP6 ADD SWAP5 PUSH1 0x1 SWAP1 SWAP3 ADD SWAP2 ADD PUSH2 0x2E3 JUMP JUMPDEST POP DUP5 DUP3 LT ISZERO PUSH2 0x320 JUMPI DUP7 DUP5 ADD MLOAD PUSH0 NOT PUSH1 0x3 DUP8 SWAP1 SHL PUSH1 0xF8 AND SHR NOT AND DUP2 SSTORE JUMPDEST POP POP POP POP PUSH1 0x1 SWAP1 DUP2 SHL ADD SWAP1 SSTORE POP JUMP JUMPDEST DUP3 DUP2 MSTORE PUSH1 0x40 PUSH1 0x20 DUP3 ADD MSTORE PUSH0 DUP1 DUP4 SLOAD PUSH2 0x346 DUP2 PUSH2 0x1F1 JUMP JUMPDEST DUP1 PUSH1 0x40 DUP7 ADD MSTORE PUSH1 0x1 DUP3 AND PUSH0 DUP2 EQ PUSH2 0x364 JUMPI PUSH1 0x1 DUP2 EQ PUSH2 0x380 JUMPI PUSH2 0x3B1 JUMP JUMPDEST PUSH1 0xFF NOT DUP4 AND PUSH1 0x60 DUP8 ADD MSTORE PUSH1 0x60 DUP3 ISZERO ISZERO PUSH1 0x5 SHL DUP8 ADD ADD SWAP4 POP PUSH2 0x3B1 JUMP JUMPDEST DUP7 PUSH0 MSTORE PUSH1 0x20 PUSH0 KECCAK256 PUSH0 JUMPDEST DUP4 DUP2 LT ISZERO PUSH2 0x3A8 JUMPI DUP2 SLOAD DUP9 DUP3 ADD PUSH1 0x60 ADD MSTORE PUSH1 0x1 SWAP1 SWAP2 ADD SWAP1 PUSH1 0x20 ADD PUSH2 0x389 JUMP JUMPDEST DUP8 ADD PUSH1 0x60 ADD SWAP5 POP POP JUMPDEST POP SWAP2 SWAP7 SWAP6 POP POP POP POP POP POP JUMP JUMPDEST PUSH2 0x5F9 DUP1 PUSH2 0x3CA PUSH0 CODECOPY PUSH0 RETURN INVALID PUSH1 0x80 PUSH1 0x40 MSTORE PUSH1 0x4 CALLDATASIZE LT PUSH2 0x9A JUMPI PUSH0 CALLDATALOAD PUSH1 0xE0 SHR DUP1 PUSH4 0x61B60F6B GT PUSH2 0x62 JUMPI DUP1 PUSH4 0x61B60F6B EQ PUSH2 0x145 JUMPI DUP1 PUSH4 0x7150D8AE EQ PUSH2 0x163 JUMPI DUP1 PUSH4 0xA795C2CE EQ PUSH2 0x182 JUMPI DUP1 PUSH4 0xAA8C217C EQ PUSH2 0x1A1 JUMPI DUP1 PUSH4 0xD0E30DB0 EQ PUSH2 0x1C4 JUMPI DUP1 PUSH4 0xF2A4A82E EQ PUSH2 0x1CC JUMPI PUSH0 DUP1 REVERT JUMPDEST DUP1 PUSH4 0x39E3E05 EQ PUSH2 0x9E JUMPI DUP1 PUSH4 0x8551A53 EQ PUSH2 0xB4 JUMPI DUP1 PUSH4 0x1A3DB582 EQ PUSH2 0xEF JUMPI DUP1 PUSH4 0x2312FFF7 EQ PUSH2 0x118 JUMPI DUP1 PUSH4 0x532CA457 EQ PUSH2 0x131 JUMPI JUMPDEST PUSH0 DUP1 REVERT JUMPDEST CALLVALUE DUP1 ISZERO PUSH2 0xA9 JUMPI PUSH0 DUP1 REVERT JUMPDEST POP PUSH2 0xB2 PUSH2 0x1ED JUMP JUMPDEST STOP JUMPDEST CALLVALUE DUP1 ISZERO PUSH2 0xBF JUMPI PUSH0 DUP1 REVERT JUMPDEST POP PUSH0 SLOAD PUSH2 0xD2 SWAP1 PUSH1 0x1 PUSH1 0x1 PUSH1 0xA0 SHL SUB AND DUP2 JUMP JUMPDEST PUSH1 0x40 MLOAD PUSH1 0x1 PUSH1 0x1 PUSH1 0xA0 SHL SUB SWAP1 SWAP2 AND DUP2 MSTORE PUSH1 0x20 ADD JUMPDEST PUSH1 0x40 MLOAD DUP1 SWAP2 SUB SWAP1 RETURN JUMPDEST CALLVALUE DUP1 ISZERO PUSH2 0xFA JUMPI PUSH0 DUP1 REVERT JUMPDEST POP PUSH1 0x4 SLOAD PUSH3 0x10000 SWAP1 DIV PUSH1 0xFF AND JUMPDEST PUSH1 0x40 MLOAD SWAP1 ISZERO ISZERO DUP2 MSTORE PUSH1 0x20 ADD PUSH2 0xE6 JUMP JUMPDEST CALLVALUE DUP1 ISZERO PUSH2 0x123 JUMPI PUSH0 DUP1 REVERT JUMPDEST POP PUSH1 0x4 SLOAD PUSH2 0x108 SWAP1 PUSH1 0xFF AND DUP2 JUMP JUMPDEST CALLVALUE DUP1 ISZERO PUSH2 0x13C JUMPI PUSH0 DUP1 REVERT JUMPDEST POP PUSH2 0xB2 PUSH2 0x2A4 JUMP JUMPDEST CALLVALUE DUP1 ISZERO PUSH2 0x150 JUMPI PUSH0 DUP1 REVERT JUMPDEST POP PUSH1 0x4 SLOAD PUSH2 0x108 SWAP1 PUSH2 0x100 SWAP1 DIV PUSH1 0xFF AND DUP2 JUMP JUMPDEST CALLVALUE DUP1 ISZERO PUSH2 0x16E JUMPI PUSH0 DUP1 REVERT JUMPDEST POP PUSH1 0x1 SLOAD PUSH2 0xD2 SWAP1 PUSH1 0x1 PUSH1 0x1 PUSH1 0xA0 SHL SUB AND DUP2 JUMP JUMPDEST CALLVALUE DUP1 ISZERO PUSH2 0x18D JUMPI PUSH0 DUP1 REVERT JUMPDEST POP PUSH1 0x4 SLOAD PUSH2 0x108 SWAP1 PUSH3 0x10000 SWAP1 DIV PUSH1 0xFF AND DUP2 JUMP JUMPDEST CALLVALUE DUP1 ISZERO PUSH2 0x1AC JUMPI PUSH0 DUP1 REVERT JUMPDEST POP PUSH2 0x1B6 PUSH1 0x2 SLOAD DUP2 JUMP JUMPDEST PUSH1 0x40 MLOAD SWAP1 DUP2 MSTORE PUSH1 0x20 ADD PUSH2 0xE6 JUMP JUMPDEST PUSH2 0xB2 PUSH2 0x31B JUMP JUMPDEST CALLVALUE DUP1 ISZERO PUSH2 0x1D7 JUMPI PUSH0 DUP1 REVERT JUMPDEST POP PUSH2 0x1E0 PUSH2 0x389 JUMP JUMPDEST PUSH1 0x40 MLOAD PUSH2 0xE6 SWAP2 SWAP1 PUSH2 0x515 JUMP JUMPDEST PUSH0 SLOAD PUSH1 0x1 PUSH1 0x1 PUSH1 0xA0 SHL SUB AND CALLER EQ PUSH2 0x256 JUMPI PUSH1 0x40 MLOAD PUSH3 0x461BCD PUSH1 0xE5 SHL DUP2 MSTORE PUSH1 0x20 PUSH1 0x4 DUP3 ADD MSTORE PUSH1 0x22 PUSH1 0x24 DUP3 ADD MSTORE PUSH32 0x4F6E6C792073656C6C65722063616E2063616C6C20746869732066756E637469 PUSH1 0x44 DUP3 ADD MSTORE PUSH2 0x37B7 PUSH1 0xF1 SHL PUSH1 0x64 DUP3 ADD MSTORE PUSH1 0x84 ADD JUMPDEST PUSH1 0x40 MLOAD DUP1 SWAP2 SUB SWAP1 REVERT JUMPDEST PUSH1 0x4 DUP1 SLOAD PUSH2 0xFF00 NOT AND PUSH2 0x100 OR SWAP1 SSTORE PUSH0 DUP1 SLOAD PUSH1 0x40 MLOAD PUSH1 0x1 PUSH1 0x1 PUSH1 0xA0 SHL SUB SWAP1 SWAP2 AND SWAP2 PUSH32 0xE8B2BDDD4B7DAEABA32BE7D8F242B974E1DCD03366DEA076F1C8C08FB8A1C9C7 SWAP2 LOG2 PUSH2 0x2A2 PUSH2 0x415 JUMP JUMPDEST JUMP JUMPDEST PUSH1 0x1 SLOAD PUSH1 0x1 PUSH1 0x1 PUSH1 0xA0 SHL SUB AND CALLER EQ PUSH2 0x2CE JUMPI PUSH1 0x40 MLOAD PUSH3 0x461BCD PUSH1 0xE5 SHL DUP2 MSTORE PUSH1 0x4 ADD PUSH2 0x24D SWAP1 PUSH2 0x54A JUMP JUMPDEST PUSH1 0x4 DUP1 SLOAD PUSH1 0xFF NOT AND PUSH1 0x1 SWAP1 DUP2 OR SWAP1 SWAP2 SSTORE SLOAD PUSH1 0x40 MLOAD PUSH1 0x1 PUSH1 0x1 PUSH1 0xA0 SHL SUB SWAP1 SWAP2 AND SWAP1 PUSH32 0x5F3A7BF7D0D0920EAD7A7881B6E97DF7C48A86C5CC14706A00CEFC033BC8A059 SWAP1 PUSH0 SWAP1 LOG2 PUSH2 0x2A2 PUSH2 0x415 JUMP JUMPDEST PUSH1 0x1 SLOAD PUSH1 0x1 PUSH1 0x1 PUSH1 0xA0 SHL SUB AND CALLER EQ PUSH2 0x345 JUMPI PUSH1 0x40 MLOAD PUSH3 0x461BCD PUSH1 0xE5 SHL DUP2 MSTORE PUSH1 0x4 ADD PUSH2 0x24D SWAP1 PUSH2 0x54A JUMP JUMPDEST PUSH1 0x2 SLOAD CALLVALUE EQ PUSH2 0x2A2 JUMPI PUSH1 0x40 MLOAD PUSH3 0x461BCD PUSH1 0xE5 SHL DUP2 MSTORE PUSH1 0x20 PUSH1 0x4 DUP3 ADD MSTORE PUSH1 0x10 PUSH1 0x24 DUP3 ADD MSTORE PUSH16 0x125B98DBDC9C9958DD08105B5BDD5B9D PUSH1 0x82 SHL PUSH1 0x44 DUP3 ADD MSTORE PUSH1 0x64 ADD PUSH2 0x24D JUMP JUMPDEST PUSH1 0x3 DUP1 SLOAD PUSH2 0x396 SWAP1 PUSH2 0x58B JUMP JUMPDEST DUP1 PUSH1 0x1F ADD PUSH1 0x20 DUP1 SWAP2 DIV MUL PUSH1 0x20 ADD PUSH1 0x40 MLOAD SWAP1 DUP2 ADD PUSH1 0x40 MSTORE DUP1 SWAP3 SWAP2 SWAP1 DUP2 DUP2 MSTORE PUSH1 0x20 ADD DUP3 DUP1 SLOAD PUSH2 0x3C2 SWAP1 PUSH2 0x58B JUMP JUMPDEST DUP1 ISZERO PUSH2 0x40D JUMPI DUP1 PUSH1 0x1F LT PUSH2 0x3E4 JUMPI PUSH2 0x100 DUP1 DUP4 SLOAD DIV MUL DUP4 MSTORE SWAP2 PUSH1 0x20 ADD SWAP2 PUSH2 0x40D JUMP JUMPDEST DUP3 ADD SWAP2 SWAP1 PUSH0 MSTORE PUSH1 0x20 PUSH0 KECCAK256 SWAP1 JUMPDEST DUP2 SLOAD DUP2 MSTORE SWAP1 PUSH1 0x1 ADD SWAP1 PUSH1 0x20 ADD DUP1 DUP4 GT PUSH2 0x3F0 JUMPI DUP3 SWAP1 SUB PUSH1 0x1F AND DUP3 ADD SWAP2 JUMPDEST POP POP POP POP POP DUP2 JUMP JUMPDEST PUSH1 0x4 SLOAD PUSH1 0xFF AND DUP1 ISZERO PUSH2 0x42E JUMPI POP PUSH1 0x4 SLOAD PUSH2 0x100 SWAP1 DIV PUSH1 0xFF AND JUMPDEST ISZERO PUSH2 0x4BC JUMPI PUSH1 0x4 DUP1 SLOAD PUSH3 0xFF0000 NOT AND PUSH3 0x10000 OR SWAP1 SSTORE PUSH1 0x1 SLOAD PUSH0 DUP1 SLOAD PUSH1 0x40 MLOAD PUSH1 0x1 PUSH1 0x1 PUSH1 0xA0 SHL SUB SWAP4 DUP5 AND SWAP4 SWAP2 SWAP1 SWAP2 AND SWAP2 PUSH32 0xAC39C8D59D90E8ADE4A53CFC4A559C2C4F47EA26FB6C9370A90A707F056A43C1 SWAP2 LOG3 PUSH0 DUP1 SLOAD PUSH1 0x2 SLOAD PUSH1 0x40 MLOAD PUSH1 0x1 PUSH1 0x1 PUSH1 0xA0 SHL SUB SWAP1 SWAP3 AND SWAP3 DUP2 ISZERO PUSH2 0x8FC MUL SWAP3 SWAP1 DUP2 DUP2 DUP2 DUP6 DUP9 DUP9 CALL SWAP4 POP POP POP POP ISZERO DUP1 ISZERO PUSH2 0x4B9 JUMPI RETURNDATASIZE PUSH0 DUP1 RETURNDATACOPY RETURNDATASIZE PUSH0 REVERT JUMPDEST POP JUMP JUMPDEST PUSH1 0x4 SLOAD PUSH3 0x10000 SWAP1 DIV PUSH1 0xFF AND ISZERO PUSH2 0x2A2 JUMPI PUSH1 0x40 MLOAD PUSH3 0x461BCD PUSH1 0xE5 SHL DUP2 MSTORE PUSH1 0x20 PUSH1 0x4 DUP3 ADD MSTORE PUSH1 0x18 PUSH1 0x24 DUP3 ADD MSTORE PUSH32 0x547261646520416C726561647920436F6D70656C657465640000000000000000 PUSH1 0x44 DUP3 ADD MSTORE PUSH1 0x64 ADD PUSH2 0x24D JUMP JUMPDEST PUSH1 0x20 DUP2 MSTORE PUSH0 DUP3 MLOAD DUP1 PUSH1 0x20 DUP5 ADD MSTORE DUP1 PUSH1 0x20 DUP6 ADD PUSH1 0x40 DUP6 ADD MCOPY PUSH0 PUSH1 0x40 DUP3 DUP6 ADD ADD MSTORE PUSH1 0x40 PUSH1 0x1F NOT PUSH1 0x1F DUP4 ADD AND DUP5 ADD ADD SWAP2 POP POP SWAP3 SWAP2 POP POP JUMP JUMPDEST PUSH1 0x20 DUP1 DUP3 MSTORE PUSH1 0x21 SWAP1 DUP3 ADD MSTORE PUSH32 0x4F6E6C792062757965722063616E2063616C6C20746869732066756E6374696F PUSH1 0x40 DUP3 ADD MSTORE PUSH1 0x37 PUSH1 0xF9 SHL PUSH1 0x60 DUP3 ADD MSTORE PUSH1 0x80 ADD SWAP1 JUMP JUMPDEST PUSH1 0x1 DUP2 DUP2 SHR SWAP1 DUP3 AND DUP1 PUSH2 0x59F JUMPI PUSH1 0x7F DUP3 AND SWAP2 POP JUMPDEST PUSH1 0x20 DUP3 LT DUP2 SUB PUSH2 0x5BD JUMPI PUSH4 0x4E487B71 PUSH1 0xE0 SHL PUSH0 MSTORE PUSH1 0x22 PUSH1 0x4 MSTORE PUSH1 0x24 PUSH0 REVERT JUMPDEST POP SWAP2 SWAP1 POP JUMP INVALID LOG2 PUSH5 0x6970667358 0x22 SLT KECCAK256 0xDD 0xC2 SIGNEXTEND 0xA7 0xDD 0xAA 0xBB JUMPDEST MLOAD 0x4F SWAP3 SWAP3 0xBA DELEGATECALL CREATE2 EQ 0xCE BYTE PUSH11 0xEEE2F25EBCE3D39689A660 0x29 SELFDESTRUCT PUSH5 0x736F6C6343 STOP ADDMOD BYTE STOP CALLER "
				},
				"gasEstimates": {
					"creation": {
						"codeDepositCost": "305800",
						"executionCost": "infinite",
						"totalCost": "infinite"
					},
					"external": {
						"acceptTradeAsBuyer()": "infinite",
						"acceptTradeAsSeller()": "infinite",
						"amount()": "2360",
						"buyer()": "2347",
						"buyerAccepted()": "2376",
						"deposit()": "4582",
						"getTradeStatus()": "2348",
						"item()": "infinite",
						"seller()": "2347",
						"sellerAccepted()": "2320",
						"tradeCompeleted()": "2364"
					},
					"internal": {
						"completeTrade()": "infinite"
					}
				},
				"methodIdentifiers": {
					"acceptTradeAsBuyer()": "532ca457",
					"acceptTradeAsSeller()": "039e3e05",
					"amount()": "aa8c217c",
					"buyer()": "7150d8ae",
					"buyerAccepted()": "2312fff7",
					"deposit()": "d0e30db0",
					"getTradeStatus()": "1a3db582",
					"item()": "f2a4a82e",
					"seller()": "08551a53",
					"sellerAccepted()": "61b60f6b",
					"tradeCompeleted()": "a795c2ce"
				}
			},
			"storageLayout": {
				"storage": [
					{
						"astId": 3,
						"contract": "contracts/1.TradeAgreement.sol:TradeAgreement",
						"label": "seller",
						"offset": 0,
						"slot": "0",
						"type": "t_address"
					},
					{
						"astId": 5,
						"contract": "contracts/1.TradeAgreement.sol:TradeAgreement",
						"label": "buyer",
						"offset": 0,
						"slot": "1",
						"type": "t_address"
					},
					{
						"astId": 7,
						"contract": "contracts/1.TradeAgreement.sol:TradeAgreement",
						"label": "amount",
						"offset": 0,
						"slot": "2",
						"type": "t_uint256"
					},
					{
						"astId": 9,
						"contract": "contracts/1.TradeAgreement.sol:TradeAgreement",
						"label": "item",
						"offset": 0,
						"slot": "3",
						"type": "t_string_storage"
					},
					{
						"astId": 11,
						"contract": "contracts/1.TradeAgreement.sol:TradeAgreement",
						"label": "buyerAccepted",
						"offset": 0,
						"slot": "4",
						"type": "t_bool"
					},
					{
						"astId": 13,
						"contract": "contracts/1.TradeAgreement.sol:TradeAgreement",
						"label": "sellerAccepted",
						"offset": 1,
						"slot": "4",
						"type": "t_bool"
					},
					{
						"astId": 15,
						"contract": "contracts/1.TradeAgreement.sol:TradeAgreement",
						"label": "tradeCompeleted",
						"offset": 2,
						"slot": "4",
						"type": "t_bool"
					}
				],
				"types": {
					"t_address": {
						"encoding": "inplace",
						"label": "address",
						"numberOfBytes": "20"
					},
					"t_bool": {
						"encoding": "inplace",
						"label": "bool",
						"numberOfBytes": "1"
					},
					"t_string_storage": {
						"encoding": "bytes",
						"label": "string",
						"numberOfBytes": "32"
					},
					"t_uint256": {
						"encoding": "inplace",
						"label": "uint256",
						"numberOfBytes": "32"
					}
				}
			},
			"userdoc": {
				"kind": "user",
				"methods": {},
				"version": 1
			}
		}
	}
}