{
	"contracts/1.TradeAgreement.sol": {
		"TradeAgreement": {
			"abi": [
				{
					"inputs": [
						{
							"internalType": "address",
							"name": "_buyerAddress",
							"type": "address"
						},
						{
							"internalType": "string",
							"name": "_item",
							"type": "string"
						},
						{
							"internalType": "uint256",
							"name": "_price",
							"type": "uint256"
						}
					],
					"stateMutability": "nonpayable",
					"type": "constructor"
				},
				{
					"anonymous": false,
					"inputs": [
						{
							"indexed": true,
							"internalType": "address",
							"name": "seller",
							"type": "address"
						}
					],
					"name": "SellerAccepted",
					"type": "event"
				},
				{
					"anonymous": false,
					"inputs": [
						{
							"indexed": true,
							"internalType": "address",
							"name": "seller",
							"type": "address"
						},
						{
							"indexed": true,
							"internalType": "address",
							"name": "buyer",
							"type": "address"
						}
					],
					"name": "TradeCompeleted",
					"type": "event"
				},
				{
					"inputs": [],
					"name": "acceptTradeAsBuyer",
					"outputs": [],
					"stateMutability": "nonpayable",
					"type": "function"
				},
				{
					"inputs": [],
					"name": "acceptTradeAsSeller",
					"outputs": [],
					"stateMutability": "nonpayable",
					"type": "function"
				},
				{
					"inputs": [],
					"name": "buyerAccepted",
					"outputs": [
						{
							"internalType": "bool",
							"name": "",
							"type": "bool"
						}
					],
					"stateMutability": "view",
					"type": "function"
				},
				{
					"inputs": [],
					"name": "buyerAddress",
					"outputs": [
						{
							"internalType": "address",
							"name": "",
							"type": "address"
						}
					],
					"stateMutability": "view",
					"type": "function"
				},
				{
					"inputs": [],
					"name": "deposit",
					"outputs": [],
					"stateMutability": "payable",
					"type": "function"
				},
				{
					"inputs": [],
					"name": "depositMade",
					"outputs": [
						{
							"internalType": "bool",
							"name": "",
							"type": "bool"
						}
					],
					"stateMutability": "view",
					"type": "function"
				},
				{
					"inputs": [],
					"name": "item",
					"outputs": [
						{
							"internalType": "string",
							"name": "",
							"type": "string"
						}
					],
					"stateMutability": "view",
					"type": "function"
				},
				{
					"inputs": [],
					"name": "price",
					"outputs": [
						{
							"internalType": "uint256",
							"name": "",
							"type": "uint256"
						}
					],
					"stateMutability": "view",
					"type": "function"
				},
				{
					"inputs": [],
					"name": "sellerAccepted",
					"outputs": [
						{
							"internalType": "bool",
							"name": "",
							"type": "bool"
						}
					],
					"stateMutability": "view",
					"type": "function"
				},
				{
					"inputs": [],
					"name": "sellerAddress",
					"outputs": [
						{
							"internalType": "address",
							"name": "",
							"type": "address"
						}
					],
					"stateMutability": "view",
					"type": "function"
				},
				{
					"inputs": [],
					"name": "tradeCompeleted",
					"outputs": [
						{
							"internalType": "bool",
							"name": "",
							"type": "bool"
						}
					],
					"stateMutability": "view",
					"type": "function"
				}
			],
			"devdoc": {
				"kind": "dev",
				"methods": {},
				"version": 1
			},
			"evm": {
				"assembly": "    /* \"contracts/1.TradeAgreement.sol\":58:2240  contract TradeAgreement {... */\n  mstore(0x40, 0x80)\n    /* \"contracts/1.TradeAgreement.sol\":455:684  constructor(... */\n  callvalue\n  dup1\n  iszero\n  tag_1\n  jumpi\n  0x00\n  dup1\n  revert\ntag_1:\n  pop\n  mload(0x40)\n  sub(codesize, bytecodeSize)\n  dup1\n  bytecodeSize\n  dup4\n  codecopy\n  dup2\n  add\n  0x40\n  dup2\n  swap1\n  mstore\n  tag_2\n  swap2\n  tag_3\n  jump\t// in\ntag_2:\n    /* \"contracts/1.TradeAgreement.sol\":567:580  sellerAddress */\n  0x00\n    /* \"contracts/1.TradeAgreement.sol\":567:593  sellerAddress = msg.sender */\n  dup1\n  sload\n    /* \"contracts/1.TradeAgreement.sol\":583:593  msg.sender */\n  caller\n  not(sub(shl(0xa0, 0x01), 0x01))\n    /* \"contracts/1.TradeAgreement.sol\":567:593  sellerAddress = msg.sender */\n  swap2\n  dup3\n  and\n  or\n  swap1\n  swap2\n  sstore\n  0x01\n    /* \"contracts/1.TradeAgreement.sol\":603:631  buyerAddress = _buyerAddress */\n  dup1\n  sload\n  swap1\n  swap2\n  and\n  sub(shl(0xa0, 0x01), 0x01)\n  dup6\n  and\n  or\n  swap1\n  sstore\n    /* \"contracts/1.TradeAgreement.sol\":641:645  item */\n  0x02\n    /* \"contracts/1.TradeAgreement.sol\":641:653  item = _item */\n  tag_6\n    /* \"contracts/1.TradeAgreement.sol\":648:653  _item */\n  dup4\n    /* \"contracts/1.TradeAgreement.sol\":641:645  item */\n  dup3\n    /* \"contracts/1.TradeAgreement.sol\":641:653  item = _item */\n  tag_7\n  jump\t// in\ntag_6:\n  pop\n    /* \"contracts/1.TradeAgreement.sol\":663:668  price */\n  0x03\n    /* \"contracts/1.TradeAgreement.sol\":663:677  price = _price */\n  sstore\n  pop\n    /* \"contracts/1.TradeAgreement.sol\":58:2240  contract TradeAgreement {... */\n  tag_14\n  swap1\n  pop\n  jump\n    /* \"#utility.yul\":14:141   */\ntag_9:\n    /* \"#utility.yul\":75:85   */\n  0x4e487b71\n    /* \"#utility.yul\":70:73   */\n  0xe0\n    /* \"#utility.yul\":66:86   */\n  shl\n    /* \"#utility.yul\":63:64   */\n  0x00\n    /* \"#utility.yul\":56:87   */\n  mstore\n    /* \"#utility.yul\":106:110   */\n  0x41\n    /* \"#utility.yul\":103:104   */\n  0x04\n    /* \"#utility.yul\":96:111   */\n  mstore\n    /* \"#utility.yul\":130:134   */\n  0x24\n    /* \"#utility.yul\":127:128   */\n  0x00\n    /* \"#utility.yul\":120:135   */\n  revert\n    /* \"#utility.yul\":146:1361   */\ntag_3:\n    /* \"#utility.yul\":244:250   */\n  0x00\n    /* \"#utility.yul\":252:258   */\n  dup1\n    /* \"#utility.yul\":260:266   */\n  0x00\n    /* \"#utility.yul\":313:315   */\n  0x60\n    /* \"#utility.yul\":301:310   */\n  dup5\n    /* \"#utility.yul\":292:299   */\n  dup7\n    /* \"#utility.yul\":288:311   */\n  sub\n    /* \"#utility.yul\":284:316   */\n  slt\n    /* \"#utility.yul\":281:333   */\n  iszero\n  tag_17\n  jumpi\n    /* \"#utility.yul\":329:330   */\n  0x00\n    /* \"#utility.yul\":326:327   */\n  dup1\n    /* \"#utility.yul\":319:331   */\n  revert\n    /* \"#utility.yul\":281:333   */\ntag_17:\n    /* \"#utility.yul\":355:371   */\n  dup4\n  mload\n  sub(shl(0xa0, 0x01), 0x01)\n    /* \"#utility.yul\":400:431   */\n  dup2\n  and\n    /* \"#utility.yul\":390:432   */\n  dup2\n  eq\n    /* \"#utility.yul\":380:450   */\n  tag_18\n  jumpi\n    /* \"#utility.yul\":446:447   */\n  0x00\n    /* \"#utility.yul\":443:444   */\n  dup1\n    /* \"#utility.yul\":436:448   */\n  revert\n    /* \"#utility.yul\":380:450   */\ntag_18:\n    /* \"#utility.yul\":518:520   */\n  0x20\n    /* \"#utility.yul\":503:521   */\n  dup6\n  add\n    /* \"#utility.yul\":497:522   */\n  mload\n    /* \"#utility.yul\":469:474   */\n  swap1\n  swap4\n  pop\n  sub(shl(0x40, 0x01), 0x01)\n    /* \"#utility.yul\":534:564   */\n  dup2\n  gt\n    /* \"#utility.yul\":531:581   */\n  iszero\n  tag_19\n  jumpi\n    /* \"#utility.yul\":577:578   */\n  0x00\n    /* \"#utility.yul\":574:575   */\n  dup1\n    /* \"#utility.yul\":567:579   */\n  revert\n    /* \"#utility.yul\":531:581   */\ntag_19:\n    /* \"#utility.yul\":600:622   */\n  dup5\n  add\n    /* \"#utility.yul\":653:657   */\n  0x1f\n    /* \"#utility.yul\":645:658   */\n  dup2\n  add\n    /* \"#utility.yul\":641:668   */\n  dup7\n  sgt\n    /* \"#utility.yul\":631:686   */\n  tag_20\n  jumpi\n    /* \"#utility.yul\":682:683   */\n  0x00\n    /* \"#utility.yul\":679:680   */\n  dup1\n    /* \"#utility.yul\":672:684   */\n  revert\n    /* \"#utility.yul\":631:686   */\ntag_20:\n    /* \"#utility.yul\":709:718   */\n  dup1\n  mload\n  sub(shl(0x40, 0x01), 0x01)\n    /* \"#utility.yul\":730:760   */\n  dup2\n  gt\n    /* \"#utility.yul\":727:783   */\n  iszero\n  tag_22\n  jumpi\n    /* \"#utility.yul\":763:781   */\n  tag_22\n  tag_9\n  jump\t// in\ntag_22:\n    /* \"#utility.yul\":812:814   */\n  0x40\n    /* \"#utility.yul\":806:815   */\n  mload\n    /* \"#utility.yul\":904:906   */\n  0x1f\n    /* \"#utility.yul\":866:883   */\n  dup3\n  add\n  not(0x1f)\n    /* \"#utility.yul\":862:893   */\n  swap1\n  dup2\n  and\n    /* \"#utility.yul\":895:897   */\n  0x3f\n    /* \"#utility.yul\":858:898   */\n  add\n    /* \"#utility.yul\":854:908   */\n  and\n    /* \"#utility.yul\":842:909   */\n  dup2\n  add\n  sub(shl(0x40, 0x01), 0x01)\n    /* \"#utility.yul\":924:958   */\n  dup2\n  gt\n    /* \"#utility.yul\":960:982   */\n  dup3\n  dup3\n  lt\n    /* \"#utility.yul\":921:983   */\n  or\n    /* \"#utility.yul\":918:1006   */\n  iszero\n  tag_24\n  jumpi\n    /* \"#utility.yul\":986:1004   */\n  tag_24\n  tag_9\n  jump\t// in\ntag_24:\n    /* \"#utility.yul\":1022:1024   */\n  0x40\n    /* \"#utility.yul\":1015:1037   */\n  mstore\n    /* \"#utility.yul\":1046:1068   */\n  dup2\n  dup2\n  mstore\n    /* \"#utility.yul\":1087:1102   */\n  dup3\n  dup3\n  add\n    /* \"#utility.yul\":1104:1106   */\n  0x20\n    /* \"#utility.yul\":1083:1107   */\n  add\n    /* \"#utility.yul\":1080:1117   */\n  dup9\n  lt\n    /* \"#utility.yul\":1077:1134   */\n  iszero\n  tag_25\n  jumpi\n    /* \"#utility.yul\":1130:1131   */\n  0x00\n    /* \"#utility.yul\":1127:1128   */\n  dup1\n    /* \"#utility.yul\":1120:1132   */\n  revert\n    /* \"#utility.yul\":1077:1134   */\ntag_25:\n    /* \"#utility.yul\":1179:1185   */\n  dup2\n    /* \"#utility.yul\":1174:1176   */\n  0x20\n    /* \"#utility.yul\":1170:1172   */\n  dup5\n    /* \"#utility.yul\":1166:1177   */\n  add\n    /* \"#utility.yul\":1161:1163   */\n  0x20\n    /* \"#utility.yul\":1153:1159   */\n  dup4\n    /* \"#utility.yul\":1149:1164   */\n  add\n    /* \"#utility.yul\":1143:1186   */\n  mcopy\n    /* \"#utility.yul\":1232:1233   */\n  0x00\n    /* \"#utility.yul\":1206:1225   */\n  swap2\n  dup2\n  add\n    /* \"#utility.yul\":1227:1229   */\n  0x20\n    /* \"#utility.yul\":1202:1230   */\n  add\n    /* \"#utility.yul\":1195:1234   */\n  swap2\n  swap1\n  swap2\n  mstore\n    /* \"#utility.yul\":1325:1327   */\n  0x40\n    /* \"#utility.yul\":1310:1328   */\n  swap6\n  swap1\n  swap6\n  add\n    /* \"#utility.yul\":1304:1329   */\n  mload\n    /* \"#utility.yul\":146:1361   */\n  swap4\n  swap7\n    /* \"#utility.yul\":1210:1216   */\n  swap5\n  swap6\n  pop\n    /* \"#utility.yul\":1304:1329   */\n  swap3\n  swap4\n    /* \"#utility.yul\":146:1361   */\n  swap3\n  pop\n  pop\n  pop\n  jump\t// out\n    /* \"#utility.yul\":1366:1746   */\ntag_10:\n    /* \"#utility.yul\":1445:1446   */\n  0x01\n    /* \"#utility.yul\":1441:1453   */\n  dup2\n  dup2\n  shr\n  swap1\n    /* \"#utility.yul\":1488:1500   */\n  dup3\n  and\n  dup1\n    /* \"#utility.yul\":1509:1570   */\n  tag_27\n  jumpi\n    /* \"#utility.yul\":1563:1567   */\n  0x7f\n    /* \"#utility.yul\":1555:1561   */\n  dup3\n    /* \"#utility.yul\":1551:1568   */\n  and\n    /* \"#utility.yul\":1541:1568   */\n  swap2\n  pop\n    /* \"#utility.yul\":1509:1570   */\ntag_27:\n    /* \"#utility.yul\":1616:1618   */\n  0x20\n    /* \"#utility.yul\":1608:1614   */\n  dup3\n    /* \"#utility.yul\":1605:1619   */\n  lt\n    /* \"#utility.yul\":1585:1603   */\n  dup2\n    /* \"#utility.yul\":1582:1620   */\n  sub\n    /* \"#utility.yul\":1579:1740   */\n  tag_28\n  jumpi\n    /* \"#utility.yul\":1662:1672   */\n  0x4e487b71\n    /* \"#utility.yul\":1657:1660   */\n  0xe0\n    /* \"#utility.yul\":1653:1673   */\n  shl\n    /* \"#utility.yul\":1650:1651   */\n  0x00\n    /* \"#utility.yul\":1643:1674   */\n  mstore\n    /* \"#utility.yul\":1697:1701   */\n  0x22\n    /* \"#utility.yul\":1694:1695   */\n  0x04\n    /* \"#utility.yul\":1687:1702   */\n  mstore\n    /* \"#utility.yul\":1725:1729   */\n  0x24\n    /* \"#utility.yul\":1722:1723   */\n  0x00\n    /* \"#utility.yul\":1715:1730   */\n  revert\n    /* \"#utility.yul\":1579:1740   */\ntag_28:\n  pop\n    /* \"#utility.yul\":1366:1746   */\n  swap2\n  swap1\n  pop\n  jump\t// out\n    /* \"#utility.yul\":1877:2395   */\ntag_12:\n    /* \"#utility.yul\":1979:1981   */\n  0x1f\n    /* \"#utility.yul\":1974:1977   */\n  dup3\n    /* \"#utility.yul\":1971:1982   */\n  gt\n    /* \"#utility.yul\":1968:2389   */\n  iszero\n  tag_31\n  jumpi\n    /* \"#utility.yul\":2015:2020   */\n  dup1\n    /* \"#utility.yul\":2012:2013   */\n  0x00\n    /* \"#utility.yul\":2005:2021   */\n  mstore\n    /* \"#utility.yul\":2059:2063   */\n  0x20\n    /* \"#utility.yul\":2056:2057   */\n  0x00\n    /* \"#utility.yul\":2046:2064   */\n  keccak256\n    /* \"#utility.yul\":2129:2131   */\n  0x1f\n    /* \"#utility.yul\":2117:2127   */\n  dup5\n    /* \"#utility.yul\":2113:2132   */\n  add\n    /* \"#utility.yul\":2110:2111   */\n  0x05\n    /* \"#utility.yul\":2106:2133   */\n  shr\n    /* \"#utility.yul\":2100:2104   */\n  dup2\n    /* \"#utility.yul\":2096:2134   */\n  add\n    /* \"#utility.yul\":2165:2169   */\n  0x20\n    /* \"#utility.yul\":2153:2163   */\n  dup6\n    /* \"#utility.yul\":2150:2170   */\n  lt\n    /* \"#utility.yul\":2147:2194   */\n  iszero\n  tag_32\n  jumpi\n  pop\n    /* \"#utility.yul\":2188:2192   */\n  dup1\n    /* \"#utility.yul\":2147:2194   */\ntag_32:\n    /* \"#utility.yul\":2243:2245   */\n  0x1f\n    /* \"#utility.yul\":2238:2241   */\n  dup5\n    /* \"#utility.yul\":2234:2246   */\n  add\n    /* \"#utility.yul\":2231:2232   */\n  0x05\n    /* \"#utility.yul\":2227:2247   */\n  shr\n    /* \"#utility.yul\":2221:2225   */\n  dup3\n    /* \"#utility.yul\":2217:2248   */\n  add\n    /* \"#utility.yul\":2207:2248   */\n  swap2\n  pop\n    /* \"#utility.yul\":2298:2379   */\ntag_33:\n    /* \"#utility.yul\":2316:2318   */\n  dup2\n    /* \"#utility.yul\":2309:2314   */\n  dup2\n    /* \"#utility.yul\":2306:2319   */\n  lt\n    /* \"#utility.yul\":2298:2379   */\n  iszero\n  tag_35\n  jumpi\n    /* \"#utility.yul\":2375:2376   */\n  0x00\n    /* \"#utility.yul\":2361:2377   */\n  dup2\n  sstore\n    /* \"#utility.yul\":2342:2343   */\n  0x01\n    /* \"#utility.yul\":2331:2344   */\n  add\n    /* \"#utility.yul\":2298:2379   */\n  jump(tag_33)\ntag_35:\n    /* \"#utility.yul\":2302:2305   */\n  pop\n  pop\n    /* \"#utility.yul\":1968:2389   */\ntag_31:\n    /* \"#utility.yul\":1877:2395   */\n  pop\n  pop\n  pop\n  jump\t// out\n    /* \"#utility.yul\":2571:3870   */\ntag_7:\n    /* \"#utility.yul\":2691:2701   */\n  dup2\n  mload\n  sub(shl(0x40, 0x01), 0x01)\n    /* \"#utility.yul\":2713:2743   */\n  dup2\n  gt\n    /* \"#utility.yul\":2710:2766   */\n  iszero\n  tag_39\n  jumpi\n    /* \"#utility.yul\":2746:2764   */\n  tag_39\n  tag_9\n  jump\t// in\ntag_39:\n    /* \"#utility.yul\":2775:2872   */\n  tag_40\n    /* \"#utility.yul\":2865:2871   */\n  dup2\n    /* \"#utility.yul\":2825:2863   */\n  tag_41\n    /* \"#utility.yul\":2857:2861   */\n  dup5\n    /* \"#utility.yul\":2851:2862   */\n  sload\n    /* \"#utility.yul\":2825:2863   */\n  tag_10\n  jump\t// in\ntag_41:\n    /* \"#utility.yul\":2819:2823   */\n  dup5\n    /* \"#utility.yul\":2775:2872   */\n  tag_12\n  jump\t// in\ntag_40:\n    /* \"#utility.yul\":2921:2925   */\n  0x20\n    /* \"#utility.yul\":2952:2954   */\n  0x1f\n    /* \"#utility.yul\":2941:2955   */\n  dup3\n  gt\n    /* \"#utility.yul\":2969:2970   */\n  0x01\n    /* \"#utility.yul\":2964:3613   */\n  dup2\n  eq\n  tag_43\n  jumpi\n    /* \"#utility.yul\":3657:3658   */\n  0x00\n    /* \"#utility.yul\":3674:3680   */\n  dup4\n    /* \"#utility.yul\":3671:3760   */\n  iszero\n  tag_44\n  jumpi\n  pop\n    /* \"#utility.yul\":3726:3745   */\n  dup5\n  dup3\n  add\n    /* \"#utility.yul\":3720:3746   */\n  mload\n    /* \"#utility.yul\":3671:3760   */\ntag_44:\n  not(0x00)\n    /* \"#utility.yul\":2528:2529   */\n  0x03\n    /* \"#utility.yul\":2524:2535   */\n  dup6\n  swap1\n  shl\n    /* \"#utility.yul\":2520:2544   */\n  shr\n    /* \"#utility.yul\":2516:2545   */\n  not\n    /* \"#utility.yul\":2506:2546   */\n  and\n    /* \"#utility.yul\":2552:2553   */\n  0x01\n    /* \"#utility.yul\":2548:2559   */\n  dup5\n  swap1\n  shl\n    /* \"#utility.yul\":2503:2560   */\n  or\n    /* \"#utility.yul\":3773:3854   */\n  dup5\n  sstore\n    /* \"#utility.yul\":2934:3864   */\n  jump(tag_35)\n    /* \"#utility.yul\":2964:3613   */\ntag_43:\n    /* \"#utility.yul\":1824:1825   */\n  0x00\n    /* \"#utility.yul\":1817:1831   */\n  dup5\n  dup2\n  mstore\n    /* \"#utility.yul\":1861:1865   */\n  0x20\n    /* \"#utility.yul\":1848:1866   */\n  dup2\n  keccak256\n  not(0x1f)\n    /* \"#utility.yul\":3000:3020   */\n  dup6\n  and\n  swap2\n    /* \"#utility.yul\":3118:3340   */\ntag_47:\n    /* \"#utility.yul\":3132:3139   */\n  dup3\n    /* \"#utility.yul\":3129:3130   */\n  dup2\n    /* \"#utility.yul\":3126:3140   */\n  lt\n    /* \"#utility.yul\":3118:3340   */\n  iszero\n  tag_49\n  jumpi\n    /* \"#utility.yul\":3214:3233   */\n  dup8\n  dup6\n  add\n    /* \"#utility.yul\":3208:3234   */\n  mload\n    /* \"#utility.yul\":3193:3235   */\n  dup3\n  sstore\n    /* \"#utility.yul\":3321:3325   */\n  0x20\n    /* \"#utility.yul\":3306:3326   */\n  swap5\n  dup6\n  add\n  swap5\n    /* \"#utility.yul\":3274:3275   */\n  0x01\n    /* \"#utility.yul\":3262:3276   */\n  swap1\n  swap3\n  add\n  swap2\n    /* \"#utility.yul\":3148:3160   */\n  add\n    /* \"#utility.yul\":3118:3340   */\n  jump(tag_47)\ntag_49:\n    /* \"#utility.yul\":3122:3125   */\n  pop\n    /* \"#utility.yul\":3368:3374   */\n  dup5\n    /* \"#utility.yul\":3359:3366   */\n  dup3\n    /* \"#utility.yul\":3356:3375   */\n  lt\n    /* \"#utility.yul\":3353:3554   */\n  iszero\n  tag_50\n  jumpi\n    /* \"#utility.yul\":3429:3448   */\n  dup7\n  dup5\n  add\n    /* \"#utility.yul\":3423:3449   */\n  mload\n  not(0x00)\n    /* \"#utility.yul\":3512:3513   */\n  0x03\n    /* \"#utility.yul\":3508:3522   */\n  dup8\n  swap1\n  shl\n    /* \"#utility.yul\":3524:3527   */\n  0xf8\n    /* \"#utility.yul\":3504:3528   */\n  and\n    /* \"#utility.yul\":3500:3537   */\n  shr\n    /* \"#utility.yul\":3496:3538   */\n  not\n    /* \"#utility.yul\":3481:3539   */\n  and\n    /* \"#utility.yul\":3466:3540   */\n  dup2\n  sstore\n    /* \"#utility.yul\":3353:3554   */\ntag_50:\n  pop\n  pop\n  pop\n  pop\n    /* \"#utility.yul\":3600:3601   */\n  0x01\n    /* \"#utility.yul\":3584:3598   */\n  swap1\n  dup2\n  shl\n    /* \"#utility.yul\":3580:3602   */\n  add\n    /* \"#utility.yul\":3567:3603   */\n  swap1\n  sstore\n  pop\n    /* \"#utility.yul\":2571:3870   */\n  jump\t// out\ntag_14:\n    /* \"contracts/1.TradeAgreement.sol\":58:2240  contract TradeAgreement {... */\n  dataSize(sub_0)\n  dup1\n  dataOffset(sub_0)\n  0x00\n  codecopy\n  0x00\n  return\nstop\n\nsub_0: assembly {\n        /* \"contracts/1.TradeAgreement.sol\":58:2240  contract TradeAgreement {... */\n      mstore(0x40, 0x80)\n      jumpi(tag_1, lt(calldatasize, 0x04))\n      shr(0xe0, calldataload(0x00))\n      dup1\n      0x532ca457\n      gt\n      tag_13\n      jumpi\n      dup1\n      0x532ca457\n      eq\n      tag_7\n      jumpi\n      dup1\n      0x61b60f6b\n      eq\n      tag_8\n      jumpi\n      dup1\n      0xa035b1fe\n      eq\n      tag_9\n      jumpi\n      dup1\n      0xa795c2ce\n      eq\n      tag_10\n      jumpi\n      dup1\n      0xd0e30db0\n      eq\n      tag_11\n      jumpi\n      dup1\n      0xf2a4a82e\n      eq\n      tag_12\n      jumpi\n      0x00\n      dup1\n      revert\n    tag_13:\n      dup1\n      0x039e3e05\n      eq\n      tag_2\n      jumpi\n      dup1\n      0x1be427cc\n      eq\n      tag_3\n      jumpi\n      dup1\n      0x2312fff7\n      eq\n      tag_4\n      jumpi\n      dup1\n      0x3d9b2ae6\n      eq\n      tag_5\n      jumpi\n      dup1\n      0x44834aca\n      eq\n      tag_6\n      jumpi\n    tag_1:\n      0x00\n      dup1\n      revert\n        /* \"contracts/1.TradeAgreement.sol\":1329:1652  function acceptTradeAsSeller() public onlySeller {... */\n    tag_2:\n      callvalue\n      dup1\n      iszero\n      tag_14\n      jumpi\n      0x00\n      dup1\n      revert\n    tag_14:\n      pop\n      tag_15\n      tag_16\n      jump\t// in\n    tag_15:\n      stop\n        /* \"contracts/1.TradeAgreement.sol\":301:324  bool public depositMade */\n    tag_3:\n      callvalue\n      dup1\n      iszero\n      tag_17\n      jumpi\n      0x00\n      dup1\n      revert\n    tag_17:\n      pop\n      sload(0x04)\n      tag_18\n      swap1\n      0x01000000\n      swap1\n      div\n      0xff\n      and\n      dup2\n      jump\n    tag_18:\n      mload(0x40)\n        /* \"#utility.yul\":179:193   */\n      swap1\n      iszero\n        /* \"#utility.yul\":172:194   */\n      iszero\n        /* \"#utility.yul\":154:195   */\n      dup2\n      mstore\n        /* \"#utility.yul\":142:144   */\n      0x20\n        /* \"#utility.yul\":127:145   */\n      add\n        /* \"contracts/1.TradeAgreement.sol\":301:324  bool public depositMade */\n    tag_20:\n      mload(0x40)\n      dup1\n      swap2\n      sub\n      swap1\n      return\n        /* \"contracts/1.TradeAgreement.sol\":205:230  bool public buyerAccepted */\n    tag_4:\n      callvalue\n      dup1\n      iszero\n      tag_22\n      jumpi\n      0x00\n      dup1\n      revert\n    tag_22:\n      pop\n      sload(0x04)\n      tag_18\n      swap1\n      0xff\n      and\n      dup2\n      jump\n        /* \"contracts/1.TradeAgreement.sol\":88:116  address public sellerAddress */\n    tag_5:\n      callvalue\n      dup1\n      iszero\n      tag_26\n      jumpi\n      0x00\n      dup1\n      revert\n    tag_26:\n      pop\n      sload(0x00)\n      tag_27\n      swap1\n      sub(shl(0xa0, 0x01), 0x01)\n      and\n      dup2\n      jump\n    tag_27:\n      mload(0x40)\n      sub(shl(0xa0, 0x01), 0x01)\n        /* \"#utility.yul\":370:402   */\n      swap1\n      swap2\n      and\n        /* \"#utility.yul\":352:403   */\n      dup2\n      mstore\n        /* \"#utility.yul\":340:342   */\n      0x20\n        /* \"#utility.yul\":325:343   */\n      add\n        /* \"contracts/1.TradeAgreement.sol\":88:116  address public sellerAddress */\n      tag_20\n        /* \"#utility.yul\":206:409   */\n      jump\n        /* \"contracts/1.TradeAgreement.sol\":122:149  address public buyerAddress */\n    tag_6:\n      callvalue\n      dup1\n      iszero\n      tag_31\n      jumpi\n      0x00\n      dup1\n      revert\n    tag_31:\n      pop\n      sload(0x01)\n      tag_27\n      swap1\n      sub(shl(0xa0, 0x01), 0x01)\n      and\n      dup2\n      jump\n        /* \"contracts/1.TradeAgreement.sol\":1658:1891  function acceptTradeAsBuyer() public onlyBuyer {... */\n    tag_7:\n      callvalue\n      dup1\n      iszero\n      tag_35\n      jumpi\n      0x00\n      dup1\n      revert\n    tag_35:\n      pop\n      tag_15\n      tag_37\n      jump\t// in\n        /* \"contracts/1.TradeAgreement.sol\":236:262  bool public sellerAccepted */\n    tag_8:\n      callvalue\n      dup1\n      iszero\n      tag_38\n      jumpi\n      0x00\n      dup1\n      revert\n    tag_38:\n      pop\n      sload(0x04)\n      tag_18\n      swap1\n      0x0100\n      swap1\n      div\n      0xff\n      and\n      dup2\n      jump\n        /* \"contracts/1.TradeAgreement.sol\":179:199  uint256 public price */\n    tag_9:\n      callvalue\n      dup1\n      iszero\n      tag_42\n      jumpi\n      0x00\n      dup1\n      revert\n    tag_42:\n      pop\n      tag_43\n      sload(0x03)\n      dup2\n      jump\n    tag_43:\n      mload(0x40)\n        /* \"#utility.yul\":560:585   */\n      swap1\n      dup2\n      mstore\n        /* \"#utility.yul\":548:550   */\n      0x20\n        /* \"#utility.yul\":533:551   */\n      add\n        /* \"contracts/1.TradeAgreement.sol\":179:199  uint256 public price */\n      tag_20\n        /* \"#utility.yul\":414:591   */\n      jump\n        /* \"contracts/1.TradeAgreement.sol\":268:295  bool public tradeCompeleted */\n    tag_10:\n      callvalue\n      dup1\n      iszero\n      tag_47\n      jumpi\n      0x00\n      dup1\n      revert\n    tag_47:\n      pop\n      sload(0x04)\n      tag_18\n      swap1\n      0x010000\n      swap1\n      div\n      0xff\n      and\n      dup2\n      jump\n        /* \"contracts/1.TradeAgreement.sol\":1015:1323  function deposit() public payable onlyBuyer {... */\n    tag_11:\n      tag_15\n      tag_52\n      jump\t// in\n        /* \"contracts/1.TradeAgreement.sol\":155:173  string public item */\n    tag_12:\n      callvalue\n      dup1\n      iszero\n      tag_53\n      jumpi\n      0x00\n      dup1\n      revert\n    tag_53:\n      pop\n      tag_54\n      tag_55\n      jump\t// in\n    tag_54:\n      mload(0x40)\n      tag_20\n      swap2\n      swap1\n      tag_57\n      jump\t// in\n        /* \"contracts/1.TradeAgreement.sol\":1329:1652  function acceptTradeAsSeller() public onlySeller {... */\n    tag_16:\n        /* \"contracts/1.TradeAgreement.sol\":918:931  sellerAddress */\n      and(sub(shl(0xa0, 0x01), 0x01), sload(0x00))\n        /* \"contracts/1.TradeAgreement.sol\":904:914  msg.sender */\n      caller\n        /* \"contracts/1.TradeAgreement.sol\":904:931  msg.sender == sellerAddress */\n      eq\n        /* \"contracts/1.TradeAgreement.sol\":883:991  require(... */\n      tag_59\n      jumpi\n      mload(0x40)\n      shl(0xe5, 0x461bcd)\n      dup2\n      mstore\n        /* \"#utility.yul\":1221:1223   */\n      0x20\n        /* \"contracts/1.TradeAgreement.sol\":883:991  require(... */\n      0x04\n      dup3\n      add\n        /* \"#utility.yul\":1203:1224   */\n      mstore\n        /* \"#utility.yul\":1260:1262   */\n      0x22\n        /* \"#utility.yul\":1240:1258   */\n      0x24\n      dup3\n      add\n        /* \"#utility.yul\":1233:1263   */\n      mstore\n        /* \"#utility.yul\":1299:1333   */\n      0x4f6e6c792073656c6c65722063616e2063616c6c20746869732066756e637469\n        /* \"#utility.yul\":1279:1297   */\n      0x44\n      dup3\n      add\n        /* \"#utility.yul\":1272:1334   */\n      mstore\n      shl(0xf1, 0x37b7)\n        /* \"#utility.yul\":1350:1368   */\n      0x64\n      dup3\n      add\n        /* \"#utility.yul\":1343:1375   */\n      mstore\n        /* \"#utility.yul\":1392:1411   */\n      0x84\n      add\n        /* \"contracts/1.TradeAgreement.sol\":883:991  require(... */\n    tag_60:\n      mload(0x40)\n      dup1\n      swap2\n      sub\n      swap1\n      revert\n    tag_59:\n        /* \"contracts/1.TradeAgreement.sol\":1409:1423  sellerAccepted */\n      sload(0x04)\n      0x0100\n      swap1\n      div\n      0xff\n      and\n        /* \"contracts/1.TradeAgreement.sol\":1409:1432  sellerAccepted == false */\n      iszero\n        /* \"contracts/1.TradeAgreement.sol\":1388:1495  require(... */\n      tag_63\n      jumpi\n      mload(0x40)\n      shl(0xe5, 0x461bcd)\n      dup2\n      mstore\n        /* \"#utility.yul\":1624:1626   */\n      0x20\n        /* \"contracts/1.TradeAgreement.sol\":1388:1495  require(... */\n      0x04\n      dup3\n      add\n        /* \"#utility.yul\":1606:1627   */\n      mstore\n        /* \"#utility.yul\":1663:1665   */\n      0x25\n        /* \"#utility.yul\":1643:1661   */\n      0x24\n      dup3\n      add\n        /* \"#utility.yul\":1636:1666   */\n      mstore\n        /* \"#utility.yul\":1702:1736   */\n      0x53656c6c65722068617320616c72656164792061636365707465642074686520\n        /* \"#utility.yul\":1682:1700   */\n      0x44\n      dup3\n      add\n        /* \"#utility.yul\":1675:1737   */\n      mstore\n      shl(0xd8, 0x7472616465)\n        /* \"#utility.yul\":1753:1771   */\n      0x64\n      dup3\n      add\n        /* \"#utility.yul\":1746:1781   */\n      mstore\n        /* \"#utility.yul\":1798:1817   */\n      0x84\n      add\n        /* \"contracts/1.TradeAgreement.sol\":1388:1495  require(... */\n      tag_60\n        /* \"#utility.yul\":1422:1823   */\n      jump\n        /* \"contracts/1.TradeAgreement.sol\":1388:1495  require(... */\n    tag_63:\n        /* \"contracts/1.TradeAgreement.sol\":1513:1524  depositMade */\n      sload(0x04)\n      0x01000000\n      swap1\n      div\n      0xff\n      and\n        /* \"contracts/1.TradeAgreement.sol\":1505:1545  require(depositMade, \"Deposit not made\") */\n      tag_66\n      jumpi\n      mload(0x40)\n      shl(0xe5, 0x461bcd)\n      dup2\n      mstore\n        /* \"#utility.yul\":2030:2032   */\n      0x20\n        /* \"contracts/1.TradeAgreement.sol\":1505:1545  require(depositMade, \"Deposit not made\") */\n      0x04\n      dup3\n      add\n        /* \"#utility.yul\":2012:2033   */\n      mstore\n        /* \"#utility.yul\":2069:2071   */\n      0x10\n        /* \"#utility.yul\":2049:2067   */\n      0x24\n      dup3\n      add\n        /* \"#utility.yul\":2042:2072   */\n      mstore\n      shl(0x80, 0x4465706f736974206e6f74206d616465)\n        /* \"#utility.yul\":2088:2106   */\n      0x44\n      dup3\n      add\n        /* \"#utility.yul\":2081:2127   */\n      mstore\n        /* \"#utility.yul\":2144:2162   */\n      0x64\n      add\n        /* \"contracts/1.TradeAgreement.sol\":1505:1545  require(depositMade, \"Deposit not made\") */\n      tag_60\n        /* \"#utility.yul\":1828:2168   */\n      jump\n        /* \"contracts/1.TradeAgreement.sol\":1505:1545  require(depositMade, \"Deposit not made\") */\n    tag_66:\n        /* \"contracts/1.TradeAgreement.sol\":1555:1569  sellerAccepted */\n      0x04\n        /* \"contracts/1.TradeAgreement.sol\":1555:1576  sellerAccepted = true */\n      dup1\n      sload\n      not(0xff00)\n      and\n      0x0100\n      or\n      swap1\n      sstore\n      0x00\n        /* \"contracts/1.TradeAgreement.sol\":1606:1619  sellerAddress */\n      dup1\n      sload\n        /* \"contracts/1.TradeAgreement.sol\":1591:1620  SellerAccepted(sellerAddress) */\n      mload(0x40)\n      sub(shl(0xa0, 0x01), 0x01)\n        /* \"contracts/1.TradeAgreement.sol\":1606:1619  sellerAddress */\n      swap1\n      swap2\n      and\n      swap2\n        /* \"contracts/1.TradeAgreement.sol\":1591:1620  SellerAccepted(sellerAddress) */\n      0xe8b2bddd4b7daeaba32be7d8f242b974e1dcd03366dea076f1c8c08fb8a1c9c7\n      swap2\n      log2\n        /* \"contracts/1.TradeAgreement.sol\":1630:1645  completeTrade() */\n      tag_69\n        /* \"contracts/1.TradeAgreement.sol\":1630:1643  completeTrade */\n      tag_70\n        /* \"contracts/1.TradeAgreement.sol\":1630:1645  completeTrade() */\n      jump\t// in\n    tag_69:\n        /* \"contracts/1.TradeAgreement.sol\":1329:1652  function acceptTradeAsSeller() public onlySeller {... */\n      jump\t// out\n        /* \"contracts/1.TradeAgreement.sol\":1658:1891  function acceptTradeAsBuyer() public onlyBuyer {... */\n    tag_37:\n        /* \"contracts/1.TradeAgreement.sol\":756:768  buyerAddress */\n      and(sub(shl(0xa0, 0x01), 0x01), sload(0x01))\n        /* \"contracts/1.TradeAgreement.sol\":742:752  msg.sender */\n      caller\n        /* \"contracts/1.TradeAgreement.sol\":742:768  msg.sender == buyerAddress */\n      eq\n        /* \"contracts/1.TradeAgreement.sol\":721:827  require(... */\n      tag_72\n      jumpi\n      mload(0x40)\n      shl(0xe5, 0x461bcd)\n      dup2\n      mstore\n      0x04\n      add\n      tag_60\n      swap1\n      tag_74\n      jump\t// in\n    tag_72:\n        /* \"contracts/1.TradeAgreement.sol\":1723:1736  buyerAccepted */\n      and(0xff, sload(0x04))\n        /* \"contracts/1.TradeAgreement.sol\":1723:1745  buyerAccepted == false */\n      iszero\n        /* \"contracts/1.TradeAgreement.sol\":1715:1786  require(buyerAccepted == false, \"Buyer has already accepted the trade\") */\n      tag_76\n      jumpi\n      mload(0x40)\n      shl(0xe5, 0x461bcd)\n      dup2\n      mstore\n        /* \"#utility.yul\":2777:2779   */\n      0x20\n        /* \"contracts/1.TradeAgreement.sol\":1715:1786  require(buyerAccepted == false, \"Buyer has already accepted the trade\") */\n      0x04\n      dup3\n      add\n        /* \"#utility.yul\":2759:2780   */\n      mstore\n        /* \"#utility.yul\":2816:2818   */\n      0x24\n        /* \"#utility.yul\":2796:2814   */\n      dup1\n      dup3\n      add\n        /* \"#utility.yul\":2789:2819   */\n      mstore\n        /* \"#utility.yul\":2855:2889   */\n      0x42757965722068617320616c7265616479206163636570746564207468652074\n        /* \"#utility.yul\":2835:2853   */\n      0x44\n      dup3\n      add\n        /* \"#utility.yul\":2828:2890   */\n      mstore\n      shl(0xe0, 0x72616465)\n        /* \"#utility.yul\":2906:2924   */\n      0x64\n      dup3\n      add\n        /* \"#utility.yul\":2899:2933   */\n      mstore\n        /* \"#utility.yul\":2950:2969   */\n      0x84\n      add\n        /* \"contracts/1.TradeAgreement.sol\":1715:1786  require(buyerAccepted == false, \"Buyer has already accepted the trade\") */\n      tag_60\n        /* \"#utility.yul\":2575:2975   */\n      jump\n        /* \"contracts/1.TradeAgreement.sol\":1715:1786  require(buyerAccepted == false, \"Buyer has already accepted the trade\") */\n    tag_76:\n        /* \"contracts/1.TradeAgreement.sol\":1796:1809  buyerAccepted */\n      0x04\n        /* \"contracts/1.TradeAgreement.sol\":1796:1816  buyerAccepted = true */\n      dup1\n      sload\n      not(0xff)\n      and\n        /* \"contracts/1.TradeAgreement.sol\":1812:1816  true */\n      0x01\n        /* \"contracts/1.TradeAgreement.sol\":1796:1816  buyerAccepted = true */\n      swap1\n      dup2\n      or\n      swap1\n      swap2\n      sstore\n        /* \"contracts/1.TradeAgreement.sol\":1846:1858  buyerAddress */\n      sload\n        /* \"contracts/1.TradeAgreement.sol\":1831:1859  SellerAccepted(buyerAddress) */\n      mload(0x40)\n      sub(shl(0xa0, 0x01), 0x01)\n        /* \"contracts/1.TradeAgreement.sol\":1846:1858  buyerAddress */\n      swap1\n      swap2\n      and\n      swap1\n        /* \"contracts/1.TradeAgreement.sol\":1831:1859  SellerAccepted(buyerAddress) */\n      0xe8b2bddd4b7daeaba32be7d8f242b974e1dcd03366dea076f1c8c08fb8a1c9c7\n      swap1\n        /* \"contracts/1.TradeAgreement.sol\":1796:1809  buyerAccepted */\n      0x00\n      swap1\n        /* \"contracts/1.TradeAgreement.sol\":1831:1859  SellerAccepted(buyerAddress) */\n      log2\n        /* \"contracts/1.TradeAgreement.sol\":1869:1884  completeTrade() */\n      tag_69\n        /* \"contracts/1.TradeAgreement.sol\":1869:1882  completeTrade */\n      tag_70\n        /* \"contracts/1.TradeAgreement.sol\":1869:1884  completeTrade() */\n      jump\t// in\n        /* \"contracts/1.TradeAgreement.sol\":1015:1323  function deposit() public payable onlyBuyer {... */\n    tag_52:\n        /* \"contracts/1.TradeAgreement.sol\":756:768  buyerAddress */\n      and(sub(shl(0xa0, 0x01), 0x01), sload(0x01))\n        /* \"contracts/1.TradeAgreement.sol\":742:752  msg.sender */\n      caller\n        /* \"contracts/1.TradeAgreement.sol\":742:768  msg.sender == buyerAddress */\n      eq\n        /* \"contracts/1.TradeAgreement.sol\":721:827  require(... */\n      tag_81\n      jumpi\n      mload(0x40)\n      shl(0xe5, 0x461bcd)\n      dup2\n      mstore\n      0x04\n      add\n      tag_60\n      swap1\n      tag_74\n      jump\t// in\n    tag_81:\n        /* \"contracts/1.TradeAgreement.sol\":1090:1103  buyerAccepted */\n      and(0xff, sload(0x04))\n        /* \"contracts/1.TradeAgreement.sol\":1090:1111  buyerAccepted == true */\n      iszero\n      iszero\n        /* \"contracts/1.TradeAgreement.sol\":1090:1103  buyerAccepted */\n      0x01\n        /* \"contracts/1.TradeAgreement.sol\":1090:1111  buyerAccepted == true */\n      eq\n        /* \"contracts/1.TradeAgreement.sol\":1069:1176  require(... */\n      tag_84\n      jumpi\n      mload(0x40)\n      shl(0xe5, 0x461bcd)\n      dup2\n      mstore\n        /* \"#utility.yul\":3182:3184   */\n      0x20\n        /* \"contracts/1.TradeAgreement.sol\":1069:1176  require(... */\n      0x04\n      dup3\n      add\n        /* \"#utility.yul\":3164:3185   */\n      mstore\n        /* \"#utility.yul\":3221:3223   */\n      0x27\n        /* \"#utility.yul\":3201:3219   */\n      0x24\n      dup3\n      add\n        /* \"#utility.yul\":3194:3224   */\n      mstore\n        /* \"#utility.yul\":3260:3294   */\n      0x4275796572206861736e277420616c7265616479206163636570746564207468\n        /* \"#utility.yul\":3240:3258   */\n      0x44\n      dup3\n      add\n        /* \"#utility.yul\":3233:3295   */\n      mstore\n      shl(0xc8, 0x65207472616465)\n        /* \"#utility.yul\":3311:3329   */\n      0x64\n      dup3\n      add\n        /* \"#utility.yul\":3304:3341   */\n      mstore\n        /* \"#utility.yul\":3358:3377   */\n      0x84\n      add\n        /* \"contracts/1.TradeAgreement.sol\":1069:1176  require(... */\n      tag_60\n        /* \"#utility.yul\":2980:3383   */\n      jump\n        /* \"contracts/1.TradeAgreement.sol\":1069:1176  require(... */\n    tag_84:\n        /* \"contracts/1.TradeAgreement.sol\":1195:1206  depositMade */\n      sload(0x04)\n      0x01000000\n      swap1\n      div\n      0xff\n      and\n        /* \"contracts/1.TradeAgreement.sol\":1194:1206  !depositMade */\n      iszero\n        /* \"contracts/1.TradeAgreement.sol\":1186:1231  require(!depositMade, \"Deposit already made\") */\n      tag_87\n      jumpi\n      mload(0x40)\n      shl(0xe5, 0x461bcd)\n      dup2\n      mstore\n        /* \"#utility.yul\":3590:3592   */\n      0x20\n        /* \"contracts/1.TradeAgreement.sol\":1186:1231  require(!depositMade, \"Deposit already made\") */\n      0x04\n      dup3\n      add\n        /* \"#utility.yul\":3572:3593   */\n      mstore\n        /* \"#utility.yul\":3629:3631   */\n      0x14\n        /* \"#utility.yul\":3609:3627   */\n      0x24\n      dup3\n      add\n        /* \"#utility.yul\":3602:3632   */\n      mstore\n      shl(0x60, 0x4465706f73697420616c7265616479206d616465)\n        /* \"#utility.yul\":3648:3666   */\n      0x44\n      dup3\n      add\n        /* \"#utility.yul\":3641:3691   */\n      mstore\n        /* \"#utility.yul\":3708:3726   */\n      0x64\n      add\n        /* \"contracts/1.TradeAgreement.sol\":1186:1231  require(!depositMade, \"Deposit already made\") */\n      tag_60\n        /* \"#utility.yul\":3388:3732   */\n      jump\n        /* \"contracts/1.TradeAgreement.sol\":1186:1231  require(!depositMade, \"Deposit already made\") */\n    tag_87:\n        /* \"contracts/1.TradeAgreement.sol\":1262:1267  price */\n      sload(0x03)\n        /* \"contracts/1.TradeAgreement.sol\":1249:1258  msg.value */\n      callvalue\n        /* \"contracts/1.TradeAgreement.sol\":1249:1267  msg.value == price */\n      eq\n        /* \"contracts/1.TradeAgreement.sol\":1241:1288  require(msg.value == price, \"Incorrect Amount\") */\n      tag_90\n      jumpi\n      mload(0x40)\n      shl(0xe5, 0x461bcd)\n      dup2\n      mstore\n        /* \"#utility.yul\":3939:3941   */\n      0x20\n        /* \"contracts/1.TradeAgreement.sol\":1241:1288  require(msg.value == price, \"Incorrect Amount\") */\n      0x04\n      dup3\n      add\n        /* \"#utility.yul\":3921:3942   */\n      mstore\n        /* \"#utility.yul\":3978:3980   */\n      0x10\n        /* \"#utility.yul\":3958:3976   */\n      0x24\n      dup3\n      add\n        /* \"#utility.yul\":3951:3981   */\n      mstore\n      shl(0x82, 0x125b98dbdc9c9958dd08105b5bdd5b9d)\n        /* \"#utility.yul\":3997:4015   */\n      0x44\n      dup3\n      add\n        /* \"#utility.yul\":3990:4036   */\n      mstore\n        /* \"#utility.yul\":4053:4071   */\n      0x64\n      add\n        /* \"contracts/1.TradeAgreement.sol\":1241:1288  require(msg.value == price, \"Incorrect Amount\") */\n      tag_60\n        /* \"#utility.yul\":3737:4077   */\n      jump\n        /* \"contracts/1.TradeAgreement.sol\":1241:1288  require(msg.value == price, \"Incorrect Amount\") */\n    tag_90:\n        /* \"contracts/1.TradeAgreement.sol\":1298:1309  depositMade */\n      0x04\n        /* \"contracts/1.TradeAgreement.sol\":1298:1316  depositMade = true */\n      dup1\n      sload\n      not(0xff000000)\n      and\n      0x01000000\n      or\n      swap1\n      sstore\n        /* \"contracts/1.TradeAgreement.sol\":1015:1323  function deposit() public payable onlyBuyer {... */\n      jump\t// out\n        /* \"contracts/1.TradeAgreement.sol\":155:173  string public item */\n    tag_55:\n      0x02\n      dup1\n      sload\n      tag_93\n      swap1\n      tag_94\n      jump\t// in\n    tag_93:\n      dup1\n      0x1f\n      add\n      0x20\n      dup1\n      swap2\n      div\n      mul\n      0x20\n      add\n      mload(0x40)\n      swap1\n      dup2\n      add\n      0x40\n      mstore\n      dup1\n      swap3\n      swap2\n      swap1\n      dup2\n      dup2\n      mstore\n      0x20\n      add\n      dup3\n      dup1\n      sload\n      tag_95\n      swap1\n      tag_94\n      jump\t// in\n    tag_95:\n      dup1\n      iszero\n      tag_96\n      jumpi\n      dup1\n      0x1f\n      lt\n      tag_97\n      jumpi\n      0x0100\n      dup1\n      dup4\n      sload\n      div\n      mul\n      dup4\n      mstore\n      swap2\n      0x20\n      add\n      swap2\n      jump(tag_96)\n    tag_97:\n      dup3\n      add\n      swap2\n      swap1\n      0x00\n      mstore\n      keccak256(0x00, 0x20)\n      swap1\n    tag_98:\n      dup2\n      sload\n      dup2\n      mstore\n      swap1\n      0x01\n      add\n      swap1\n      0x20\n      add\n      dup1\n      dup4\n      gt\n      tag_98\n      jumpi\n      dup3\n      swap1\n      sub\n      0x1f\n      and\n      dup3\n      add\n      swap2\n    tag_96:\n      pop\n      pop\n      pop\n      pop\n      pop\n      dup2\n      jump\t// out\n        /* \"contracts/1.TradeAgreement.sol\":1897:2238  function completeTrade() internal {... */\n    tag_70:\n        /* \"contracts/1.TradeAgreement.sol\":1945:1958  buyerAccepted */\n      and(0xff, sload(0x04))\n        /* \"contracts/1.TradeAgreement.sol\":1945:1976  buyerAccepted && sellerAccepted */\n      dup1\n      iszero\n      tag_100\n      jumpi\n      pop\n        /* \"contracts/1.TradeAgreement.sol\":1962:1976  sellerAccepted */\n      sload(0x04)\n      0x0100\n      swap1\n      div\n      0xff\n      and\n        /* \"contracts/1.TradeAgreement.sol\":1945:1976  buyerAccepted && sellerAccepted */\n    tag_100:\n        /* \"contracts/1.TradeAgreement.sol\":1941:2232  if (buyerAccepted && sellerAccepted) {... */\n      iszero\n      tag_101\n      jumpi\n        /* \"contracts/1.TradeAgreement.sol\":1992:2007  tradeCompeleted */\n      0x04\n        /* \"contracts/1.TradeAgreement.sol\":1992:2014  tradeCompeleted = true */\n      dup1\n      sload\n      not(0xff0000)\n      and\n      0x010000\n      or\n      swap1\n      sstore\n        /* \"contracts/1.TradeAgreement.sol\":2010:2014  true */\n      0x01\n        /* \"contracts/1.TradeAgreement.sol\":2064:2076  buyerAddress */\n      sload\n        /* \"contracts/1.TradeAgreement.sol\":1992:2014  tradeCompeleted = true */\n      0x00\n        /* \"contracts/1.TradeAgreement.sol\":2049:2062  sellerAddress */\n      dup1\n      sload\n        /* \"contracts/1.TradeAgreement.sol\":2033:2077  TradeCompeleted(sellerAddress, buyerAddress) */\n      mload(0x40)\n      sub(shl(0xa0, 0x01), 0x01)\n        /* \"contracts/1.TradeAgreement.sol\":2064:2076  buyerAddress */\n      swap4\n      dup5\n      and\n      swap4\n        /* \"contracts/1.TradeAgreement.sol\":2049:2062  sellerAddress */\n      swap2\n      swap1\n      swap2\n      and\n      swap2\n        /* \"contracts/1.TradeAgreement.sol\":2033:2077  TradeCompeleted(sellerAddress, buyerAddress) */\n      0xac39c8d59d90e8ade4a53cfc4a559c2c4f47ea26fb6c9370a90a707f056a43c1\n      swap2\n      log3\n        /* \"contracts/1.TradeAgreement.sol\":2099:2112  sellerAddress */\n      0x00\n      dup1\n      sload\n        /* \"contracts/1.TradeAgreement.sol\":2123:2128  price */\n      sload(0x03)\n        /* \"contracts/1.TradeAgreement.sol\":2091:2129  payable(sellerAddress).transfer(price) */\n      mload(0x40)\n      sub(shl(0xa0, 0x01), 0x01)\n        /* \"contracts/1.TradeAgreement.sol\":2099:2112  sellerAddress */\n      swap1\n      swap3\n      and\n      swap3\n        /* \"contracts/1.TradeAgreement.sol\":2091:2129  payable(sellerAddress).transfer(price) */\n      dup2\n      iszero\n      0x08fc\n      mul\n      swap3\n      swap1\n      dup2\n        /* \"contracts/1.TradeAgreement.sol\":2099:2112  sellerAddress */\n      dup2\n        /* \"contracts/1.TradeAgreement.sol\":2091:2129  payable(sellerAddress).transfer(price) */\n      dup2\n        /* \"contracts/1.TradeAgreement.sol\":2123:2128  price */\n      dup6\n        /* \"contracts/1.TradeAgreement.sol\":2099:2112  sellerAddress */\n      dup9\n        /* \"contracts/1.TradeAgreement.sol\":2091:2129  payable(sellerAddress).transfer(price) */\n      dup9\n      call\n      swap4\n      pop\n      pop\n      pop\n      pop\n      iszero\n      dup1\n      iszero\n      tag_103\n      jumpi\n      returndatasize\n      0x00\n      dup1\n      returndatacopy\n      revert(0x00, returndatasize)\n    tag_103:\n      pop\n        /* \"contracts/1.TradeAgreement.sol\":1329:1652  function acceptTradeAsSeller() public onlySeller {... */\n      jump\t// out\n        /* \"contracts/1.TradeAgreement.sol\":1941:2232  if (buyerAccepted && sellerAccepted) {... */\n    tag_101:\n        /* \"contracts/1.TradeAgreement.sol\":2168:2183  tradeCompeleted */\n      sload(0x04)\n      0x010000\n      swap1\n      div\n      0xff\n      and\n        /* \"contracts/1.TradeAgreement.sol\":2168:2192  tradeCompeleted == false */\n      iszero\n        /* \"contracts/1.TradeAgreement.sol\":2160:2221  require(tradeCompeleted == false, \"Trade Already Compeleted\") */\n      tag_69\n      jumpi\n      mload(0x40)\n      shl(0xe5, 0x461bcd)\n      dup2\n      mstore\n        /* \"#utility.yul\":4669:4671   */\n      0x20\n        /* \"contracts/1.TradeAgreement.sol\":2160:2221  require(tradeCompeleted == false, \"Trade Already Compeleted\") */\n      0x04\n      dup3\n      add\n        /* \"#utility.yul\":4651:4672   */\n      mstore\n        /* \"#utility.yul\":4708:4710   */\n      0x18\n        /* \"#utility.yul\":4688:4706   */\n      0x24\n      dup3\n      add\n        /* \"#utility.yul\":4681:4711   */\n      mstore\n        /* \"#utility.yul\":4747:4773   */\n      0x547261646520416c726561647920436f6d70656c657465640000000000000000\n        /* \"#utility.yul\":4727:4745   */\n      0x44\n      dup3\n      add\n        /* \"#utility.yul\":4720:4774   */\n      mstore\n        /* \"#utility.yul\":4791:4809   */\n      0x64\n      add\n        /* \"contracts/1.TradeAgreement.sol\":2160:2221  require(tradeCompeleted == false, \"Trade Already Compeleted\") */\n      tag_60\n        /* \"#utility.yul\":4467:4815   */\n      jump\n        /* \"#utility.yul\":596:1014   */\n    tag_57:\n        /* \"#utility.yul\":745:747   */\n      0x20\n        /* \"#utility.yul\":734:743   */\n      dup2\n        /* \"#utility.yul\":727:748   */\n      mstore\n        /* \"#utility.yul\":708:712   */\n      0x00\n        /* \"#utility.yul\":777:783   */\n      dup3\n        /* \"#utility.yul\":771:784   */\n      mload\n        /* \"#utility.yul\":820:826   */\n      dup1\n        /* \"#utility.yul\":815:817   */\n      0x20\n        /* \"#utility.yul\":804:813   */\n      dup5\n        /* \"#utility.yul\":800:818   */\n      add\n        /* \"#utility.yul\":793:827   */\n      mstore\n        /* \"#utility.yul\":879:885   */\n      dup1\n        /* \"#utility.yul\":874:876   */\n      0x20\n        /* \"#utility.yul\":866:872   */\n      dup6\n        /* \"#utility.yul\":862:877   */\n      add\n        /* \"#utility.yul\":857:859   */\n      0x40\n        /* \"#utility.yul\":846:855   */\n      dup6\n        /* \"#utility.yul\":842:860   */\n      add\n        /* \"#utility.yul\":836:886   */\n      mcopy\n        /* \"#utility.yul\":935:936   */\n      0x00\n        /* \"#utility.yul\":930:932   */\n      0x40\n        /* \"#utility.yul\":921:927   */\n      dup3\n        /* \"#utility.yul\":910:919   */\n      dup6\n        /* \"#utility.yul\":906:928   */\n      add\n        /* \"#utility.yul\":902:933   */\n      add\n        /* \"#utility.yul\":895:937   */\n      mstore\n        /* \"#utility.yul\":1005:1007   */\n      0x40\n        /* \"#utility.yul\":998:1000   */\n      0x1f\n        /* \"#utility.yul\":994:1001   */\n      not\n        /* \"#utility.yul\":989:991   */\n      0x1f\n        /* \"#utility.yul\":981:987   */\n      dup4\n        /* \"#utility.yul\":977:992   */\n      add\n        /* \"#utility.yul\":973:1002   */\n      and\n        /* \"#utility.yul\":962:971   */\n      dup5\n        /* \"#utility.yul\":958:1003   */\n      add\n        /* \"#utility.yul\":954:1008   */\n      add\n        /* \"#utility.yul\":946:1008   */\n      swap2\n      pop\n      pop\n        /* \"#utility.yul\":596:1014   */\n      swap3\n      swap2\n      pop\n      pop\n      jump\t// out\n        /* \"#utility.yul\":2173:2570   */\n    tag_74:\n        /* \"#utility.yul\":2375:2377   */\n      0x20\n        /* \"#utility.yul\":2357:2378   */\n      dup1\n      dup3\n      mstore\n        /* \"#utility.yul\":2414:2416   */\n      0x21\n        /* \"#utility.yul\":2394:2412   */\n      swap1\n      dup3\n      add\n        /* \"#utility.yul\":2387:2417   */\n      mstore\n        /* \"#utility.yul\":2453:2487   */\n      0x4f6e6c792062757965722063616e2063616c6c20746869732066756e6374696f\n        /* \"#utility.yul\":2448:2450   */\n      0x40\n        /* \"#utility.yul\":2433:2451   */\n      dup3\n      add\n        /* \"#utility.yul\":2426:2488   */\n      mstore\n      shl(0xf9, 0x37)\n        /* \"#utility.yul\":2519:2521   */\n      0x60\n        /* \"#utility.yul\":2504:2522   */\n      dup3\n      add\n        /* \"#utility.yul\":2497:2528   */\n      mstore\n        /* \"#utility.yul\":2560:2563   */\n      0x80\n        /* \"#utility.yul\":2545:2564   */\n      add\n      swap1\n        /* \"#utility.yul\":2173:2570   */\n      jump\t// out\n        /* \"#utility.yul\":4082:4462   */\n    tag_94:\n        /* \"#utility.yul\":4161:4162   */\n      0x01\n        /* \"#utility.yul\":4157:4169   */\n      dup2\n      dup2\n      shr\n      swap1\n        /* \"#utility.yul\":4204:4216   */\n      dup3\n      and\n      dup1\n        /* \"#utility.yul\":4225:4286   */\n      tag_122\n      jumpi\n        /* \"#utility.yul\":4279:4283   */\n      0x7f\n        /* \"#utility.yul\":4271:4277   */\n      dup3\n        /* \"#utility.yul\":4267:4284   */\n      and\n        /* \"#utility.yul\":4257:4284   */\n      swap2\n      pop\n        /* \"#utility.yul\":4225:4286   */\n    tag_122:\n        /* \"#utility.yul\":4332:4334   */\n      0x20\n        /* \"#utility.yul\":4324:4330   */\n      dup3\n        /* \"#utility.yul\":4321:4335   */\n      lt\n        /* \"#utility.yul\":4301:4319   */\n      dup2\n        /* \"#utility.yul\":4298:4336   */\n      sub\n        /* \"#utility.yul\":4295:4456   */\n      tag_123\n      jumpi\n        /* \"#utility.yul\":4378:4388   */\n      0x4e487b71\n        /* \"#utility.yul\":4373:4376   */\n      0xe0\n        /* \"#utility.yul\":4369:4389   */\n      shl\n        /* \"#utility.yul\":4366:4367   */\n      0x00\n        /* \"#utility.yul\":4359:4390   */\n      mstore\n        /* \"#utility.yul\":4413:4417   */\n      0x22\n        /* \"#utility.yul\":4410:4411   */\n      0x04\n        /* \"#utility.yul\":4403:4418   */\n      mstore\n        /* \"#utility.yul\":4441:4445   */\n      0x24\n        /* \"#utility.yul\":4438:4439   */\n      0x00\n        /* \"#utility.yul\":4431:4446   */\n      revert\n        /* \"#utility.yul\":4295:4456   */\n    tag_123:\n      pop\n        /* \"#utility.yul\":4082:4462   */\n      swap2\n      swap1\n      pop\n      jump\t// out\n\n    auxdata: 0xa2646970667358221220e195581d8322b4c7c87236e12db7815c670a3f8d8f607161b6a9b9fa41ccab8f64736f6c634300081a0033\n}\n",
				"bytecode": {
					"linkReferences": {},
					"object": "608060405234801561000f575f80fd5b50604051610a85380380610a8583398101604081905261002e91610082565b5f8054336001600160a01b031991821617909155600180549091166001600160a01b038516179055600261006283826101e0565b506003555061029a9050565b634e487b7160e01b5f52604160045260245ffd5b5f805f60608486031215610094575f80fd5b83516001600160a01b03811681146100aa575f80fd5b60208501519093506001600160401b038111156100c5575f80fd5b8401601f810186136100d5575f80fd5b80516001600160401b038111156100ee576100ee61006e565b604051601f8201601f19908116603f011681016001600160401b038111828210171561011c5761011c61006e565b604052818152828201602001881015610133575f80fd5b8160208401602083015e5f91810160200191909152604095909501519396949550929392505050565b600181811c9082168061017057607f821691505b60208210810361018e57634e487b7160e01b5f52602260045260245ffd5b50919050565b601f8211156101db57805f5260205f20601f840160051c810160208510156101b95750805b601f840160051c820191505b818110156101d8575f81556001016101c5565b50505b505050565b81516001600160401b038111156101f9576101f961006e565b61020d81610207845461015c565b84610194565b6020601f82116001811461023f575f83156102285750848201515b5f19600385901b1c1916600184901b1784556101d8565b5f84815260208120601f198516915b8281101561026e578785015182556020948501946001909201910161024e565b508482101561028b57868401515f19600387901b60f8161c191681555b50505050600190811b01905550565b6107de806102a75f395ff3fe60806040526004361061009a575f3560e01c8063532ca45711610062578063532ca4571461015757806361b60f6b1461016b578063a035b1fe14610189578063a795c2ce146101ac578063d0e30db0146101cb578063f2a4a82e146101d3575f80fd5b8063039e3e051461009e5780631be427cc146100b45780632312fff7146100e95780633d9b2ae61461010257806344834aca14610138575b5f80fd5b3480156100a9575f80fd5b506100b26101f4565b005b3480156100bf575f80fd5b506004546100d4906301000000900460ff1681565b60405190151581526020015b60405180910390f35b3480156100f4575f80fd5b506004546100d49060ff1681565b34801561010d575f80fd5b505f54610120906001600160a01b031681565b6040516001600160a01b0390911681526020016100e0565b348015610143575f80fd5b50600154610120906001600160a01b031681565b348015610162575f80fd5b506100b261035d565b348015610176575f80fd5b506004546100d490610100900460ff1681565b348015610194575f80fd5b5061019e60035481565b6040519081526020016100e0565b3480156101b7575f80fd5b506004546100d49062010000900460ff1681565b6100b2610433565b3480156101de575f80fd5b506101e761056e565b6040516100e091906106fa565b5f546001600160a01b0316331461025d5760405162461bcd60e51b815260206004820152602260248201527f4f6e6c792073656c6c65722063616e2063616c6c20746869732066756e63746960448201526137b760f11b60648201526084015b60405180910390fd5b600454610100900460ff16156102c35760405162461bcd60e51b815260206004820152602560248201527f53656c6c65722068617320616c72656164792061636365707465642074686520604482015264747261646560d81b6064820152608401610254565b6004546301000000900460ff1661030f5760405162461bcd60e51b815260206004820152601060248201526f4465706f736974206e6f74206d61646560801b6044820152606401610254565b6004805461ff0019166101001790555f80546040516001600160a01b03909116917fe8b2bddd4b7daeaba32be7d8f242b974e1dcd03366dea076f1c8c08fb8a1c9c791a261035b6105fa565b565b6001546001600160a01b031633146103875760405162461bcd60e51b81526004016102549061072f565b60045460ff16156103e65760405162461bcd60e51b8152602060048201526024808201527f42757965722068617320616c72656164792061636365707465642074686520746044820152637261646560e01b6064820152608401610254565b6004805460ff19166001908117909155546040516001600160a01b03909116907fe8b2bddd4b7daeaba32be7d8f242b974e1dcd03366dea076f1c8c08fb8a1c9c7905f90a261035b6105fa565b6001546001600160a01b0316331461045d5760405162461bcd60e51b81526004016102549061072f565b60045460ff1615156001146104c45760405162461bcd60e51b815260206004820152602760248201527f4275796572206861736e277420616c72656164792061636365707465642074686044820152666520747261646560c81b6064820152608401610254565b6004546301000000900460ff16156105155760405162461bcd60e51b81526020600482015260146024820152734465706f73697420616c7265616479206d61646560601b6044820152606401610254565b60035434146105595760405162461bcd60e51b815260206004820152601060248201526f125b98dbdc9c9958dd08105b5bdd5b9d60821b6044820152606401610254565b6004805463ff00000019166301000000179055565b6002805461057b90610770565b80601f01602080910402602001604051908101604052809291908181526020018280546105a790610770565b80156105f25780601f106105c9576101008083540402835291602001916105f2565b820191905f5260205f20905b8154815290600101906020018083116105d557829003601f168201915b505050505081565b60045460ff1680156106135750600454610100900460ff165b156106a1576004805462ff00001916620100001790556001545f80546040516001600160a01b039384169391909116917fac39c8d59d90e8ade4a53cfc4a559c2c4f47ea26fb6c9370a90a707f056a43c191a35f80546003546040516001600160a01b039092169281156108fc029290818181858888f1935050505015801561069e573d5f803e3d5ffd5b50565b60045462010000900460ff161561035b5760405162461bcd60e51b815260206004820152601860248201527f547261646520416c726561647920436f6d70656c6574656400000000000000006044820152606401610254565b602081525f82518060208401528060208501604085015e5f604082850101526040601f19601f83011684010191505092915050565b60208082526021908201527f4f6e6c792062757965722063616e2063616c6c20746869732066756e6374696f6040820152603760f91b606082015260800190565b600181811c9082168061078457607f821691505b6020821081036107a257634e487b7160e01b5f52602260045260245ffd5b5091905056fea2646970667358221220e195581d8322b4c7c87236e12db7815c670a3f8d8f607161b6a9b9fa41ccab8f64736f6c634300081a0033",
					"opcodes": "PUSH1 0x80 PUSH1 0x40 MSTORE CALLVALUE DUP1 ISZERO PUSH2 0xF JUMPI PUSH0 DUP1 REVERT JUMPDEST POP PUSH1 0x40 MLOAD PUSH2 0xA85 CODESIZE SUB DUP1 PUSH2 0xA85 DUP4 CODECOPY DUP2 ADD PUSH1 0x40 DUP2 SWAP1 MSTORE PUSH2 0x2E SWAP2 PUSH2 0x82 JUMP JUMPDEST PUSH0 DUP1 SLOAD CALLER PUSH1 0x1 PUSH1 0x1 PUSH1 0xA0 SHL SUB NOT SWAP2 DUP3 AND OR SWAP1 SWAP2 SSTORE PUSH1 0x1 DUP1 SLOAD SWAP1 SWAP2 AND PUSH1 0x1 PUSH1 0x1 PUSH1 0xA0 SHL SUB DUP6 AND OR SWAP1 SSTORE PUSH1 0x2 PUSH2 0x62 DUP4 DUP3 PUSH2 0x1E0 JUMP JUMPDEST POP PUSH1 0x3 SSTORE POP PUSH2 0x29A SWAP1 POP JUMP JUMPDEST PUSH4 0x4E487B71 PUSH1 0xE0 SHL PUSH0 MSTORE PUSH1 0x41 PUSH1 0x4 MSTORE PUSH1 0x24 PUSH0 REVERT JUMPDEST PUSH0 DUP1 PUSH0 PUSH1 0x60 DUP5 DUP7 SUB SLT ISZERO PUSH2 0x94 JUMPI PUSH0 DUP1 REVERT JUMPDEST DUP4 MLOAD PUSH1 0x1 PUSH1 0x1 PUSH1 0xA0 SHL SUB DUP2 AND DUP2 EQ PUSH2 0xAA JUMPI PUSH0 DUP1 REVERT JUMPDEST PUSH1 0x20 DUP6 ADD MLOAD SWAP1 SWAP4 POP PUSH1 0x1 PUSH1 0x1 PUSH1 0x40 SHL SUB DUP2 GT ISZERO PUSH2 0xC5 JUMPI PUSH0 DUP1 REVERT JUMPDEST DUP5 ADD PUSH1 0x1F DUP2 ADD DUP7 SGT PUSH2 0xD5 JUMPI PUSH0 DUP1 REVERT JUMPDEST DUP1 MLOAD PUSH1 0x1 PUSH1 0x1 PUSH1 0x40 SHL SUB DUP2 GT ISZERO PUSH2 0xEE JUMPI PUSH2 0xEE PUSH2 0x6E JUMP JUMPDEST PUSH1 0x40 MLOAD PUSH1 0x1F DUP3 ADD PUSH1 0x1F NOT SWAP1 DUP2 AND PUSH1 0x3F ADD AND DUP2 ADD PUSH1 0x1 PUSH1 0x1 PUSH1 0x40 SHL SUB DUP2 GT DUP3 DUP3 LT OR ISZERO PUSH2 0x11C JUMPI PUSH2 0x11C PUSH2 0x6E JUMP JUMPDEST PUSH1 0x40 MSTORE DUP2 DUP2 MSTORE DUP3 DUP3 ADD PUSH1 0x20 ADD DUP9 LT ISZERO PUSH2 0x133 JUMPI PUSH0 DUP1 REVERT JUMPDEST DUP2 PUSH1 0x20 DUP5 ADD PUSH1 0x20 DUP4 ADD MCOPY PUSH0 SWAP2 DUP2 ADD PUSH1 0x20 ADD SWAP2 SWAP1 SWAP2 MSTORE PUSH1 0x40 SWAP6 SWAP1 SWAP6 ADD MLOAD SWAP4 SWAP7 SWAP5 SWAP6 POP SWAP3 SWAP4 SWAP3 POP POP POP JUMP JUMPDEST PUSH1 0x1 DUP2 DUP2 SHR SWAP1 DUP3 AND DUP1 PUSH2 0x170 JUMPI PUSH1 0x7F DUP3 AND SWAP2 POP JUMPDEST PUSH1 0x20 DUP3 LT DUP2 SUB PUSH2 0x18E JUMPI PUSH4 0x4E487B71 PUSH1 0xE0 SHL PUSH0 MSTORE PUSH1 0x22 PUSH1 0x4 MSTORE PUSH1 0x24 PUSH0 REVERT JUMPDEST POP SWAP2 SWAP1 POP JUMP JUMPDEST PUSH1 0x1F DUP3 GT ISZERO PUSH2 0x1DB JUMPI DUP1 PUSH0 MSTORE PUSH1 0x20 PUSH0 KECCAK256 PUSH1 0x1F DUP5 ADD PUSH1 0x5 SHR DUP2 ADD PUSH1 0x20 DUP6 LT ISZERO PUSH2 0x1B9 JUMPI POP DUP1 JUMPDEST PUSH1 0x1F DUP5 ADD PUSH1 0x5 SHR DUP3 ADD SWAP2 POP JUMPDEST DUP2 DUP2 LT ISZERO PUSH2 0x1D8 JUMPI PUSH0 DUP2 SSTORE PUSH1 0x1 ADD PUSH2 0x1C5 JUMP JUMPDEST POP POP JUMPDEST POP POP POP JUMP JUMPDEST DUP2 MLOAD PUSH1 0x1 PUSH1 0x1 PUSH1 0x40 SHL SUB DUP2 GT ISZERO PUSH2 0x1F9 JUMPI PUSH2 0x1F9 PUSH2 0x6E JUMP JUMPDEST PUSH2 0x20D DUP2 PUSH2 0x207 DUP5 SLOAD PUSH2 0x15C JUMP JUMPDEST DUP5 PUSH2 0x194 JUMP JUMPDEST PUSH1 0x20 PUSH1 0x1F DUP3 GT PUSH1 0x1 DUP2 EQ PUSH2 0x23F JUMPI PUSH0 DUP4 ISZERO PUSH2 0x228 JUMPI POP DUP5 DUP3 ADD MLOAD JUMPDEST PUSH0 NOT PUSH1 0x3 DUP6 SWAP1 SHL SHR NOT AND PUSH1 0x1 DUP5 SWAP1 SHL OR DUP5 SSTORE PUSH2 0x1D8 JUMP JUMPDEST PUSH0 DUP5 DUP2 MSTORE PUSH1 0x20 DUP2 KECCAK256 PUSH1 0x1F NOT DUP6 AND SWAP2 JUMPDEST DUP3 DUP2 LT ISZERO PUSH2 0x26E JUMPI DUP8 DUP6 ADD MLOAD DUP3 SSTORE PUSH1 0x20 SWAP5 DUP6 ADD SWAP5 PUSH1 0x1 SWAP1 SWAP3 ADD SWAP2 ADD PUSH2 0x24E JUMP JUMPDEST POP DUP5 DUP3 LT ISZERO PUSH2 0x28B JUMPI DUP7 DUP5 ADD MLOAD PUSH0 NOT PUSH1 0x3 DUP8 SWAP1 SHL PUSH1 0xF8 AND SHR NOT AND DUP2 SSTORE JUMPDEST POP POP POP POP PUSH1 0x1 SWAP1 DUP2 SHL ADD SWAP1 SSTORE POP JUMP JUMPDEST PUSH2 0x7DE DUP1 PUSH2 0x2A7 PUSH0 CODECOPY PUSH0 RETURN INVALID PUSH1 0x80 PUSH1 0x40 MSTORE PUSH1 0x4 CALLDATASIZE LT PUSH2 0x9A JUMPI PUSH0 CALLDATALOAD PUSH1 0xE0 SHR DUP1 PUSH4 0x532CA457 GT PUSH2 0x62 JUMPI DUP1 PUSH4 0x532CA457 EQ PUSH2 0x157 JUMPI DUP1 PUSH4 0x61B60F6B EQ PUSH2 0x16B JUMPI DUP1 PUSH4 0xA035B1FE EQ PUSH2 0x189 JUMPI DUP1 PUSH4 0xA795C2CE EQ PUSH2 0x1AC JUMPI DUP1 PUSH4 0xD0E30DB0 EQ PUSH2 0x1CB JUMPI DUP1 PUSH4 0xF2A4A82E EQ PUSH2 0x1D3 JUMPI PUSH0 DUP1 REVERT JUMPDEST DUP1 PUSH4 0x39E3E05 EQ PUSH2 0x9E JUMPI DUP1 PUSH4 0x1BE427CC EQ PUSH2 0xB4 JUMPI DUP1 PUSH4 0x2312FFF7 EQ PUSH2 0xE9 JUMPI DUP1 PUSH4 0x3D9B2AE6 EQ PUSH2 0x102 JUMPI DUP1 PUSH4 0x44834ACA EQ PUSH2 0x138 JUMPI JUMPDEST PUSH0 DUP1 REVERT JUMPDEST CALLVALUE DUP1 ISZERO PUSH2 0xA9 JUMPI PUSH0 DUP1 REVERT JUMPDEST POP PUSH2 0xB2 PUSH2 0x1F4 JUMP JUMPDEST STOP JUMPDEST CALLVALUE DUP1 ISZERO PUSH2 0xBF JUMPI PUSH0 DUP1 REVERT JUMPDEST POP PUSH1 0x4 SLOAD PUSH2 0xD4 SWAP1 PUSH4 0x1000000 SWAP1 DIV PUSH1 0xFF AND DUP2 JUMP JUMPDEST PUSH1 0x40 MLOAD SWAP1 ISZERO ISZERO DUP2 MSTORE PUSH1 0x20 ADD JUMPDEST PUSH1 0x40 MLOAD DUP1 SWAP2 SUB SWAP1 RETURN JUMPDEST CALLVALUE DUP1 ISZERO PUSH2 0xF4 JUMPI PUSH0 DUP1 REVERT JUMPDEST POP PUSH1 0x4 SLOAD PUSH2 0xD4 SWAP1 PUSH1 0xFF AND DUP2 JUMP JUMPDEST CALLVALUE DUP1 ISZERO PUSH2 0x10D JUMPI PUSH0 DUP1 REVERT JUMPDEST POP PUSH0 SLOAD PUSH2 0x120 SWAP1 PUSH1 0x1 PUSH1 0x1 PUSH1 0xA0 SHL SUB AND DUP2 JUMP JUMPDEST PUSH1 0x40 MLOAD PUSH1 0x1 PUSH1 0x1 PUSH1 0xA0 SHL SUB SWAP1 SWAP2 AND DUP2 MSTORE PUSH1 0x20 ADD PUSH2 0xE0 JUMP JUMPDEST CALLVALUE DUP1 ISZERO PUSH2 0x143 JUMPI PUSH0 DUP1 REVERT JUMPDEST POP PUSH1 0x1 SLOAD PUSH2 0x120 SWAP1 PUSH1 0x1 PUSH1 0x1 PUSH1 0xA0 SHL SUB AND DUP2 JUMP JUMPDEST CALLVALUE DUP1 ISZERO PUSH2 0x162 JUMPI PUSH0 DUP1 REVERT JUMPDEST POP PUSH2 0xB2 PUSH2 0x35D JUMP JUMPDEST CALLVALUE DUP1 ISZERO PUSH2 0x176 JUMPI PUSH0 DUP1 REVERT JUMPDEST POP PUSH1 0x4 SLOAD PUSH2 0xD4 SWAP1 PUSH2 0x100 SWAP1 DIV PUSH1 0xFF AND DUP2 JUMP JUMPDEST CALLVALUE DUP1 ISZERO PUSH2 0x194 JUMPI PUSH0 DUP1 REVERT JUMPDEST POP PUSH2 0x19E PUSH1 0x3 SLOAD DUP2 JUMP JUMPDEST PUSH1 0x40 MLOAD SWAP1 DUP2 MSTORE PUSH1 0x20 ADD PUSH2 0xE0 JUMP JUMPDEST CALLVALUE DUP1 ISZERO PUSH2 0x1B7 JUMPI PUSH0 DUP1 REVERT JUMPDEST POP PUSH1 0x4 SLOAD PUSH2 0xD4 SWAP1 PUSH3 0x10000 SWAP1 DIV PUSH1 0xFF AND DUP2 JUMP JUMPDEST PUSH2 0xB2 PUSH2 0x433 JUMP JUMPDEST CALLVALUE DUP1 ISZERO PUSH2 0x1DE JUMPI PUSH0 DUP1 REVERT JUMPDEST POP PUSH2 0x1E7 PUSH2 0x56E JUMP JUMPDEST PUSH1 0x40 MLOAD PUSH2 0xE0 SWAP2 SWAP1 PUSH2 0x6FA JUMP JUMPDEST PUSH0 SLOAD PUSH1 0x1 PUSH1 0x1 PUSH1 0xA0 SHL SUB AND CALLER EQ PUSH2 0x25D JUMPI PUSH1 0x40 MLOAD PUSH3 0x461BCD PUSH1 0xE5 SHL DUP2 MSTORE PUSH1 0x20 PUSH1 0x4 DUP3 ADD MSTORE PUSH1 0x22 PUSH1 0x24 DUP3 ADD MSTORE PUSH32 0x4F6E6C792073656C6C65722063616E2063616C6C20746869732066756E637469 PUSH1 0x44 DUP3 ADD MSTORE PUSH2 0x37B7 PUSH1 0xF1 SHL PUSH1 0x64 DUP3 ADD MSTORE PUSH1 0x84 ADD JUMPDEST PUSH1 0x40 MLOAD DUP1 SWAP2 SUB SWAP1 REVERT JUMPDEST PUSH1 0x4 SLOAD PUSH2 0x100 SWAP1 DIV PUSH1 0xFF AND ISZERO PUSH2 0x2C3 JUMPI PUSH1 0x40 MLOAD PUSH3 0x461BCD PUSH1 0xE5 SHL DUP2 MSTORE PUSH1 0x20 PUSH1 0x4 DUP3 ADD MSTORE PUSH1 0x25 PUSH1 0x24 DUP3 ADD MSTORE PUSH32 0x53656C6C65722068617320616C72656164792061636365707465642074686520 PUSH1 0x44 DUP3 ADD MSTORE PUSH5 0x7472616465 PUSH1 0xD8 SHL PUSH1 0x64 DUP3 ADD MSTORE PUSH1 0x84 ADD PUSH2 0x254 JUMP JUMPDEST PUSH1 0x4 SLOAD PUSH4 0x1000000 SWAP1 DIV PUSH1 0xFF AND PUSH2 0x30F JUMPI PUSH1 0x40 MLOAD PUSH3 0x461BCD PUSH1 0xE5 SHL DUP2 MSTORE PUSH1 0x20 PUSH1 0x4 DUP3 ADD MSTORE PUSH1 0x10 PUSH1 0x24 DUP3 ADD MSTORE PUSH16 0x4465706F736974206E6F74206D616465 PUSH1 0x80 SHL PUSH1 0x44 DUP3 ADD MSTORE PUSH1 0x64 ADD PUSH2 0x254 JUMP JUMPDEST PUSH1 0x4 DUP1 SLOAD PUSH2 0xFF00 NOT AND PUSH2 0x100 OR SWAP1 SSTORE PUSH0 DUP1 SLOAD PUSH1 0x40 MLOAD PUSH1 0x1 PUSH1 0x1 PUSH1 0xA0 SHL SUB SWAP1 SWAP2 AND SWAP2 PUSH32 0xE8B2BDDD4B7DAEABA32BE7D8F242B974E1DCD03366DEA076F1C8C08FB8A1C9C7 SWAP2 LOG2 PUSH2 0x35B PUSH2 0x5FA JUMP JUMPDEST JUMP JUMPDEST PUSH1 0x1 SLOAD PUSH1 0x1 PUSH1 0x1 PUSH1 0xA0 SHL SUB AND CALLER EQ PUSH2 0x387 JUMPI PUSH1 0x40 MLOAD PUSH3 0x461BCD PUSH1 0xE5 SHL DUP2 MSTORE PUSH1 0x4 ADD PUSH2 0x254 SWAP1 PUSH2 0x72F JUMP JUMPDEST PUSH1 0x4 SLOAD PUSH1 0xFF AND ISZERO PUSH2 0x3E6 JUMPI PUSH1 0x40 MLOAD PUSH3 0x461BCD PUSH1 0xE5 SHL DUP2 MSTORE PUSH1 0x20 PUSH1 0x4 DUP3 ADD MSTORE PUSH1 0x24 DUP1 DUP3 ADD MSTORE PUSH32 0x42757965722068617320616C7265616479206163636570746564207468652074 PUSH1 0x44 DUP3 ADD MSTORE PUSH4 0x72616465 PUSH1 0xE0 SHL PUSH1 0x64 DUP3 ADD MSTORE PUSH1 0x84 ADD PUSH2 0x254 JUMP JUMPDEST PUSH1 0x4 DUP1 SLOAD PUSH1 0xFF NOT AND PUSH1 0x1 SWAP1 DUP2 OR SWAP1 SWAP2 SSTORE SLOAD PUSH1 0x40 MLOAD PUSH1 0x1 PUSH1 0x1 PUSH1 0xA0 SHL SUB SWAP1 SWAP2 AND SWAP1 PUSH32 0xE8B2BDDD4B7DAEABA32BE7D8F242B974E1DCD03366DEA076F1C8C08FB8A1C9C7 SWAP1 PUSH0 SWAP1 LOG2 PUSH2 0x35B PUSH2 0x5FA JUMP JUMPDEST PUSH1 0x1 SLOAD PUSH1 0x1 PUSH1 0x1 PUSH1 0xA0 SHL SUB AND CALLER EQ PUSH2 0x45D JUMPI PUSH1 0x40 MLOAD PUSH3 0x461BCD PUSH1 0xE5 SHL DUP2 MSTORE PUSH1 0x4 ADD PUSH2 0x254 SWAP1 PUSH2 0x72F JUMP JUMPDEST PUSH1 0x4 SLOAD PUSH1 0xFF AND ISZERO ISZERO PUSH1 0x1 EQ PUSH2 0x4C4 JUMPI PUSH1 0x40 MLOAD PUSH3 0x461BCD PUSH1 0xE5 SHL DUP2 MSTORE PUSH1 0x20 PUSH1 0x4 DUP3 ADD MSTORE PUSH1 0x27 PUSH1 0x24 DUP3 ADD MSTORE PUSH32 0x4275796572206861736E277420616C7265616479206163636570746564207468 PUSH1 0x44 DUP3 ADD MSTORE PUSH7 0x65207472616465 PUSH1 0xC8 SHL PUSH1 0x64 DUP3 ADD MSTORE PUSH1 0x84 ADD PUSH2 0x254 JUMP JUMPDEST PUSH1 0x4 SLOAD PUSH4 0x1000000 SWAP1 DIV PUSH1 0xFF AND ISZERO PUSH2 0x515 JUMPI PUSH1 0x40 MLOAD PUSH3 0x461BCD PUSH1 0xE5 SHL DUP2 MSTORE PUSH1 0x20 PUSH1 0x4 DUP3 ADD MSTORE PUSH1 0x14 PUSH1 0x24 DUP3 ADD MSTORE PUSH20 0x4465706F73697420616C7265616479206D616465 PUSH1 0x60 SHL PUSH1 0x44 DUP3 ADD MSTORE PUSH1 0x64 ADD PUSH2 0x254 JUMP JUMPDEST PUSH1 0x3 SLOAD CALLVALUE EQ PUSH2 0x559 JUMPI PUSH1 0x40 MLOAD PUSH3 0x461BCD PUSH1 0xE5 SHL DUP2 MSTORE PUSH1 0x20 PUSH1 0x4 DUP3 ADD MSTORE PUSH1 0x10 PUSH1 0x24 DUP3 ADD MSTORE PUSH16 0x125B98DBDC9C9958DD08105B5BDD5B9D PUSH1 0x82 SHL PUSH1 0x44 DUP3 ADD MSTORE PUSH1 0x64 ADD PUSH2 0x254 JUMP JUMPDEST PUSH1 0x4 DUP1 SLOAD PUSH4 0xFF000000 NOT AND PUSH4 0x1000000 OR SWAP1 SSTORE JUMP JUMPDEST PUSH1 0x2 DUP1 SLOAD PUSH2 0x57B SWAP1 PUSH2 0x770 JUMP JUMPDEST DUP1 PUSH1 0x1F ADD PUSH1 0x20 DUP1 SWAP2 DIV MUL PUSH1 0x20 ADD PUSH1 0x40 MLOAD SWAP1 DUP2 ADD PUSH1 0x40 MSTORE DUP1 SWAP3 SWAP2 SWAP1 DUP2 DUP2 MSTORE PUSH1 0x20 ADD DUP3 DUP1 SLOAD PUSH2 0x5A7 SWAP1 PUSH2 0x770 JUMP JUMPDEST DUP1 ISZERO PUSH2 0x5F2 JUMPI DUP1 PUSH1 0x1F LT PUSH2 0x5C9 JUMPI PUSH2 0x100 DUP1 DUP4 SLOAD DIV MUL DUP4 MSTORE SWAP2 PUSH1 0x20 ADD SWAP2 PUSH2 0x5F2 JUMP JUMPDEST DUP3 ADD SWAP2 SWAP1 PUSH0 MSTORE PUSH1 0x20 PUSH0 KECCAK256 SWAP1 JUMPDEST DUP2 SLOAD DUP2 MSTORE SWAP1 PUSH1 0x1 ADD SWAP1 PUSH1 0x20 ADD DUP1 DUP4 GT PUSH2 0x5D5 JUMPI DUP3 SWAP1 SUB PUSH1 0x1F AND DUP3 ADD SWAP2 JUMPDEST POP POP POP POP POP DUP2 JUMP JUMPDEST PUSH1 0x4 SLOAD PUSH1 0xFF AND DUP1 ISZERO PUSH2 0x613 JUMPI POP PUSH1 0x4 SLOAD PUSH2 0x100 SWAP1 DIV PUSH1 0xFF AND JUMPDEST ISZERO PUSH2 0x6A1 JUMPI PUSH1 0x4 DUP1 SLOAD PUSH3 0xFF0000 NOT AND PUSH3 0x10000 OR SWAP1 SSTORE PUSH1 0x1 SLOAD PUSH0 DUP1 SLOAD PUSH1 0x40 MLOAD PUSH1 0x1 PUSH1 0x1 PUSH1 0xA0 SHL SUB SWAP4 DUP5 AND SWAP4 SWAP2 SWAP1 SWAP2 AND SWAP2 PUSH32 0xAC39C8D59D90E8ADE4A53CFC4A559C2C4F47EA26FB6C9370A90A707F056A43C1 SWAP2 LOG3 PUSH0 DUP1 SLOAD PUSH1 0x3 SLOAD PUSH1 0x40 MLOAD PUSH1 0x1 PUSH1 0x1 PUSH1 0xA0 SHL SUB SWAP1 SWAP3 AND SWAP3 DUP2 ISZERO PUSH2 0x8FC MUL SWAP3 SWAP1 DUP2 DUP2 DUP2 DUP6 DUP9 DUP9 CALL SWAP4 POP POP POP POP ISZERO DUP1 ISZERO PUSH2 0x69E JUMPI RETURNDATASIZE PUSH0 DUP1 RETURNDATACOPY RETURNDATASIZE PUSH0 REVERT JUMPDEST POP JUMP JUMPDEST PUSH1 0x4 SLOAD PUSH3 0x10000 SWAP1 DIV PUSH1 0xFF AND ISZERO PUSH2 0x35B JUMPI PUSH1 0x40 MLOAD PUSH3 0x461BCD PUSH1 0xE5 SHL DUP2 MSTORE PUSH1 0x20 PUSH1 0x4 DUP3 ADD MSTORE PUSH1 0x18 PUSH1 0x24 DUP3 ADD MSTORE PUSH32 0x547261646520416C726561647920436F6D70656C657465640000000000000000 PUSH1 0x44 DUP3 ADD MSTORE PUSH1 0x64 ADD PUSH2 0x254 JUMP JUMPDEST PUSH1 0x20 DUP2 MSTORE PUSH0 DUP3 MLOAD DUP1 PUSH1 0x20 DUP5 ADD MSTORE DUP1 PUSH1 0x20 DUP6 ADD PUSH1 0x40 DUP6 ADD MCOPY PUSH0 PUSH1 0x40 DUP3 DUP6 ADD ADD MSTORE PUSH1 0x40 PUSH1 0x1F NOT PUSH1 0x1F DUP4 ADD AND DUP5 ADD ADD SWAP2 POP POP SWAP3 SWAP2 POP POP JUMP JUMPDEST PUSH1 0x20 DUP1 DUP3 MSTORE PUSH1 0x21 SWAP1 DUP3 ADD MSTORE PUSH32 0x4F6E6C792062757965722063616E2063616C6C20746869732066756E6374696F PUSH1 0x40 DUP3 ADD MSTORE PUSH1 0x37 PUSH1 0xF9 SHL PUSH1 0x60 DUP3 ADD MSTORE PUSH1 0x80 ADD SWAP1 JUMP JUMPDEST PUSH1 0x1 DUP2 DUP2 SHR SWAP1 DUP3 AND DUP1 PUSH2 0x784 JUMPI PUSH1 0x7F DUP3 AND SWAP2 POP JUMPDEST PUSH1 0x20 DUP3 LT DUP2 SUB PUSH2 0x7A2 JUMPI PUSH4 0x4E487B71 PUSH1 0xE0 SHL PUSH0 MSTORE PUSH1 0x22 PUSH1 0x4 MSTORE PUSH1 0x24 PUSH0 REVERT JUMPDEST POP SWAP2 SWAP1 POP JUMP INVALID LOG2 PUSH5 0x6970667358 0x22 SLT KECCAK256 0xE1 SWAP6 PC SAR DUP4 0x22 0xB4 0xC7 0xC8 PUSH19 0x36E12DB7815C670A3F8D8F607161B6A9B9FA41 0xCC 0xAB DUP16 PUSH5 0x736F6C6343 STOP ADDMOD BYTE STOP CALLER "
				},
				"gasEstimates": {
					"creation": {
						"codeDepositCost": "402800",
						"executionCost": "infinite",
						"totalCost": "infinite"
					},
					"external": {
						"acceptTradeAsBuyer()": "infinite",
						"acceptTradeAsSeller()": "infinite",
						"buyerAccepted()": "2343",
						"buyerAddress()": "2425",
						"deposit()": "32965",
						"depositMade()": "2332",
						"item()": "infinite",
						"price()": "2338",
						"sellerAccepted()": "2331",
						"sellerAddress()": "2402",
						"tradeCompeleted()": "2375"
					},
					"internal": {
						"completeTrade()": "infinite"
					}
				},
				"methodIdentifiers": {
					"acceptTradeAsBuyer()": "532ca457",
					"acceptTradeAsSeller()": "039e3e05",
					"buyerAccepted()": "2312fff7",
					"buyerAddress()": "44834aca",
					"deposit()": "d0e30db0",
					"depositMade()": "1be427cc",
					"item()": "f2a4a82e",
					"price()": "a035b1fe",
					"sellerAccepted()": "61b60f6b",
					"sellerAddress()": "3d9b2ae6",
					"tradeCompeleted()": "a795c2ce"
				}
			},
			"storageLayout": {
				"storage": [
					{
						"astId": 3,
						"contract": "contracts/1.TradeAgreement.sol:TradeAgreement",
						"label": "sellerAddress",
						"offset": 0,
						"slot": "0",
						"type": "t_address"
					},
					{
						"astId": 5,
						"contract": "contracts/1.TradeAgreement.sol:TradeAgreement",
						"label": "buyerAddress",
						"offset": 0,
						"slot": "1",
						"type": "t_address"
					},
					{
						"astId": 7,
						"contract": "contracts/1.TradeAgreement.sol:TradeAgreement",
						"label": "item",
						"offset": 0,
						"slot": "2",
						"type": "t_string_storage"
					},
					{
						"astId": 9,
						"contract": "contracts/1.TradeAgreement.sol:TradeAgreement",
						"label": "price",
						"offset": 0,
						"slot": "3",
						"type": "t_uint256"
					},
					{
						"astId": 11,
						"contract": "contracts/1.TradeAgreement.sol:TradeAgreement",
						"label": "buyerAccepted",
						"offset": 0,
						"slot": "4",
						"type": "t_bool"
					},
					{
						"astId": 13,
						"contract": "contracts/1.TradeAgreement.sol:TradeAgreement",
						"label": "sellerAccepted",
						"offset": 1,
						"slot": "4",
						"type": "t_bool"
					},
					{
						"astId": 15,
						"contract": "contracts/1.TradeAgreement.sol:TradeAgreement",
						"label": "tradeCompeleted",
						"offset": 2,
						"slot": "4",
						"type": "t_bool"
					},
					{
						"astId": 17,
						"contract": "contracts/1.TradeAgreement.sol:TradeAgreement",
						"label": "depositMade",
						"offset": 3,
						"slot": "4",
						"type": "t_bool"
					}
				],
				"types": {
					"t_address": {
						"encoding": "inplace",
						"label": "address",
						"numberOfBytes": "20"
					},
					"t_bool": {
						"encoding": "inplace",
						"label": "bool",
						"numberOfBytes": "1"
					},
					"t_string_storage": {
						"encoding": "bytes",
						"label": "string",
						"numberOfBytes": "32"
					},
					"t_uint256": {
						"encoding": "inplace",
						"label": "uint256",
						"numberOfBytes": "32"
					}
				}
			},
			"userdoc": {
				"kind": "user",
				"methods": {},
				"version": 1
			}
		}
	}
}