{
	"contracts/1.TradeAgreement.sol": {
		"TradeAgreement": {
			"abi": [
				{
					"inputs": [
						{
							"internalType": "address",
							"name": "_buyerAddress",
							"type": "address"
						},
						{
							"internalType": "string",
							"name": "_item",
							"type": "string"
						},
						{
							"internalType": "uint256",
							"name": "_price",
							"type": "uint256"
						}
					],
					"stateMutability": "nonpayable",
					"type": "constructor"
				},
				{
					"anonymous": false,
					"inputs": [
						{
							"indexed": true,
							"internalType": "address",
							"name": "buyerAddress",
							"type": "address"
						}
					],
					"name": "BuyerAccepted",
					"type": "event"
				},
				{
					"anonymous": false,
					"inputs": [
						{
							"indexed": true,
							"internalType": "address",
							"name": "sellerAddress",
							"type": "address"
						}
					],
					"name": "SellerAccepted",
					"type": "event"
				},
				{
					"anonymous": false,
					"inputs": [
						{
							"indexed": true,
							"internalType": "address",
							"name": "sellerAddress",
							"type": "address"
						},
						{
							"indexed": true,
							"internalType": "address",
							"name": "buyerAddress",
							"type": "address"
						}
					],
					"name": "TradeCompeleted",
					"type": "event"
				},
				{
					"anonymous": false,
					"inputs": [
						{
							"indexed": true,
							"internalType": "address",
							"name": "sellerAddress",
							"type": "address"
						},
						{
							"indexed": true,
							"internalType": "address",
							"name": "buyerAddress",
							"type": "address"
						},
						{
							"indexed": false,
							"internalType": "uint256",
							"name": "price",
							"type": "uint256"
						},
						{
							"indexed": false,
							"internalType": "string",
							"name": "item",
							"type": "string"
						}
					],
					"name": "TradeCreated",
					"type": "event"
				},
				{
					"inputs": [],
					"name": "acceptTradeAsBuyer",
					"outputs": [],
					"stateMutability": "nonpayable",
					"type": "function"
				},
				{
					"inputs": [],
					"name": "acceptTradeAsSeller",
					"outputs": [],
					"stateMutability": "nonpayable",
					"type": "function"
				},
				{
					"inputs": [],
					"name": "buyerAccepted",
					"outputs": [
						{
							"internalType": "bool",
							"name": "",
							"type": "bool"
						}
					],
					"stateMutability": "view",
					"type": "function"
				},
				{
					"inputs": [],
					"name": "buyerAddress",
					"outputs": [
						{
							"internalType": "address",
							"name": "",
							"type": "address"
						}
					],
					"stateMutability": "view",
					"type": "function"
				},
				{
					"inputs": [],
					"name": "deposit",
					"outputs": [],
					"stateMutability": "payable",
					"type": "function"
				},
				{
					"inputs": [],
					"name": "depositMade",
					"outputs": [
						{
							"internalType": "bool",
							"name": "",
							"type": "bool"
						}
					],
					"stateMutability": "view",
					"type": "function"
				},
				{
					"inputs": [],
					"name": "item",
					"outputs": [
						{
							"internalType": "string",
							"name": "",
							"type": "string"
						}
					],
					"stateMutability": "view",
					"type": "function"
				},
				{
					"inputs": [],
					"name": "price",
					"outputs": [
						{
							"internalType": "uint256",
							"name": "",
							"type": "uint256"
						}
					],
					"stateMutability": "view",
					"type": "function"
				},
				{
					"inputs": [],
					"name": "sellerAccepted",
					"outputs": [
						{
							"internalType": "bool",
							"name": "",
							"type": "bool"
						}
					],
					"stateMutability": "view",
					"type": "function"
				},
				{
					"inputs": [],
					"name": "sellerAddress",
					"outputs": [
						{
							"internalType": "address",
							"name": "",
							"type": "address"
						}
					],
					"stateMutability": "view",
					"type": "function"
				},
				{
					"inputs": [],
					"name": "tradeCompeleted",
					"outputs": [
						{
							"internalType": "bool",
							"name": "",
							"type": "bool"
						}
					],
					"stateMutability": "view",
					"type": "function"
				}
			],
			"devdoc": {
				"kind": "dev",
				"methods": {},
				"version": 1
			},
			"evm": {
				"assembly": "    /* \"contracts/1.TradeAgreement.sol\":58:2427  contract TradeAgreement {... */\n  mstore(0x40, 0x80)\n    /* \"contracts/1.TradeAgreement.sol\":642:871  constructor(... */\n  callvalue\n  dup1\n  iszero\n  tag_1\n  jumpi\n  0x00\n  dup1\n  revert\ntag_1:\n  pop\n  mload(0x40)\n  sub(codesize, bytecodeSize)\n  dup1\n  bytecodeSize\n  dup4\n  codecopy\n  dup2\n  dup2\n  add\n  0x40\n  mstore\n  dup2\n  add\n  swap1\n  tag_2\n  swap2\n  swap1\n  tag_3\n  jump\t// in\ntag_2:\n    /* \"contracts/1.TradeAgreement.sol\":770:780  msg.sender */\n  caller\n    /* \"contracts/1.TradeAgreement.sol\":754:767  sellerAddress */\n  0x00\n  dup1\n    /* \"contracts/1.TradeAgreement.sol\":754:780  sellerAddress = msg.sender */\n  0x0100\n  exp\n  dup2\n  sload\n  dup2\n  0xffffffffffffffffffffffffffffffffffffffff\n  mul\n  not\n  and\n  swap1\n  dup4\n  0xffffffffffffffffffffffffffffffffffffffff\n  and\n  mul\n  or\n  swap1\n  sstore\n  pop\n    /* \"contracts/1.TradeAgreement.sol\":805:818  _buyerAddress */\n  dup3\n    /* \"contracts/1.TradeAgreement.sol\":790:802  buyerAddress */\n  0x01\n  0x00\n    /* \"contracts/1.TradeAgreement.sol\":790:818  buyerAddress = _buyerAddress */\n  0x0100\n  exp\n  dup2\n  sload\n  dup2\n  0xffffffffffffffffffffffffffffffffffffffff\n  mul\n  not\n  and\n  swap1\n  dup4\n  0xffffffffffffffffffffffffffffffffffffffff\n  and\n  mul\n  or\n  swap1\n  sstore\n  pop\n    /* \"contracts/1.TradeAgreement.sol\":835:840  _item */\n  dup2\n    /* \"contracts/1.TradeAgreement.sol\":828:832  item */\n  0x02\n    /* \"contracts/1.TradeAgreement.sol\":828:840  item = _item */\n  swap1\n  dup2\n  tag_6\n  swap2\n  swap1\n  tag_7\n  jump\t// in\ntag_6:\n  pop\n    /* \"contracts/1.TradeAgreement.sol\":858:864  _price */\n  dup1\n    /* \"contracts/1.TradeAgreement.sol\":850:855  price */\n  0x03\n    /* \"contracts/1.TradeAgreement.sol\":850:864  price = _price */\n  dup2\n  swap1\n  sstore\n  pop\n    /* \"contracts/1.TradeAgreement.sol\":642:871  constructor(... */\n  pop\n  pop\n  pop\n    /* \"contracts/1.TradeAgreement.sol\":58:2427  contract TradeAgreement {... */\n  jump(tag_8)\n    /* \"#utility.yul\":7:82   */\ntag_9:\n    /* \"#utility.yul\":40:46   */\n  0x00\n    /* \"#utility.yul\":73:75   */\n  0x40\n    /* \"#utility.yul\":67:76   */\n  mload\n    /* \"#utility.yul\":57:76   */\n  swap1\n  pop\n    /* \"#utility.yul\":7:82   */\n  swap1\n  jump\t// out\n    /* \"#utility.yul\":88:205   */\ntag_10:\n    /* \"#utility.yul\":197:198   */\n  0x00\n    /* \"#utility.yul\":194:195   */\n  dup1\n    /* \"#utility.yul\":187:199   */\n  revert\n    /* \"#utility.yul\":211:328   */\ntag_11:\n    /* \"#utility.yul\":320:321   */\n  0x00\n    /* \"#utility.yul\":317:318   */\n  dup1\n    /* \"#utility.yul\":310:322   */\n  revert\n    /* \"#utility.yul\":334:460   */\ntag_12:\n    /* \"#utility.yul\":371:378   */\n  0x00\n    /* \"#utility.yul\":411:453   */\n  0xffffffffffffffffffffffffffffffffffffffff\n    /* \"#utility.yul\":404:409   */\n  dup3\n    /* \"#utility.yul\":400:454   */\n  and\n    /* \"#utility.yul\":389:454   */\n  swap1\n  pop\n    /* \"#utility.yul\":334:460   */\n  swap2\n  swap1\n  pop\n  jump\t// out\n    /* \"#utility.yul\":466:562   */\ntag_13:\n    /* \"#utility.yul\":503:510   */\n  0x00\n    /* \"#utility.yul\":532:556   */\n  tag_53\n    /* \"#utility.yul\":550:555   */\n  dup3\n    /* \"#utility.yul\":532:556   */\n  tag_12\n  jump\t// in\ntag_53:\n    /* \"#utility.yul\":521:556   */\n  swap1\n  pop\n    /* \"#utility.yul\":466:562   */\n  swap2\n  swap1\n  pop\n  jump\t// out\n    /* \"#utility.yul\":568:690   */\ntag_14:\n    /* \"#utility.yul\":641:665   */\n  tag_55\n    /* \"#utility.yul\":659:664   */\n  dup2\n    /* \"#utility.yul\":641:665   */\n  tag_13\n  jump\t// in\ntag_55:\n    /* \"#utility.yul\":634:639   */\n  dup2\n    /* \"#utility.yul\":631:666   */\n  eq\n    /* \"#utility.yul\":621:684   */\n  tag_56\n  jumpi\n    /* \"#utility.yul\":680:681   */\n  0x00\n    /* \"#utility.yul\":677:678   */\n  dup1\n    /* \"#utility.yul\":670:682   */\n  revert\n    /* \"#utility.yul\":621:684   */\ntag_56:\n    /* \"#utility.yul\":568:690   */\n  pop\n  jump\t// out\n    /* \"#utility.yul\":696:839   */\ntag_15:\n    /* \"#utility.yul\":753:758   */\n  0x00\n    /* \"#utility.yul\":784:790   */\n  dup2\n    /* \"#utility.yul\":778:791   */\n  mload\n    /* \"#utility.yul\":769:791   */\n  swap1\n  pop\n    /* \"#utility.yul\":800:833   */\n  tag_58\n    /* \"#utility.yul\":827:832   */\n  dup2\n    /* \"#utility.yul\":800:833   */\n  tag_14\n  jump\t// in\ntag_58:\n    /* \"#utility.yul\":696:839   */\n  swap3\n  swap2\n  pop\n  pop\n  jump\t// out\n    /* \"#utility.yul\":845:962   */\ntag_16:\n    /* \"#utility.yul\":954:955   */\n  0x00\n    /* \"#utility.yul\":951:952   */\n  dup1\n    /* \"#utility.yul\":944:956   */\n  revert\n    /* \"#utility.yul\":968:1085   */\ntag_17:\n    /* \"#utility.yul\":1077:1078   */\n  0x00\n    /* \"#utility.yul\":1074:1075   */\n  dup1\n    /* \"#utility.yul\":1067:1079   */\n  revert\n    /* \"#utility.yul\":1091:1193   */\ntag_18:\n    /* \"#utility.yul\":1132:1138   */\n  0x00\n    /* \"#utility.yul\":1183:1185   */\n  0x1f\n    /* \"#utility.yul\":1179:1186   */\n  not\n    /* \"#utility.yul\":1174:1176   */\n  0x1f\n    /* \"#utility.yul\":1167:1172   */\n  dup4\n    /* \"#utility.yul\":1163:1177   */\n  add\n    /* \"#utility.yul\":1159:1187   */\n  and\n    /* \"#utility.yul\":1149:1187   */\n  swap1\n  pop\n    /* \"#utility.yul\":1091:1193   */\n  swap2\n  swap1\n  pop\n  jump\t// out\n    /* \"#utility.yul\":1199:1379   */\ntag_19:\n    /* \"#utility.yul\":1247:1324   */\n  0x4e487b7100000000000000000000000000000000000000000000000000000000\n    /* \"#utility.yul\":1244:1245   */\n  0x00\n    /* \"#utility.yul\":1237:1325   */\n  mstore\n    /* \"#utility.yul\":1344:1348   */\n  0x41\n    /* \"#utility.yul\":1341:1342   */\n  0x04\n    /* \"#utility.yul\":1334:1349   */\n  mstore\n    /* \"#utility.yul\":1368:1372   */\n  0x24\n    /* \"#utility.yul\":1365:1366   */\n  0x00\n    /* \"#utility.yul\":1358:1373   */\n  revert\n    /* \"#utility.yul\":1385:1666   */\ntag_20:\n    /* \"#utility.yul\":1468:1495   */\n  tag_64\n    /* \"#utility.yul\":1490:1494   */\n  dup3\n    /* \"#utility.yul\":1468:1495   */\n  tag_18\n  jump\t// in\ntag_64:\n    /* \"#utility.yul\":1460:1466   */\n  dup2\n    /* \"#utility.yul\":1456:1496   */\n  add\n    /* \"#utility.yul\":1598:1604   */\n  dup2\n    /* \"#utility.yul\":1586:1596   */\n  dup2\n    /* \"#utility.yul\":1583:1605   */\n  lt\n    /* \"#utility.yul\":1562:1580   */\n  0xffffffffffffffff\n    /* \"#utility.yul\":1550:1560   */\n  dup3\n    /* \"#utility.yul\":1547:1581   */\n  gt\n    /* \"#utility.yul\":1544:1606   */\n  or\n    /* \"#utility.yul\":1541:1629   */\n  iszero\n  tag_65\n  jumpi\n    /* \"#utility.yul\":1609:1627   */\n  tag_66\n  tag_19\n  jump\t// in\ntag_66:\n    /* \"#utility.yul\":1541:1629   */\ntag_65:\n    /* \"#utility.yul\":1649:1659   */\n  dup1\n    /* \"#utility.yul\":1645:1647   */\n  0x40\n    /* \"#utility.yul\":1638:1660   */\n  mstore\n    /* \"#utility.yul\":1428:1666   */\n  pop\n    /* \"#utility.yul\":1385:1666   */\n  pop\n  pop\n  jump\t// out\n    /* \"#utility.yul\":1672:1801   */\ntag_21:\n    /* \"#utility.yul\":1706:1712   */\n  0x00\n    /* \"#utility.yul\":1733:1753   */\n  tag_68\n  tag_9\n  jump\t// in\ntag_68:\n    /* \"#utility.yul\":1723:1753   */\n  swap1\n  pop\n    /* \"#utility.yul\":1762:1795   */\n  tag_69\n    /* \"#utility.yul\":1790:1794   */\n  dup3\n    /* \"#utility.yul\":1782:1788   */\n  dup3\n    /* \"#utility.yul\":1762:1795   */\n  tag_20\n  jump\t// in\ntag_69:\n    /* \"#utility.yul\":1672:1801   */\n  swap2\n  swap1\n  pop\n  jump\t// out\n    /* \"#utility.yul\":1807:2115   */\ntag_22:\n    /* \"#utility.yul\":1869:1873   */\n  0x00\n    /* \"#utility.yul\":1959:1977   */\n  0xffffffffffffffff\n    /* \"#utility.yul\":1951:1957   */\n  dup3\n    /* \"#utility.yul\":1948:1978   */\n  gt\n    /* \"#utility.yul\":1945:2001   */\n  iszero\n  tag_71\n  jumpi\n    /* \"#utility.yul\":1981:1999   */\n  tag_72\n  tag_19\n  jump\t// in\ntag_72:\n    /* \"#utility.yul\":1945:2001   */\ntag_71:\n    /* \"#utility.yul\":2019:2048   */\n  tag_73\n    /* \"#utility.yul\":2041:2047   */\n  dup3\n    /* \"#utility.yul\":2019:2048   */\n  tag_18\n  jump\t// in\ntag_73:\n    /* \"#utility.yul\":2011:2048   */\n  swap1\n  pop\n    /* \"#utility.yul\":2103:2107   */\n  0x20\n    /* \"#utility.yul\":2097:2101   */\n  dup2\n    /* \"#utility.yul\":2093:2108   */\n  add\n    /* \"#utility.yul\":2085:2108   */\n  swap1\n  pop\n    /* \"#utility.yul\":1807:2115   */\n  swap2\n  swap1\n  pop\n  jump\t// out\n    /* \"#utility.yul\":2121:2260   */\ntag_23:\n    /* \"#utility.yul\":2210:2216   */\n  dup3\n    /* \"#utility.yul\":2205:2208   */\n  dup2\n    /* \"#utility.yul\":2200:2203   */\n  dup4\n    /* \"#utility.yul\":2194:2217   */\n  mcopy\n    /* \"#utility.yul\":2251:2252   */\n  0x00\n    /* \"#utility.yul\":2242:2248   */\n  dup4\n    /* \"#utility.yul\":2237:2240   */\n  dup4\n    /* \"#utility.yul\":2233:2249   */\n  add\n    /* \"#utility.yul\":2226:2253   */\n  mstore\n    /* \"#utility.yul\":2121:2260   */\n  pop\n  pop\n  pop\n  jump\t// out\n    /* \"#utility.yul\":2266:2700   */\ntag_24:\n    /* \"#utility.yul\":2355:2360   */\n  0x00\n    /* \"#utility.yul\":2380:2446   */\n  tag_76\n    /* \"#utility.yul\":2396:2445   */\n  tag_77\n    /* \"#utility.yul\":2438:2444   */\n  dup5\n    /* \"#utility.yul\":2396:2445   */\n  tag_22\n  jump\t// in\ntag_77:\n    /* \"#utility.yul\":2380:2446   */\n  tag_21\n  jump\t// in\ntag_76:\n    /* \"#utility.yul\":2371:2446   */\n  swap1\n  pop\n    /* \"#utility.yul\":2469:2475   */\n  dup3\n    /* \"#utility.yul\":2462:2467   */\n  dup2\n    /* \"#utility.yul\":2455:2476   */\n  mstore\n    /* \"#utility.yul\":2507:2511   */\n  0x20\n    /* \"#utility.yul\":2500:2505   */\n  dup2\n    /* \"#utility.yul\":2496:2512   */\n  add\n    /* \"#utility.yul\":2545:2548   */\n  dup5\n    /* \"#utility.yul\":2536:2542   */\n  dup5\n    /* \"#utility.yul\":2531:2534   */\n  dup5\n    /* \"#utility.yul\":2527:2543   */\n  add\n    /* \"#utility.yul\":2524:2549   */\n  gt\n    /* \"#utility.yul\":2521:2633   */\n  iszero\n  tag_78\n  jumpi\n    /* \"#utility.yul\":2552:2631   */\n  tag_79\n  tag_17\n  jump\t// in\ntag_79:\n    /* \"#utility.yul\":2521:2633   */\ntag_78:\n    /* \"#utility.yul\":2642:2694   */\n  tag_80\n    /* \"#utility.yul\":2687:2693   */\n  dup5\n    /* \"#utility.yul\":2682:2685   */\n  dup3\n    /* \"#utility.yul\":2677:2680   */\n  dup6\n    /* \"#utility.yul\":2642:2694   */\n  tag_23\n  jump\t// in\ntag_80:\n    /* \"#utility.yul\":2361:2700   */\n  pop\n    /* \"#utility.yul\":2266:2700   */\n  swap4\n  swap3\n  pop\n  pop\n  pop\n  jump\t// out\n    /* \"#utility.yul\":2720:3075   */\ntag_25:\n    /* \"#utility.yul\":2787:2792   */\n  0x00\n    /* \"#utility.yul\":2836:2839   */\n  dup3\n    /* \"#utility.yul\":2829:2833   */\n  0x1f\n    /* \"#utility.yul\":2821:2827   */\n  dup4\n    /* \"#utility.yul\":2817:2834   */\n  add\n    /* \"#utility.yul\":2813:2840   */\n  slt\n    /* \"#utility.yul\":2803:2925   */\n  tag_82\n  jumpi\n    /* \"#utility.yul\":2844:2923   */\n  tag_83\n  tag_16\n  jump\t// in\ntag_83:\n    /* \"#utility.yul\":2803:2925   */\ntag_82:\n    /* \"#utility.yul\":2954:2960   */\n  dup2\n    /* \"#utility.yul\":2948:2961   */\n  mload\n    /* \"#utility.yul\":2979:3069   */\n  tag_84\n    /* \"#utility.yul\":3065:3068   */\n  dup5\n    /* \"#utility.yul\":3057:3063   */\n  dup3\n    /* \"#utility.yul\":3050:3054   */\n  0x20\n    /* \"#utility.yul\":3042:3048   */\n  dup7\n    /* \"#utility.yul\":3038:3055   */\n  add\n    /* \"#utility.yul\":2979:3069   */\n  tag_24\n  jump\t// in\ntag_84:\n    /* \"#utility.yul\":2970:3069   */\n  swap2\n  pop\n    /* \"#utility.yul\":2793:3075   */\n  pop\n    /* \"#utility.yul\":2720:3075   */\n  swap3\n  swap2\n  pop\n  pop\n  jump\t// out\n    /* \"#utility.yul\":3081:3158   */\ntag_26:\n    /* \"#utility.yul\":3118:3125   */\n  0x00\n    /* \"#utility.yul\":3147:3152   */\n  dup2\n    /* \"#utility.yul\":3136:3152   */\n  swap1\n  pop\n    /* \"#utility.yul\":3081:3158   */\n  swap2\n  swap1\n  pop\n  jump\t// out\n    /* \"#utility.yul\":3164:3286   */\ntag_27:\n    /* \"#utility.yul\":3237:3261   */\n  tag_87\n    /* \"#utility.yul\":3255:3260   */\n  dup2\n    /* \"#utility.yul\":3237:3261   */\n  tag_26\n  jump\t// in\ntag_87:\n    /* \"#utility.yul\":3230:3235   */\n  dup2\n    /* \"#utility.yul\":3227:3262   */\n  eq\n    /* \"#utility.yul\":3217:3280   */\n  tag_88\n  jumpi\n    /* \"#utility.yul\":3276:3277   */\n  0x00\n    /* \"#utility.yul\":3273:3274   */\n  dup1\n    /* \"#utility.yul\":3266:3278   */\n  revert\n    /* \"#utility.yul\":3217:3280   */\ntag_88:\n    /* \"#utility.yul\":3164:3286   */\n  pop\n  jump\t// out\n    /* \"#utility.yul\":3292:3435   */\ntag_28:\n    /* \"#utility.yul\":3349:3354   */\n  0x00\n    /* \"#utility.yul\":3380:3386   */\n  dup2\n    /* \"#utility.yul\":3374:3387   */\n  mload\n    /* \"#utility.yul\":3365:3387   */\n  swap1\n  pop\n    /* \"#utility.yul\":3396:3429   */\n  tag_90\n    /* \"#utility.yul\":3423:3428   */\n  dup2\n    /* \"#utility.yul\":3396:3429   */\n  tag_27\n  jump\t// in\ntag_90:\n    /* \"#utility.yul\":3292:3435   */\n  swap3\n  swap2\n  pop\n  pop\n  jump\t// out\n    /* \"#utility.yul\":3441:4277   */\ntag_3:\n    /* \"#utility.yul\":3539:3545   */\n  0x00\n    /* \"#utility.yul\":3547:3553   */\n  dup1\n    /* \"#utility.yul\":3555:3561   */\n  0x00\n    /* \"#utility.yul\":3604:3606   */\n  0x60\n    /* \"#utility.yul\":3592:3601   */\n  dup5\n    /* \"#utility.yul\":3583:3590   */\n  dup7\n    /* \"#utility.yul\":3579:3602   */\n  sub\n    /* \"#utility.yul\":3575:3607   */\n  slt\n    /* \"#utility.yul\":3572:3691   */\n  iszero\n  tag_92\n  jumpi\n    /* \"#utility.yul\":3610:3689   */\n  tag_93\n  tag_10\n  jump\t// in\ntag_93:\n    /* \"#utility.yul\":3572:3691   */\ntag_92:\n    /* \"#utility.yul\":3730:3731   */\n  0x00\n    /* \"#utility.yul\":3755:3819   */\n  tag_94\n    /* \"#utility.yul\":3811:3818   */\n  dup7\n    /* \"#utility.yul\":3802:3808   */\n  dup3\n    /* \"#utility.yul\":3791:3800   */\n  dup8\n    /* \"#utility.yul\":3787:3809   */\n  add\n    /* \"#utility.yul\":3755:3819   */\n  tag_15\n  jump\t// in\ntag_94:\n    /* \"#utility.yul\":3745:3819   */\n  swap4\n  pop\n    /* \"#utility.yul\":3701:3829   */\n  pop\n    /* \"#utility.yul\":3889:3891   */\n  0x20\n    /* \"#utility.yul\":3878:3887   */\n  dup5\n    /* \"#utility.yul\":3874:3892   */\n  add\n    /* \"#utility.yul\":3868:3893   */\n  mload\n    /* \"#utility.yul\":3920:3938   */\n  0xffffffffffffffff\n    /* \"#utility.yul\":3912:3918   */\n  dup2\n    /* \"#utility.yul\":3909:3939   */\n  gt\n    /* \"#utility.yul\":3906:4023   */\n  iszero\n  tag_95\n  jumpi\n    /* \"#utility.yul\":3942:4021   */\n  tag_96\n  tag_11\n  jump\t// in\ntag_96:\n    /* \"#utility.yul\":3906:4023   */\ntag_95:\n    /* \"#utility.yul\":4047:4121   */\n  tag_97\n    /* \"#utility.yul\":4113:4120   */\n  dup7\n    /* \"#utility.yul\":4104:4110   */\n  dup3\n    /* \"#utility.yul\":4093:4102   */\n  dup8\n    /* \"#utility.yul\":4089:4111   */\n  add\n    /* \"#utility.yul\":4047:4121   */\n  tag_25\n  jump\t// in\ntag_97:\n    /* \"#utility.yul\":4037:4121   */\n  swap3\n  pop\n    /* \"#utility.yul\":3839:4131   */\n  pop\n    /* \"#utility.yul\":4170:4172   */\n  0x40\n    /* \"#utility.yul\":4196:4260   */\n  tag_98\n    /* \"#utility.yul\":4252:4259   */\n  dup7\n    /* \"#utility.yul\":4243:4249   */\n  dup3\n    /* \"#utility.yul\":4232:4241   */\n  dup8\n    /* \"#utility.yul\":4228:4250   */\n  add\n    /* \"#utility.yul\":4196:4260   */\n  tag_28\n  jump\t// in\ntag_98:\n    /* \"#utility.yul\":4186:4260   */\n  swap2\n  pop\n    /* \"#utility.yul\":4141:4270   */\n  pop\n    /* \"#utility.yul\":3441:4277   */\n  swap3\n  pop\n  swap3\n  pop\n  swap3\n  jump\t// out\n    /* \"#utility.yul\":4283:4382   */\ntag_29:\n    /* \"#utility.yul\":4335:4341   */\n  0x00\n    /* \"#utility.yul\":4369:4374   */\n  dup2\n    /* \"#utility.yul\":4363:4375   */\n  mload\n    /* \"#utility.yul\":4353:4375   */\n  swap1\n  pop\n    /* \"#utility.yul\":4283:4382   */\n  swap2\n  swap1\n  pop\n  jump\t// out\n    /* \"#utility.yul\":4388:4568   */\ntag_30:\n    /* \"#utility.yul\":4436:4513   */\n  0x4e487b7100000000000000000000000000000000000000000000000000000000\n    /* \"#utility.yul\":4433:4434   */\n  0x00\n    /* \"#utility.yul\":4426:4514   */\n  mstore\n    /* \"#utility.yul\":4533:4537   */\n  0x22\n    /* \"#utility.yul\":4530:4531   */\n  0x04\n    /* \"#utility.yul\":4523:4538   */\n  mstore\n    /* \"#utility.yul\":4557:4561   */\n  0x24\n    /* \"#utility.yul\":4554:4555   */\n  0x00\n    /* \"#utility.yul\":4547:4562   */\n  revert\n    /* \"#utility.yul\":4574:4894   */\ntag_31:\n    /* \"#utility.yul\":4618:4624   */\n  0x00\n    /* \"#utility.yul\":4655:4656   */\n  0x02\n    /* \"#utility.yul\":4649:4653   */\n  dup3\n    /* \"#utility.yul\":4645:4657   */\n  div\n    /* \"#utility.yul\":4635:4657   */\n  swap1\n  pop\n    /* \"#utility.yul\":4702:4703   */\n  0x01\n    /* \"#utility.yul\":4696:4700   */\n  dup3\n    /* \"#utility.yul\":4692:4704   */\n  and\n    /* \"#utility.yul\":4723:4741   */\n  dup1\n    /* \"#utility.yul\":4713:4794   */\n  tag_102\n  jumpi\n    /* \"#utility.yul\":4779:4783   */\n  0x7f\n    /* \"#utility.yul\":4771:4777   */\n  dup3\n    /* \"#utility.yul\":4767:4784   */\n  and\n    /* \"#utility.yul\":4757:4784   */\n  swap2\n  pop\n    /* \"#utility.yul\":4713:4794   */\ntag_102:\n    /* \"#utility.yul\":4841:4843   */\n  0x20\n    /* \"#utility.yul\":4833:4839   */\n  dup3\n    /* \"#utility.yul\":4830:4844   */\n  lt\n    /* \"#utility.yul\":4810:4828   */\n  dup2\n    /* \"#utility.yul\":4807:4845   */\n  sub\n    /* \"#utility.yul\":4804:4888   */\n  tag_103\n  jumpi\n    /* \"#utility.yul\":4860:4878   */\n  tag_104\n  tag_30\n  jump\t// in\ntag_104:\n    /* \"#utility.yul\":4804:4888   */\ntag_103:\n    /* \"#utility.yul\":4625:4894   */\n  pop\n    /* \"#utility.yul\":4574:4894   */\n  swap2\n  swap1\n  pop\n  jump\t// out\n    /* \"#utility.yul\":4900:5041   */\ntag_32:\n    /* \"#utility.yul\":4949:4953   */\n  0x00\n    /* \"#utility.yul\":4972:4975   */\n  dup2\n    /* \"#utility.yul\":4964:4975   */\n  swap1\n  pop\n    /* \"#utility.yul\":4995:4998   */\n  dup2\n    /* \"#utility.yul\":4992:4993   */\n  0x00\n    /* \"#utility.yul\":4985:4999   */\n  mstore\n    /* \"#utility.yul\":5029:5033   */\n  0x20\n    /* \"#utility.yul\":5026:5027   */\n  0x00\n    /* \"#utility.yul\":5016:5034   */\n  keccak256\n    /* \"#utility.yul\":5008:5034   */\n  swap1\n  pop\n    /* \"#utility.yul\":4900:5041   */\n  swap2\n  swap1\n  pop\n  jump\t// out\n    /* \"#utility.yul\":5047:5140   */\ntag_33:\n    /* \"#utility.yul\":5084:5090   */\n  0x00\n    /* \"#utility.yul\":5131:5133   */\n  0x20\n    /* \"#utility.yul\":5126:5128   */\n  0x1f\n    /* \"#utility.yul\":5119:5124   */\n  dup4\n    /* \"#utility.yul\":5115:5129   */\n  add\n    /* \"#utility.yul\":5111:5134   */\n  div\n    /* \"#utility.yul\":5101:5134   */\n  swap1\n  pop\n    /* \"#utility.yul\":5047:5140   */\n  swap2\n  swap1\n  pop\n  jump\t// out\n    /* \"#utility.yul\":5146:5253   */\ntag_34:\n    /* \"#utility.yul\":5190:5198   */\n  0x00\n    /* \"#utility.yul\":5240:5245   */\n  dup3\n    /* \"#utility.yul\":5234:5238   */\n  dup3\n    /* \"#utility.yul\":5230:5246   */\n  shl\n    /* \"#utility.yul\":5209:5246   */\n  swap1\n  pop\n    /* \"#utility.yul\":5146:5253   */\n  swap3\n  swap2\n  pop\n  pop\n  jump\t// out\n    /* \"#utility.yul\":5259:5652   */\ntag_35:\n    /* \"#utility.yul\":5328:5334   */\n  0x00\n    /* \"#utility.yul\":5378:5379   */\n  0x08\n    /* \"#utility.yul\":5366:5376   */\n  dup4\n    /* \"#utility.yul\":5362:5380   */\n  mul\n    /* \"#utility.yul\":5401:5498   */\n  tag_109\n    /* \"#utility.yul\":5431:5497   */\n  0xffffffffffffffffffffffffffffffffffffffffffffffffffffffffffffffff\n    /* \"#utility.yul\":5420:5429   */\n  dup3\n    /* \"#utility.yul\":5401:5498   */\n  tag_34\n  jump\t// in\ntag_109:\n    /* \"#utility.yul\":5519:5558   */\n  tag_110\n    /* \"#utility.yul\":5549:5557   */\n  dup7\n    /* \"#utility.yul\":5538:5547   */\n  dup4\n    /* \"#utility.yul\":5519:5558   */\n  tag_34\n  jump\t// in\ntag_110:\n    /* \"#utility.yul\":5507:5558   */\n  swap6\n  pop\n    /* \"#utility.yul\":5591:5595   */\n  dup1\n    /* \"#utility.yul\":5587:5596   */\n  not\n    /* \"#utility.yul\":5580:5585   */\n  dup5\n    /* \"#utility.yul\":5576:5597   */\n  and\n    /* \"#utility.yul\":5567:5597   */\n  swap4\n  pop\n    /* \"#utility.yul\":5640:5644   */\n  dup1\n    /* \"#utility.yul\":5630:5638   */\n  dup7\n    /* \"#utility.yul\":5626:5645   */\n  and\n    /* \"#utility.yul\":5619:5624   */\n  dup5\n    /* \"#utility.yul\":5616:5646   */\n  or\n    /* \"#utility.yul\":5606:5646   */\n  swap3\n  pop\n    /* \"#utility.yul\":5335:5652   */\n  pop\n  pop\n    /* \"#utility.yul\":5259:5652   */\n  swap4\n  swap3\n  pop\n  pop\n  pop\n  jump\t// out\n    /* \"#utility.yul\":5658:5718   */\ntag_36:\n    /* \"#utility.yul\":5686:5689   */\n  0x00\n    /* \"#utility.yul\":5707:5712   */\n  dup2\n    /* \"#utility.yul\":5700:5712   */\n  swap1\n  pop\n    /* \"#utility.yul\":5658:5718   */\n  swap2\n  swap1\n  pop\n  jump\t// out\n    /* \"#utility.yul\":5724:5866   */\ntag_37:\n    /* \"#utility.yul\":5774:5783   */\n  0x00\n    /* \"#utility.yul\":5807:5860   */\n  tag_113\n    /* \"#utility.yul\":5825:5859   */\n  tag_114\n    /* \"#utility.yul\":5834:5858   */\n  tag_115\n    /* \"#utility.yul\":5852:5857   */\n  dup5\n    /* \"#utility.yul\":5834:5858   */\n  tag_26\n  jump\t// in\ntag_115:\n    /* \"#utility.yul\":5825:5859   */\n  tag_36\n  jump\t// in\ntag_114:\n    /* \"#utility.yul\":5807:5860   */\n  tag_26\n  jump\t// in\ntag_113:\n    /* \"#utility.yul\":5794:5860   */\n  swap1\n  pop\n    /* \"#utility.yul\":5724:5866   */\n  swap2\n  swap1\n  pop\n  jump\t// out\n    /* \"#utility.yul\":5872:5947   */\ntag_38:\n    /* \"#utility.yul\":5915:5918   */\n  0x00\n    /* \"#utility.yul\":5936:5941   */\n  dup2\n    /* \"#utility.yul\":5929:5941   */\n  swap1\n  pop\n    /* \"#utility.yul\":5872:5947   */\n  swap2\n  swap1\n  pop\n  jump\t// out\n    /* \"#utility.yul\":5953:6222   */\ntag_39:\n    /* \"#utility.yul\":6063:6102   */\n  tag_118\n    /* \"#utility.yul\":6094:6101   */\n  dup4\n    /* \"#utility.yul\":6063:6102   */\n  tag_37\n  jump\t// in\ntag_118:\n    /* \"#utility.yul\":6124:6215   */\n  tag_119\n    /* \"#utility.yul\":6173:6214   */\n  tag_120\n    /* \"#utility.yul\":6197:6213   */\n  dup3\n    /* \"#utility.yul\":6173:6214   */\n  tag_38\n  jump\t// in\ntag_120:\n    /* \"#utility.yul\":6165:6171   */\n  dup5\n    /* \"#utility.yul\":6158:6162   */\n  dup5\n    /* \"#utility.yul\":6152:6163   */\n  sload\n    /* \"#utility.yul\":6124:6215   */\n  tag_35\n  jump\t// in\ntag_119:\n    /* \"#utility.yul\":6118:6122   */\n  dup3\n    /* \"#utility.yul\":6111:6216   */\n  sstore\n    /* \"#utility.yul\":6029:6222   */\n  pop\n    /* \"#utility.yul\":5953:6222   */\n  pop\n  pop\n  pop\n  jump\t// out\n    /* \"#utility.yul\":6228:6301   */\ntag_40:\n    /* \"#utility.yul\":6273:6276   */\n  0x00\n    /* \"#utility.yul\":6228:6301   */\n  swap1\n  jump\t// out\n    /* \"#utility.yul\":6307:6496   */\ntag_41:\n    /* \"#utility.yul\":6384:6416   */\n  tag_123\n  tag_40\n  jump\t// in\ntag_123:\n    /* \"#utility.yul\":6425:6490   */\n  tag_124\n    /* \"#utility.yul\":6483:6489   */\n  dup2\n    /* \"#utility.yul\":6475:6481   */\n  dup5\n    /* \"#utility.yul\":6469:6473   */\n  dup5\n    /* \"#utility.yul\":6425:6490   */\n  tag_39\n  jump\t// in\ntag_124:\n    /* \"#utility.yul\":6360:6496   */\n  pop\n    /* \"#utility.yul\":6307:6496   */\n  pop\n  pop\n  jump\t// out\n    /* \"#utility.yul\":6502:6688   */\ntag_42:\n    /* \"#utility.yul\":6562:6682   */\ntag_126:\n    /* \"#utility.yul\":6579:6582   */\n  dup2\n    /* \"#utility.yul\":6572:6577   */\n  dup2\n    /* \"#utility.yul\":6569:6583   */\n  lt\n    /* \"#utility.yul\":6562:6682   */\n  iszero\n  tag_128\n  jumpi\n    /* \"#utility.yul\":6633:6672   */\n  tag_129\n    /* \"#utility.yul\":6670:6671   */\n  0x00\n    /* \"#utility.yul\":6663:6668   */\n  dup3\n    /* \"#utility.yul\":6633:6672   */\n  tag_41\n  jump\t// in\ntag_129:\n    /* \"#utility.yul\":6606:6607   */\n  0x01\n    /* \"#utility.yul\":6599:6604   */\n  dup2\n    /* \"#utility.yul\":6595:6608   */\n  add\n    /* \"#utility.yul\":6586:6608   */\n  swap1\n  pop\n    /* \"#utility.yul\":6562:6682   */\n  jump(tag_126)\ntag_128:\n    /* \"#utility.yul\":6502:6688   */\n  pop\n  pop\n  jump\t// out\n    /* \"#utility.yul\":6694:7237   */\ntag_43:\n    /* \"#utility.yul\":6795:6797   */\n  0x1f\n    /* \"#utility.yul\":6790:6793   */\n  dup3\n    /* \"#utility.yul\":6787:6798   */\n  gt\n    /* \"#utility.yul\":6784:7230   */\n  iszero\n  tag_131\n  jumpi\n    /* \"#utility.yul\":6829:6867   */\n  tag_132\n    /* \"#utility.yul\":6861:6866   */\n  dup2\n    /* \"#utility.yul\":6829:6867   */\n  tag_32\n  jump\t// in\ntag_132:\n    /* \"#utility.yul\":6913:6942   */\n  tag_133\n    /* \"#utility.yul\":6931:6941   */\n  dup5\n    /* \"#utility.yul\":6913:6942   */\n  tag_33\n  jump\t// in\ntag_133:\n    /* \"#utility.yul\":6903:6911   */\n  dup2\n    /* \"#utility.yul\":6899:6943   */\n  add\n    /* \"#utility.yul\":7096:7098   */\n  0x20\n    /* \"#utility.yul\":7084:7094   */\n  dup6\n    /* \"#utility.yul\":7081:7099   */\n  lt\n    /* \"#utility.yul\":7078:7127   */\n  iszero\n  tag_134\n  jumpi\n    /* \"#utility.yul\":7117:7125   */\n  dup2\n    /* \"#utility.yul\":7102:7125   */\n  swap1\n  pop\n    /* \"#utility.yul\":7078:7127   */\ntag_134:\n    /* \"#utility.yul\":7140:7220   */\n  tag_135\n    /* \"#utility.yul\":7196:7218   */\n  tag_136\n    /* \"#utility.yul\":7214:7217   */\n  dup6\n    /* \"#utility.yul\":7196:7218   */\n  tag_33\n  jump\t// in\ntag_136:\n    /* \"#utility.yul\":7186:7194   */\n  dup4\n    /* \"#utility.yul\":7182:7219   */\n  add\n    /* \"#utility.yul\":7169:7180   */\n  dup3\n    /* \"#utility.yul\":7140:7220   */\n  tag_42\n  jump\t// in\ntag_135:\n    /* \"#utility.yul\":6799:7230   */\n  pop\n  pop\n    /* \"#utility.yul\":6784:7230   */\ntag_131:\n    /* \"#utility.yul\":6694:7237   */\n  pop\n  pop\n  pop\n  jump\t// out\n    /* \"#utility.yul\":7243:7360   */\ntag_44:\n    /* \"#utility.yul\":7297:7305   */\n  0x00\n    /* \"#utility.yul\":7347:7352   */\n  dup3\n    /* \"#utility.yul\":7341:7345   */\n  dup3\n    /* \"#utility.yul\":7337:7353   */\n  shr\n    /* \"#utility.yul\":7316:7353   */\n  swap1\n  pop\n    /* \"#utility.yul\":7243:7360   */\n  swap3\n  swap2\n  pop\n  pop\n  jump\t// out\n    /* \"#utility.yul\":7366:7535   */\ntag_45:\n    /* \"#utility.yul\":7410:7416   */\n  0x00\n    /* \"#utility.yul\":7443:7494   */\n  tag_139\n    /* \"#utility.yul\":7491:7492   */\n  0x00\n    /* \"#utility.yul\":7487:7493   */\n  not\n    /* \"#utility.yul\":7479:7484   */\n  dup5\n    /* \"#utility.yul\":7476:7477   */\n  0x08\n    /* \"#utility.yul\":7472:7485   */\n  mul\n    /* \"#utility.yul\":7443:7494   */\n  tag_44\n  jump\t// in\ntag_139:\n    /* \"#utility.yul\":7439:7495   */\n  not\n    /* \"#utility.yul\":7524:7528   */\n  dup1\n    /* \"#utility.yul\":7518:7522   */\n  dup4\n    /* \"#utility.yul\":7514:7529   */\n  and\n    /* \"#utility.yul\":7504:7529   */\n  swap2\n  pop\n    /* \"#utility.yul\":7417:7535   */\n  pop\n    /* \"#utility.yul\":7366:7535   */\n  swap3\n  swap2\n  pop\n  pop\n  jump\t// out\n    /* \"#utility.yul\":7540:7835   */\ntag_46:\n    /* \"#utility.yul\":7616:7620   */\n  0x00\n    /* \"#utility.yul\":7762:7791   */\n  tag_141\n    /* \"#utility.yul\":7787:7790   */\n  dup4\n    /* \"#utility.yul\":7781:7785   */\n  dup4\n    /* \"#utility.yul\":7762:7791   */\n  tag_45\n  jump\t// in\ntag_141:\n    /* \"#utility.yul\":7754:7791   */\n  swap2\n  pop\n    /* \"#utility.yul\":7824:7827   */\n  dup3\n    /* \"#utility.yul\":7821:7822   */\n  0x02\n    /* \"#utility.yul\":7817:7828   */\n  mul\n    /* \"#utility.yul\":7811:7815   */\n  dup3\n    /* \"#utility.yul\":7808:7829   */\n  or\n    /* \"#utility.yul\":7800:7829   */\n  swap1\n  pop\n    /* \"#utility.yul\":7540:7835   */\n  swap3\n  swap2\n  pop\n  pop\n  jump\t// out\n    /* \"#utility.yul\":7840:9235   */\ntag_7:\n    /* \"#utility.yul\":7957:7994   */\n  tag_143\n    /* \"#utility.yul\":7990:7993   */\n  dup3\n    /* \"#utility.yul\":7957:7994   */\n  tag_29\n  jump\t// in\ntag_143:\n    /* \"#utility.yul\":8059:8077   */\n  0xffffffffffffffff\n    /* \"#utility.yul\":8051:8057   */\n  dup2\n    /* \"#utility.yul\":8048:8078   */\n  gt\n    /* \"#utility.yul\":8045:8101   */\n  iszero\n  tag_144\n  jumpi\n    /* \"#utility.yul\":8081:8099   */\n  tag_145\n  tag_19\n  jump\t// in\ntag_145:\n    /* \"#utility.yul\":8045:8101   */\ntag_144:\n    /* \"#utility.yul\":8125:8163   */\n  tag_146\n    /* \"#utility.yul\":8157:8161   */\n  dup3\n    /* \"#utility.yul\":8151:8162   */\n  sload\n    /* \"#utility.yul\":8125:8163   */\n  tag_31\n  jump\t// in\ntag_146:\n    /* \"#utility.yul\":8210:8277   */\n  tag_147\n    /* \"#utility.yul\":8270:8276   */\n  dup3\n    /* \"#utility.yul\":8262:8268   */\n  dup3\n    /* \"#utility.yul\":8256:8260   */\n  dup6\n    /* \"#utility.yul\":8210:8277   */\n  tag_43\n  jump\t// in\ntag_147:\n    /* \"#utility.yul\":8304:8305   */\n  0x00\n    /* \"#utility.yul\":8328:8332   */\n  0x20\n    /* \"#utility.yul\":8315:8332   */\n  swap1\n  pop\n    /* \"#utility.yul\":8360:8362   */\n  0x1f\n    /* \"#utility.yul\":8352:8358   */\n  dup4\n    /* \"#utility.yul\":8349:8363   */\n  gt\n    /* \"#utility.yul\":8377:8378   */\n  0x01\n    /* \"#utility.yul\":8372:8990   */\n  dup2\n  eq\n  tag_149\n  jumpi\n    /* \"#utility.yul\":9034:9035   */\n  0x00\n    /* \"#utility.yul\":9051:9057   */\n  dup5\n    /* \"#utility.yul\":9048:9125   */\n  iszero\n  tag_150\n  jumpi\n    /* \"#utility.yul\":9100:9109   */\n  dup3\n    /* \"#utility.yul\":9095:9098   */\n  dup8\n    /* \"#utility.yul\":9091:9110   */\n  add\n    /* \"#utility.yul\":9085:9111   */\n  mload\n    /* \"#utility.yul\":9076:9111   */\n  swap1\n  pop\n    /* \"#utility.yul\":9048:9125   */\ntag_150:\n    /* \"#utility.yul\":9151:9218   */\n  tag_151\n    /* \"#utility.yul\":9211:9217   */\n  dup6\n    /* \"#utility.yul\":9204:9209   */\n  dup3\n    /* \"#utility.yul\":9151:9218   */\n  tag_46\n  jump\t// in\ntag_151:\n    /* \"#utility.yul\":9145:9149   */\n  dup7\n    /* \"#utility.yul\":9138:9219   */\n  sstore\n    /* \"#utility.yul\":9007:9229   */\n  pop\n    /* \"#utility.yul\":8342:9229   */\n  jump(tag_148)\n    /* \"#utility.yul\":8372:8990   */\ntag_149:\n    /* \"#utility.yul\":8424:8428   */\n  0x1f\n    /* \"#utility.yul\":8420:8429   */\n  not\n    /* \"#utility.yul\":8412:8418   */\n  dup5\n    /* \"#utility.yul\":8408:8430   */\n  and\n    /* \"#utility.yul\":8458:8495   */\n  tag_152\n    /* \"#utility.yul\":8490:8494   */\n  dup7\n    /* \"#utility.yul\":8458:8495   */\n  tag_32\n  jump\t// in\ntag_152:\n    /* \"#utility.yul\":8517:8518   */\n  0x00\n    /* \"#utility.yul\":8531:8739   */\ntag_153:\n    /* \"#utility.yul\":8545:8552   */\n  dup3\n    /* \"#utility.yul\":8542:8543   */\n  dup2\n    /* \"#utility.yul\":8539:8553   */\n  lt\n    /* \"#utility.yul\":8531:8739   */\n  iszero\n  tag_155\n  jumpi\n    /* \"#utility.yul\":8624:8633   */\n  dup5\n    /* \"#utility.yul\":8619:8622   */\n  dup10\n    /* \"#utility.yul\":8615:8634   */\n  add\n    /* \"#utility.yul\":8609:8635   */\n  mload\n    /* \"#utility.yul\":8601:8607   */\n  dup3\n    /* \"#utility.yul\":8594:8636   */\n  sstore\n    /* \"#utility.yul\":8675:8676   */\n  0x01\n    /* \"#utility.yul\":8667:8673   */\n  dup3\n    /* \"#utility.yul\":8663:8677   */\n  add\n    /* \"#utility.yul\":8653:8677   */\n  swap2\n  pop\n    /* \"#utility.yul\":8722:8724   */\n  0x20\n    /* \"#utility.yul\":8711:8720   */\n  dup6\n    /* \"#utility.yul\":8707:8725   */\n  add\n    /* \"#utility.yul\":8694:8725   */\n  swap5\n  pop\n    /* \"#utility.yul\":8568:8572   */\n  0x20\n    /* \"#utility.yul\":8565:8566   */\n  dup2\n    /* \"#utility.yul\":8561:8573   */\n  add\n    /* \"#utility.yul\":8556:8573   */\n  swap1\n  pop\n    /* \"#utility.yul\":8531:8739   */\n  jump(tag_153)\ntag_155:\n    /* \"#utility.yul\":8767:8773   */\n  dup7\n    /* \"#utility.yul\":8758:8765   */\n  dup4\n    /* \"#utility.yul\":8755:8774   */\n  lt\n    /* \"#utility.yul\":8752:8931   */\n  iszero\n  tag_156\n  jumpi\n    /* \"#utility.yul\":8825:8834   */\n  dup5\n    /* \"#utility.yul\":8820:8823   */\n  dup10\n    /* \"#utility.yul\":8816:8835   */\n  add\n    /* \"#utility.yul\":8810:8836   */\n  mload\n    /* \"#utility.yul\":8868:8916   */\n  tag_157\n    /* \"#utility.yul\":8910:8914   */\n  0x1f\n    /* \"#utility.yul\":8902:8908   */\n  dup10\n    /* \"#utility.yul\":8898:8915   */\n  and\n    /* \"#utility.yul\":8887:8896   */\n  dup3\n    /* \"#utility.yul\":8868:8916   */\n  tag_45\n  jump\t// in\ntag_157:\n    /* \"#utility.yul\":8860:8866   */\n  dup4\n    /* \"#utility.yul\":8853:8917   */\n  sstore\n    /* \"#utility.yul\":8775:8931   */\n  pop\n    /* \"#utility.yul\":8752:8931   */\ntag_156:\n    /* \"#utility.yul\":8977:8978   */\n  0x01\n    /* \"#utility.yul\":8973:8974   */\n  0x02\n    /* \"#utility.yul\":8965:8971   */\n  dup9\n    /* \"#utility.yul\":8961:8975   */\n  mul\n    /* \"#utility.yul\":8957:8979   */\n  add\n    /* \"#utility.yul\":8951:8955   */\n  dup9\n    /* \"#utility.yul\":8944:8980   */\n  sstore\n    /* \"#utility.yul\":8379:8990   */\n  pop\n  pop\n  pop\n    /* \"#utility.yul\":8342:9229   */\ntag_148:\n  pop\n    /* \"#utility.yul\":7932:9235   */\n  pop\n  pop\n  pop\n    /* \"#utility.yul\":7840:9235   */\n  pop\n  pop\n  jump\t// out\n    /* \"contracts/1.TradeAgreement.sol\":58:2427  contract TradeAgreement {... */\ntag_8:\n  dataSize(sub_0)\n  dup1\n  dataOffset(sub_0)\n  0x00\n  codecopy\n  0x00\n  return\nstop\n\nsub_0: assembly {\n        /* \"contracts/1.TradeAgreement.sol\":58:2427  contract TradeAgreement {... */\n      mstore(0x40, 0x80)\n      jumpi(tag_1, lt(calldatasize, 0x04))\n      shr(0xe0, calldataload(0x00))\n      dup1\n      0x532ca457\n      gt\n      tag_13\n      jumpi\n      dup1\n      0x532ca457\n      eq\n      tag_7\n      jumpi\n      dup1\n      0x61b60f6b\n      eq\n      tag_8\n      jumpi\n      dup1\n      0xa035b1fe\n      eq\n      tag_9\n      jumpi\n      dup1\n      0xa795c2ce\n      eq\n      tag_10\n      jumpi\n      dup1\n      0xd0e30db0\n      eq\n      tag_11\n      jumpi\n      dup1\n      0xf2a4a82e\n      eq\n      tag_12\n      jumpi\n      jump(tag_1)\n    tag_13:\n      dup1\n      0x039e3e05\n      eq\n      tag_2\n      jumpi\n      dup1\n      0x1be427cc\n      eq\n      tag_3\n      jumpi\n      dup1\n      0x2312fff7\n      eq\n      tag_4\n      jumpi\n      dup1\n      0x3d9b2ae6\n      eq\n      tag_5\n      jumpi\n      dup1\n      0x44834aca\n      eq\n      tag_6\n      jumpi\n    tag_1:\n      0x00\n      dup1\n      revert\n        /* \"contracts/1.TradeAgreement.sol\":1516:1839  function acceptTradeAsSeller() public onlySeller {... */\n    tag_2:\n      callvalue\n      dup1\n      iszero\n      tag_14\n      jumpi\n      0x00\n      dup1\n      revert\n    tag_14:\n      pop\n      tag_15\n      tag_16\n      jump\t// in\n    tag_15:\n      stop\n        /* \"contracts/1.TradeAgreement.sol\":301:324  bool public depositMade */\n    tag_3:\n      callvalue\n      dup1\n      iszero\n      tag_17\n      jumpi\n      0x00\n      dup1\n      revert\n    tag_17:\n      pop\n      tag_18\n      tag_19\n      jump\t// in\n    tag_18:\n      mload(0x40)\n      tag_20\n      swap2\n      swap1\n      tag_21\n      jump\t// in\n    tag_20:\n      mload(0x40)\n      dup1\n      swap2\n      sub\n      swap1\n      return\n        /* \"contracts/1.TradeAgreement.sol\":205:230  bool public buyerAccepted */\n    tag_4:\n      callvalue\n      dup1\n      iszero\n      tag_22\n      jumpi\n      0x00\n      dup1\n      revert\n    tag_22:\n      pop\n      tag_23\n      tag_24\n      jump\t// in\n    tag_23:\n      mload(0x40)\n      tag_25\n      swap2\n      swap1\n      tag_21\n      jump\t// in\n    tag_25:\n      mload(0x40)\n      dup1\n      swap2\n      sub\n      swap1\n      return\n        /* \"contracts/1.TradeAgreement.sol\":88:116  address public sellerAddress */\n    tag_5:\n      callvalue\n      dup1\n      iszero\n      tag_26\n      jumpi\n      0x00\n      dup1\n      revert\n    tag_26:\n      pop\n      tag_27\n      tag_28\n      jump\t// in\n    tag_27:\n      mload(0x40)\n      tag_29\n      swap2\n      swap1\n      tag_30\n      jump\t// in\n    tag_29:\n      mload(0x40)\n      dup1\n      swap2\n      sub\n      swap1\n      return\n        /* \"contracts/1.TradeAgreement.sol\":122:149  address public buyerAddress */\n    tag_6:\n      callvalue\n      dup1\n      iszero\n      tag_31\n      jumpi\n      0x00\n      dup1\n      revert\n    tag_31:\n      pop\n      tag_32\n      tag_33\n      jump\t// in\n    tag_32:\n      mload(0x40)\n      tag_34\n      swap2\n      swap1\n      tag_30\n      jump\t// in\n    tag_34:\n      mload(0x40)\n      dup1\n      swap2\n      sub\n      swap1\n      return\n        /* \"contracts/1.TradeAgreement.sol\":1845:2078  function acceptTradeAsBuyer() public onlyBuyer {... */\n    tag_7:\n      callvalue\n      dup1\n      iszero\n      tag_35\n      jumpi\n      0x00\n      dup1\n      revert\n    tag_35:\n      pop\n      tag_36\n      tag_37\n      jump\t// in\n    tag_36:\n      stop\n        /* \"contracts/1.TradeAgreement.sol\":236:262  bool public sellerAccepted */\n    tag_8:\n      callvalue\n      dup1\n      iszero\n      tag_38\n      jumpi\n      0x00\n      dup1\n      revert\n    tag_38:\n      pop\n      tag_39\n      tag_40\n      jump\t// in\n    tag_39:\n      mload(0x40)\n      tag_41\n      swap2\n      swap1\n      tag_21\n      jump\t// in\n    tag_41:\n      mload(0x40)\n      dup1\n      swap2\n      sub\n      swap1\n      return\n        /* \"contracts/1.TradeAgreement.sol\":179:199  uint256 public price */\n    tag_9:\n      callvalue\n      dup1\n      iszero\n      tag_42\n      jumpi\n      0x00\n      dup1\n      revert\n    tag_42:\n      pop\n      tag_43\n      tag_44\n      jump\t// in\n    tag_43:\n      mload(0x40)\n      tag_45\n      swap2\n      swap1\n      tag_46\n      jump\t// in\n    tag_45:\n      mload(0x40)\n      dup1\n      swap2\n      sub\n      swap1\n      return\n        /* \"contracts/1.TradeAgreement.sol\":268:295  bool public tradeCompeleted */\n    tag_10:\n      callvalue\n      dup1\n      iszero\n      tag_47\n      jumpi\n      0x00\n      dup1\n      revert\n    tag_47:\n      pop\n      tag_48\n      tag_49\n      jump\t// in\n    tag_48:\n      mload(0x40)\n      tag_50\n      swap2\n      swap1\n      tag_21\n      jump\t// in\n    tag_50:\n      mload(0x40)\n      dup1\n      swap2\n      sub\n      swap1\n      return\n        /* \"contracts/1.TradeAgreement.sol\":1202:1510  function deposit() public payable onlyBuyer {... */\n    tag_11:\n      tag_51\n      tag_52\n      jump\t// in\n    tag_51:\n      stop\n        /* \"contracts/1.TradeAgreement.sol\":155:173  string public item */\n    tag_12:\n      callvalue\n      dup1\n      iszero\n      tag_53\n      jumpi\n      0x00\n      dup1\n      revert\n    tag_53:\n      pop\n      tag_54\n      tag_55\n      jump\t// in\n    tag_54:\n      mload(0x40)\n      tag_56\n      swap2\n      swap1\n      tag_57\n      jump\t// in\n    tag_56:\n      mload(0x40)\n      dup1\n      swap2\n      sub\n      swap1\n      return\n        /* \"contracts/1.TradeAgreement.sol\":1516:1839  function acceptTradeAsSeller() public onlySeller {... */\n    tag_16:\n        /* \"contracts/1.TradeAgreement.sol\":1105:1118  sellerAddress */\n      0x00\n      dup1\n      sload\n      swap1\n      0x0100\n      exp\n      swap1\n      div\n      0xffffffffffffffffffffffffffffffffffffffff\n      and\n        /* \"contracts/1.TradeAgreement.sol\":1091:1118  msg.sender == sellerAddress */\n      0xffffffffffffffffffffffffffffffffffffffff\n      and\n        /* \"contracts/1.TradeAgreement.sol\":1091:1101  msg.sender */\n      caller\n        /* \"contracts/1.TradeAgreement.sol\":1091:1118  msg.sender == sellerAddress */\n      0xffffffffffffffffffffffffffffffffffffffff\n      and\n      eq\n        /* \"contracts/1.TradeAgreement.sol\":1070:1178  require(... */\n      tag_59\n      jumpi\n      mload(0x40)\n      0x08c379a000000000000000000000000000000000000000000000000000000000\n      dup2\n      mstore\n      0x04\n      add\n      tag_60\n      swap1\n      tag_61\n      jump\t// in\n    tag_60:\n      mload(0x40)\n      dup1\n      swap2\n      sub\n      swap1\n      revert\n    tag_59:\n        /* \"contracts/1.TradeAgreement.sol\":1614:1619  false */\n      0x00\n        /* \"contracts/1.TradeAgreement.sol\":1596:1619  sellerAccepted == false */\n      iszero\n      iszero\n        /* \"contracts/1.TradeAgreement.sol\":1596:1610  sellerAccepted */\n      0x04\n      0x01\n      swap1\n      sload\n      swap1\n      0x0100\n      exp\n      swap1\n      div\n      0xff\n      and\n        /* \"contracts/1.TradeAgreement.sol\":1596:1619  sellerAccepted == false */\n      iszero\n      iszero\n      eq\n        /* \"contracts/1.TradeAgreement.sol\":1575:1682  require(... */\n      tag_63\n      jumpi\n      mload(0x40)\n      0x08c379a000000000000000000000000000000000000000000000000000000000\n      dup2\n      mstore\n      0x04\n      add\n      tag_64\n      swap1\n      tag_65\n      jump\t// in\n    tag_64:\n      mload(0x40)\n      dup1\n      swap2\n      sub\n      swap1\n      revert\n    tag_63:\n        /* \"contracts/1.TradeAgreement.sol\":1700:1711  depositMade */\n      0x04\n      0x03\n      swap1\n      sload\n      swap1\n      0x0100\n      exp\n      swap1\n      div\n      0xff\n      and\n        /* \"contracts/1.TradeAgreement.sol\":1692:1732  require(depositMade, \"Deposit not made\") */\n      tag_66\n      jumpi\n      mload(0x40)\n      0x08c379a000000000000000000000000000000000000000000000000000000000\n      dup2\n      mstore\n      0x04\n      add\n      tag_67\n      swap1\n      tag_68\n      jump\t// in\n    tag_67:\n      mload(0x40)\n      dup1\n      swap2\n      sub\n      swap1\n      revert\n    tag_66:\n        /* \"contracts/1.TradeAgreement.sol\":1759:1763  true */\n      0x01\n        /* \"contracts/1.TradeAgreement.sol\":1742:1756  sellerAccepted */\n      0x04\n      0x01\n        /* \"contracts/1.TradeAgreement.sol\":1742:1763  sellerAccepted = true */\n      0x0100\n      exp\n      dup2\n      sload\n      dup2\n      0xff\n      mul\n      not\n      and\n      swap1\n      dup4\n      iszero\n      iszero\n      mul\n      or\n      swap1\n      sstore\n      pop\n        /* \"contracts/1.TradeAgreement.sol\":1793:1806  sellerAddress */\n      0x00\n      dup1\n      sload\n      swap1\n      0x0100\n      exp\n      swap1\n      div\n      0xffffffffffffffffffffffffffffffffffffffff\n      and\n        /* \"contracts/1.TradeAgreement.sol\":1778:1807  SellerAccepted(sellerAddress) */\n      0xffffffffffffffffffffffffffffffffffffffff\n      and\n      0xe8b2bddd4b7daeaba32be7d8f242b974e1dcd03366dea076f1c8c08fb8a1c9c7\n      mload(0x40)\n      mload(0x40)\n      dup1\n      swap2\n      sub\n      swap1\n      log2\n        /* \"contracts/1.TradeAgreement.sol\":1817:1832  completeTrade() */\n      tag_69\n        /* \"contracts/1.TradeAgreement.sol\":1817:1830  completeTrade */\n      tag_70\n        /* \"contracts/1.TradeAgreement.sol\":1817:1832  completeTrade() */\n      jump\t// in\n    tag_69:\n        /* \"contracts/1.TradeAgreement.sol\":1516:1839  function acceptTradeAsSeller() public onlySeller {... */\n      jump\t// out\n        /* \"contracts/1.TradeAgreement.sol\":301:324  bool public depositMade */\n    tag_19:\n      0x04\n      0x03\n      swap1\n      sload\n      swap1\n      0x0100\n      exp\n      swap1\n      div\n      0xff\n      and\n      dup2\n      jump\t// out\n        /* \"contracts/1.TradeAgreement.sol\":205:230  bool public buyerAccepted */\n    tag_24:\n      0x04\n      0x00\n      swap1\n      sload\n      swap1\n      0x0100\n      exp\n      swap1\n      div\n      0xff\n      and\n      dup2\n      jump\t// out\n        /* \"contracts/1.TradeAgreement.sol\":88:116  address public sellerAddress */\n    tag_28:\n      0x00\n      dup1\n      sload\n      swap1\n      0x0100\n      exp\n      swap1\n      div\n      0xffffffffffffffffffffffffffffffffffffffff\n      and\n      dup2\n      jump\t// out\n        /* \"contracts/1.TradeAgreement.sol\":122:149  address public buyerAddress */\n    tag_33:\n      0x01\n      0x00\n      swap1\n      sload\n      swap1\n      0x0100\n      exp\n      swap1\n      div\n      0xffffffffffffffffffffffffffffffffffffffff\n      and\n      dup2\n      jump\t// out\n        /* \"contracts/1.TradeAgreement.sol\":1845:2078  function acceptTradeAsBuyer() public onlyBuyer {... */\n    tag_37:\n        /* \"contracts/1.TradeAgreement.sol\":943:955  buyerAddress */\n      0x01\n      0x00\n      swap1\n      sload\n      swap1\n      0x0100\n      exp\n      swap1\n      div\n      0xffffffffffffffffffffffffffffffffffffffff\n      and\n        /* \"contracts/1.TradeAgreement.sol\":929:955  msg.sender == buyerAddress */\n      0xffffffffffffffffffffffffffffffffffffffff\n      and\n        /* \"contracts/1.TradeAgreement.sol\":929:939  msg.sender */\n      caller\n        /* \"contracts/1.TradeAgreement.sol\":929:955  msg.sender == buyerAddress */\n      0xffffffffffffffffffffffffffffffffffffffff\n      and\n      eq\n        /* \"contracts/1.TradeAgreement.sol\":908:1014  require(... */\n      tag_72\n      jumpi\n      mload(0x40)\n      0x08c379a000000000000000000000000000000000000000000000000000000000\n      dup2\n      mstore\n      0x04\n      add\n      tag_73\n      swap1\n      tag_74\n      jump\t// in\n    tag_73:\n      mload(0x40)\n      dup1\n      swap2\n      sub\n      swap1\n      revert\n    tag_72:\n        /* \"contracts/1.TradeAgreement.sol\":1927:1932  false */\n      0x00\n        /* \"contracts/1.TradeAgreement.sol\":1910:1932  buyerAccepted == false */\n      iszero\n      iszero\n        /* \"contracts/1.TradeAgreement.sol\":1910:1923  buyerAccepted */\n      0x04\n      0x00\n      swap1\n      sload\n      swap1\n      0x0100\n      exp\n      swap1\n      div\n      0xff\n      and\n        /* \"contracts/1.TradeAgreement.sol\":1910:1932  buyerAccepted == false */\n      iszero\n      iszero\n      eq\n        /* \"contracts/1.TradeAgreement.sol\":1902:1973  require(buyerAccepted == false, \"Buyer has already accepted the trade\") */\n      tag_76\n      jumpi\n      mload(0x40)\n      0x08c379a000000000000000000000000000000000000000000000000000000000\n      dup2\n      mstore\n      0x04\n      add\n      tag_77\n      swap1\n      tag_78\n      jump\t// in\n    tag_77:\n      mload(0x40)\n      dup1\n      swap2\n      sub\n      swap1\n      revert\n    tag_76:\n        /* \"contracts/1.TradeAgreement.sol\":1999:2003  true */\n      0x01\n        /* \"contracts/1.TradeAgreement.sol\":1983:1996  buyerAccepted */\n      0x04\n      0x00\n        /* \"contracts/1.TradeAgreement.sol\":1983:2003  buyerAccepted = true */\n      0x0100\n      exp\n      dup2\n      sload\n      dup2\n      0xff\n      mul\n      not\n      and\n      swap1\n      dup4\n      iszero\n      iszero\n      mul\n      or\n      swap1\n      sstore\n      pop\n        /* \"contracts/1.TradeAgreement.sol\":2033:2045  buyerAddress */\n      0x01\n      0x00\n      swap1\n      sload\n      swap1\n      0x0100\n      exp\n      swap1\n      div\n      0xffffffffffffffffffffffffffffffffffffffff\n      and\n        /* \"contracts/1.TradeAgreement.sol\":2018:2046  SellerAccepted(buyerAddress) */\n      0xffffffffffffffffffffffffffffffffffffffff\n      and\n      0xe8b2bddd4b7daeaba32be7d8f242b974e1dcd03366dea076f1c8c08fb8a1c9c7\n      mload(0x40)\n      mload(0x40)\n      dup1\n      swap2\n      sub\n      swap1\n      log2\n        /* \"contracts/1.TradeAgreement.sol\":2056:2071  completeTrade() */\n      tag_79\n        /* \"contracts/1.TradeAgreement.sol\":2056:2069  completeTrade */\n      tag_70\n        /* \"contracts/1.TradeAgreement.sol\":2056:2071  completeTrade() */\n      jump\t// in\n    tag_79:\n        /* \"contracts/1.TradeAgreement.sol\":1845:2078  function acceptTradeAsBuyer() public onlyBuyer {... */\n      jump\t// out\n        /* \"contracts/1.TradeAgreement.sol\":236:262  bool public sellerAccepted */\n    tag_40:\n      0x04\n      0x01\n      swap1\n      sload\n      swap1\n      0x0100\n      exp\n      swap1\n      div\n      0xff\n      and\n      dup2\n      jump\t// out\n        /* \"contracts/1.TradeAgreement.sol\":179:199  uint256 public price */\n    tag_44:\n      sload(0x03)\n      dup2\n      jump\t// out\n        /* \"contracts/1.TradeAgreement.sol\":268:295  bool public tradeCompeleted */\n    tag_49:\n      0x04\n      0x02\n      swap1\n      sload\n      swap1\n      0x0100\n      exp\n      swap1\n      div\n      0xff\n      and\n      dup2\n      jump\t// out\n        /* \"contracts/1.TradeAgreement.sol\":1202:1510  function deposit() public payable onlyBuyer {... */\n    tag_52:\n        /* \"contracts/1.TradeAgreement.sol\":943:955  buyerAddress */\n      0x01\n      0x00\n      swap1\n      sload\n      swap1\n      0x0100\n      exp\n      swap1\n      div\n      0xffffffffffffffffffffffffffffffffffffffff\n      and\n        /* \"contracts/1.TradeAgreement.sol\":929:955  msg.sender == buyerAddress */\n      0xffffffffffffffffffffffffffffffffffffffff\n      and\n        /* \"contracts/1.TradeAgreement.sol\":929:939  msg.sender */\n      caller\n        /* \"contracts/1.TradeAgreement.sol\":929:955  msg.sender == buyerAddress */\n      0xffffffffffffffffffffffffffffffffffffffff\n      and\n      eq\n        /* \"contracts/1.TradeAgreement.sol\":908:1014  require(... */\n      tag_81\n      jumpi\n      mload(0x40)\n      0x08c379a000000000000000000000000000000000000000000000000000000000\n      dup2\n      mstore\n      0x04\n      add\n      tag_82\n      swap1\n      tag_74\n      jump\t// in\n    tag_82:\n      mload(0x40)\n      dup1\n      swap2\n      sub\n      swap1\n      revert\n    tag_81:\n        /* \"contracts/1.TradeAgreement.sol\":1294:1298  true */\n      0x01\n        /* \"contracts/1.TradeAgreement.sol\":1277:1298  buyerAccepted == true */\n      iszero\n      iszero\n        /* \"contracts/1.TradeAgreement.sol\":1277:1290  buyerAccepted */\n      0x04\n      0x00\n      swap1\n      sload\n      swap1\n      0x0100\n      exp\n      swap1\n      div\n      0xff\n      and\n        /* \"contracts/1.TradeAgreement.sol\":1277:1298  buyerAccepted == true */\n      iszero\n      iszero\n      eq\n        /* \"contracts/1.TradeAgreement.sol\":1256:1363  require(... */\n      tag_84\n      jumpi\n      mload(0x40)\n      0x08c379a000000000000000000000000000000000000000000000000000000000\n      dup2\n      mstore\n      0x04\n      add\n      tag_85\n      swap1\n      tag_86\n      jump\t// in\n    tag_85:\n      mload(0x40)\n      dup1\n      swap2\n      sub\n      swap1\n      revert\n    tag_84:\n        /* \"contracts/1.TradeAgreement.sol\":1382:1393  depositMade */\n      0x04\n      0x03\n      swap1\n      sload\n      swap1\n      0x0100\n      exp\n      swap1\n      div\n      0xff\n      and\n        /* \"contracts/1.TradeAgreement.sol\":1381:1393  !depositMade */\n      iszero\n        /* \"contracts/1.TradeAgreement.sol\":1373:1418  require(!depositMade, \"Deposit already made\") */\n      tag_87\n      jumpi\n      mload(0x40)\n      0x08c379a000000000000000000000000000000000000000000000000000000000\n      dup2\n      mstore\n      0x04\n      add\n      tag_88\n      swap1\n      tag_89\n      jump\t// in\n    tag_88:\n      mload(0x40)\n      dup1\n      swap2\n      sub\n      swap1\n      revert\n    tag_87:\n        /* \"contracts/1.TradeAgreement.sol\":1449:1454  price */\n      sload(0x03)\n        /* \"contracts/1.TradeAgreement.sol\":1436:1445  msg.value */\n      callvalue\n        /* \"contracts/1.TradeAgreement.sol\":1436:1454  msg.value == price */\n      eq\n        /* \"contracts/1.TradeAgreement.sol\":1428:1475  require(msg.value == price, \"Incorrect Amount\") */\n      tag_90\n      jumpi\n      mload(0x40)\n      0x08c379a000000000000000000000000000000000000000000000000000000000\n      dup2\n      mstore\n      0x04\n      add\n      tag_91\n      swap1\n      tag_92\n      jump\t// in\n    tag_91:\n      mload(0x40)\n      dup1\n      swap2\n      sub\n      swap1\n      revert\n    tag_90:\n        /* \"contracts/1.TradeAgreement.sol\":1499:1503  true */\n      0x01\n        /* \"contracts/1.TradeAgreement.sol\":1485:1496  depositMade */\n      0x04\n      0x03\n        /* \"contracts/1.TradeAgreement.sol\":1485:1503  depositMade = true */\n      0x0100\n      exp\n      dup2\n      sload\n      dup2\n      0xff\n      mul\n      not\n      and\n      swap1\n      dup4\n      iszero\n      iszero\n      mul\n      or\n      swap1\n      sstore\n      pop\n        /* \"contracts/1.TradeAgreement.sol\":1202:1510  function deposit() public payable onlyBuyer {... */\n      jump\t// out\n        /* \"contracts/1.TradeAgreement.sol\":155:173  string public item */\n    tag_55:\n      0x02\n      dup1\n      sload\n      tag_93\n      swap1\n      tag_94\n      jump\t// in\n    tag_93:\n      dup1\n      0x1f\n      add\n      0x20\n      dup1\n      swap2\n      div\n      mul\n      0x20\n      add\n      mload(0x40)\n      swap1\n      dup2\n      add\n      0x40\n      mstore\n      dup1\n      swap3\n      swap2\n      swap1\n      dup2\n      dup2\n      mstore\n      0x20\n      add\n      dup3\n      dup1\n      sload\n      tag_95\n      swap1\n      tag_94\n      jump\t// in\n    tag_95:\n      dup1\n      iszero\n      tag_96\n      jumpi\n      dup1\n      0x1f\n      lt\n      tag_97\n      jumpi\n      0x0100\n      dup1\n      dup4\n      sload\n      div\n      mul\n      dup4\n      mstore\n      swap2\n      0x20\n      add\n      swap2\n      jump(tag_96)\n    tag_97:\n      dup3\n      add\n      swap2\n      swap1\n      0x00\n      mstore\n      keccak256(0x00, 0x20)\n      swap1\n    tag_98:\n      dup2\n      sload\n      dup2\n      mstore\n      swap1\n      0x01\n      add\n      swap1\n      0x20\n      add\n      dup1\n      dup4\n      gt\n      tag_98\n      jumpi\n      dup3\n      swap1\n      sub\n      0x1f\n      and\n      dup3\n      add\n      swap2\n    tag_96:\n      pop\n      pop\n      pop\n      pop\n      pop\n      dup2\n      jump\t// out\n        /* \"contracts/1.TradeAgreement.sol\":2084:2425  function completeTrade() internal {... */\n    tag_70:\n        /* \"contracts/1.TradeAgreement.sol\":2132:2145  buyerAccepted */\n      0x04\n      0x00\n      swap1\n      sload\n      swap1\n      0x0100\n      exp\n      swap1\n      div\n      0xff\n      and\n        /* \"contracts/1.TradeAgreement.sol\":2132:2163  buyerAccepted && sellerAccepted */\n      dup1\n      iszero\n      tag_100\n      jumpi\n      pop\n        /* \"contracts/1.TradeAgreement.sol\":2149:2163  sellerAccepted */\n      0x04\n      0x01\n      swap1\n      sload\n      swap1\n      0x0100\n      exp\n      swap1\n      div\n      0xff\n      and\n        /* \"contracts/1.TradeAgreement.sol\":2132:2163  buyerAccepted && sellerAccepted */\n    tag_100:\n        /* \"contracts/1.TradeAgreement.sol\":2128:2419  if (buyerAccepted && sellerAccepted) {... */\n      iszero\n      tag_101\n      jumpi\n        /* \"contracts/1.TradeAgreement.sol\":2197:2201  true */\n      0x01\n        /* \"contracts/1.TradeAgreement.sol\":2179:2194  tradeCompeleted */\n      0x04\n      0x02\n        /* \"contracts/1.TradeAgreement.sol\":2179:2201  tradeCompeleted = true */\n      0x0100\n      exp\n      dup2\n      sload\n      dup2\n      0xff\n      mul\n      not\n      and\n      swap1\n      dup4\n      iszero\n      iszero\n      mul\n      or\n      swap1\n      sstore\n      pop\n        /* \"contracts/1.TradeAgreement.sol\":2251:2263  buyerAddress */\n      0x01\n      0x00\n      swap1\n      sload\n      swap1\n      0x0100\n      exp\n      swap1\n      div\n      0xffffffffffffffffffffffffffffffffffffffff\n      and\n        /* \"contracts/1.TradeAgreement.sol\":2220:2264  TradeCompeleted(sellerAddress, buyerAddress) */\n      0xffffffffffffffffffffffffffffffffffffffff\n      and\n        /* \"contracts/1.TradeAgreement.sol\":2236:2249  sellerAddress */\n      0x00\n      dup1\n      sload\n      swap1\n      0x0100\n      exp\n      swap1\n      div\n      0xffffffffffffffffffffffffffffffffffffffff\n      and\n        /* \"contracts/1.TradeAgreement.sol\":2220:2264  TradeCompeleted(sellerAddress, buyerAddress) */\n      0xffffffffffffffffffffffffffffffffffffffff\n      and\n      0xac39c8d59d90e8ade4a53cfc4a559c2c4f47ea26fb6c9370a90a707f056a43c1\n      mload(0x40)\n      mload(0x40)\n      dup1\n      swap2\n      sub\n      swap1\n      log3\n        /* \"contracts/1.TradeAgreement.sol\":2286:2299  sellerAddress */\n      0x00\n      dup1\n      sload\n      swap1\n      0x0100\n      exp\n      swap1\n      div\n      0xffffffffffffffffffffffffffffffffffffffff\n      and\n        /* \"contracts/1.TradeAgreement.sol\":2278:2309  payable(sellerAddress).transfer */\n      0xffffffffffffffffffffffffffffffffffffffff\n      and\n        /* \"contracts/1.TradeAgreement.sol\":2278:2316  payable(sellerAddress).transfer(price) */\n      0x08fc\n        /* \"contracts/1.TradeAgreement.sol\":2310:2315  price */\n      sload(0x03)\n        /* \"contracts/1.TradeAgreement.sol\":2278:2316  payable(sellerAddress).transfer(price) */\n      swap1\n      dup2\n      iszero\n      mul\n      swap1\n      mload(0x40)\n      0x00\n      mload(0x40)\n      dup1\n      dup4\n      sub\n      dup2\n      dup6\n      dup9\n      dup9\n      call\n      swap4\n      pop\n      pop\n      pop\n      pop\n      iszero\n      dup1\n      iszero\n      tag_103\n      jumpi\n      returndatasize\n      0x00\n      dup1\n      returndatacopy\n      revert(0x00, returndatasize)\n    tag_103:\n      pop\n        /* \"contracts/1.TradeAgreement.sol\":2128:2419  if (buyerAccepted && sellerAccepted) {... */\n      jump(tag_104)\n    tag_101:\n        /* \"contracts/1.TradeAgreement.sol\":2374:2379  false */\n      0x00\n        /* \"contracts/1.TradeAgreement.sol\":2355:2379  tradeCompeleted == false */\n      iszero\n      iszero\n        /* \"contracts/1.TradeAgreement.sol\":2355:2370  tradeCompeleted */\n      0x04\n      0x02\n      swap1\n      sload\n      swap1\n      0x0100\n      exp\n      swap1\n      div\n      0xff\n      and\n        /* \"contracts/1.TradeAgreement.sol\":2355:2379  tradeCompeleted == false */\n      iszero\n      iszero\n      eq\n        /* \"contracts/1.TradeAgreement.sol\":2347:2408  require(tradeCompeleted == false, \"Trade Already Compeleted\") */\n      tag_105\n      jumpi\n      mload(0x40)\n      0x08c379a000000000000000000000000000000000000000000000000000000000\n      dup2\n      mstore\n      0x04\n      add\n      tag_106\n      swap1\n      tag_107\n      jump\t// in\n    tag_106:\n      mload(0x40)\n      dup1\n      swap2\n      sub\n      swap1\n      revert\n    tag_105:\n        /* \"contracts/1.TradeAgreement.sol\":2128:2419  if (buyerAccepted && sellerAccepted) {... */\n    tag_104:\n        /* \"contracts/1.TradeAgreement.sol\":2084:2425  function completeTrade() internal {... */\n      jump\t// out\n        /* \"#utility.yul\":7:97   */\n    tag_108:\n        /* \"#utility.yul\":41:48   */\n      0x00\n        /* \"#utility.yul\":84:89   */\n      dup2\n        /* \"#utility.yul\":77:90   */\n      iszero\n        /* \"#utility.yul\":70:91   */\n      iszero\n        /* \"#utility.yul\":59:91   */\n      swap1\n      pop\n        /* \"#utility.yul\":7:97   */\n      swap2\n      swap1\n      pop\n      jump\t// out\n        /* \"#utility.yul\":103:212   */\n    tag_109:\n        /* \"#utility.yul\":184:205   */\n      tag_142\n        /* \"#utility.yul\":199:204   */\n      dup2\n        /* \"#utility.yul\":184:205   */\n      tag_108\n      jump\t// in\n    tag_142:\n        /* \"#utility.yul\":179:182   */\n      dup3\n        /* \"#utility.yul\":172:206   */\n      mstore\n        /* \"#utility.yul\":103:212   */\n      pop\n      pop\n      jump\t// out\n        /* \"#utility.yul\":218:428   */\n    tag_21:\n        /* \"#utility.yul\":305:309   */\n      0x00\n        /* \"#utility.yul\":343:345   */\n      0x20\n        /* \"#utility.yul\":332:341   */\n      dup3\n        /* \"#utility.yul\":328:346   */\n      add\n        /* \"#utility.yul\":320:346   */\n      swap1\n      pop\n        /* \"#utility.yul\":356:421   */\n      tag_144\n        /* \"#utility.yul\":418:419   */\n      0x00\n        /* \"#utility.yul\":407:416   */\n      dup4\n        /* \"#utility.yul\":403:420   */\n      add\n        /* \"#utility.yul\":394:400   */\n      dup5\n        /* \"#utility.yul\":356:421   */\n      tag_109\n      jump\t// in\n    tag_144:\n        /* \"#utility.yul\":218:428   */\n      swap3\n      swap2\n      pop\n      pop\n      jump\t// out\n        /* \"#utility.yul\":434:560   */\n    tag_110:\n        /* \"#utility.yul\":471:478   */\n      0x00\n        /* \"#utility.yul\":511:553   */\n      0xffffffffffffffffffffffffffffffffffffffff\n        /* \"#utility.yul\":504:509   */\n      dup3\n        /* \"#utility.yul\":500:554   */\n      and\n        /* \"#utility.yul\":489:554   */\n      swap1\n      pop\n        /* \"#utility.yul\":434:560   */\n      swap2\n      swap1\n      pop\n      jump\t// out\n        /* \"#utility.yul\":566:662   */\n    tag_111:\n        /* \"#utility.yul\":603:610   */\n      0x00\n        /* \"#utility.yul\":632:656   */\n      tag_147\n        /* \"#utility.yul\":650:655   */\n      dup3\n        /* \"#utility.yul\":632:656   */\n      tag_110\n      jump\t// in\n    tag_147:\n        /* \"#utility.yul\":621:656   */\n      swap1\n      pop\n        /* \"#utility.yul\":566:662   */\n      swap2\n      swap1\n      pop\n      jump\t// out\n        /* \"#utility.yul\":668:786   */\n    tag_112:\n        /* \"#utility.yul\":755:779   */\n      tag_149\n        /* \"#utility.yul\":773:778   */\n      dup2\n        /* \"#utility.yul\":755:779   */\n      tag_111\n      jump\t// in\n    tag_149:\n        /* \"#utility.yul\":750:753   */\n      dup3\n        /* \"#utility.yul\":743:780   */\n      mstore\n        /* \"#utility.yul\":668:786   */\n      pop\n      pop\n      jump\t// out\n        /* \"#utility.yul\":792:1014   */\n    tag_30:\n        /* \"#utility.yul\":885:889   */\n      0x00\n        /* \"#utility.yul\":923:925   */\n      0x20\n        /* \"#utility.yul\":912:921   */\n      dup3\n        /* \"#utility.yul\":908:926   */\n      add\n        /* \"#utility.yul\":900:926   */\n      swap1\n      pop\n        /* \"#utility.yul\":936:1007   */\n      tag_151\n        /* \"#utility.yul\":1004:1005   */\n      0x00\n        /* \"#utility.yul\":993:1002   */\n      dup4\n        /* \"#utility.yul\":989:1006   */\n      add\n        /* \"#utility.yul\":980:986   */\n      dup5\n        /* \"#utility.yul\":936:1007   */\n      tag_112\n      jump\t// in\n    tag_151:\n        /* \"#utility.yul\":792:1014   */\n      swap3\n      swap2\n      pop\n      pop\n      jump\t// out\n        /* \"#utility.yul\":1020:1097   */\n    tag_113:\n        /* \"#utility.yul\":1057:1064   */\n      0x00\n        /* \"#utility.yul\":1086:1091   */\n      dup2\n        /* \"#utility.yul\":1075:1091   */\n      swap1\n      pop\n        /* \"#utility.yul\":1020:1097   */\n      swap2\n      swap1\n      pop\n      jump\t// out\n        /* \"#utility.yul\":1103:1221   */\n    tag_114:\n        /* \"#utility.yul\":1190:1214   */\n      tag_154\n        /* \"#utility.yul\":1208:1213   */\n      dup2\n        /* \"#utility.yul\":1190:1214   */\n      tag_113\n      jump\t// in\n    tag_154:\n        /* \"#utility.yul\":1185:1188   */\n      dup3\n        /* \"#utility.yul\":1178:1215   */\n      mstore\n        /* \"#utility.yul\":1103:1221   */\n      pop\n      pop\n      jump\t// out\n        /* \"#utility.yul\":1227:1449   */\n    tag_46:\n        /* \"#utility.yul\":1320:1324   */\n      0x00\n        /* \"#utility.yul\":1358:1360   */\n      0x20\n        /* \"#utility.yul\":1347:1356   */\n      dup3\n        /* \"#utility.yul\":1343:1361   */\n      add\n        /* \"#utility.yul\":1335:1361   */\n      swap1\n      pop\n        /* \"#utility.yul\":1371:1442   */\n      tag_156\n        /* \"#utility.yul\":1439:1440   */\n      0x00\n        /* \"#utility.yul\":1428:1437   */\n      dup4\n        /* \"#utility.yul\":1424:1441   */\n      add\n        /* \"#utility.yul\":1415:1421   */\n      dup5\n        /* \"#utility.yul\":1371:1442   */\n      tag_114\n      jump\t// in\n    tag_156:\n        /* \"#utility.yul\":1227:1449   */\n      swap3\n      swap2\n      pop\n      pop\n      jump\t// out\n        /* \"#utility.yul\":1455:1554   */\n    tag_115:\n        /* \"#utility.yul\":1507:1513   */\n      0x00\n        /* \"#utility.yul\":1541:1546   */\n      dup2\n        /* \"#utility.yul\":1535:1547   */\n      mload\n        /* \"#utility.yul\":1525:1547   */\n      swap1\n      pop\n        /* \"#utility.yul\":1455:1554   */\n      swap2\n      swap1\n      pop\n      jump\t// out\n        /* \"#utility.yul\":1560:1729   */\n    tag_116:\n        /* \"#utility.yul\":1644:1655   */\n      0x00\n        /* \"#utility.yul\":1678:1684   */\n      dup3\n        /* \"#utility.yul\":1673:1676   */\n      dup3\n        /* \"#utility.yul\":1666:1685   */\n      mstore\n        /* \"#utility.yul\":1718:1722   */\n      0x20\n        /* \"#utility.yul\":1713:1716   */\n      dup3\n        /* \"#utility.yul\":1709:1723   */\n      add\n        /* \"#utility.yul\":1694:1723   */\n      swap1\n      pop\n        /* \"#utility.yul\":1560:1729   */\n      swap3\n      swap2\n      pop\n      pop\n      jump\t// out\n        /* \"#utility.yul\":1735:1874   */\n    tag_117:\n        /* \"#utility.yul\":1824:1830   */\n      dup3\n        /* \"#utility.yul\":1819:1822   */\n      dup2\n        /* \"#utility.yul\":1814:1817   */\n      dup4\n        /* \"#utility.yul\":1808:1831   */\n      mcopy\n        /* \"#utility.yul\":1865:1866   */\n      0x00\n        /* \"#utility.yul\":1856:1862   */\n      dup4\n        /* \"#utility.yul\":1851:1854   */\n      dup4\n        /* \"#utility.yul\":1847:1863   */\n      add\n        /* \"#utility.yul\":1840:1867   */\n      mstore\n        /* \"#utility.yul\":1735:1874   */\n      pop\n      pop\n      pop\n      jump\t// out\n        /* \"#utility.yul\":1880:1982   */\n    tag_118:\n        /* \"#utility.yul\":1921:1927   */\n      0x00\n        /* \"#utility.yul\":1972:1974   */\n      0x1f\n        /* \"#utility.yul\":1968:1975   */\n      not\n        /* \"#utility.yul\":1963:1965   */\n      0x1f\n        /* \"#utility.yul\":1956:1961   */\n      dup4\n        /* \"#utility.yul\":1952:1966   */\n      add\n        /* \"#utility.yul\":1948:1976   */\n      and\n        /* \"#utility.yul\":1938:1976   */\n      swap1\n      pop\n        /* \"#utility.yul\":1880:1982   */\n      swap2\n      swap1\n      pop\n      jump\t// out\n        /* \"#utility.yul\":1988:2365   */\n    tag_119:\n        /* \"#utility.yul\":2076:2079   */\n      0x00\n        /* \"#utility.yul\":2104:2143   */\n      tag_162\n        /* \"#utility.yul\":2137:2142   */\n      dup3\n        /* \"#utility.yul\":2104:2143   */\n      tag_115\n      jump\t// in\n    tag_162:\n        /* \"#utility.yul\":2159:2230   */\n      tag_163\n        /* \"#utility.yul\":2223:2229   */\n      dup2\n        /* \"#utility.yul\":2218:2221   */\n      dup6\n        /* \"#utility.yul\":2159:2230   */\n      tag_116\n      jump\t// in\n    tag_163:\n        /* \"#utility.yul\":2152:2230   */\n      swap4\n      pop\n        /* \"#utility.yul\":2239:2304   */\n      tag_164\n        /* \"#utility.yul\":2297:2303   */\n      dup2\n        /* \"#utility.yul\":2292:2295   */\n      dup6\n        /* \"#utility.yul\":2285:2289   */\n      0x20\n        /* \"#utility.yul\":2278:2283   */\n      dup7\n        /* \"#utility.yul\":2274:2290   */\n      add\n        /* \"#utility.yul\":2239:2304   */\n      tag_117\n      jump\t// in\n    tag_164:\n        /* \"#utility.yul\":2329:2358   */\n      tag_165\n        /* \"#utility.yul\":2351:2357   */\n      dup2\n        /* \"#utility.yul\":2329:2358   */\n      tag_118\n      jump\t// in\n    tag_165:\n        /* \"#utility.yul\":2324:2327   */\n      dup5\n        /* \"#utility.yul\":2320:2359   */\n      add\n        /* \"#utility.yul\":2313:2359   */\n      swap2\n      pop\n        /* \"#utility.yul\":2080:2365   */\n      pop\n        /* \"#utility.yul\":1988:2365   */\n      swap3\n      swap2\n      pop\n      pop\n      jump\t// out\n        /* \"#utility.yul\":2371:2684   */\n    tag_57:\n        /* \"#utility.yul\":2484:2488   */\n      0x00\n        /* \"#utility.yul\":2522:2524   */\n      0x20\n        /* \"#utility.yul\":2511:2520   */\n      dup3\n        /* \"#utility.yul\":2507:2525   */\n      add\n        /* \"#utility.yul\":2499:2525   */\n      swap1\n      pop\n        /* \"#utility.yul\":2571:2580   */\n      dup2\n        /* \"#utility.yul\":2565:2569   */\n      dup2\n        /* \"#utility.yul\":2561:2581   */\n      sub\n        /* \"#utility.yul\":2557:2558   */\n      0x00\n        /* \"#utility.yul\":2546:2555   */\n      dup4\n        /* \"#utility.yul\":2542:2559   */\n      add\n        /* \"#utility.yul\":2535:2582   */\n      mstore\n        /* \"#utility.yul\":2599:2677   */\n      tag_167\n        /* \"#utility.yul\":2672:2676   */\n      dup2\n        /* \"#utility.yul\":2663:2669   */\n      dup5\n        /* \"#utility.yul\":2599:2677   */\n      tag_119\n      jump\t// in\n    tag_167:\n        /* \"#utility.yul\":2591:2677   */\n      swap1\n      pop\n        /* \"#utility.yul\":2371:2684   */\n      swap3\n      swap2\n      pop\n      pop\n      jump\t// out\n        /* \"#utility.yul\":2690:2911   */\n    tag_120:\n        /* \"#utility.yul\":2830:2864   */\n      0x4f6e6c792073656c6c65722063616e2063616c6c20746869732066756e637469\n        /* \"#utility.yul\":2826:2827   */\n      0x00\n        /* \"#utility.yul\":2818:2824   */\n      dup3\n        /* \"#utility.yul\":2814:2828   */\n      add\n        /* \"#utility.yul\":2807:2865   */\n      mstore\n        /* \"#utility.yul\":2899:2903   */\n      0x6f6e000000000000000000000000000000000000000000000000000000000000\n        /* \"#utility.yul\":2894:2896   */\n      0x20\n        /* \"#utility.yul\":2886:2892   */\n      dup3\n        /* \"#utility.yul\":2882:2897   */\n      add\n        /* \"#utility.yul\":2875:2904   */\n      mstore\n        /* \"#utility.yul\":2690:2911   */\n      pop\n      jump\t// out\n        /* \"#utility.yul\":2917:3283   */\n    tag_121:\n        /* \"#utility.yul\":3059:3062   */\n      0x00\n        /* \"#utility.yul\":3080:3147   */\n      tag_170\n        /* \"#utility.yul\":3144:3146   */\n      0x22\n        /* \"#utility.yul\":3139:3142   */\n      dup4\n        /* \"#utility.yul\":3080:3147   */\n      tag_116\n      jump\t// in\n    tag_170:\n        /* \"#utility.yul\":3073:3147   */\n      swap2\n      pop\n        /* \"#utility.yul\":3156:3249   */\n      tag_171\n        /* \"#utility.yul\":3245:3248   */\n      dup3\n        /* \"#utility.yul\":3156:3249   */\n      tag_120\n      jump\t// in\n    tag_171:\n        /* \"#utility.yul\":3274:3276   */\n      0x40\n        /* \"#utility.yul\":3269:3272   */\n      dup3\n        /* \"#utility.yul\":3265:3277   */\n      add\n        /* \"#utility.yul\":3258:3277   */\n      swap1\n      pop\n        /* \"#utility.yul\":2917:3283   */\n      swap2\n      swap1\n      pop\n      jump\t// out\n        /* \"#utility.yul\":3289:3708   */\n    tag_61:\n        /* \"#utility.yul\":3455:3459   */\n      0x00\n        /* \"#utility.yul\":3493:3495   */\n      0x20\n        /* \"#utility.yul\":3482:3491   */\n      dup3\n        /* \"#utility.yul\":3478:3496   */\n      add\n        /* \"#utility.yul\":3470:3496   */\n      swap1\n      pop\n        /* \"#utility.yul\":3542:3551   */\n      dup2\n        /* \"#utility.yul\":3536:3540   */\n      dup2\n        /* \"#utility.yul\":3532:3552   */\n      sub\n        /* \"#utility.yul\":3528:3529   */\n      0x00\n        /* \"#utility.yul\":3517:3526   */\n      dup4\n        /* \"#utility.yul\":3513:3530   */\n      add\n        /* \"#utility.yul\":3506:3553   */\n      mstore\n        /* \"#utility.yul\":3570:3701   */\n      tag_173\n        /* \"#utility.yul\":3696:3700   */\n      dup2\n        /* \"#utility.yul\":3570:3701   */\n      tag_121\n      jump\t// in\n    tag_173:\n        /* \"#utility.yul\":3562:3701   */\n      swap1\n      pop\n        /* \"#utility.yul\":3289:3708   */\n      swap2\n      swap1\n      pop\n      jump\t// out\n        /* \"#utility.yul\":3714:3938   */\n    tag_122:\n        /* \"#utility.yul\":3854:3888   */\n      0x53656c6c65722068617320616c72656164792061636365707465642074686520\n        /* \"#utility.yul\":3850:3851   */\n      0x00\n        /* \"#utility.yul\":3842:3848   */\n      dup3\n        /* \"#utility.yul\":3838:3852   */\n      add\n        /* \"#utility.yul\":3831:3889   */\n      mstore\n        /* \"#utility.yul\":3923:3930   */\n      0x7472616465000000000000000000000000000000000000000000000000000000\n        /* \"#utility.yul\":3918:3920   */\n      0x20\n        /* \"#utility.yul\":3910:3916   */\n      dup3\n        /* \"#utility.yul\":3906:3921   */\n      add\n        /* \"#utility.yul\":3899:3931   */\n      mstore\n        /* \"#utility.yul\":3714:3938   */\n      pop\n      jump\t// out\n        /* \"#utility.yul\":3944:4310   */\n    tag_123:\n        /* \"#utility.yul\":4086:4089   */\n      0x00\n        /* \"#utility.yul\":4107:4174   */\n      tag_176\n        /* \"#utility.yul\":4171:4173   */\n      0x25\n        /* \"#utility.yul\":4166:4169   */\n      dup4\n        /* \"#utility.yul\":4107:4174   */\n      tag_116\n      jump\t// in\n    tag_176:\n        /* \"#utility.yul\":4100:4174   */\n      swap2\n      pop\n        /* \"#utility.yul\":4183:4276   */\n      tag_177\n        /* \"#utility.yul\":4272:4275   */\n      dup3\n        /* \"#utility.yul\":4183:4276   */\n      tag_122\n      jump\t// in\n    tag_177:\n        /* \"#utility.yul\":4301:4303   */\n      0x40\n        /* \"#utility.yul\":4296:4299   */\n      dup3\n        /* \"#utility.yul\":4292:4304   */\n      add\n        /* \"#utility.yul\":4285:4304   */\n      swap1\n      pop\n        /* \"#utility.yul\":3944:4310   */\n      swap2\n      swap1\n      pop\n      jump\t// out\n        /* \"#utility.yul\":4316:4735   */\n    tag_65:\n        /* \"#utility.yul\":4482:4486   */\n      0x00\n        /* \"#utility.yul\":4520:4522   */\n      0x20\n        /* \"#utility.yul\":4509:4518   */\n      dup3\n        /* \"#utility.yul\":4505:4523   */\n      add\n        /* \"#utility.yul\":4497:4523   */\n      swap1\n      pop\n        /* \"#utility.yul\":4569:4578   */\n      dup2\n        /* \"#utility.yul\":4563:4567   */\n      dup2\n        /* \"#utility.yul\":4559:4579   */\n      sub\n        /* \"#utility.yul\":4555:4556   */\n      0x00\n        /* \"#utility.yul\":4544:4553   */\n      dup4\n        /* \"#utility.yul\":4540:4557   */\n      add\n        /* \"#utility.yul\":4533:4580   */\n      mstore\n        /* \"#utility.yul\":4597:4728   */\n      tag_179\n        /* \"#utility.yul\":4723:4727   */\n      dup2\n        /* \"#utility.yul\":4597:4728   */\n      tag_123\n      jump\t// in\n    tag_179:\n        /* \"#utility.yul\":4589:4728   */\n      swap1\n      pop\n        /* \"#utility.yul\":4316:4735   */\n      swap2\n      swap1\n      pop\n      jump\t// out\n        /* \"#utility.yul\":4741:4907   */\n    tag_124:\n        /* \"#utility.yul\":4881:4899   */\n      0x4465706f736974206e6f74206d61646500000000000000000000000000000000\n        /* \"#utility.yul\":4877:4878   */\n      0x00\n        /* \"#utility.yul\":4869:4875   */\n      dup3\n        /* \"#utility.yul\":4865:4879   */\n      add\n        /* \"#utility.yul\":4858:4900   */\n      mstore\n        /* \"#utility.yul\":4741:4907   */\n      pop\n      jump\t// out\n        /* \"#utility.yul\":4913:5279   */\n    tag_125:\n        /* \"#utility.yul\":5055:5058   */\n      0x00\n        /* \"#utility.yul\":5076:5143   */\n      tag_182\n        /* \"#utility.yul\":5140:5142   */\n      0x10\n        /* \"#utility.yul\":5135:5138   */\n      dup4\n        /* \"#utility.yul\":5076:5143   */\n      tag_116\n      jump\t// in\n    tag_182:\n        /* \"#utility.yul\":5069:5143   */\n      swap2\n      pop\n        /* \"#utility.yul\":5152:5245   */\n      tag_183\n        /* \"#utility.yul\":5241:5244   */\n      dup3\n        /* \"#utility.yul\":5152:5245   */\n      tag_124\n      jump\t// in\n    tag_183:\n        /* \"#utility.yul\":5270:5272   */\n      0x20\n        /* \"#utility.yul\":5265:5268   */\n      dup3\n        /* \"#utility.yul\":5261:5273   */\n      add\n        /* \"#utility.yul\":5254:5273   */\n      swap1\n      pop\n        /* \"#utility.yul\":4913:5279   */\n      swap2\n      swap1\n      pop\n      jump\t// out\n        /* \"#utility.yul\":5285:5704   */\n    tag_68:\n        /* \"#utility.yul\":5451:5455   */\n      0x00\n        /* \"#utility.yul\":5489:5491   */\n      0x20\n        /* \"#utility.yul\":5478:5487   */\n      dup3\n        /* \"#utility.yul\":5474:5492   */\n      add\n        /* \"#utility.yul\":5466:5492   */\n      swap1\n      pop\n        /* \"#utility.yul\":5538:5547   */\n      dup2\n        /* \"#utility.yul\":5532:5536   */\n      dup2\n        /* \"#utility.yul\":5528:5548   */\n      sub\n        /* \"#utility.yul\":5524:5525   */\n      0x00\n        /* \"#utility.yul\":5513:5522   */\n      dup4\n        /* \"#utility.yul\":5509:5526   */\n      add\n        /* \"#utility.yul\":5502:5549   */\n      mstore\n        /* \"#utility.yul\":5566:5697   */\n      tag_185\n        /* \"#utility.yul\":5692:5696   */\n      dup2\n        /* \"#utility.yul\":5566:5697   */\n      tag_125\n      jump\t// in\n    tag_185:\n        /* \"#utility.yul\":5558:5697   */\n      swap1\n      pop\n        /* \"#utility.yul\":5285:5704   */\n      swap2\n      swap1\n      pop\n      jump\t// out\n        /* \"#utility.yul\":5710:5930   */\n    tag_126:\n        /* \"#utility.yul\":5850:5884   */\n      0x4f6e6c792062757965722063616e2063616c6c20746869732066756e6374696f\n        /* \"#utility.yul\":5846:5847   */\n      0x00\n        /* \"#utility.yul\":5838:5844   */\n      dup3\n        /* \"#utility.yul\":5834:5848   */\n      add\n        /* \"#utility.yul\":5827:5885   */\n      mstore\n        /* \"#utility.yul\":5919:5922   */\n      0x6e00000000000000000000000000000000000000000000000000000000000000\n        /* \"#utility.yul\":5914:5916   */\n      0x20\n        /* \"#utility.yul\":5906:5912   */\n      dup3\n        /* \"#utility.yul\":5902:5917   */\n      add\n        /* \"#utility.yul\":5895:5923   */\n      mstore\n        /* \"#utility.yul\":5710:5930   */\n      pop\n      jump\t// out\n        /* \"#utility.yul\":5936:6302   */\n    tag_127:\n        /* \"#utility.yul\":6078:6081   */\n      0x00\n        /* \"#utility.yul\":6099:6166   */\n      tag_188\n        /* \"#utility.yul\":6163:6165   */\n      0x21\n        /* \"#utility.yul\":6158:6161   */\n      dup4\n        /* \"#utility.yul\":6099:6166   */\n      tag_116\n      jump\t// in\n    tag_188:\n        /* \"#utility.yul\":6092:6166   */\n      swap2\n      pop\n        /* \"#utility.yul\":6175:6268   */\n      tag_189\n        /* \"#utility.yul\":6264:6267   */\n      dup3\n        /* \"#utility.yul\":6175:6268   */\n      tag_126\n      jump\t// in\n    tag_189:\n        /* \"#utility.yul\":6293:6295   */\n      0x40\n        /* \"#utility.yul\":6288:6291   */\n      dup3\n        /* \"#utility.yul\":6284:6296   */\n      add\n        /* \"#utility.yul\":6277:6296   */\n      swap1\n      pop\n        /* \"#utility.yul\":5936:6302   */\n      swap2\n      swap1\n      pop\n      jump\t// out\n        /* \"#utility.yul\":6308:6727   */\n    tag_74:\n        /* \"#utility.yul\":6474:6478   */\n      0x00\n        /* \"#utility.yul\":6512:6514   */\n      0x20\n        /* \"#utility.yul\":6501:6510   */\n      dup3\n        /* \"#utility.yul\":6497:6515   */\n      add\n        /* \"#utility.yul\":6489:6515   */\n      swap1\n      pop\n        /* \"#utility.yul\":6561:6570   */\n      dup2\n        /* \"#utility.yul\":6555:6559   */\n      dup2\n        /* \"#utility.yul\":6551:6571   */\n      sub\n        /* \"#utility.yul\":6547:6548   */\n      0x00\n        /* \"#utility.yul\":6536:6545   */\n      dup4\n        /* \"#utility.yul\":6532:6549   */\n      add\n        /* \"#utility.yul\":6525:6572   */\n      mstore\n        /* \"#utility.yul\":6589:6720   */\n      tag_191\n        /* \"#utility.yul\":6715:6719   */\n      dup2\n        /* \"#utility.yul\":6589:6720   */\n      tag_127\n      jump\t// in\n    tag_191:\n        /* \"#utility.yul\":6581:6720   */\n      swap1\n      pop\n        /* \"#utility.yul\":6308:6727   */\n      swap2\n      swap1\n      pop\n      jump\t// out\n        /* \"#utility.yul\":6733:6956   */\n    tag_128:\n        /* \"#utility.yul\":6873:6907   */\n      0x42757965722068617320616c7265616479206163636570746564207468652074\n        /* \"#utility.yul\":6869:6870   */\n      0x00\n        /* \"#utility.yul\":6861:6867   */\n      dup3\n        /* \"#utility.yul\":6857:6871   */\n      add\n        /* \"#utility.yul\":6850:6908   */\n      mstore\n        /* \"#utility.yul\":6942:6948   */\n      0x7261646500000000000000000000000000000000000000000000000000000000\n        /* \"#utility.yul\":6937:6939   */\n      0x20\n        /* \"#utility.yul\":6929:6935   */\n      dup3\n        /* \"#utility.yul\":6925:6940   */\n      add\n        /* \"#utility.yul\":6918:6949   */\n      mstore\n        /* \"#utility.yul\":6733:6956   */\n      pop\n      jump\t// out\n        /* \"#utility.yul\":6962:7328   */\n    tag_129:\n        /* \"#utility.yul\":7104:7107   */\n      0x00\n        /* \"#utility.yul\":7125:7192   */\n      tag_194\n        /* \"#utility.yul\":7189:7191   */\n      0x24\n        /* \"#utility.yul\":7184:7187   */\n      dup4\n        /* \"#utility.yul\":7125:7192   */\n      tag_116\n      jump\t// in\n    tag_194:\n        /* \"#utility.yul\":7118:7192   */\n      swap2\n      pop\n        /* \"#utility.yul\":7201:7294   */\n      tag_195\n        /* \"#utility.yul\":7290:7293   */\n      dup3\n        /* \"#utility.yul\":7201:7294   */\n      tag_128\n      jump\t// in\n    tag_195:\n        /* \"#utility.yul\":7319:7321   */\n      0x40\n        /* \"#utility.yul\":7314:7317   */\n      dup3\n        /* \"#utility.yul\":7310:7322   */\n      add\n        /* \"#utility.yul\":7303:7322   */\n      swap1\n      pop\n        /* \"#utility.yul\":6962:7328   */\n      swap2\n      swap1\n      pop\n      jump\t// out\n        /* \"#utility.yul\":7334:7753   */\n    tag_78:\n        /* \"#utility.yul\":7500:7504   */\n      0x00\n        /* \"#utility.yul\":7538:7540   */\n      0x20\n        /* \"#utility.yul\":7527:7536   */\n      dup3\n        /* \"#utility.yul\":7523:7541   */\n      add\n        /* \"#utility.yul\":7515:7541   */\n      swap1\n      pop\n        /* \"#utility.yul\":7587:7596   */\n      dup2\n        /* \"#utility.yul\":7581:7585   */\n      dup2\n        /* \"#utility.yul\":7577:7597   */\n      sub\n        /* \"#utility.yul\":7573:7574   */\n      0x00\n        /* \"#utility.yul\":7562:7571   */\n      dup4\n        /* \"#utility.yul\":7558:7575   */\n      add\n        /* \"#utility.yul\":7551:7598   */\n      mstore\n        /* \"#utility.yul\":7615:7746   */\n      tag_197\n        /* \"#utility.yul\":7741:7745   */\n      dup2\n        /* \"#utility.yul\":7615:7746   */\n      tag_129\n      jump\t// in\n    tag_197:\n        /* \"#utility.yul\":7607:7746   */\n      swap1\n      pop\n        /* \"#utility.yul\":7334:7753   */\n      swap2\n      swap1\n      pop\n      jump\t// out\n        /* \"#utility.yul\":7759:7985   */\n    tag_130:\n        /* \"#utility.yul\":7899:7933   */\n      0x4275796572206861736e277420616c7265616479206163636570746564207468\n        /* \"#utility.yul\":7895:7896   */\n      0x00\n        /* \"#utility.yul\":7887:7893   */\n      dup3\n        /* \"#utility.yul\":7883:7897   */\n      add\n        /* \"#utility.yul\":7876:7934   */\n      mstore\n        /* \"#utility.yul\":7968:7977   */\n      0x6520747261646500000000000000000000000000000000000000000000000000\n        /* \"#utility.yul\":7963:7965   */\n      0x20\n        /* \"#utility.yul\":7955:7961   */\n      dup3\n        /* \"#utility.yul\":7951:7966   */\n      add\n        /* \"#utility.yul\":7944:7978   */\n      mstore\n        /* \"#utility.yul\":7759:7985   */\n      pop\n      jump\t// out\n        /* \"#utility.yul\":7991:8357   */\n    tag_131:\n        /* \"#utility.yul\":8133:8136   */\n      0x00\n        /* \"#utility.yul\":8154:8221   */\n      tag_200\n        /* \"#utility.yul\":8218:8220   */\n      0x27\n        /* \"#utility.yul\":8213:8216   */\n      dup4\n        /* \"#utility.yul\":8154:8221   */\n      tag_116\n      jump\t// in\n    tag_200:\n        /* \"#utility.yul\":8147:8221   */\n      swap2\n      pop\n        /* \"#utility.yul\":8230:8323   */\n      tag_201\n        /* \"#utility.yul\":8319:8322   */\n      dup3\n        /* \"#utility.yul\":8230:8323   */\n      tag_130\n      jump\t// in\n    tag_201:\n        /* \"#utility.yul\":8348:8350   */\n      0x40\n        /* \"#utility.yul\":8343:8346   */\n      dup3\n        /* \"#utility.yul\":8339:8351   */\n      add\n        /* \"#utility.yul\":8332:8351   */\n      swap1\n      pop\n        /* \"#utility.yul\":7991:8357   */\n      swap2\n      swap1\n      pop\n      jump\t// out\n        /* \"#utility.yul\":8363:8782   */\n    tag_86:\n        /* \"#utility.yul\":8529:8533   */\n      0x00\n        /* \"#utility.yul\":8567:8569   */\n      0x20\n        /* \"#utility.yul\":8556:8565   */\n      dup3\n        /* \"#utility.yul\":8552:8570   */\n      add\n        /* \"#utility.yul\":8544:8570   */\n      swap1\n      pop\n        /* \"#utility.yul\":8616:8625   */\n      dup2\n        /* \"#utility.yul\":8610:8614   */\n      dup2\n        /* \"#utility.yul\":8606:8626   */\n      sub\n        /* \"#utility.yul\":8602:8603   */\n      0x00\n        /* \"#utility.yul\":8591:8600   */\n      dup4\n        /* \"#utility.yul\":8587:8604   */\n      add\n        /* \"#utility.yul\":8580:8627   */\n      mstore\n        /* \"#utility.yul\":8644:8775   */\n      tag_203\n        /* \"#utility.yul\":8770:8774   */\n      dup2\n        /* \"#utility.yul\":8644:8775   */\n      tag_131\n      jump\t// in\n    tag_203:\n        /* \"#utility.yul\":8636:8775   */\n      swap1\n      pop\n        /* \"#utility.yul\":8363:8782   */\n      swap2\n      swap1\n      pop\n      jump\t// out\n        /* \"#utility.yul\":8788:8958   */\n    tag_132:\n        /* \"#utility.yul\":8928:8950   */\n      0x4465706f73697420616c7265616479206d616465000000000000000000000000\n        /* \"#utility.yul\":8924:8925   */\n      0x00\n        /* \"#utility.yul\":8916:8922   */\n      dup3\n        /* \"#utility.yul\":8912:8926   */\n      add\n        /* \"#utility.yul\":8905:8951   */\n      mstore\n        /* \"#utility.yul\":8788:8958   */\n      pop\n      jump\t// out\n        /* \"#utility.yul\":8964:9330   */\n    tag_133:\n        /* \"#utility.yul\":9106:9109   */\n      0x00\n        /* \"#utility.yul\":9127:9194   */\n      tag_206\n        /* \"#utility.yul\":9191:9193   */\n      0x14\n        /* \"#utility.yul\":9186:9189   */\n      dup4\n        /* \"#utility.yul\":9127:9194   */\n      tag_116\n      jump\t// in\n    tag_206:\n        /* \"#utility.yul\":9120:9194   */\n      swap2\n      pop\n        /* \"#utility.yul\":9203:9296   */\n      tag_207\n        /* \"#utility.yul\":9292:9295   */\n      dup3\n        /* \"#utility.yul\":9203:9296   */\n      tag_132\n      jump\t// in\n    tag_207:\n        /* \"#utility.yul\":9321:9323   */\n      0x20\n        /* \"#utility.yul\":9316:9319   */\n      dup3\n        /* \"#utility.yul\":9312:9324   */\n      add\n        /* \"#utility.yul\":9305:9324   */\n      swap1\n      pop\n        /* \"#utility.yul\":8964:9330   */\n      swap2\n      swap1\n      pop\n      jump\t// out\n        /* \"#utility.yul\":9336:9755   */\n    tag_89:\n        /* \"#utility.yul\":9502:9506   */\n      0x00\n        /* \"#utility.yul\":9540:9542   */\n      0x20\n        /* \"#utility.yul\":9529:9538   */\n      dup3\n        /* \"#utility.yul\":9525:9543   */\n      add\n        /* \"#utility.yul\":9517:9543   */\n      swap1\n      pop\n        /* \"#utility.yul\":9589:9598   */\n      dup2\n        /* \"#utility.yul\":9583:9587   */\n      dup2\n        /* \"#utility.yul\":9579:9599   */\n      sub\n        /* \"#utility.yul\":9575:9576   */\n      0x00\n        /* \"#utility.yul\":9564:9573   */\n      dup4\n        /* \"#utility.yul\":9560:9577   */\n      add\n        /* \"#utility.yul\":9553:9600   */\n      mstore\n        /* \"#utility.yul\":9617:9748   */\n      tag_209\n        /* \"#utility.yul\":9743:9747   */\n      dup2\n        /* \"#utility.yul\":9617:9748   */\n      tag_133\n      jump\t// in\n    tag_209:\n        /* \"#utility.yul\":9609:9748   */\n      swap1\n      pop\n        /* \"#utility.yul\":9336:9755   */\n      swap2\n      swap1\n      pop\n      jump\t// out\n        /* \"#utility.yul\":9761:9927   */\n    tag_134:\n        /* \"#utility.yul\":9901:9919   */\n      0x496e636f727265637420416d6f756e7400000000000000000000000000000000\n        /* \"#utility.yul\":9897:9898   */\n      0x00\n        /* \"#utility.yul\":9889:9895   */\n      dup3\n        /* \"#utility.yul\":9885:9899   */\n      add\n        /* \"#utility.yul\":9878:9920   */\n      mstore\n        /* \"#utility.yul\":9761:9927   */\n      pop\n      jump\t// out\n        /* \"#utility.yul\":9933:10299   */\n    tag_135:\n        /* \"#utility.yul\":10075:10078   */\n      0x00\n        /* \"#utility.yul\":10096:10163   */\n      tag_212\n        /* \"#utility.yul\":10160:10162   */\n      0x10\n        /* \"#utility.yul\":10155:10158   */\n      dup4\n        /* \"#utility.yul\":10096:10163   */\n      tag_116\n      jump\t// in\n    tag_212:\n        /* \"#utility.yul\":10089:10163   */\n      swap2\n      pop\n        /* \"#utility.yul\":10172:10265   */\n      tag_213\n        /* \"#utility.yul\":10261:10264   */\n      dup3\n        /* \"#utility.yul\":10172:10265   */\n      tag_134\n      jump\t// in\n    tag_213:\n        /* \"#utility.yul\":10290:10292   */\n      0x20\n        /* \"#utility.yul\":10285:10288   */\n      dup3\n        /* \"#utility.yul\":10281:10293   */\n      add\n        /* \"#utility.yul\":10274:10293   */\n      swap1\n      pop\n        /* \"#utility.yul\":9933:10299   */\n      swap2\n      swap1\n      pop\n      jump\t// out\n        /* \"#utility.yul\":10305:10724   */\n    tag_92:\n        /* \"#utility.yul\":10471:10475   */\n      0x00\n        /* \"#utility.yul\":10509:10511   */\n      0x20\n        /* \"#utility.yul\":10498:10507   */\n      dup3\n        /* \"#utility.yul\":10494:10512   */\n      add\n        /* \"#utility.yul\":10486:10512   */\n      swap1\n      pop\n        /* \"#utility.yul\":10558:10567   */\n      dup2\n        /* \"#utility.yul\":10552:10556   */\n      dup2\n        /* \"#utility.yul\":10548:10568   */\n      sub\n        /* \"#utility.yul\":10544:10545   */\n      0x00\n        /* \"#utility.yul\":10533:10542   */\n      dup4\n        /* \"#utility.yul\":10529:10546   */\n      add\n        /* \"#utility.yul\":10522:10569   */\n      mstore\n        /* \"#utility.yul\":10586:10717   */\n      tag_215\n        /* \"#utility.yul\":10712:10716   */\n      dup2\n        /* \"#utility.yul\":10586:10717   */\n      tag_135\n      jump\t// in\n    tag_215:\n        /* \"#utility.yul\":10578:10717   */\n      swap1\n      pop\n        /* \"#utility.yul\":10305:10724   */\n      swap2\n      swap1\n      pop\n      jump\t// out\n        /* \"#utility.yul\":10730:10910   */\n    tag_136:\n        /* \"#utility.yul\":10778:10855   */\n      0x4e487b7100000000000000000000000000000000000000000000000000000000\n        /* \"#utility.yul\":10775:10776   */\n      0x00\n        /* \"#utility.yul\":10768:10856   */\n      mstore\n        /* \"#utility.yul\":10875:10879   */\n      0x22\n        /* \"#utility.yul\":10872:10873   */\n      0x04\n        /* \"#utility.yul\":10865:10880   */\n      mstore\n        /* \"#utility.yul\":10899:10903   */\n      0x24\n        /* \"#utility.yul\":10896:10897   */\n      0x00\n        /* \"#utility.yul\":10889:10904   */\n      revert\n        /* \"#utility.yul\":10916:11236   */\n    tag_94:\n        /* \"#utility.yul\":10960:10966   */\n      0x00\n        /* \"#utility.yul\":10997:10998   */\n      0x02\n        /* \"#utility.yul\":10991:10995   */\n      dup3\n        /* \"#utility.yul\":10987:10999   */\n      div\n        /* \"#utility.yul\":10977:10999   */\n      swap1\n      pop\n        /* \"#utility.yul\":11044:11045   */\n      0x01\n        /* \"#utility.yul\":11038:11042   */\n      dup3\n        /* \"#utility.yul\":11034:11046   */\n      and\n        /* \"#utility.yul\":11065:11083   */\n      dup1\n        /* \"#utility.yul\":11055:11136   */\n      tag_218\n      jumpi\n        /* \"#utility.yul\":11121:11125   */\n      0x7f\n        /* \"#utility.yul\":11113:11119   */\n      dup3\n        /* \"#utility.yul\":11109:11126   */\n      and\n        /* \"#utility.yul\":11099:11126   */\n      swap2\n      pop\n        /* \"#utility.yul\":11055:11136   */\n    tag_218:\n        /* \"#utility.yul\":11183:11185   */\n      0x20\n        /* \"#utility.yul\":11175:11181   */\n      dup3\n        /* \"#utility.yul\":11172:11186   */\n      lt\n        /* \"#utility.yul\":11152:11170   */\n      dup2\n        /* \"#utility.yul\":11149:11187   */\n      sub\n        /* \"#utility.yul\":11146:11230   */\n      tag_219\n      jumpi\n        /* \"#utility.yul\":11202:11220   */\n      tag_220\n      tag_136\n      jump\t// in\n    tag_220:\n        /* \"#utility.yul\":11146:11230   */\n    tag_219:\n        /* \"#utility.yul\":10967:11236   */\n      pop\n        /* \"#utility.yul\":10916:11236   */\n      swap2\n      swap1\n      pop\n      jump\t// out\n        /* \"#utility.yul\":11242:11416   */\n    tag_137:\n        /* \"#utility.yul\":11382:11408   */\n      0x547261646520416c726561647920436f6d70656c657465640000000000000000\n        /* \"#utility.yul\":11378:11379   */\n      0x00\n        /* \"#utility.yul\":11370:11376   */\n      dup3\n        /* \"#utility.yul\":11366:11380   */\n      add\n        /* \"#utility.yul\":11359:11409   */\n      mstore\n        /* \"#utility.yul\":11242:11416   */\n      pop\n      jump\t// out\n        /* \"#utility.yul\":11422:11788   */\n    tag_138:\n        /* \"#utility.yul\":11564:11567   */\n      0x00\n        /* \"#utility.yul\":11585:11652   */\n      tag_223\n        /* \"#utility.yul\":11649:11651   */\n      0x18\n        /* \"#utility.yul\":11644:11647   */\n      dup4\n        /* \"#utility.yul\":11585:11652   */\n      tag_116\n      jump\t// in\n    tag_223:\n        /* \"#utility.yul\":11578:11652   */\n      swap2\n      pop\n        /* \"#utility.yul\":11661:11754   */\n      tag_224\n        /* \"#utility.yul\":11750:11753   */\n      dup3\n        /* \"#utility.yul\":11661:11754   */\n      tag_137\n      jump\t// in\n    tag_224:\n        /* \"#utility.yul\":11779:11781   */\n      0x20\n        /* \"#utility.yul\":11774:11777   */\n      dup3\n        /* \"#utility.yul\":11770:11782   */\n      add\n        /* \"#utility.yul\":11763:11782   */\n      swap1\n      pop\n        /* \"#utility.yul\":11422:11788   */\n      swap2\n      swap1\n      pop\n      jump\t// out\n        /* \"#utility.yul\":11794:12213   */\n    tag_107:\n        /* \"#utility.yul\":11960:11964   */\n      0x00\n        /* \"#utility.yul\":11998:12000   */\n      0x20\n        /* \"#utility.yul\":11987:11996   */\n      dup3\n        /* \"#utility.yul\":11983:12001   */\n      add\n        /* \"#utility.yul\":11975:12001   */\n      swap1\n      pop\n        /* \"#utility.yul\":12047:12056   */\n      dup2\n        /* \"#utility.yul\":12041:12045   */\n      dup2\n        /* \"#utility.yul\":12037:12057   */\n      sub\n        /* \"#utility.yul\":12033:12034   */\n      0x00\n        /* \"#utility.yul\":12022:12031   */\n      dup4\n        /* \"#utility.yul\":12018:12035   */\n      add\n        /* \"#utility.yul\":12011:12058   */\n      mstore\n        /* \"#utility.yul\":12075:12206   */\n      tag_226\n        /* \"#utility.yul\":12201:12205   */\n      dup2\n        /* \"#utility.yul\":12075:12206   */\n      tag_138\n      jump\t// in\n    tag_226:\n        /* \"#utility.yul\":12067:12206   */\n      swap1\n      pop\n        /* \"#utility.yul\":11794:12213   */\n      swap2\n      swap1\n      pop\n      jump\t// out\n\n    auxdata: 0xa264697066735822122024ab92229c48452665a3b2678786fdb5fdcf552a8716e2a80ef96595a4acfefd64736f6c634300081a0033\n}\n",
				"bytecode": {
					"linkReferences": {},
					"object": "608060405234801561000f575f80fd5b506040516115df3803806115df833981810160405281019061003191906102a9565b335f806101000a81548173ffffffffffffffffffffffffffffffffffffffff021916908373ffffffffffffffffffffffffffffffffffffffff1602179055508260015f6101000a81548173ffffffffffffffffffffffffffffffffffffffff021916908373ffffffffffffffffffffffffffffffffffffffff16021790555081600290816100bf9190610519565b50806003819055505050506105e8565b5f604051905090565b5f80fd5b5f80fd5b5f73ffffffffffffffffffffffffffffffffffffffff82169050919050565b5f610109826100e0565b9050919050565b610119816100ff565b8114610123575f80fd5b50565b5f8151905061013481610110565b92915050565b5f80fd5b5f80fd5b5f601f19601f8301169050919050565b7f4e487b71000000000000000000000000000000000000000000000000000000005f52604160045260245ffd5b61018882610142565b810181811067ffffffffffffffff821117156101a7576101a6610152565b5b80604052505050565b5f6101b96100cf565b90506101c5828261017f565b919050565b5f67ffffffffffffffff8211156101e4576101e3610152565b5b6101ed82610142565b9050602081019050919050565b8281835e5f83830152505050565b5f61021a610215846101ca565b6101b0565b9050828152602081018484840111156102365761023561013e565b5b6102418482856101fa565b509392505050565b5f82601f83011261025d5761025c61013a565b5b815161026d848260208601610208565b91505092915050565b5f819050919050565b61028881610276565b8114610292575f80fd5b50565b5f815190506102a38161027f565b92915050565b5f805f606084860312156102c0576102bf6100d8565b5b5f6102cd86828701610126565b935050602084015167ffffffffffffffff8111156102ee576102ed6100dc565b5b6102fa86828701610249565b925050604061030b86828701610295565b9150509250925092565b5f81519050919050565b7f4e487b71000000000000000000000000000000000000000000000000000000005f52602260045260245ffd5b5f600282049050600182168061036357607f821691505b6020821081036103765761037561031f565b5b50919050565b5f819050815f5260205f209050919050565b5f6020601f8301049050919050565b5f82821b905092915050565b5f600883026103d87fffffffffffffffffffffffffffffffffffffffffffffffffffffffffffffffff8261039d565b6103e2868361039d565b95508019841693508086168417925050509392505050565b5f819050919050565b5f61041d61041861041384610276565b6103fa565b610276565b9050919050565b5f819050919050565b61043683610403565b61044a61044282610424565b8484546103a9565b825550505050565b5f90565b61045e610452565b61046981848461042d565b505050565b5b8181101561048c576104815f82610456565b60018101905061046f565b5050565b601f8211156104d1576104a28161037c565b6104ab8461038e565b810160208510156104ba578190505b6104ce6104c68561038e565b83018261046e565b50505b505050565b5f82821c905092915050565b5f6104f15f19846008026104d6565b1980831691505092915050565b5f61050983836104e2565b9150826002028217905092915050565b61052282610315565b67ffffffffffffffff81111561053b5761053a610152565b5b610545825461034c565b610550828285610490565b5f60209050601f831160018114610581575f841561056f578287015190505b61057985826104fe565b8655506105e0565b601f19841661058f8661037c565b5f5b828110156105b657848901518255600182019150602085019450602081019050610591565b868310156105d357848901516105cf601f8916826104e2565b8355505b6001600288020188555050505b505050505050565b610fea806105f55f395ff3fe60806040526004361061009b575f3560e01c8063532ca45711610063578063532ca4571461015d57806361b60f6b14610173578063a035b1fe1461019d578063a795c2ce146101c7578063d0e30db0146101f1578063f2a4a82e146101fb5761009b565b8063039e3e051461009f5780631be427cc146100b55780632312fff7146100df5780633d9b2ae61461010957806344834aca14610133575b5f80fd5b3480156100aa575f80fd5b506100b3610225565b005b3480156100c0575f80fd5b506100c96103dd565b6040516100d691906109bf565b60405180910390f35b3480156100ea575f80fd5b506100f36103f0565b60405161010091906109bf565b60405180910390f35b348015610114575f80fd5b5061011d610402565b60405161012a9190610a17565b60405180910390f35b34801561013e575f80fd5b50610147610425565b6040516101549190610a17565b60405180910390f35b348015610168575f80fd5b5061017161044a565b005b34801561017e575f80fd5b506101876105b5565b60405161019491906109bf565b60405180910390f35b3480156101a8575f80fd5b506101b16105c8565b6040516101be9190610a48565b60405180910390f35b3480156101d2575f80fd5b506101db6105ce565b6040516101e891906109bf565b60405180910390f35b6101f96105e1565b005b348015610206575f80fd5b5061020f610776565b60405161021c9190610ad1565b60405180910390f35b5f8054906101000a900473ffffffffffffffffffffffffffffffffffffffff1673ffffffffffffffffffffffffffffffffffffffff163373ffffffffffffffffffffffffffffffffffffffff16146102b2576040517f08c379a00000000000000000000000000000000000000000000000000000000081526004016102a990610b61565b60405180910390fd5b5f1515600460019054906101000a900460ff16151514610307576040517f08c379a00000000000000000000000000000000000000000000000000000000081526004016102fe90610bef565b60405180910390fd5b600460039054906101000a900460ff16610356576040517f08c379a000000000000000000000000000000000000000000000000000000000815260040161034d90610c57565b60405180910390fd5b6001600460016101000a81548160ff0219169083151502179055505f8054906101000a900473ffffffffffffffffffffffffffffffffffffffff1673ffffffffffffffffffffffffffffffffffffffff167fe8b2bddd4b7daeaba32be7d8f242b974e1dcd03366dea076f1c8c08fb8a1c9c760405160405180910390a26103db610802565b565b600460039054906101000a900460ff1681565b60045f9054906101000a900460ff1681565b5f8054906101000a900473ffffffffffffffffffffffffffffffffffffffff1681565b60015f9054906101000a900473ffffffffffffffffffffffffffffffffffffffff1681565b60015f9054906101000a900473ffffffffffffffffffffffffffffffffffffffff1673ffffffffffffffffffffffffffffffffffffffff163373ffffffffffffffffffffffffffffffffffffffff16146104d9576040517f08c379a00000000000000000000000000000000000000000000000000000000081526004016104d090610ce5565b60405180910390fd5b5f151560045f9054906101000a900460ff1615151461052d576040517f08c379a000000000000000000000000000000000000000000000000000000000815260040161052490610d73565b60405180910390fd5b600160045f6101000a81548160ff02191690831515021790555060015f9054906101000a900473ffffffffffffffffffffffffffffffffffffffff1673ffffffffffffffffffffffffffffffffffffffff167fe8b2bddd4b7daeaba32be7d8f242b974e1dcd03366dea076f1c8c08fb8a1c9c760405160405180910390a26105b3610802565b565b600460019054906101000a900460ff1681565b60035481565b600460029054906101000a900460ff1681565b60015f9054906101000a900473ffffffffffffffffffffffffffffffffffffffff1673ffffffffffffffffffffffffffffffffffffffff163373ffffffffffffffffffffffffffffffffffffffff1614610670576040517f08c379a000000000000000000000000000000000000000000000000000000000815260040161066790610ce5565b60405180910390fd5b6001151560045f9054906101000a900460ff161515146106c5576040517f08c379a00000000000000000000000000000000000000000000000000000000081526004016106bc90610e01565b60405180910390fd5b600460039054906101000a900460ff1615610715576040517f08c379a000000000000000000000000000000000000000000000000000000000815260040161070c90610e69565b60405180910390fd5b6003543414610759576040517f08c379a000000000000000000000000000000000000000000000000000000000815260040161075090610ed1565b60405180910390fd5b6001600460036101000a81548160ff021916908315150217905550565b6002805461078390610f1c565b80601f01602080910402602001604051908101604052809291908181526020018280546107af90610f1c565b80156107fa5780601f106107d1576101008083540402835291602001916107fa565b820191905f5260205f20905b8154815290600101906020018083116107dd57829003601f168201915b505050505081565b60045f9054906101000a900460ff1680156108295750600460019054906101000a900460ff165b1561094d576001600460026101000a81548160ff02191690831515021790555060015f9054906101000a900473ffffffffffffffffffffffffffffffffffffffff1673ffffffffffffffffffffffffffffffffffffffff165f8054906101000a900473ffffffffffffffffffffffffffffffffffffffff1673ffffffffffffffffffffffffffffffffffffffff167fac39c8d59d90e8ade4a53cfc4a559c2c4f47ea26fb6c9370a90a707f056a43c160405160405180910390a35f8054906101000a900473ffffffffffffffffffffffffffffffffffffffff1673ffffffffffffffffffffffffffffffffffffffff166108fc60035490811502906040515f60405180830381858888f19350505050158015610947573d5f803e3d5ffd5b506109a3565b5f1515600460029054906101000a900460ff161515146109a2576040517f08c379a000000000000000000000000000000000000000000000000000000000815260040161099990610f96565b60405180910390fd5b5b565b5f8115159050919050565b6109b9816109a5565b82525050565b5f6020820190506109d25f8301846109b0565b92915050565b5f73ffffffffffffffffffffffffffffffffffffffff82169050919050565b5f610a01826109d8565b9050919050565b610a11816109f7565b82525050565b5f602082019050610a2a5f830184610a08565b92915050565b5f819050919050565b610a4281610a30565b82525050565b5f602082019050610a5b5f830184610a39565b92915050565b5f81519050919050565b5f82825260208201905092915050565b8281835e5f83830152505050565b5f601f19601f8301169050919050565b5f610aa382610a61565b610aad8185610a6b565b9350610abd818560208601610a7b565b610ac681610a89565b840191505092915050565b5f6020820190508181035f830152610ae98184610a99565b905092915050565b7f4f6e6c792073656c6c65722063616e2063616c6c20746869732066756e6374695f8201527f6f6e000000000000000000000000000000000000000000000000000000000000602082015250565b5f610b4b602283610a6b565b9150610b5682610af1565b604082019050919050565b5f6020820190508181035f830152610b7881610b3f565b9050919050565b7f53656c6c65722068617320616c726561647920616363657074656420746865205f8201527f7472616465000000000000000000000000000000000000000000000000000000602082015250565b5f610bd9602583610a6b565b9150610be482610b7f565b604082019050919050565b5f6020820190508181035f830152610c0681610bcd565b9050919050565b7f4465706f736974206e6f74206d616465000000000000000000000000000000005f82015250565b5f610c41601083610a6b565b9150610c4c82610c0d565b602082019050919050565b5f6020820190508181035f830152610c6e81610c35565b9050919050565b7f4f6e6c792062757965722063616e2063616c6c20746869732066756e6374696f5f8201527f6e00000000000000000000000000000000000000000000000000000000000000602082015250565b5f610ccf602183610a6b565b9150610cda82610c75565b604082019050919050565b5f6020820190508181035f830152610cfc81610cc3565b9050919050565b7f42757965722068617320616c72656164792061636365707465642074686520745f8201527f7261646500000000000000000000000000000000000000000000000000000000602082015250565b5f610d5d602483610a6b565b9150610d6882610d03565b604082019050919050565b5f6020820190508181035f830152610d8a81610d51565b9050919050565b7f4275796572206861736e277420616c72656164792061636365707465642074685f8201527f6520747261646500000000000000000000000000000000000000000000000000602082015250565b5f610deb602783610a6b565b9150610df682610d91565b604082019050919050565b5f6020820190508181035f830152610e1881610ddf565b9050919050565b7f4465706f73697420616c7265616479206d6164650000000000000000000000005f82015250565b5f610e53601483610a6b565b9150610e5e82610e1f565b602082019050919050565b5f6020820190508181035f830152610e8081610e47565b9050919050565b7f496e636f727265637420416d6f756e74000000000000000000000000000000005f82015250565b5f610ebb601083610a6b565b9150610ec682610e87565b602082019050919050565b5f6020820190508181035f830152610ee881610eaf565b9050919050565b7f4e487b71000000000000000000000000000000000000000000000000000000005f52602260045260245ffd5b5f6002820490506001821680610f3357607f821691505b602082108103610f4657610f45610eef565b5b50919050565b7f547261646520416c726561647920436f6d70656c6574656400000000000000005f82015250565b5f610f80601883610a6b565b9150610f8b82610f4c565b602082019050919050565b5f6020820190508181035f830152610fad81610f74565b905091905056fea264697066735822122024ab92229c48452665a3b2678786fdb5fdcf552a8716e2a80ef96595a4acfefd64736f6c634300081a0033",
					"opcodes": "PUSH1 0x80 PUSH1 0x40 MSTORE CALLVALUE DUP1 ISZERO PUSH2 0xF JUMPI PUSH0 DUP1 REVERT JUMPDEST POP PUSH1 0x40 MLOAD PUSH2 0x15DF CODESIZE SUB DUP1 PUSH2 0x15DF DUP4 CODECOPY DUP2 DUP2 ADD PUSH1 0x40 MSTORE DUP2 ADD SWAP1 PUSH2 0x31 SWAP2 SWAP1 PUSH2 0x2A9 JUMP JUMPDEST CALLER PUSH0 DUP1 PUSH2 0x100 EXP DUP2 SLOAD DUP2 PUSH20 0xFFFFFFFFFFFFFFFFFFFFFFFFFFFFFFFFFFFFFFFF MUL NOT AND SWAP1 DUP4 PUSH20 0xFFFFFFFFFFFFFFFFFFFFFFFFFFFFFFFFFFFFFFFF AND MUL OR SWAP1 SSTORE POP DUP3 PUSH1 0x1 PUSH0 PUSH2 0x100 EXP DUP2 SLOAD DUP2 PUSH20 0xFFFFFFFFFFFFFFFFFFFFFFFFFFFFFFFFFFFFFFFF MUL NOT AND SWAP1 DUP4 PUSH20 0xFFFFFFFFFFFFFFFFFFFFFFFFFFFFFFFFFFFFFFFF AND MUL OR SWAP1 SSTORE POP DUP2 PUSH1 0x2 SWAP1 DUP2 PUSH2 0xBF SWAP2 SWAP1 PUSH2 0x519 JUMP JUMPDEST POP DUP1 PUSH1 0x3 DUP2 SWAP1 SSTORE POP POP POP POP PUSH2 0x5E8 JUMP JUMPDEST PUSH0 PUSH1 0x40 MLOAD SWAP1 POP SWAP1 JUMP JUMPDEST PUSH0 DUP1 REVERT JUMPDEST PUSH0 DUP1 REVERT JUMPDEST PUSH0 PUSH20 0xFFFFFFFFFFFFFFFFFFFFFFFFFFFFFFFFFFFFFFFF DUP3 AND SWAP1 POP SWAP2 SWAP1 POP JUMP JUMPDEST PUSH0 PUSH2 0x109 DUP3 PUSH2 0xE0 JUMP JUMPDEST SWAP1 POP SWAP2 SWAP1 POP JUMP JUMPDEST PUSH2 0x119 DUP2 PUSH2 0xFF JUMP JUMPDEST DUP2 EQ PUSH2 0x123 JUMPI PUSH0 DUP1 REVERT JUMPDEST POP JUMP JUMPDEST PUSH0 DUP2 MLOAD SWAP1 POP PUSH2 0x134 DUP2 PUSH2 0x110 JUMP JUMPDEST SWAP3 SWAP2 POP POP JUMP JUMPDEST PUSH0 DUP1 REVERT JUMPDEST PUSH0 DUP1 REVERT JUMPDEST PUSH0 PUSH1 0x1F NOT PUSH1 0x1F DUP4 ADD AND SWAP1 POP SWAP2 SWAP1 POP JUMP JUMPDEST PUSH32 0x4E487B7100000000000000000000000000000000000000000000000000000000 PUSH0 MSTORE PUSH1 0x41 PUSH1 0x4 MSTORE PUSH1 0x24 PUSH0 REVERT JUMPDEST PUSH2 0x188 DUP3 PUSH2 0x142 JUMP JUMPDEST DUP2 ADD DUP2 DUP2 LT PUSH8 0xFFFFFFFFFFFFFFFF DUP3 GT OR ISZERO PUSH2 0x1A7 JUMPI PUSH2 0x1A6 PUSH2 0x152 JUMP JUMPDEST JUMPDEST DUP1 PUSH1 0x40 MSTORE POP POP POP JUMP JUMPDEST PUSH0 PUSH2 0x1B9 PUSH2 0xCF JUMP JUMPDEST SWAP1 POP PUSH2 0x1C5 DUP3 DUP3 PUSH2 0x17F JUMP JUMPDEST SWAP2 SWAP1 POP JUMP JUMPDEST PUSH0 PUSH8 0xFFFFFFFFFFFFFFFF DUP3 GT ISZERO PUSH2 0x1E4 JUMPI PUSH2 0x1E3 PUSH2 0x152 JUMP JUMPDEST JUMPDEST PUSH2 0x1ED DUP3 PUSH2 0x142 JUMP JUMPDEST SWAP1 POP PUSH1 0x20 DUP2 ADD SWAP1 POP SWAP2 SWAP1 POP JUMP JUMPDEST DUP3 DUP2 DUP4 MCOPY PUSH0 DUP4 DUP4 ADD MSTORE POP POP POP JUMP JUMPDEST PUSH0 PUSH2 0x21A PUSH2 0x215 DUP5 PUSH2 0x1CA JUMP JUMPDEST PUSH2 0x1B0 JUMP JUMPDEST SWAP1 POP DUP3 DUP2 MSTORE PUSH1 0x20 DUP2 ADD DUP5 DUP5 DUP5 ADD GT ISZERO PUSH2 0x236 JUMPI PUSH2 0x235 PUSH2 0x13E JUMP JUMPDEST JUMPDEST PUSH2 0x241 DUP5 DUP3 DUP6 PUSH2 0x1FA JUMP JUMPDEST POP SWAP4 SWAP3 POP POP POP JUMP JUMPDEST PUSH0 DUP3 PUSH1 0x1F DUP4 ADD SLT PUSH2 0x25D JUMPI PUSH2 0x25C PUSH2 0x13A JUMP JUMPDEST JUMPDEST DUP2 MLOAD PUSH2 0x26D DUP5 DUP3 PUSH1 0x20 DUP7 ADD PUSH2 0x208 JUMP JUMPDEST SWAP2 POP POP SWAP3 SWAP2 POP POP JUMP JUMPDEST PUSH0 DUP2 SWAP1 POP SWAP2 SWAP1 POP JUMP JUMPDEST PUSH2 0x288 DUP2 PUSH2 0x276 JUMP JUMPDEST DUP2 EQ PUSH2 0x292 JUMPI PUSH0 DUP1 REVERT JUMPDEST POP JUMP JUMPDEST PUSH0 DUP2 MLOAD SWAP1 POP PUSH2 0x2A3 DUP2 PUSH2 0x27F JUMP JUMPDEST SWAP3 SWAP2 POP POP JUMP JUMPDEST PUSH0 DUP1 PUSH0 PUSH1 0x60 DUP5 DUP7 SUB SLT ISZERO PUSH2 0x2C0 JUMPI PUSH2 0x2BF PUSH2 0xD8 JUMP JUMPDEST JUMPDEST PUSH0 PUSH2 0x2CD DUP7 DUP3 DUP8 ADD PUSH2 0x126 JUMP JUMPDEST SWAP4 POP POP PUSH1 0x20 DUP5 ADD MLOAD PUSH8 0xFFFFFFFFFFFFFFFF DUP2 GT ISZERO PUSH2 0x2EE JUMPI PUSH2 0x2ED PUSH2 0xDC JUMP JUMPDEST JUMPDEST PUSH2 0x2FA DUP7 DUP3 DUP8 ADD PUSH2 0x249 JUMP JUMPDEST SWAP3 POP POP PUSH1 0x40 PUSH2 0x30B DUP7 DUP3 DUP8 ADD PUSH2 0x295 JUMP JUMPDEST SWAP2 POP POP SWAP3 POP SWAP3 POP SWAP3 JUMP JUMPDEST PUSH0 DUP2 MLOAD SWAP1 POP SWAP2 SWAP1 POP JUMP JUMPDEST PUSH32 0x4E487B7100000000000000000000000000000000000000000000000000000000 PUSH0 MSTORE PUSH1 0x22 PUSH1 0x4 MSTORE PUSH1 0x24 PUSH0 REVERT JUMPDEST PUSH0 PUSH1 0x2 DUP3 DIV SWAP1 POP PUSH1 0x1 DUP3 AND DUP1 PUSH2 0x363 JUMPI PUSH1 0x7F DUP3 AND SWAP2 POP JUMPDEST PUSH1 0x20 DUP3 LT DUP2 SUB PUSH2 0x376 JUMPI PUSH2 0x375 PUSH2 0x31F JUMP JUMPDEST JUMPDEST POP SWAP2 SWAP1 POP JUMP JUMPDEST PUSH0 DUP2 SWAP1 POP DUP2 PUSH0 MSTORE PUSH1 0x20 PUSH0 KECCAK256 SWAP1 POP SWAP2 SWAP1 POP JUMP JUMPDEST PUSH0 PUSH1 0x20 PUSH1 0x1F DUP4 ADD DIV SWAP1 POP SWAP2 SWAP1 POP JUMP JUMPDEST PUSH0 DUP3 DUP3 SHL SWAP1 POP SWAP3 SWAP2 POP POP JUMP JUMPDEST PUSH0 PUSH1 0x8 DUP4 MUL PUSH2 0x3D8 PUSH32 0xFFFFFFFFFFFFFFFFFFFFFFFFFFFFFFFFFFFFFFFFFFFFFFFFFFFFFFFFFFFFFFFF DUP3 PUSH2 0x39D JUMP JUMPDEST PUSH2 0x3E2 DUP7 DUP4 PUSH2 0x39D JUMP JUMPDEST SWAP6 POP DUP1 NOT DUP5 AND SWAP4 POP DUP1 DUP7 AND DUP5 OR SWAP3 POP POP POP SWAP4 SWAP3 POP POP POP JUMP JUMPDEST PUSH0 DUP2 SWAP1 POP SWAP2 SWAP1 POP JUMP JUMPDEST PUSH0 PUSH2 0x41D PUSH2 0x418 PUSH2 0x413 DUP5 PUSH2 0x276 JUMP JUMPDEST PUSH2 0x3FA JUMP JUMPDEST PUSH2 0x276 JUMP JUMPDEST SWAP1 POP SWAP2 SWAP1 POP JUMP JUMPDEST PUSH0 DUP2 SWAP1 POP SWAP2 SWAP1 POP JUMP JUMPDEST PUSH2 0x436 DUP4 PUSH2 0x403 JUMP JUMPDEST PUSH2 0x44A PUSH2 0x442 DUP3 PUSH2 0x424 JUMP JUMPDEST DUP5 DUP5 SLOAD PUSH2 0x3A9 JUMP JUMPDEST DUP3 SSTORE POP POP POP POP JUMP JUMPDEST PUSH0 SWAP1 JUMP JUMPDEST PUSH2 0x45E PUSH2 0x452 JUMP JUMPDEST PUSH2 0x469 DUP2 DUP5 DUP5 PUSH2 0x42D JUMP JUMPDEST POP POP POP JUMP JUMPDEST JUMPDEST DUP2 DUP2 LT ISZERO PUSH2 0x48C JUMPI PUSH2 0x481 PUSH0 DUP3 PUSH2 0x456 JUMP JUMPDEST PUSH1 0x1 DUP2 ADD SWAP1 POP PUSH2 0x46F JUMP JUMPDEST POP POP JUMP JUMPDEST PUSH1 0x1F DUP3 GT ISZERO PUSH2 0x4D1 JUMPI PUSH2 0x4A2 DUP2 PUSH2 0x37C JUMP JUMPDEST PUSH2 0x4AB DUP5 PUSH2 0x38E JUMP JUMPDEST DUP2 ADD PUSH1 0x20 DUP6 LT ISZERO PUSH2 0x4BA JUMPI DUP2 SWAP1 POP JUMPDEST PUSH2 0x4CE PUSH2 0x4C6 DUP6 PUSH2 0x38E JUMP JUMPDEST DUP4 ADD DUP3 PUSH2 0x46E JUMP JUMPDEST POP POP JUMPDEST POP POP POP JUMP JUMPDEST PUSH0 DUP3 DUP3 SHR SWAP1 POP SWAP3 SWAP2 POP POP JUMP JUMPDEST PUSH0 PUSH2 0x4F1 PUSH0 NOT DUP5 PUSH1 0x8 MUL PUSH2 0x4D6 JUMP JUMPDEST NOT DUP1 DUP4 AND SWAP2 POP POP SWAP3 SWAP2 POP POP JUMP JUMPDEST PUSH0 PUSH2 0x509 DUP4 DUP4 PUSH2 0x4E2 JUMP JUMPDEST SWAP2 POP DUP3 PUSH1 0x2 MUL DUP3 OR SWAP1 POP SWAP3 SWAP2 POP POP JUMP JUMPDEST PUSH2 0x522 DUP3 PUSH2 0x315 JUMP JUMPDEST PUSH8 0xFFFFFFFFFFFFFFFF DUP2 GT ISZERO PUSH2 0x53B JUMPI PUSH2 0x53A PUSH2 0x152 JUMP JUMPDEST JUMPDEST PUSH2 0x545 DUP3 SLOAD PUSH2 0x34C JUMP JUMPDEST PUSH2 0x550 DUP3 DUP3 DUP6 PUSH2 0x490 JUMP JUMPDEST PUSH0 PUSH1 0x20 SWAP1 POP PUSH1 0x1F DUP4 GT PUSH1 0x1 DUP2 EQ PUSH2 0x581 JUMPI PUSH0 DUP5 ISZERO PUSH2 0x56F JUMPI DUP3 DUP8 ADD MLOAD SWAP1 POP JUMPDEST PUSH2 0x579 DUP6 DUP3 PUSH2 0x4FE JUMP JUMPDEST DUP7 SSTORE POP PUSH2 0x5E0 JUMP JUMPDEST PUSH1 0x1F NOT DUP5 AND PUSH2 0x58F DUP7 PUSH2 0x37C JUMP JUMPDEST PUSH0 JUMPDEST DUP3 DUP2 LT ISZERO PUSH2 0x5B6 JUMPI DUP5 DUP10 ADD MLOAD DUP3 SSTORE PUSH1 0x1 DUP3 ADD SWAP2 POP PUSH1 0x20 DUP6 ADD SWAP5 POP PUSH1 0x20 DUP2 ADD SWAP1 POP PUSH2 0x591 JUMP JUMPDEST DUP7 DUP4 LT ISZERO PUSH2 0x5D3 JUMPI DUP5 DUP10 ADD MLOAD PUSH2 0x5CF PUSH1 0x1F DUP10 AND DUP3 PUSH2 0x4E2 JUMP JUMPDEST DUP4 SSTORE POP JUMPDEST PUSH1 0x1 PUSH1 0x2 DUP9 MUL ADD DUP9 SSTORE POP POP POP JUMPDEST POP POP POP POP POP POP JUMP JUMPDEST PUSH2 0xFEA DUP1 PUSH2 0x5F5 PUSH0 CODECOPY PUSH0 RETURN INVALID PUSH1 0x80 PUSH1 0x40 MSTORE PUSH1 0x4 CALLDATASIZE LT PUSH2 0x9B JUMPI PUSH0 CALLDATALOAD PUSH1 0xE0 SHR DUP1 PUSH4 0x532CA457 GT PUSH2 0x63 JUMPI DUP1 PUSH4 0x532CA457 EQ PUSH2 0x15D JUMPI DUP1 PUSH4 0x61B60F6B EQ PUSH2 0x173 JUMPI DUP1 PUSH4 0xA035B1FE EQ PUSH2 0x19D JUMPI DUP1 PUSH4 0xA795C2CE EQ PUSH2 0x1C7 JUMPI DUP1 PUSH4 0xD0E30DB0 EQ PUSH2 0x1F1 JUMPI DUP1 PUSH4 0xF2A4A82E EQ PUSH2 0x1FB JUMPI PUSH2 0x9B JUMP JUMPDEST DUP1 PUSH4 0x39E3E05 EQ PUSH2 0x9F JUMPI DUP1 PUSH4 0x1BE427CC EQ PUSH2 0xB5 JUMPI DUP1 PUSH4 0x2312FFF7 EQ PUSH2 0xDF JUMPI DUP1 PUSH4 0x3D9B2AE6 EQ PUSH2 0x109 JUMPI DUP1 PUSH4 0x44834ACA EQ PUSH2 0x133 JUMPI JUMPDEST PUSH0 DUP1 REVERT JUMPDEST CALLVALUE DUP1 ISZERO PUSH2 0xAA JUMPI PUSH0 DUP1 REVERT JUMPDEST POP PUSH2 0xB3 PUSH2 0x225 JUMP JUMPDEST STOP JUMPDEST CALLVALUE DUP1 ISZERO PUSH2 0xC0 JUMPI PUSH0 DUP1 REVERT JUMPDEST POP PUSH2 0xC9 PUSH2 0x3DD JUMP JUMPDEST PUSH1 0x40 MLOAD PUSH2 0xD6 SWAP2 SWAP1 PUSH2 0x9BF JUMP JUMPDEST PUSH1 0x40 MLOAD DUP1 SWAP2 SUB SWAP1 RETURN JUMPDEST CALLVALUE DUP1 ISZERO PUSH2 0xEA JUMPI PUSH0 DUP1 REVERT JUMPDEST POP PUSH2 0xF3 PUSH2 0x3F0 JUMP JUMPDEST PUSH1 0x40 MLOAD PUSH2 0x100 SWAP2 SWAP1 PUSH2 0x9BF JUMP JUMPDEST PUSH1 0x40 MLOAD DUP1 SWAP2 SUB SWAP1 RETURN JUMPDEST CALLVALUE DUP1 ISZERO PUSH2 0x114 JUMPI PUSH0 DUP1 REVERT JUMPDEST POP PUSH2 0x11D PUSH2 0x402 JUMP JUMPDEST PUSH1 0x40 MLOAD PUSH2 0x12A SWAP2 SWAP1 PUSH2 0xA17 JUMP JUMPDEST PUSH1 0x40 MLOAD DUP1 SWAP2 SUB SWAP1 RETURN JUMPDEST CALLVALUE DUP1 ISZERO PUSH2 0x13E JUMPI PUSH0 DUP1 REVERT JUMPDEST POP PUSH2 0x147 PUSH2 0x425 JUMP JUMPDEST PUSH1 0x40 MLOAD PUSH2 0x154 SWAP2 SWAP1 PUSH2 0xA17 JUMP JUMPDEST PUSH1 0x40 MLOAD DUP1 SWAP2 SUB SWAP1 RETURN JUMPDEST CALLVALUE DUP1 ISZERO PUSH2 0x168 JUMPI PUSH0 DUP1 REVERT JUMPDEST POP PUSH2 0x171 PUSH2 0x44A JUMP JUMPDEST STOP JUMPDEST CALLVALUE DUP1 ISZERO PUSH2 0x17E JUMPI PUSH0 DUP1 REVERT JUMPDEST POP PUSH2 0x187 PUSH2 0x5B5 JUMP JUMPDEST PUSH1 0x40 MLOAD PUSH2 0x194 SWAP2 SWAP1 PUSH2 0x9BF JUMP JUMPDEST PUSH1 0x40 MLOAD DUP1 SWAP2 SUB SWAP1 RETURN JUMPDEST CALLVALUE DUP1 ISZERO PUSH2 0x1A8 JUMPI PUSH0 DUP1 REVERT JUMPDEST POP PUSH2 0x1B1 PUSH2 0x5C8 JUMP JUMPDEST PUSH1 0x40 MLOAD PUSH2 0x1BE SWAP2 SWAP1 PUSH2 0xA48 JUMP JUMPDEST PUSH1 0x40 MLOAD DUP1 SWAP2 SUB SWAP1 RETURN JUMPDEST CALLVALUE DUP1 ISZERO PUSH2 0x1D2 JUMPI PUSH0 DUP1 REVERT JUMPDEST POP PUSH2 0x1DB PUSH2 0x5CE JUMP JUMPDEST PUSH1 0x40 MLOAD PUSH2 0x1E8 SWAP2 SWAP1 PUSH2 0x9BF JUMP JUMPDEST PUSH1 0x40 MLOAD DUP1 SWAP2 SUB SWAP1 RETURN JUMPDEST PUSH2 0x1F9 PUSH2 0x5E1 JUMP JUMPDEST STOP JUMPDEST CALLVALUE DUP1 ISZERO PUSH2 0x206 JUMPI PUSH0 DUP1 REVERT JUMPDEST POP PUSH2 0x20F PUSH2 0x776 JUMP JUMPDEST PUSH1 0x40 MLOAD PUSH2 0x21C SWAP2 SWAP1 PUSH2 0xAD1 JUMP JUMPDEST PUSH1 0x40 MLOAD DUP1 SWAP2 SUB SWAP1 RETURN JUMPDEST PUSH0 DUP1 SLOAD SWAP1 PUSH2 0x100 EXP SWAP1 DIV PUSH20 0xFFFFFFFFFFFFFFFFFFFFFFFFFFFFFFFFFFFFFFFF AND PUSH20 0xFFFFFFFFFFFFFFFFFFFFFFFFFFFFFFFFFFFFFFFF AND CALLER PUSH20 0xFFFFFFFFFFFFFFFFFFFFFFFFFFFFFFFFFFFFFFFF AND EQ PUSH2 0x2B2 JUMPI PUSH1 0x40 MLOAD PUSH32 0x8C379A000000000000000000000000000000000000000000000000000000000 DUP2 MSTORE PUSH1 0x4 ADD PUSH2 0x2A9 SWAP1 PUSH2 0xB61 JUMP JUMPDEST PUSH1 0x40 MLOAD DUP1 SWAP2 SUB SWAP1 REVERT JUMPDEST PUSH0 ISZERO ISZERO PUSH1 0x4 PUSH1 0x1 SWAP1 SLOAD SWAP1 PUSH2 0x100 EXP SWAP1 DIV PUSH1 0xFF AND ISZERO ISZERO EQ PUSH2 0x307 JUMPI PUSH1 0x40 MLOAD PUSH32 0x8C379A000000000000000000000000000000000000000000000000000000000 DUP2 MSTORE PUSH1 0x4 ADD PUSH2 0x2FE SWAP1 PUSH2 0xBEF JUMP JUMPDEST PUSH1 0x40 MLOAD DUP1 SWAP2 SUB SWAP1 REVERT JUMPDEST PUSH1 0x4 PUSH1 0x3 SWAP1 SLOAD SWAP1 PUSH2 0x100 EXP SWAP1 DIV PUSH1 0xFF AND PUSH2 0x356 JUMPI PUSH1 0x40 MLOAD PUSH32 0x8C379A000000000000000000000000000000000000000000000000000000000 DUP2 MSTORE PUSH1 0x4 ADD PUSH2 0x34D SWAP1 PUSH2 0xC57 JUMP JUMPDEST PUSH1 0x40 MLOAD DUP1 SWAP2 SUB SWAP1 REVERT JUMPDEST PUSH1 0x1 PUSH1 0x4 PUSH1 0x1 PUSH2 0x100 EXP DUP2 SLOAD DUP2 PUSH1 0xFF MUL NOT AND SWAP1 DUP4 ISZERO ISZERO MUL OR SWAP1 SSTORE POP PUSH0 DUP1 SLOAD SWAP1 PUSH2 0x100 EXP SWAP1 DIV PUSH20 0xFFFFFFFFFFFFFFFFFFFFFFFFFFFFFFFFFFFFFFFF AND PUSH20 0xFFFFFFFFFFFFFFFFFFFFFFFFFFFFFFFFFFFFFFFF AND PUSH32 0xE8B2BDDD4B7DAEABA32BE7D8F242B974E1DCD03366DEA076F1C8C08FB8A1C9C7 PUSH1 0x40 MLOAD PUSH1 0x40 MLOAD DUP1 SWAP2 SUB SWAP1 LOG2 PUSH2 0x3DB PUSH2 0x802 JUMP JUMPDEST JUMP JUMPDEST PUSH1 0x4 PUSH1 0x3 SWAP1 SLOAD SWAP1 PUSH2 0x100 EXP SWAP1 DIV PUSH1 0xFF AND DUP2 JUMP JUMPDEST PUSH1 0x4 PUSH0 SWAP1 SLOAD SWAP1 PUSH2 0x100 EXP SWAP1 DIV PUSH1 0xFF AND DUP2 JUMP JUMPDEST PUSH0 DUP1 SLOAD SWAP1 PUSH2 0x100 EXP SWAP1 DIV PUSH20 0xFFFFFFFFFFFFFFFFFFFFFFFFFFFFFFFFFFFFFFFF AND DUP2 JUMP JUMPDEST PUSH1 0x1 PUSH0 SWAP1 SLOAD SWAP1 PUSH2 0x100 EXP SWAP1 DIV PUSH20 0xFFFFFFFFFFFFFFFFFFFFFFFFFFFFFFFFFFFFFFFF AND DUP2 JUMP JUMPDEST PUSH1 0x1 PUSH0 SWAP1 SLOAD SWAP1 PUSH2 0x100 EXP SWAP1 DIV PUSH20 0xFFFFFFFFFFFFFFFFFFFFFFFFFFFFFFFFFFFFFFFF AND PUSH20 0xFFFFFFFFFFFFFFFFFFFFFFFFFFFFFFFFFFFFFFFF AND CALLER PUSH20 0xFFFFFFFFFFFFFFFFFFFFFFFFFFFFFFFFFFFFFFFF AND EQ PUSH2 0x4D9 JUMPI PUSH1 0x40 MLOAD PUSH32 0x8C379A000000000000000000000000000000000000000000000000000000000 DUP2 MSTORE PUSH1 0x4 ADD PUSH2 0x4D0 SWAP1 PUSH2 0xCE5 JUMP JUMPDEST PUSH1 0x40 MLOAD DUP1 SWAP2 SUB SWAP1 REVERT JUMPDEST PUSH0 ISZERO ISZERO PUSH1 0x4 PUSH0 SWAP1 SLOAD SWAP1 PUSH2 0x100 EXP SWAP1 DIV PUSH1 0xFF AND ISZERO ISZERO EQ PUSH2 0x52D JUMPI PUSH1 0x40 MLOAD PUSH32 0x8C379A000000000000000000000000000000000000000000000000000000000 DUP2 MSTORE PUSH1 0x4 ADD PUSH2 0x524 SWAP1 PUSH2 0xD73 JUMP JUMPDEST PUSH1 0x40 MLOAD DUP1 SWAP2 SUB SWAP1 REVERT JUMPDEST PUSH1 0x1 PUSH1 0x4 PUSH0 PUSH2 0x100 EXP DUP2 SLOAD DUP2 PUSH1 0xFF MUL NOT AND SWAP1 DUP4 ISZERO ISZERO MUL OR SWAP1 SSTORE POP PUSH1 0x1 PUSH0 SWAP1 SLOAD SWAP1 PUSH2 0x100 EXP SWAP1 DIV PUSH20 0xFFFFFFFFFFFFFFFFFFFFFFFFFFFFFFFFFFFFFFFF AND PUSH20 0xFFFFFFFFFFFFFFFFFFFFFFFFFFFFFFFFFFFFFFFF AND PUSH32 0xE8B2BDDD4B7DAEABA32BE7D8F242B974E1DCD03366DEA076F1C8C08FB8A1C9C7 PUSH1 0x40 MLOAD PUSH1 0x40 MLOAD DUP1 SWAP2 SUB SWAP1 LOG2 PUSH2 0x5B3 PUSH2 0x802 JUMP JUMPDEST JUMP JUMPDEST PUSH1 0x4 PUSH1 0x1 SWAP1 SLOAD SWAP1 PUSH2 0x100 EXP SWAP1 DIV PUSH1 0xFF AND DUP2 JUMP JUMPDEST PUSH1 0x3 SLOAD DUP2 JUMP JUMPDEST PUSH1 0x4 PUSH1 0x2 SWAP1 SLOAD SWAP1 PUSH2 0x100 EXP SWAP1 DIV PUSH1 0xFF AND DUP2 JUMP JUMPDEST PUSH1 0x1 PUSH0 SWAP1 SLOAD SWAP1 PUSH2 0x100 EXP SWAP1 DIV PUSH20 0xFFFFFFFFFFFFFFFFFFFFFFFFFFFFFFFFFFFFFFFF AND PUSH20 0xFFFFFFFFFFFFFFFFFFFFFFFFFFFFFFFFFFFFFFFF AND CALLER PUSH20 0xFFFFFFFFFFFFFFFFFFFFFFFFFFFFFFFFFFFFFFFF AND EQ PUSH2 0x670 JUMPI PUSH1 0x40 MLOAD PUSH32 0x8C379A000000000000000000000000000000000000000000000000000000000 DUP2 MSTORE PUSH1 0x4 ADD PUSH2 0x667 SWAP1 PUSH2 0xCE5 JUMP JUMPDEST PUSH1 0x40 MLOAD DUP1 SWAP2 SUB SWAP1 REVERT JUMPDEST PUSH1 0x1 ISZERO ISZERO PUSH1 0x4 PUSH0 SWAP1 SLOAD SWAP1 PUSH2 0x100 EXP SWAP1 DIV PUSH1 0xFF AND ISZERO ISZERO EQ PUSH2 0x6C5 JUMPI PUSH1 0x40 MLOAD PUSH32 0x8C379A000000000000000000000000000000000000000000000000000000000 DUP2 MSTORE PUSH1 0x4 ADD PUSH2 0x6BC SWAP1 PUSH2 0xE01 JUMP JUMPDEST PUSH1 0x40 MLOAD DUP1 SWAP2 SUB SWAP1 REVERT JUMPDEST PUSH1 0x4 PUSH1 0x3 SWAP1 SLOAD SWAP1 PUSH2 0x100 EXP SWAP1 DIV PUSH1 0xFF AND ISZERO PUSH2 0x715 JUMPI PUSH1 0x40 MLOAD PUSH32 0x8C379A000000000000000000000000000000000000000000000000000000000 DUP2 MSTORE PUSH1 0x4 ADD PUSH2 0x70C SWAP1 PUSH2 0xE69 JUMP JUMPDEST PUSH1 0x40 MLOAD DUP1 SWAP2 SUB SWAP1 REVERT JUMPDEST PUSH1 0x3 SLOAD CALLVALUE EQ PUSH2 0x759 JUMPI PUSH1 0x40 MLOAD PUSH32 0x8C379A000000000000000000000000000000000000000000000000000000000 DUP2 MSTORE PUSH1 0x4 ADD PUSH2 0x750 SWAP1 PUSH2 0xED1 JUMP JUMPDEST PUSH1 0x40 MLOAD DUP1 SWAP2 SUB SWAP1 REVERT JUMPDEST PUSH1 0x1 PUSH1 0x4 PUSH1 0x3 PUSH2 0x100 EXP DUP2 SLOAD DUP2 PUSH1 0xFF MUL NOT AND SWAP1 DUP4 ISZERO ISZERO MUL OR SWAP1 SSTORE POP JUMP JUMPDEST PUSH1 0x2 DUP1 SLOAD PUSH2 0x783 SWAP1 PUSH2 0xF1C JUMP JUMPDEST DUP1 PUSH1 0x1F ADD PUSH1 0x20 DUP1 SWAP2 DIV MUL PUSH1 0x20 ADD PUSH1 0x40 MLOAD SWAP1 DUP2 ADD PUSH1 0x40 MSTORE DUP1 SWAP3 SWAP2 SWAP1 DUP2 DUP2 MSTORE PUSH1 0x20 ADD DUP3 DUP1 SLOAD PUSH2 0x7AF SWAP1 PUSH2 0xF1C JUMP JUMPDEST DUP1 ISZERO PUSH2 0x7FA JUMPI DUP1 PUSH1 0x1F LT PUSH2 0x7D1 JUMPI PUSH2 0x100 DUP1 DUP4 SLOAD DIV MUL DUP4 MSTORE SWAP2 PUSH1 0x20 ADD SWAP2 PUSH2 0x7FA JUMP JUMPDEST DUP3 ADD SWAP2 SWAP1 PUSH0 MSTORE PUSH1 0x20 PUSH0 KECCAK256 SWAP1 JUMPDEST DUP2 SLOAD DUP2 MSTORE SWAP1 PUSH1 0x1 ADD SWAP1 PUSH1 0x20 ADD DUP1 DUP4 GT PUSH2 0x7DD JUMPI DUP3 SWAP1 SUB PUSH1 0x1F AND DUP3 ADD SWAP2 JUMPDEST POP POP POP POP POP DUP2 JUMP JUMPDEST PUSH1 0x4 PUSH0 SWAP1 SLOAD SWAP1 PUSH2 0x100 EXP SWAP1 DIV PUSH1 0xFF AND DUP1 ISZERO PUSH2 0x829 JUMPI POP PUSH1 0x4 PUSH1 0x1 SWAP1 SLOAD SWAP1 PUSH2 0x100 EXP SWAP1 DIV PUSH1 0xFF AND JUMPDEST ISZERO PUSH2 0x94D JUMPI PUSH1 0x1 PUSH1 0x4 PUSH1 0x2 PUSH2 0x100 EXP DUP2 SLOAD DUP2 PUSH1 0xFF MUL NOT AND SWAP1 DUP4 ISZERO ISZERO MUL OR SWAP1 SSTORE POP PUSH1 0x1 PUSH0 SWAP1 SLOAD SWAP1 PUSH2 0x100 EXP SWAP1 DIV PUSH20 0xFFFFFFFFFFFFFFFFFFFFFFFFFFFFFFFFFFFFFFFF AND PUSH20 0xFFFFFFFFFFFFFFFFFFFFFFFFFFFFFFFFFFFFFFFF AND PUSH0 DUP1 SLOAD SWAP1 PUSH2 0x100 EXP SWAP1 DIV PUSH20 0xFFFFFFFFFFFFFFFFFFFFFFFFFFFFFFFFFFFFFFFF AND PUSH20 0xFFFFFFFFFFFFFFFFFFFFFFFFFFFFFFFFFFFFFFFF AND PUSH32 0xAC39C8D59D90E8ADE4A53CFC4A559C2C4F47EA26FB6C9370A90A707F056A43C1 PUSH1 0x40 MLOAD PUSH1 0x40 MLOAD DUP1 SWAP2 SUB SWAP1 LOG3 PUSH0 DUP1 SLOAD SWAP1 PUSH2 0x100 EXP SWAP1 DIV PUSH20 0xFFFFFFFFFFFFFFFFFFFFFFFFFFFFFFFFFFFFFFFF AND PUSH20 0xFFFFFFFFFFFFFFFFFFFFFFFFFFFFFFFFFFFFFFFF AND PUSH2 0x8FC PUSH1 0x3 SLOAD SWAP1 DUP2 ISZERO MUL SWAP1 PUSH1 0x40 MLOAD PUSH0 PUSH1 0x40 MLOAD DUP1 DUP4 SUB DUP2 DUP6 DUP9 DUP9 CALL SWAP4 POP POP POP POP ISZERO DUP1 ISZERO PUSH2 0x947 JUMPI RETURNDATASIZE PUSH0 DUP1 RETURNDATACOPY RETURNDATASIZE PUSH0 REVERT JUMPDEST POP PUSH2 0x9A3 JUMP JUMPDEST PUSH0 ISZERO ISZERO PUSH1 0x4 PUSH1 0x2 SWAP1 SLOAD SWAP1 PUSH2 0x100 EXP SWAP1 DIV PUSH1 0xFF AND ISZERO ISZERO EQ PUSH2 0x9A2 JUMPI PUSH1 0x40 MLOAD PUSH32 0x8C379A000000000000000000000000000000000000000000000000000000000 DUP2 MSTORE PUSH1 0x4 ADD PUSH2 0x999 SWAP1 PUSH2 0xF96 JUMP JUMPDEST PUSH1 0x40 MLOAD DUP1 SWAP2 SUB SWAP1 REVERT JUMPDEST JUMPDEST JUMP JUMPDEST PUSH0 DUP2 ISZERO ISZERO SWAP1 POP SWAP2 SWAP1 POP JUMP JUMPDEST PUSH2 0x9B9 DUP2 PUSH2 0x9A5 JUMP JUMPDEST DUP3 MSTORE POP POP JUMP JUMPDEST PUSH0 PUSH1 0x20 DUP3 ADD SWAP1 POP PUSH2 0x9D2 PUSH0 DUP4 ADD DUP5 PUSH2 0x9B0 JUMP JUMPDEST SWAP3 SWAP2 POP POP JUMP JUMPDEST PUSH0 PUSH20 0xFFFFFFFFFFFFFFFFFFFFFFFFFFFFFFFFFFFFFFFF DUP3 AND SWAP1 POP SWAP2 SWAP1 POP JUMP JUMPDEST PUSH0 PUSH2 0xA01 DUP3 PUSH2 0x9D8 JUMP JUMPDEST SWAP1 POP SWAP2 SWAP1 POP JUMP JUMPDEST PUSH2 0xA11 DUP2 PUSH2 0x9F7 JUMP JUMPDEST DUP3 MSTORE POP POP JUMP JUMPDEST PUSH0 PUSH1 0x20 DUP3 ADD SWAP1 POP PUSH2 0xA2A PUSH0 DUP4 ADD DUP5 PUSH2 0xA08 JUMP JUMPDEST SWAP3 SWAP2 POP POP JUMP JUMPDEST PUSH0 DUP2 SWAP1 POP SWAP2 SWAP1 POP JUMP JUMPDEST PUSH2 0xA42 DUP2 PUSH2 0xA30 JUMP JUMPDEST DUP3 MSTORE POP POP JUMP JUMPDEST PUSH0 PUSH1 0x20 DUP3 ADD SWAP1 POP PUSH2 0xA5B PUSH0 DUP4 ADD DUP5 PUSH2 0xA39 JUMP JUMPDEST SWAP3 SWAP2 POP POP JUMP JUMPDEST PUSH0 DUP2 MLOAD SWAP1 POP SWAP2 SWAP1 POP JUMP JUMPDEST PUSH0 DUP3 DUP3 MSTORE PUSH1 0x20 DUP3 ADD SWAP1 POP SWAP3 SWAP2 POP POP JUMP JUMPDEST DUP3 DUP2 DUP4 MCOPY PUSH0 DUP4 DUP4 ADD MSTORE POP POP POP JUMP JUMPDEST PUSH0 PUSH1 0x1F NOT PUSH1 0x1F DUP4 ADD AND SWAP1 POP SWAP2 SWAP1 POP JUMP JUMPDEST PUSH0 PUSH2 0xAA3 DUP3 PUSH2 0xA61 JUMP JUMPDEST PUSH2 0xAAD DUP2 DUP6 PUSH2 0xA6B JUMP JUMPDEST SWAP4 POP PUSH2 0xABD DUP2 DUP6 PUSH1 0x20 DUP7 ADD PUSH2 0xA7B JUMP JUMPDEST PUSH2 0xAC6 DUP2 PUSH2 0xA89 JUMP JUMPDEST DUP5 ADD SWAP2 POP POP SWAP3 SWAP2 POP POP JUMP JUMPDEST PUSH0 PUSH1 0x20 DUP3 ADD SWAP1 POP DUP2 DUP2 SUB PUSH0 DUP4 ADD MSTORE PUSH2 0xAE9 DUP2 DUP5 PUSH2 0xA99 JUMP JUMPDEST SWAP1 POP SWAP3 SWAP2 POP POP JUMP JUMPDEST PUSH32 0x4F6E6C792073656C6C65722063616E2063616C6C20746869732066756E637469 PUSH0 DUP3 ADD MSTORE PUSH32 0x6F6E000000000000000000000000000000000000000000000000000000000000 PUSH1 0x20 DUP3 ADD MSTORE POP JUMP JUMPDEST PUSH0 PUSH2 0xB4B PUSH1 0x22 DUP4 PUSH2 0xA6B JUMP JUMPDEST SWAP2 POP PUSH2 0xB56 DUP3 PUSH2 0xAF1 JUMP JUMPDEST PUSH1 0x40 DUP3 ADD SWAP1 POP SWAP2 SWAP1 POP JUMP JUMPDEST PUSH0 PUSH1 0x20 DUP3 ADD SWAP1 POP DUP2 DUP2 SUB PUSH0 DUP4 ADD MSTORE PUSH2 0xB78 DUP2 PUSH2 0xB3F JUMP JUMPDEST SWAP1 POP SWAP2 SWAP1 POP JUMP JUMPDEST PUSH32 0x53656C6C65722068617320616C72656164792061636365707465642074686520 PUSH0 DUP3 ADD MSTORE PUSH32 0x7472616465000000000000000000000000000000000000000000000000000000 PUSH1 0x20 DUP3 ADD MSTORE POP JUMP JUMPDEST PUSH0 PUSH2 0xBD9 PUSH1 0x25 DUP4 PUSH2 0xA6B JUMP JUMPDEST SWAP2 POP PUSH2 0xBE4 DUP3 PUSH2 0xB7F JUMP JUMPDEST PUSH1 0x40 DUP3 ADD SWAP1 POP SWAP2 SWAP1 POP JUMP JUMPDEST PUSH0 PUSH1 0x20 DUP3 ADD SWAP1 POP DUP2 DUP2 SUB PUSH0 DUP4 ADD MSTORE PUSH2 0xC06 DUP2 PUSH2 0xBCD JUMP JUMPDEST SWAP1 POP SWAP2 SWAP1 POP JUMP JUMPDEST PUSH32 0x4465706F736974206E6F74206D61646500000000000000000000000000000000 PUSH0 DUP3 ADD MSTORE POP JUMP JUMPDEST PUSH0 PUSH2 0xC41 PUSH1 0x10 DUP4 PUSH2 0xA6B JUMP JUMPDEST SWAP2 POP PUSH2 0xC4C DUP3 PUSH2 0xC0D JUMP JUMPDEST PUSH1 0x20 DUP3 ADD SWAP1 POP SWAP2 SWAP1 POP JUMP JUMPDEST PUSH0 PUSH1 0x20 DUP3 ADD SWAP1 POP DUP2 DUP2 SUB PUSH0 DUP4 ADD MSTORE PUSH2 0xC6E DUP2 PUSH2 0xC35 JUMP JUMPDEST SWAP1 POP SWAP2 SWAP1 POP JUMP JUMPDEST PUSH32 0x4F6E6C792062757965722063616E2063616C6C20746869732066756E6374696F PUSH0 DUP3 ADD MSTORE PUSH32 0x6E00000000000000000000000000000000000000000000000000000000000000 PUSH1 0x20 DUP3 ADD MSTORE POP JUMP JUMPDEST PUSH0 PUSH2 0xCCF PUSH1 0x21 DUP4 PUSH2 0xA6B JUMP JUMPDEST SWAP2 POP PUSH2 0xCDA DUP3 PUSH2 0xC75 JUMP JUMPDEST PUSH1 0x40 DUP3 ADD SWAP1 POP SWAP2 SWAP1 POP JUMP JUMPDEST PUSH0 PUSH1 0x20 DUP3 ADD SWAP1 POP DUP2 DUP2 SUB PUSH0 DUP4 ADD MSTORE PUSH2 0xCFC DUP2 PUSH2 0xCC3 JUMP JUMPDEST SWAP1 POP SWAP2 SWAP1 POP JUMP JUMPDEST PUSH32 0x42757965722068617320616C7265616479206163636570746564207468652074 PUSH0 DUP3 ADD MSTORE PUSH32 0x7261646500000000000000000000000000000000000000000000000000000000 PUSH1 0x20 DUP3 ADD MSTORE POP JUMP JUMPDEST PUSH0 PUSH2 0xD5D PUSH1 0x24 DUP4 PUSH2 0xA6B JUMP JUMPDEST SWAP2 POP PUSH2 0xD68 DUP3 PUSH2 0xD03 JUMP JUMPDEST PUSH1 0x40 DUP3 ADD SWAP1 POP SWAP2 SWAP1 POP JUMP JUMPDEST PUSH0 PUSH1 0x20 DUP3 ADD SWAP1 POP DUP2 DUP2 SUB PUSH0 DUP4 ADD MSTORE PUSH2 0xD8A DUP2 PUSH2 0xD51 JUMP JUMPDEST SWAP1 POP SWAP2 SWAP1 POP JUMP JUMPDEST PUSH32 0x4275796572206861736E277420616C7265616479206163636570746564207468 PUSH0 DUP3 ADD MSTORE PUSH32 0x6520747261646500000000000000000000000000000000000000000000000000 PUSH1 0x20 DUP3 ADD MSTORE POP JUMP JUMPDEST PUSH0 PUSH2 0xDEB PUSH1 0x27 DUP4 PUSH2 0xA6B JUMP JUMPDEST SWAP2 POP PUSH2 0xDF6 DUP3 PUSH2 0xD91 JUMP JUMPDEST PUSH1 0x40 DUP3 ADD SWAP1 POP SWAP2 SWAP1 POP JUMP JUMPDEST PUSH0 PUSH1 0x20 DUP3 ADD SWAP1 POP DUP2 DUP2 SUB PUSH0 DUP4 ADD MSTORE PUSH2 0xE18 DUP2 PUSH2 0xDDF JUMP JUMPDEST SWAP1 POP SWAP2 SWAP1 POP JUMP JUMPDEST PUSH32 0x4465706F73697420616C7265616479206D616465000000000000000000000000 PUSH0 DUP3 ADD MSTORE POP JUMP JUMPDEST PUSH0 PUSH2 0xE53 PUSH1 0x14 DUP4 PUSH2 0xA6B JUMP JUMPDEST SWAP2 POP PUSH2 0xE5E DUP3 PUSH2 0xE1F JUMP JUMPDEST PUSH1 0x20 DUP3 ADD SWAP1 POP SWAP2 SWAP1 POP JUMP JUMPDEST PUSH0 PUSH1 0x20 DUP3 ADD SWAP1 POP DUP2 DUP2 SUB PUSH0 DUP4 ADD MSTORE PUSH2 0xE80 DUP2 PUSH2 0xE47 JUMP JUMPDEST SWAP1 POP SWAP2 SWAP1 POP JUMP JUMPDEST PUSH32 0x496E636F727265637420416D6F756E7400000000000000000000000000000000 PUSH0 DUP3 ADD MSTORE POP JUMP JUMPDEST PUSH0 PUSH2 0xEBB PUSH1 0x10 DUP4 PUSH2 0xA6B JUMP JUMPDEST SWAP2 POP PUSH2 0xEC6 DUP3 PUSH2 0xE87 JUMP JUMPDEST PUSH1 0x20 DUP3 ADD SWAP1 POP SWAP2 SWAP1 POP JUMP JUMPDEST PUSH0 PUSH1 0x20 DUP3 ADD SWAP1 POP DUP2 DUP2 SUB PUSH0 DUP4 ADD MSTORE PUSH2 0xEE8 DUP2 PUSH2 0xEAF JUMP JUMPDEST SWAP1 POP SWAP2 SWAP1 POP JUMP JUMPDEST PUSH32 0x4E487B7100000000000000000000000000000000000000000000000000000000 PUSH0 MSTORE PUSH1 0x22 PUSH1 0x4 MSTORE PUSH1 0x24 PUSH0 REVERT JUMPDEST PUSH0 PUSH1 0x2 DUP3 DIV SWAP1 POP PUSH1 0x1 DUP3 AND DUP1 PUSH2 0xF33 JUMPI PUSH1 0x7F DUP3 AND SWAP2 POP JUMPDEST PUSH1 0x20 DUP3 LT DUP2 SUB PUSH2 0xF46 JUMPI PUSH2 0xF45 PUSH2 0xEEF JUMP JUMPDEST JUMPDEST POP SWAP2 SWAP1 POP JUMP JUMPDEST PUSH32 0x547261646520416C726561647920436F6D70656C657465640000000000000000 PUSH0 DUP3 ADD MSTORE POP JUMP JUMPDEST PUSH0 PUSH2 0xF80 PUSH1 0x18 DUP4 PUSH2 0xA6B JUMP JUMPDEST SWAP2 POP PUSH2 0xF8B DUP3 PUSH2 0xF4C JUMP JUMPDEST PUSH1 0x20 DUP3 ADD SWAP1 POP SWAP2 SWAP1 POP JUMP JUMPDEST PUSH0 PUSH1 0x20 DUP3 ADD SWAP1 POP DUP2 DUP2 SUB PUSH0 DUP4 ADD MSTORE PUSH2 0xFAD DUP2 PUSH2 0xF74 JUMP JUMPDEST SWAP1 POP SWAP2 SWAP1 POP JUMP INVALID LOG2 PUSH5 0x6970667358 0x22 SLT KECCAK256 0x24 0xAB SWAP3 0x22 SWAP13 BASEFEE GASLIMIT 0x26 PUSH6 0xA3B2678786FD 0xB5 REVERT 0xCF SSTORE 0x2A DUP8 AND 0xE2 0xA8 0xE 0xF9 PUSH6 0x95A4ACFEFD64 PUSH20 0x6F6C634300081A00330000000000000000000000 "
				},
				"gasEstimates": {
					"creation": {
						"codeDepositCost": "814800",
						"executionCost": "infinite",
						"totalCost": "infinite"
					},
					"external": {
						"acceptTradeAsBuyer()": "infinite",
						"acceptTradeAsSeller()": "infinite",
						"buyerAccepted()": "2511",
						"buyerAddress()": "2597",
						"deposit()": "33191",
						"depositMade()": "2540",
						"item()": "infinite",
						"price()": "2469",
						"sellerAccepted()": "2539",
						"sellerAddress()": "2572",
						"tradeCompeleted()": "2583"
					},
					"internal": {
						"completeTrade()": "infinite"
					}
				},
				"methodIdentifiers": {
					"acceptTradeAsBuyer()": "532ca457",
					"acceptTradeAsSeller()": "039e3e05",
					"buyerAccepted()": "2312fff7",
					"buyerAddress()": "44834aca",
					"deposit()": "d0e30db0",
					"depositMade()": "1be427cc",
					"item()": "f2a4a82e",
					"price()": "a035b1fe",
					"sellerAccepted()": "61b60f6b",
					"sellerAddress()": "3d9b2ae6",
					"tradeCompeleted()": "a795c2ce"
				}
			},
			"storageLayout": {
				"storage": [
					{
						"astId": 3,
						"contract": "contracts/1.TradeAgreement.sol:TradeAgreement",
						"label": "sellerAddress",
						"offset": 0,
						"slot": "0",
						"type": "t_address"
					},
					{
						"astId": 5,
						"contract": "contracts/1.TradeAgreement.sol:TradeAgreement",
						"label": "buyerAddress",
						"offset": 0,
						"slot": "1",
						"type": "t_address"
					},
					{
						"astId": 7,
						"contract": "contracts/1.TradeAgreement.sol:TradeAgreement",
						"label": "item",
						"offset": 0,
						"slot": "2",
						"type": "t_string_storage"
					},
					{
						"astId": 9,
						"contract": "contracts/1.TradeAgreement.sol:TradeAgreement",
						"label": "price",
						"offset": 0,
						"slot": "3",
						"type": "t_uint256"
					},
					{
						"astId": 11,
						"contract": "contracts/1.TradeAgreement.sol:TradeAgreement",
						"label": "buyerAccepted",
						"offset": 0,
						"slot": "4",
						"type": "t_bool"
					},
					{
						"astId": 13,
						"contract": "contracts/1.TradeAgreement.sol:TradeAgreement",
						"label": "sellerAccepted",
						"offset": 1,
						"slot": "4",
						"type": "t_bool"
					},
					{
						"astId": 15,
						"contract": "contracts/1.TradeAgreement.sol:TradeAgreement",
						"label": "tradeCompeleted",
						"offset": 2,
						"slot": "4",
						"type": "t_bool"
					},
					{
						"astId": 17,
						"contract": "contracts/1.TradeAgreement.sol:TradeAgreement",
						"label": "depositMade",
						"offset": 3,
						"slot": "4",
						"type": "t_bool"
					}
				],
				"types": {
					"t_address": {
						"encoding": "inplace",
						"label": "address",
						"numberOfBytes": "20"
					},
					"t_bool": {
						"encoding": "inplace",
						"label": "bool",
						"numberOfBytes": "1"
					},
					"t_string_storage": {
						"encoding": "bytes",
						"label": "string",
						"numberOfBytes": "32"
					},
					"t_uint256": {
						"encoding": "inplace",
						"label": "uint256",
						"numberOfBytes": "32"
					}
				}
			},
			"userdoc": {
				"kind": "user",
				"methods": {},
				"version": 1
			}
		}
	}
}